{"contracts/QualityCertification.sol":{"QualityCertification":{"abi":[{"inputs":[],"stateMutability":"nonpayable","type":"constructor"},{"anonymous":false,"inputs":[{"indexed":true,"internalType":"address","name":"certifier","type":"address"},{"indexed":false,"internalType":"uint256","name":"timestamp","type":"uint256"}],"name":"CertifierAuthorized","type":"event"},{"anonymous":false,"inputs":[{"indexed":true,"internalType":"address","name":"certifier","type":"address"},{"indexed":false,"internalType":"uint256","name":"timestamp","type":"uint256"}],"name":"CertifierRevoked","type":"event"},{"anonymous":false,"inputs":[{"indexed":true,"internalType":"string","name":"batchId","type":"string"},{"indexed":true,"internalType":"address","name":"certifier","type":"address"},{"indexed":false,"internalType":"string","name":"certificateHash","type":"string"},{"indexed":false,"internalType":"string","name":"qualityGrade","type":"string"},{"indexed":false,"internalType":"uint256","name":"timestamp","type":"uint256"}],"name":"QualityCertified","type":"event"},{"inputs":[{"internalType":"address","name":"_certifier","type":"address"}],"name":"authorizeCertifier","outputs":[],"stateMutability":"nonpayable","type":"function"},{"inputs":[{"internalType":"address","name":"","type":"address"}],"name":"authorizedCertifiers","outputs":[{"internalType":"bool","name":"","type":"bool"}],"stateMutability":"view","type":"function"},{"inputs":[{"internalType":"string","name":"","type":"string"}],"name":"certificates","outputs":[{"internalType":"address","name":"certifier","type":"address"},{"internalType":"string","name":"certificateHash","type":"string"},{"internalType":"string","name":"qualityGrade","type":"string"},{"internalType":"uint256","name":"timestamp","type":"uint256"},{"internalType":"bool","name":"exists","type":"bool"}],"stateMutability":"view","type":"function"},{"inputs":[{"internalType":"string","name":"_batchId","type":"string"},{"internalType":"string","name":"_certificateHash","type":"string"},{"internalType":"string","name":"_qualityGrade","type":"string"}],"name":"certifyQuality","outputs":[],"stateMutability":"nonpayable","type":"function"},{"inputs":[{"internalType":"string","name":"_batchId","type":"string"}],"name":"getCertificate","outputs":[{"components":[{"internalType":"address","name":"certifier","type":"address"},{"internalType":"string","name":"certificateHash","type":"string"},{"internalType":"string","name":"qualityGrade","type":"string"},{"internalType":"uint256","name":"timestamp","type":"uint256"},{"internalType":"bool","name":"exists","type":"bool"}],"internalType":"struct QualityCertification.Certificate","name":"","type":"tuple"}],"stateMutability":"view","type":"function"},{"inputs":[{"internalType":"string","name":"_batchId","type":"string"}],"name":"isCertified","outputs":[{"internalType":"bool","name":"","type":"bool"}],"stateMutability":"view","type":"function"},{"inputs":[],"name":"owner","outputs":[{"internalType":"address","name":"","type":"address"}],"stateMutability":"view","type":"function"},{"inputs":[{"internalType":"address","name":"_certifier","type":"address"}],"name":"revokeCertifier","outputs":[],"stateMutability":"nonpayable","type":"function"}],"evm":{"bytecode":{"linkReferences":{},"object":"60808060405234610040573360018060a01b031960025416176002553360005260016020526040600020600160ff19825416179055610d1190816100468239f35b600080fdfe6080604052600436101561001257600080fd5b60003560e01c8063723f36b714610a765780637e49e70c146105155780638da5cb5b146104ec5780638f2b91ea14610427578063bba7dcc4146103e4578063be72014714610319578063c86de368146102155763ed0f2e751461007457600080fd5b34610210576020806003193601126102105760043567ffffffffffffffff8111610210576100a6903690600401610b05565b600060806040516100b681610ac7565b8281526060858201526060604082015282606082015201526040519060ff60048251938581818601966100ea81838a610b5c565b81016000815203019020015416156101cb57610113918391604051938492839251928391610b5c565b810160008152030190206040519061012a82610ac7565b80546001600160a01b039081168352926101b861014960018401610bb9565b8285019081526101a561015e60028601610bb9565b916040870192835260ff600460038801549760608a0198895201541694608088019515158652604051988998828a525116908801525160a0604088015260c0870190610c5f565b9051858203601f19016060870152610c5f565b9151608084015251151560a08301520390f35b60405162461bcd60e51b815260048101849052601a60248201527f436572746966696361746520646f6573206e6f742065786973740000000000006044820152606490fd5b600080fd5b3461021057602080600319360112610210576004356001600160a01b038181169291839003610210576002541661024d813314610c84565b826000526001825260ff60406000205416156102e35782146102a9577f345161068331a24bf39f98a734565b3203c3c33f1b8bdb35e8b2d4d5ad84aea1908260005260018152604060002060ff198154169055604051428152a2005b6064906040519062461bcd60e51b82526004820152601360248201527221b0b73737ba103932bb37b5b29037bbb732b960691b6044820152fd5b60405162461bcd60e51b815260048101839052600e60248201526d139bdd08185d5d1a1bdc9a5e995960921b6044820152606490fd5b34610210576020366003190112610210576004356001600160a01b03818116918290036102105761034f90600254163314610c84565b80600052600160205260ff604060002054166103aa578060005260016020526040600020600160ff198254161790557f0cbb6267ec61364879139915e76cdd4168ab53916b6886add7ad86644f3df2a36020604051428152a2005b60405162461bcd60e51b8152602060048201526012602482015271105b1c9958591e48185d5d1a1bdc9a5e995960721b6044820152606490fd5b34610210576020366003190112610210576004356001600160a01b03811690819003610210576000526001602052602060ff604060002054166040519015158152f35b346102105760203660031901126102105760043567ffffffffffffffff811161021057602061045d610470923690600401610b05565b8160405193828580945193849201610b5c565b60009082019081520301902080546001600160a01b031661049360018301610bb9565b916104a060028201610bb9565b6104db60ff6004600385015494015416916104cd604051968796875260a0602088015260a0870190610c5f565b908582036040870152610c5f565b916060840152151560808301520390f35b34610210576000366003190112610210576002546040516001600160a01b039091168152602090f35b346102105760603660031901126102105760043567ffffffffffffffff811161021057610546903690600401610b05565b60243567ffffffffffffffff811161021057610566903690600401610b05565b9060443567ffffffffffffffff811161021057610587903690600401610b05565b9033600052600160205260ff6040600020541615610a315760ff600460405160208185516105b88183858a01610b5c565b810160008152030190200154166109ec578051156109a757825115610963576040516105e381610ac7565b338152602081018481528360408301524260608301526001608083015260405160208185516106158183858a01610b5c565b600090820190815203019020825181546001600160a01b0319166001600160a01b0391909116178155905180519067ffffffffffffffff821161087d5781906106616001850154610b7f565b601f8111610910575b50602090601f831160011461089e57600092610893575b50508160011b916000199060031b1c19161760018201555b604082015180519067ffffffffffffffff821161087d576106bd6002840154610b7f565b601f8111610836575b50602090601f831160011461079a57600461075794847fcc18c65de75c7fdcdd3b8bd9d81745dd2ee0056cb2a558131d15a49b1a9e26ec9895610780989560809560009261078f575b50508160011b916000199060031b1c19161760028201555b6060840151600382015501910151151560ff80198354169116179055602060405192828480945193849201610b5c565b81010390209261077260405195606087526060870190610c5f565b908582036020870152610c5f565b924260408201528033940390a3005b015190508c8061070f565b90601f198316916002850160005260206000209260005b81811061081e57509460018561078098956080956004957fcc18c65de75c7fdcdd3b8bd9d81745dd2ee0056cb2a558131d15a49b1a9e26ec9c996107579b10610805575b505050811b016002820155610727565b015160001960f88460031b161c191690558c80806107f5565b929360206001819287860151815501950193016107b1565b600284016000526020600020601f840160051c810160208510610876575b601f830160051c8201811061086a5750506106c6565b60008155600101610854565b5080610854565b634e487b7160e01b600052604160045260246000fd5b015190508780610681565b9250600184016000526020600020906000935b601f19841685106108f5576001945083601f198116106108dc575b505050811b016001820155610699565b015160001960f88460031b161c191690558780806108cc565b818101518355602094850194600190930192909101906108b1565b909150600184016000526020600020601f840160051c81016020851061095c575b90849392915b601f830160051c8201811061094d57505061066a565b60008155859450600101610937565b5080610931565b606460405162461bcd60e51b815260206004820152602060248201527f436572746966696361746520686173682063616e6e6f7420626520656d7074796044820152fd5b60405162461bcd60e51b815260206004820152601860248201527f42617463682049442063616e6e6f7420626520656d70747900000000000000006044820152606490fd5b60405162461bcd60e51b815260206004820152601760248201527f426174636820616c7265616479206365727469666965640000000000000000006044820152606490fd5b60405162461bcd60e51b815260206004820152601b60248201527f4e6f7420616e20617574686f72697a65642063657274696669657200000000006044820152606490fd5b346102105760203660031901126102105760043567ffffffffffffffff81116102105760ff6004610ab0602061045d819536908501610b05565b810160008152030190200154166040519015158152f35b60a0810190811067ffffffffffffffff82111761087d57604052565b90601f8019910116810190811067ffffffffffffffff82111761087d57604052565b81601f820112156102105780359067ffffffffffffffff821161087d5760405192610b3a601f8401601f191660200185610ae3565b8284526020838301011161021057816000926020809301838601378301015290565b60005b838110610b6f5750506000910152565b8181015183820152602001610b5f565b90600182811c92168015610baf575b6020831014610b9957565b634e487b7160e01b600052602260045260246000fd5b91607f1691610b8e565b9060405191826000825492610bcd84610b7f565b908184526001948581169081600014610c3c5750600114610bf9575b5050610bf792500383610ae3565b565b9093915060005260209081600020936000915b818310610c24575050610bf793508201013880610be9565b85548884018501529485019487945091830191610c0c565b915050610bf794506020925060ff191682840152151560051b8201013880610be9565b90602091610c7881518092818552858086019101610b5c565b601f01601f1916010190565b15610c8b57565b60405162461bcd60e51b815260206004820152602260248201527f4f6e6c79206f776e65722063616e20706572666f726d2074686973206163746960448201526137b760f11b6064820152608490fdfea264697066735822122089fc80cf95e93b88df2859b21b7b5dae495906cbbd6ad38ed78310fdefe9789564736f6c63430008140033","opcodes":"PUSH1 0x80 DUP1 PUSH1 0x40 MSTORE CALLVALUE PUSH2 0x40 JUMPI CALLER PUSH1 0x1 DUP1 PUSH1 0xA0 SHL SUB NOT PUSH1 0x2 SLOAD AND OR PUSH1 0x2 SSTORE CALLER PUSH1 0x0 MSTORE PUSH1 0x1 PUSH1 0x20 MSTORE PUSH1 0x40 PUSH1 0x0 KECCAK256 PUSH1 0x1 PUSH1 0xFF NOT DUP3 SLOAD AND OR SWAP1 SSTORE PUSH2 0xD11 SWAP1 DUP2 PUSH2 0x46 DUP3 CODECOPY RETURN JUMPDEST PUSH1 0x0 DUP1 REVERT INVALID PUSH1 0x80 PUSH1 0x40 MSTORE PUSH1 0x4 CALLDATASIZE LT ISZERO PUSH2 0x12 JUMPI PUSH1 0x0 DUP1 REVERT JUMPDEST PUSH1 0x0 CALLDATALOAD PUSH1 0xE0 SHR DUP1 PUSH4 0x723F36B7 EQ PUSH2 0xA76 JUMPI DUP1 PUSH4 0x7E49E70C EQ PUSH2 0x515 JUMPI DUP1 PUSH4 0x8DA5CB5B EQ PUSH2 0x4EC JUMPI DUP1 PUSH4 0x8F2B91EA EQ PUSH2 0x427 JUMPI DUP1 PUSH4 0xBBA7DCC4 EQ PUSH2 0x3E4 JUMPI DUP1 PUSH4 0xBE720147 EQ PUSH2 0x319 JUMPI DUP1 PUSH4 0xC86DE368 EQ PUSH2 0x215 JUMPI PUSH4 0xED0F2E75 EQ PUSH2 0x74 JUMPI PUSH1 0x0 DUP1 REVERT JUMPDEST CALLVALUE PUSH2 0x210 JUMPI PUSH1 0x20 DUP1 PUSH1 0x3 NOT CALLDATASIZE ADD SLT PUSH2 0x210 JUMPI PUSH1 0x4 CALLDATALOAD PUSH8 0xFFFFFFFFFFFFFFFF DUP2 GT PUSH2 0x210 JUMPI PUSH2 0xA6 SWAP1 CALLDATASIZE SWAP1 PUSH1 0x4 ADD PUSH2 0xB05 JUMP JUMPDEST PUSH1 0x0 PUSH1 0x80 PUSH1 0x40 MLOAD PUSH2 0xB6 DUP2 PUSH2 0xAC7 JUMP JUMPDEST DUP3 DUP2 MSTORE PUSH1 0x60 DUP6 DUP3 ADD MSTORE PUSH1 0x60 PUSH1 0x40 DUP3 ADD MSTORE DUP3 PUSH1 0x60 DUP3 ADD MSTORE ADD MSTORE PUSH1 0x40 MLOAD SWAP1 PUSH1 0xFF PUSH1 0x4 DUP3 MLOAD SWAP4 DUP6 DUP2 DUP2 DUP7 ADD SWAP7 PUSH2 0xEA DUP2 DUP4 DUP11 PUSH2 0xB5C JUMP JUMPDEST DUP2 ADD PUSH1 0x0 DUP2 MSTORE SUB ADD SWAP1 KECCAK256 ADD SLOAD AND ISZERO PUSH2 0x1CB JUMPI PUSH2 0x113 SWAP2 DUP4 SWAP2 PUSH1 0x40 MLOAD SWAP4 DUP5 SWAP3 DUP4 SWAP3 MLOAD SWAP3 DUP4 SWAP2 PUSH2 0xB5C JUMP JUMPDEST DUP2 ADD PUSH1 0x0 DUP2 MSTORE SUB ADD SWAP1 KECCAK256 PUSH1 0x40 MLOAD SWAP1 PUSH2 0x12A DUP3 PUSH2 0xAC7 JUMP JUMPDEST DUP1 SLOAD PUSH1 0x1 PUSH1 0x1 PUSH1 0xA0 SHL SUB SWAP1 DUP2 AND DUP4 MSTORE SWAP3 PUSH2 0x1B8 PUSH2 0x149 PUSH1 0x1 DUP5 ADD PUSH2 0xBB9 JUMP JUMPDEST DUP3 DUP6 ADD SWAP1 DUP2 MSTORE PUSH2 0x1A5 PUSH2 0x15E PUSH1 0x2 DUP7 ADD PUSH2 0xBB9 JUMP JUMPDEST SWAP2 PUSH1 0x40 DUP8 ADD SWAP3 DUP4 MSTORE PUSH1 0xFF PUSH1 0x4 PUSH1 0x3 DUP9 ADD SLOAD SWAP8 PUSH1 0x60 DUP11 ADD SWAP9 DUP10 MSTORE ADD SLOAD AND SWAP5 PUSH1 0x80 DUP9 ADD SWAP6 ISZERO ISZERO DUP7 MSTORE PUSH1 0x40 MLOAD SWAP9 DUP10 SWAP9 DUP3 DUP11 MSTORE MLOAD AND SWAP1 DUP9 ADD MSTORE MLOAD PUSH1 0xA0 PUSH1 0x40 DUP9 ADD MSTORE PUSH1 0xC0 DUP8 ADD SWAP1 PUSH2 0xC5F JUMP JUMPDEST SWAP1 MLOAD DUP6 DUP3 SUB PUSH1 0x1F NOT ADD PUSH1 0x60 DUP8 ADD MSTORE PUSH2 0xC5F JUMP JUMPDEST SWAP2 MLOAD PUSH1 0x80 DUP5 ADD MSTORE MLOAD ISZERO ISZERO PUSH1 0xA0 DUP4 ADD MSTORE SUB SWAP1 RETURN JUMPDEST PUSH1 0x40 MLOAD PUSH3 0x461BCD PUSH1 0xE5 SHL DUP2 MSTORE PUSH1 0x4 DUP2 ADD DUP5 SWAP1 MSTORE PUSH1 0x1A PUSH1 0x24 DUP3 ADD MSTORE PUSH32 0x436572746966696361746520646F6573206E6F74206578697374000000000000 PUSH1 0x44 DUP3 ADD MSTORE PUSH1 0x64 SWAP1 REVERT JUMPDEST PUSH1 0x0 DUP1 REVERT JUMPDEST CALLVALUE PUSH2 0x210 JUMPI PUSH1 0x20 DUP1 PUSH1 0x3 NOT CALLDATASIZE ADD SLT PUSH2 0x210 JUMPI PUSH1 0x4 CALLDATALOAD PUSH1 0x1 PUSH1 0x1 PUSH1 0xA0 SHL SUB DUP2 DUP2 AND SWAP3 SWAP2 DUP4 SWAP1 SUB PUSH2 0x210 JUMPI PUSH1 0x2 SLOAD AND PUSH2 0x24D DUP2 CALLER EQ PUSH2 0xC84 JUMP JUMPDEST DUP3 PUSH1 0x0 MSTORE PUSH1 0x1 DUP3 MSTORE PUSH1 0xFF PUSH1 0x40 PUSH1 0x0 KECCAK256 SLOAD AND ISZERO PUSH2 0x2E3 JUMPI DUP3 EQ PUSH2 0x2A9 JUMPI PUSH32 0x345161068331A24BF39F98A734565B3203C3C33F1B8BDB35E8B2D4D5AD84AEA1 SWAP1 DUP3 PUSH1 0x0 MSTORE PUSH1 0x1 DUP2 MSTORE PUSH1 0x40 PUSH1 0x0 KECCAK256 PUSH1 0xFF NOT DUP2 SLOAD AND SWAP1 SSTORE PUSH1 0x40 MLOAD TIMESTAMP DUP2 MSTORE LOG2 STOP JUMPDEST PUSH1 0x64 SWAP1 PUSH1 0x40 MLOAD SWAP1 PUSH3 0x461BCD PUSH1 0xE5 SHL DUP3 MSTORE PUSH1 0x4 DUP3 ADD MSTORE PUSH1 0x13 PUSH1 0x24 DUP3 ADD MSTORE PUSH19 0x21B0B73737BA103932BB37B5B29037BBB732B9 PUSH1 0x69 SHL PUSH1 0x44 DUP3 ADD MSTORE REVERT JUMPDEST PUSH1 0x40 MLOAD PUSH3 0x461BCD PUSH1 0xE5 SHL DUP2 MSTORE PUSH1 0x4 DUP2 ADD DUP4 SWAP1 MSTORE PUSH1 0xE PUSH1 0x24 DUP3 ADD MSTORE PUSH14 0x139BDD08185D5D1A1BDC9A5E9959 PUSH1 0x92 SHL PUSH1 0x44 DUP3 ADD MSTORE PUSH1 0x64 SWAP1 REVERT JUMPDEST CALLVALUE PUSH2 0x210 JUMPI PUSH1 0x20 CALLDATASIZE PUSH1 0x3 NOT ADD SLT PUSH2 0x210 JUMPI PUSH1 0x4 CALLDATALOAD PUSH1 0x1 PUSH1 0x1 PUSH1 0xA0 SHL SUB DUP2 DUP2 AND SWAP2 DUP3 SWAP1 SUB PUSH2 0x210 JUMPI PUSH2 0x34F SWAP1 PUSH1 0x2 SLOAD AND CALLER EQ PUSH2 0xC84 JUMP JUMPDEST DUP1 PUSH1 0x0 MSTORE PUSH1 0x1 PUSH1 0x20 MSTORE PUSH1 0xFF PUSH1 0x40 PUSH1 0x0 KECCAK256 SLOAD AND PUSH2 0x3AA JUMPI DUP1 PUSH1 0x0 MSTORE PUSH1 0x1 PUSH1 0x20 MSTORE PUSH1 0x40 PUSH1 0x0 KECCAK256 PUSH1 0x1 PUSH1 0xFF NOT DUP3 SLOAD AND OR SWAP1 SSTORE PUSH32 0xCBB6267EC61364879139915E76CDD4168AB53916B6886ADD7AD86644F3DF2A3 PUSH1 0x20 PUSH1 0x40 MLOAD TIMESTAMP DUP2 MSTORE LOG2 STOP JUMPDEST PUSH1 0x40 MLOAD PUSH3 0x461BCD PUSH1 0xE5 SHL DUP2 MSTORE PUSH1 0x20 PUSH1 0x4 DUP3 ADD MSTORE PUSH1 0x12 PUSH1 0x24 DUP3 ADD MSTORE PUSH18 0x105B1C9958591E48185D5D1A1BDC9A5E9959 PUSH1 0x72 SHL PUSH1 0x44 DUP3 ADD MSTORE PUSH1 0x64 SWAP1 REVERT JUMPDEST CALLVALUE PUSH2 0x210 JUMPI PUSH1 0x20 CALLDATASIZE PUSH1 0x3 NOT ADD SLT PUSH2 0x210 JUMPI PUSH1 0x4 CALLDATALOAD PUSH1 0x1 PUSH1 0x1 PUSH1 0xA0 SHL SUB DUP2 AND SWAP1 DUP2 SWAP1 SUB PUSH2 0x210 JUMPI PUSH1 0x0 MSTORE PUSH1 0x1 PUSH1 0x20 MSTORE PUSH1 0x20 PUSH1 0xFF PUSH1 0x40 PUSH1 0x0 KECCAK256 SLOAD AND PUSH1 0x40 MLOAD SWAP1 ISZERO ISZERO DUP2 MSTORE RETURN JUMPDEST CALLVALUE PUSH2 0x210 JUMPI PUSH1 0x20 CALLDATASIZE PUSH1 0x3 NOT ADD SLT PUSH2 0x210 JUMPI PUSH1 0x4 CALLDATALOAD PUSH8 0xFFFFFFFFFFFFFFFF DUP2 GT PUSH2 0x210 JUMPI PUSH1 0x20 PUSH2 0x45D PUSH2 0x470 SWAP3 CALLDATASIZE SWAP1 PUSH1 0x4 ADD PUSH2 0xB05 JUMP JUMPDEST DUP2 PUSH1 0x40 MLOAD SWAP4 DUP3 DUP6 DUP1 SWAP5 MLOAD SWAP4 DUP5 SWAP3 ADD PUSH2 0xB5C JUMP JUMPDEST PUSH1 0x0 SWAP1 DUP3 ADD SWAP1 DUP2 MSTORE SUB ADD SWAP1 KECCAK256 DUP1 SLOAD PUSH1 0x1 PUSH1 0x1 PUSH1 0xA0 SHL SUB AND PUSH2 0x493 PUSH1 0x1 DUP4 ADD PUSH2 0xBB9 JUMP JUMPDEST SWAP2 PUSH2 0x4A0 PUSH1 0x2 DUP3 ADD PUSH2 0xBB9 JUMP JUMPDEST PUSH2 0x4DB PUSH1 0xFF PUSH1 0x4 PUSH1 0x3 DUP6 ADD SLOAD SWAP5 ADD SLOAD AND SWAP2 PUSH2 0x4CD PUSH1 0x40 MLOAD SWAP7 DUP8 SWAP7 DUP8 MSTORE PUSH1 0xA0 PUSH1 0x20 DUP9 ADD MSTORE PUSH1 0xA0 DUP8 ADD SWAP1 PUSH2 0xC5F JUMP JUMPDEST SWAP1 DUP6 DUP3 SUB PUSH1 0x40 DUP8 ADD MSTORE PUSH2 0xC5F JUMP JUMPDEST SWAP2 PUSH1 0x60 DUP5 ADD MSTORE ISZERO ISZERO PUSH1 0x80 DUP4 ADD MSTORE SUB SWAP1 RETURN JUMPDEST CALLVALUE PUSH2 0x210 JUMPI PUSH1 0x0 CALLDATASIZE PUSH1 0x3 NOT ADD SLT PUSH2 0x210 JUMPI PUSH1 0x2 SLOAD PUSH1 0x40 MLOAD PUSH1 0x1 PUSH1 0x1 PUSH1 0xA0 SHL SUB SWAP1 SWAP2 AND DUP2 MSTORE PUSH1 0x20 SWAP1 RETURN JUMPDEST CALLVALUE PUSH2 0x210 JUMPI PUSH1 0x60 CALLDATASIZE PUSH1 0x3 NOT ADD SLT PUSH2 0x210 JUMPI PUSH1 0x4 CALLDATALOAD PUSH8 0xFFFFFFFFFFFFFFFF DUP2 GT PUSH2 0x210 JUMPI PUSH2 0x546 SWAP1 CALLDATASIZE SWAP1 PUSH1 0x4 ADD PUSH2 0xB05 JUMP JUMPDEST PUSH1 0x24 CALLDATALOAD PUSH8 0xFFFFFFFFFFFFFFFF DUP2 GT PUSH2 0x210 JUMPI PUSH2 0x566 SWAP1 CALLDATASIZE SWAP1 PUSH1 0x4 ADD PUSH2 0xB05 JUMP JUMPDEST SWAP1 PUSH1 0x44 CALLDATALOAD PUSH8 0xFFFFFFFFFFFFFFFF DUP2 GT PUSH2 0x210 JUMPI PUSH2 0x587 SWAP1 CALLDATASIZE SWAP1 PUSH1 0x4 ADD PUSH2 0xB05 JUMP JUMPDEST SWAP1 CALLER PUSH1 0x0 MSTORE PUSH1 0x1 PUSH1 0x20 MSTORE PUSH1 0xFF PUSH1 0x40 PUSH1 0x0 KECCAK256 SLOAD AND ISZERO PUSH2 0xA31 JUMPI PUSH1 0xFF PUSH1 0x4 PUSH1 0x40 MLOAD PUSH1 0x20 DUP2 DUP6 MLOAD PUSH2 0x5B8 DUP2 DUP4 DUP6 DUP11 ADD PUSH2 0xB5C JUMP JUMPDEST DUP2 ADD PUSH1 0x0 DUP2 MSTORE SUB ADD SWAP1 KECCAK256 ADD SLOAD AND PUSH2 0x9EC JUMPI DUP1 MLOAD ISZERO PUSH2 0x9A7 JUMPI DUP3 MLOAD ISZERO PUSH2 0x963 JUMPI PUSH1 0x40 MLOAD PUSH2 0x5E3 DUP2 PUSH2 0xAC7 JUMP JUMPDEST CALLER DUP2 MSTORE PUSH1 0x20 DUP2 ADD DUP5 DUP2 MSTORE DUP4 PUSH1 0x40 DUP4 ADD MSTORE TIMESTAMP PUSH1 0x60 DUP4 ADD MSTORE PUSH1 0x1 PUSH1 0x80 DUP4 ADD MSTORE PUSH1 0x40 MLOAD PUSH1 0x20 DUP2 DUP6 MLOAD PUSH2 0x615 DUP2 DUP4 DUP6 DUP11 ADD PUSH2 0xB5C JUMP JUMPDEST PUSH1 0x0 SWAP1 DUP3 ADD SWAP1 DUP2 MSTORE SUB ADD SWAP1 KECCAK256 DUP3 MLOAD DUP2 SLOAD PUSH1 0x1 PUSH1 0x1 PUSH1 0xA0 SHL SUB NOT AND PUSH1 0x1 PUSH1 0x1 PUSH1 0xA0 SHL SUB SWAP2 SWAP1 SWAP2 AND OR DUP2 SSTORE SWAP1 MLOAD DUP1 MLOAD SWAP1 PUSH8 0xFFFFFFFFFFFFFFFF DUP3 GT PUSH2 0x87D JUMPI DUP2 SWAP1 PUSH2 0x661 PUSH1 0x1 DUP6 ADD SLOAD PUSH2 0xB7F JUMP JUMPDEST PUSH1 0x1F DUP2 GT PUSH2 0x910 JUMPI JUMPDEST POP PUSH1 0x20 SWAP1 PUSH1 0x1F DUP4 GT PUSH1 0x1 EQ PUSH2 0x89E JUMPI PUSH1 0x0 SWAP3 PUSH2 0x893 JUMPI JUMPDEST POP POP DUP2 PUSH1 0x1 SHL SWAP2 PUSH1 0x0 NOT SWAP1 PUSH1 0x3 SHL SHR NOT AND OR PUSH1 0x1 DUP3 ADD SSTORE JUMPDEST PUSH1 0x40 DUP3 ADD MLOAD DUP1 MLOAD SWAP1 PUSH8 0xFFFFFFFFFFFFFFFF DUP3 GT PUSH2 0x87D JUMPI PUSH2 0x6BD PUSH1 0x2 DUP5 ADD SLOAD PUSH2 0xB7F JUMP JUMPDEST PUSH1 0x1F DUP2 GT PUSH2 0x836 JUMPI JUMPDEST POP PUSH1 0x20 SWAP1 PUSH1 0x1F DUP4 GT PUSH1 0x1 EQ PUSH2 0x79A JUMPI PUSH1 0x4 PUSH2 0x757 SWAP5 DUP5 PUSH32 0xCC18C65DE75C7FDCDD3B8BD9D81745DD2EE0056CB2A558131D15A49B1A9E26EC SWAP9 SWAP6 PUSH2 0x780 SWAP9 SWAP6 PUSH1 0x80 SWAP6 PUSH1 0x0 SWAP3 PUSH2 0x78F JUMPI JUMPDEST POP POP DUP2 PUSH1 0x1 SHL SWAP2 PUSH1 0x0 NOT SWAP1 PUSH1 0x3 SHL SHR NOT AND OR PUSH1 0x2 DUP3 ADD SSTORE JUMPDEST PUSH1 0x60 DUP5 ADD MLOAD PUSH1 0x3 DUP3 ADD SSTORE ADD SWAP2 ADD MLOAD ISZERO ISZERO PUSH1 0xFF DUP1 NOT DUP4 SLOAD AND SWAP2 AND OR SWAP1 SSTORE PUSH1 0x20 PUSH1 0x40 MLOAD SWAP3 DUP3 DUP5 DUP1 SWAP5 MLOAD SWAP4 DUP5 SWAP3 ADD PUSH2 0xB5C JUMP JUMPDEST DUP2 ADD SUB SWAP1 KECCAK256 SWAP3 PUSH2 0x772 PUSH1 0x40 MLOAD SWAP6 PUSH1 0x60 DUP8 MSTORE PUSH1 0x60 DUP8 ADD SWAP1 PUSH2 0xC5F JUMP JUMPDEST SWAP1 DUP6 DUP3 SUB PUSH1 0x20 DUP8 ADD MSTORE PUSH2 0xC5F JUMP JUMPDEST SWAP3 TIMESTAMP PUSH1 0x40 DUP3 ADD MSTORE DUP1 CALLER SWAP5 SUB SWAP1 LOG3 STOP JUMPDEST ADD MLOAD SWAP1 POP DUP13 DUP1 PUSH2 0x70F JUMP JUMPDEST SWAP1 PUSH1 0x1F NOT DUP4 AND SWAP2 PUSH1 0x2 DUP6 ADD PUSH1 0x0 MSTORE PUSH1 0x20 PUSH1 0x0 KECCAK256 SWAP3 PUSH1 0x0 JUMPDEST DUP2 DUP2 LT PUSH2 0x81E JUMPI POP SWAP5 PUSH1 0x1 DUP6 PUSH2 0x780 SWAP9 SWAP6 PUSH1 0x80 SWAP6 PUSH1 0x4 SWAP6 PUSH32 0xCC18C65DE75C7FDCDD3B8BD9D81745DD2EE0056CB2A558131D15A49B1A9E26EC SWAP13 SWAP10 PUSH2 0x757 SWAP12 LT PUSH2 0x805 JUMPI JUMPDEST POP POP POP DUP2 SHL ADD PUSH1 0x2 DUP3 ADD SSTORE PUSH2 0x727 JUMP JUMPDEST ADD MLOAD PUSH1 0x0 NOT PUSH1 0xF8 DUP5 PUSH1 0x3 SHL AND SHR NOT AND SWAP1 SSTORE DUP13 DUP1 DUP1 PUSH2 0x7F5 JUMP JUMPDEST SWAP3 SWAP4 PUSH1 0x20 PUSH1 0x1 DUP2 SWAP3 DUP8 DUP7 ADD MLOAD DUP2 SSTORE ADD SWAP6 ADD SWAP4 ADD PUSH2 0x7B1 JUMP JUMPDEST PUSH1 0x2 DUP5 ADD PUSH1 0x0 MSTORE PUSH1 0x20 PUSH1 0x0 KECCAK256 PUSH1 0x1F DUP5 ADD PUSH1 0x5 SHR DUP2 ADD PUSH1 0x20 DUP6 LT PUSH2 0x876 JUMPI JUMPDEST PUSH1 0x1F DUP4 ADD PUSH1 0x5 SHR DUP3 ADD DUP2 LT PUSH2 0x86A JUMPI POP POP PUSH2 0x6C6 JUMP JUMPDEST PUSH1 0x0 DUP2 SSTORE PUSH1 0x1 ADD PUSH2 0x854 JUMP JUMPDEST POP DUP1 PUSH2 0x854 JUMP JUMPDEST PUSH4 0x4E487B71 PUSH1 0xE0 SHL PUSH1 0x0 MSTORE PUSH1 0x41 PUSH1 0x4 MSTORE PUSH1 0x24 PUSH1 0x0 REVERT JUMPDEST ADD MLOAD SWAP1 POP DUP8 DUP1 PUSH2 0x681 JUMP JUMPDEST SWAP3 POP PUSH1 0x1 DUP5 ADD PUSH1 0x0 MSTORE PUSH1 0x20 PUSH1 0x0 KECCAK256 SWAP1 PUSH1 0x0 SWAP4 JUMPDEST PUSH1 0x1F NOT DUP5 AND DUP6 LT PUSH2 0x8F5 JUMPI PUSH1 0x1 SWAP5 POP DUP4 PUSH1 0x1F NOT DUP2 AND LT PUSH2 0x8DC JUMPI JUMPDEST POP POP POP DUP2 SHL ADD PUSH1 0x1 DUP3 ADD SSTORE PUSH2 0x699 JUMP JUMPDEST ADD MLOAD PUSH1 0x0 NOT PUSH1 0xF8 DUP5 PUSH1 0x3 SHL AND SHR NOT AND SWAP1 SSTORE DUP8 DUP1 DUP1 PUSH2 0x8CC JUMP JUMPDEST DUP2 DUP2 ADD MLOAD DUP4 SSTORE PUSH1 0x20 SWAP5 DUP6 ADD SWAP5 PUSH1 0x1 SWAP1 SWAP4 ADD SWAP3 SWAP1 SWAP2 ADD SWAP1 PUSH2 0x8B1 JUMP JUMPDEST SWAP1 SWAP2 POP PUSH1 0x1 DUP5 ADD PUSH1 0x0 MSTORE PUSH1 0x20 PUSH1 0x0 KECCAK256 PUSH1 0x1F DUP5 ADD PUSH1 0x5 SHR DUP2 ADD PUSH1 0x20 DUP6 LT PUSH2 0x95C JUMPI JUMPDEST SWAP1 DUP5 SWAP4 SWAP3 SWAP2 JUMPDEST PUSH1 0x1F DUP4 ADD PUSH1 0x5 SHR DUP3 ADD DUP2 LT PUSH2 0x94D JUMPI POP POP PUSH2 0x66A JUMP JUMPDEST PUSH1 0x0 DUP2 SSTORE DUP6 SWAP5 POP PUSH1 0x1 ADD PUSH2 0x937 JUMP JUMPDEST POP DUP1 PUSH2 0x931 JUMP JUMPDEST PUSH1 0x64 PUSH1 0x40 MLOAD PUSH3 0x461BCD PUSH1 0xE5 SHL DUP2 MSTORE PUSH1 0x20 PUSH1 0x4 DUP3 ADD MSTORE PUSH1 0x20 PUSH1 0x24 DUP3 ADD MSTORE PUSH32 0x436572746966696361746520686173682063616E6E6F7420626520656D707479 PUSH1 0x44 DUP3 ADD MSTORE REVERT JUMPDEST PUSH1 0x40 MLOAD PUSH3 0x461BCD PUSH1 0xE5 SHL DUP2 MSTORE PUSH1 0x20 PUSH1 0x4 DUP3 ADD MSTORE PUSH1 0x18 PUSH1 0x24 DUP3 ADD MSTORE PUSH32 0x42617463682049442063616E6E6F7420626520656D7074790000000000000000 PUSH1 0x44 DUP3 ADD MSTORE PUSH1 0x64 SWAP1 REVERT JUMPDEST PUSH1 0x40 MLOAD PUSH3 0x461BCD PUSH1 0xE5 SHL DUP2 MSTORE PUSH1 0x20 PUSH1 0x4 DUP3 ADD MSTORE PUSH1 0x17 PUSH1 0x24 DUP3 ADD MSTORE PUSH32 0x426174636820616C726561647920636572746966696564000000000000000000 PUSH1 0x44 DUP3 ADD MSTORE PUSH1 0x64 SWAP1 REVERT JUMPDEST PUSH1 0x40 MLOAD PUSH3 0x461BCD PUSH1 0xE5 SHL DUP2 MSTORE PUSH1 0x20 PUSH1 0x4 DUP3 ADD MSTORE PUSH1 0x1B PUSH1 0x24 DUP3 ADD MSTORE PUSH32 0x4E6F7420616E20617574686F72697A6564206365727469666965720000000000 PUSH1 0x44 DUP3 ADD MSTORE PUSH1 0x64 SWAP1 REVERT JUMPDEST CALLVALUE PUSH2 0x210 JUMPI PUSH1 0x20 CALLDATASIZE PUSH1 0x3 NOT ADD SLT PUSH2 0x210 JUMPI PUSH1 0x4 CALLDATALOAD PUSH8 0xFFFFFFFFFFFFFFFF DUP2 GT PUSH2 0x210 JUMPI PUSH1 0xFF PUSH1 0x4 PUSH2 0xAB0 PUSH1 0x20 PUSH2 0x45D DUP2 SWAP6 CALLDATASIZE SWAP1 DUP6 ADD PUSH2 0xB05 JUMP JUMPDEST DUP2 ADD PUSH1 0x0 DUP2 MSTORE SUB ADD SWAP1 KECCAK256 ADD SLOAD AND PUSH1 0x40 MLOAD SWAP1 ISZERO ISZERO DUP2 MSTORE RETURN JUMPDEST PUSH1 0xA0 DUP2 ADD SWAP1 DUP2 LT PUSH8 0xFFFFFFFFFFFFFFFF DUP3 GT OR PUSH2 0x87D JUMPI PUSH1 0x40 MSTORE JUMP JUMPDEST SWAP1 PUSH1 0x1F DUP1 NOT SWAP2 ADD AND DUP2 ADD SWAP1 DUP2 LT PUSH8 0xFFFFFFFFFFFFFFFF DUP3 GT OR PUSH2 0x87D JUMPI PUSH1 0x40 MSTORE JUMP JUMPDEST DUP2 PUSH1 0x1F DUP3 ADD SLT ISZERO PUSH2 0x210 JUMPI DUP1 CALLDATALOAD SWAP1 PUSH8 0xFFFFFFFFFFFFFFFF DUP3 GT PUSH2 0x87D JUMPI PUSH1 0x40 MLOAD SWAP3 PUSH2 0xB3A PUSH1 0x1F DUP5 ADD PUSH1 0x1F NOT AND PUSH1 0x20 ADD DUP6 PUSH2 0xAE3 JUMP JUMPDEST DUP3 DUP5 MSTORE PUSH1 0x20 DUP4 DUP4 ADD ADD GT PUSH2 0x210 JUMPI DUP2 PUSH1 0x0 SWAP3 PUSH1 0x20 DUP1 SWAP4 ADD DUP4 DUP7 ADD CALLDATACOPY DUP4 ADD ADD MSTORE SWAP1 JUMP JUMPDEST PUSH1 0x0 JUMPDEST DUP4 DUP2 LT PUSH2 0xB6F JUMPI POP POP PUSH1 0x0 SWAP2 ADD MSTORE JUMP JUMPDEST DUP2 DUP2 ADD MLOAD DUP4 DUP3 ADD MSTORE PUSH1 0x20 ADD PUSH2 0xB5F JUMP JUMPDEST SWAP1 PUSH1 0x1 DUP3 DUP2 SHR SWAP3 AND DUP1 ISZERO PUSH2 0xBAF JUMPI JUMPDEST PUSH1 0x20 DUP4 LT EQ PUSH2 0xB99 JUMPI JUMP JUMPDEST PUSH4 0x4E487B71 PUSH1 0xE0 SHL PUSH1 0x0 MSTORE PUSH1 0x22 PUSH1 0x4 MSTORE PUSH1 0x24 PUSH1 0x0 REVERT JUMPDEST SWAP2 PUSH1 0x7F AND SWAP2 PUSH2 0xB8E JUMP JUMPDEST SWAP1 PUSH1 0x40 MLOAD SWAP2 DUP3 PUSH1 0x0 DUP3 SLOAD SWAP3 PUSH2 0xBCD DUP5 PUSH2 0xB7F JUMP JUMPDEST SWAP1 DUP2 DUP5 MSTORE PUSH1 0x1 SWAP5 DUP6 DUP2 AND SWAP1 DUP2 PUSH1 0x0 EQ PUSH2 0xC3C JUMPI POP PUSH1 0x1 EQ PUSH2 0xBF9 JUMPI JUMPDEST POP POP PUSH2 0xBF7 SWAP3 POP SUB DUP4 PUSH2 0xAE3 JUMP JUMPDEST JUMP JUMPDEST SWAP1 SWAP4 SWAP2 POP PUSH1 0x0 MSTORE PUSH1 0x20 SWAP1 DUP2 PUSH1 0x0 KECCAK256 SWAP4 PUSH1 0x0 SWAP2 JUMPDEST DUP2 DUP4 LT PUSH2 0xC24 JUMPI POP POP PUSH2 0xBF7 SWAP4 POP DUP3 ADD ADD CODESIZE DUP1 PUSH2 0xBE9 JUMP JUMPDEST DUP6 SLOAD DUP9 DUP5 ADD DUP6 ADD MSTORE SWAP5 DUP6 ADD SWAP5 DUP8 SWAP5 POP SWAP2 DUP4 ADD SWAP2 PUSH2 0xC0C JUMP JUMPDEST SWAP2 POP POP PUSH2 0xBF7 SWAP5 POP PUSH1 0x20 SWAP3 POP PUSH1 0xFF NOT AND DUP3 DUP5 ADD MSTORE ISZERO ISZERO PUSH1 0x5 SHL DUP3 ADD ADD CODESIZE DUP1 PUSH2 0xBE9 JUMP JUMPDEST SWAP1 PUSH1 0x20 SWAP2 PUSH2 0xC78 DUP2 MLOAD DUP1 SWAP3 DUP2 DUP6 MSTORE DUP6 DUP1 DUP7 ADD SWAP2 ADD PUSH2 0xB5C JUMP JUMPDEST PUSH1 0x1F ADD PUSH1 0x1F NOT AND ADD ADD SWAP1 JUMP JUMPDEST ISZERO PUSH2 0xC8B JUMPI JUMP JUMPDEST PUSH1 0x40 MLOAD PUSH3 0x461BCD PUSH1 0xE5 SHL DUP2 MSTORE PUSH1 0x20 PUSH1 0x4 DUP3 ADD MSTORE PUSH1 0x22 PUSH1 0x24 DUP3 ADD MSTORE PUSH32 0x4F6E6C79206F776E65722063616E20706572666F726D20746869732061637469 PUSH1 0x44 DUP3 ADD MSTORE PUSH2 0x37B7 PUSH1 0xF1 SHL PUSH1 0x64 DUP3 ADD MSTORE PUSH1 0x84 SWAP1 REVERT INVALID LOG2 PUSH5 0x6970667358 0x22 SLT KECCAK256 DUP10 0xFC DUP1 0xCF SWAP6 0xE9 EXTCODESIZE DUP9 0xDF 0x28 MSIZE 0xB2 SHL PUSH28 0x5DAE495906CBBD6AD38ED78310FDEFE9789564736F6C634300081400 CALLER "},"methodIdentifiers":{"authorizeCertifier(address)":"be720147","authorizedCertifiers(address)":"bba7dcc4","certificates(string)":"8f2b91ea","certifyQuality(string,string,string)":"7e49e70c","getCertificate(string)":"ed0f2e75","isCertified(string)":"723f36b7","owner()":"8da5cb5b","revokeCertifier(address)":"c86de368"}}}}}