{"contracts/MangoChainRegistry.sol":{"MangoChainRegistry":{"abi":[{"inputs":[],"stateMutability":"nonpayable","type":"constructor"},{"anonymous":false,"inputs":[{"indexed":true,"internalType":"address","name":"admin","type":"address"},{"indexed":false,"internalType":"string","name":"version","type":"string"},{"indexed":false,"internalType":"uint256","name":"timestamp","type":"uint256"}],"name":"ContratoActualizado","type":"event"},{"anonymous":false,"inputs":[{"indexed":true,"internalType":"string","name":"loteId","type":"string"},{"indexed":true,"internalType":"address","name":"productor","type":"address"},{"indexed":false,"internalType":"string","name":"productorName","type":"string"},{"indexed":false,"internalType":"string","name":"ubicacion","type":"string"},{"indexed":false,"internalType":"string","name":"variedad","type":"string"},{"indexed":false,"internalType":"string","name":"calidad","type":"string"},{"indexed":false,"internalType":"uint256","name":"fechaRegistro","type":"uint256"}],"name":"LoteRegistrado","type":"event"},{"anonymous":false,"inputs":[{"indexed":true,"internalType":"string","name":"loteId","type":"string"},{"indexed":false,"internalType":"address","name":"verifier","type":"address"},{"indexed":false,"internalType":"uint256","name":"timestamp","type":"uint256"},{"indexed":false,"internalType":"bool","name":"resultado","type":"bool"}],"name":"LoteVerificado","type":"event"},{"anonymous":false,"inputs":[{"indexed":true,"internalType":"string","name":"loteId","type":"string"},{"indexed":true,"internalType":"address","name":"previousOwner","type":"address"},{"indexed":true,"internalType":"address","name":"newOwner","type":"address"},{"indexed":false,"internalType":"string","name":"motivo","type":"string"},{"indexed":false,"internalType":"uint256","name":"timestamp","type":"uint256"}],"name":"PropiedadTransferida","type":"event"},{"inputs":[{"internalType":"string","name":"_loteId","type":"string"}],"name":"activarLote","outputs":[],"stateMutability":"nonpayable","type":"function"},{"inputs":[{"internalType":"string","name":"_loteId","type":"string"}],"name":"desactivarLote","outputs":[],"stateMutability":"nonpayable","type":"function"},{"inputs":[],"name":"emergencyStop","outputs":[],"stateMutability":"nonpayable","type":"function"},{"inputs":[{"internalType":"string","name":"","type":"string"},{"internalType":"uint256","name":"","type":"uint256"}],"name":"historialLotes","outputs":[{"internalType":"address","name":"from","type":"address"},{"internalType":"address","name":"to","type":"address"},{"internalType":"uint256","name":"timestamp","type":"uint256"},{"internalType":"string","name":"motivo","type":"string"},{"internalType":"string","name":"comentario","type":"string"}],"stateMutability":"view","type":"function"},{"inputs":[{"internalType":"string","name":"","type":"string"}],"name":"loteIdExiste","outputs":[{"internalType":"bool","name":"","type":"bool"}],"stateMutability":"view","type":"function"},{"inputs":[{"internalType":"string","name":"","type":"string"}],"name":"lotes","outputs":[{"internalType":"string","name":"loteId","type":"string"},{"internalType":"address","name":"productor","type":"address"},{"internalType":"string","name":"productorName","type":"string"},{"internalType":"string","name":"ubicacion","type":"string"},{"internalType":"string","name":"variedad","type":"string"},{"internalType":"string","name":"calidad","type":"string"},{"internalType":"uint256","name":"fechaCosecha","type":"uint256"},{"internalType":"uint256","name":"fechaRegistro","type":"uint256"},{"internalType":"address","name":"owner","type":"address"},{"internalType":"string","name":"metadata","type":"string"},{"internalType":"bool","name":"activo","type":"bool"}],"stateMutability":"view","type":"function"},{"inputs":[{"internalType":"address","name":"","type":"address"},{"internalType":"uint256","name":"","type":"uint256"}],"name":"lotesPorProductor","outputs":[{"internalType":"string","name":"","type":"string"}],"stateMutability":"view","type":"function"},{"inputs":[],"name":"obtenerEstadisticas","outputs":[{"internalType":"uint256","name":"","type":"uint256"},{"internalType":"uint256","name":"","type":"uint256"},{"internalType":"uint256","name":"","type":"uint256"}],"stateMutability":"view","type":"function"},{"inputs":[{"internalType":"string","name":"_loteId","type":"string"}],"name":"obtenerHistorial","outputs":[{"components":[{"internalType":"address","name":"from","type":"address"},{"internalType":"address","name":"to","type":"address"},{"internalType":"uint256","name":"timestamp","type":"uint256"},{"internalType":"string","name":"motivo","type":"string"},{"internalType":"string","name":"comentario","type":"string"}],"internalType":"struct MangoChainRegistry.Transferencia[]","name":"","type":"tuple[]"}],"stateMutability":"view","type":"function"},{"inputs":[{"internalType":"string","name":"_loteId","type":"string"}],"name":"obtenerLote","outputs":[{"internalType":"string","name":"","type":"string"},{"internalType":"address","name":"","type":"address"},{"internalType":"string","name":"","type":"string"},{"internalType":"string","name":"","type":"string"},{"internalType":"string","name":"","type":"string"},{"internalType":"string","name":"","type":"string"},{"internalType":"uint256","name":"","type":"uint256"},{"internalType":"uint256","name":"","type":"uint256"},{"internalType":"address","name":"","type":"address"},{"internalType":"string","name":"","type":"string"},{"internalType":"bool","name":"","type":"bool"}],"stateMutability":"view","type":"function"},{"inputs":[{"internalType":"address","name":"_productor","type":"address"}],"name":"obtenerLotesPorProductor","outputs":[{"internalType":"string[]","name":"","type":"string[]"}],"stateMutability":"view","type":"function"},{"inputs":[],"name":"owner","outputs":[{"internalType":"address","name":"","type":"address"}],"stateMutability":"view","type":"function"},{"inputs":[{"internalType":"string","name":"_loteId","type":"string"},{"internalType":"string","name":"_productorName","type":"string"},{"internalType":"string","name":"_ubicacion","type":"string"},{"internalType":"string","name":"_variedad","type":"string"},{"internalType":"string","name":"_calidad","type":"string"},{"internalType":"uint256","name":"_fechaCosecha","type":"uint256"},{"internalType":"string","name":"_metadata","type":"string"}],"name":"registrarLote","outputs":[{"internalType":"bool","name":"","type":"bool"}],"stateMutability":"nonpayable","type":"function"},{"inputs":[],"name":"totalLotes","outputs":[{"internalType":"uint256","name":"","type":"uint256"}],"stateMutability":"view","type":"function"},{"inputs":[],"name":"totalTransferencias","outputs":[{"internalType":"uint256","name":"","type":"uint256"}],"stateMutability":"view","type":"function"},{"inputs":[{"internalType":"address","name":"_nuevoOwner","type":"address"}],"name":"transferirOwnershipContrato","outputs":[],"stateMutability":"nonpayable","type":"function"},{"inputs":[{"internalType":"string","name":"_loteId","type":"string"},{"internalType":"address","name":"_nuevoOwner","type":"address"},{"internalType":"string","name":"_motivo","type":"string"},{"internalType":"string","name":"_comentario","type":"string"}],"name":"transferirPropiedad","outputs":[{"internalType":"bool","name":"","type":"bool"}],"stateMutability":"nonpayable","type":"function"},{"inputs":[{"internalType":"string","name":"_loteId","type":"string"}],"name":"verificarLote","outputs":[{"internalType":"bool","name":"","type":"bool"},{"internalType":"string","name":"","type":"string"}],"stateMutability":"view","type":"function"}],"evm":{"bytecode":{"linkReferences":{},"object":"60808060405234610078573360018060a01b0319600054161760005560006001556000600255604081526004604082015263076312e360e41b60608201524260208201527f3b6c43f816c7f2729fe5330256755d7829518217eb7e48a596afaecd1fb8f90660803392a2604051611889908161007e8239f35b600080fdfe6080604052600436101561001257600080fd5b60003560e01c80631947f1e314610e7e5780631faf578514610e305780632cc73f5e14610e1257806331227e1f14610d2c57806332d463b114610c555780633855a37314610c375780633d2718b514610bcd5780634ed3ee0714610b7c57806363a599a414610b03578063654cee9f14610aa0578063731d18b614610a2f5780637775dca3146108ae57806384eb2d5c146108105780638da5cb5b146107e7578063948618701461035b578063a5ab059e14610288578063b118d04e1461025c5763e71a8124146100e257600080fd5b34610257576020366003190112610257576004356001600160401b038111610257576020610117610156923690600401611252565b6040519061014560ff82519385818186019661013481838a6112be565b810160068152030190205416611625565b6040519384928392519283916112be565b8101600381520301902060405161016c816111fa565b61017582611340565b815260018201546001600160a01b03908116602083019081529161025391610120906101a360028701611340565b95604084019687526101b760038201611340565b91606085019283526101cb60048301611340565b608086019081526101de60058401611340565b60a0870190815260068401549160c0880192835260078501549360e089019485528060ff600a8260088a015416986101008d01998a528c61022160098301611340565b9c8d9101520154161515998a610140820152519b51169b5196519151925193519451955116956040519b8c9b8c6113e6565b0390f35b600080fd5b346102575760003660031901126102575760606001546002546040519182526020820152426040820152f35b34610257576040366003190112610257576004356001600160401b038111610257576102b8903690600401611252565b6102d460206024359281604051938285809451938492016112be565b81016004815203019020908154811015610257576102f1916114b5565b5060018060a01b0361025381835416916001840154169261034d600282015491610329600461032260038401611340565b9201611340565b9260405196879687526020870152604086015260a0606086015260a08501906112e1565b9083820360808501526112e1565b346102575760e0366003190112610257576001600160401b036004358181116102575761038c903690600401611252565b602435828111610257576103a4903690600401611252565b91604435818111610257576103bd903690600401611252565b91606435828111610257576103d6903690600401611252565b91608435818111610257576103ef903690600401611252565b9060c43590811161025757610408903690600401611252565b8251156107ab5760ff60405160208186516104268183858b016112be565b8101600681520301902054166107725785511561072d578451156106f25760a435904282116106ad576040519161045c836111fa565b8483523360208401528760408401528660608401528560808401528360a084015260c08301524260e0830152336101008301526101208201526001610140820152610140600a60405160208187516104b78183858c016112be565b810160038152030190206104cc8451826114d1565b60208401516001820180546001600160a01b03199081166001600160a01b0393841617909155604086015161050490600285016114d1565b6105156060870151600385016114d1565b6105266080870151600485016114d1565b61053760a0870151600585016114d1565b60c0860151600684015560e0860151600784015560088301916101008701511690825416179055610570610120850151600983016114d1565b0191015115159060ff199160ff8383541691161790556001604051602081865161059d8183858b016112be565b810160068152030190209182541617905533600052600560205260406000208054600160401b811015610697576105d991600182018155611487565b610681577f51eb35c1a3c78d8b95841877dbe7fc378cd1cbfa261e0fe81290b92ea5caf4549361064d610629856106166106699761065b966114d1565b6106216001546115e0565b600155611605565b9661063f6040519960a08b5260a08b01906112e1565b9089820360208b01526112e1565b9087820360408901526112e1565b9085820360608701526112e1565b924260808201528033940390a3602060405160018152f35b634e487b7160e01b600052600060045260246000fd5b634e487b7160e01b600052604160045260246000fd5b60405162461bcd60e51b815260206004820152601960248201527f466563686120646520636f736563686120696e76616c696461000000000000006044820152606490fd5b60405162461bcd60e51b8152602060048201526013602482015272556269636163696f6e2072657175657269646160681b6044820152606490fd5b60405162461bcd60e51b815260206004820152601d60248201527f4e6f6d6272652064652070726f647563746f722072657175657269646f0000006044820152606490fd5b60405162461bcd60e51b81526020600482015260116024820152704c6f74652049442079612065786973746560781b6044820152606490fd5b60405162461bcd60e51b81526020600482015260146024820152734944206465206c6f74652072657175657269646f60601b6044820152606490fd5b34610257576000366003190112610257576000546040516001600160a01b039091168152602090f35b34610257576020366003190112610257576108296112a8565b600054906001600160a01b039061084333838516146117f5565b1690811561085b576001600160a01b03191617600055005b60405162461bcd60e51b815260206004820152602560248201527f4e7565766f206f776e6572206e6f207075656465207365722061646472657373604482015264207a65726f60d81b6064820152608490fd5b3461025757602080600319360112610257576004356001600160401b03811161025757816101176108e3923690600401611252565b81016004815203019020908154916108fa83611662565b926109086040519485611231565b8084528284018092600052836000206000915b8383106109c85750505050604051918083019381845251809452604083019360408160051b85010192916000955b8287106109565785850386f35b9091929382806109b8600193603f198a82030186528851858060a01b03808251168352848201511684830152604081015160408301526109a56060808301519060a080918601528401906112e1565b91608080920151918184039101526112e1565b9601920196019592919092610949565b6005866001926040999899516109dd816111df565b848060a01b0380875416825285870154168382015260028601546040820152610a0860038701611340565b6060820152610a1960048701611340565b608082015281520192019201919095949561091b565b34610257576020366003190112610257576004356001600160401b03811161025757610a62610a81913690600401611252565b610a7c60ff60405160208185516101348183858a016112be565b611679565b90610253604051928392151583526040602084015260408301906112e1565b34610257576020366003190112610257576004356001600160401b03811161025757610aec6020610ad7600a933690600401611252565b61011760018060a01b036000541633146117f5565b60039082019081520301902001805460ff19169055005b3461025757600036600319011261025757610b2960018060a01b036000541633146117f5565b60405160408152600e60408201526d0454d455247454e43595f53544f560941b60608201524260208201527f3b6c43f816c7f2729fe5330256755d7829518217eb7e48a596afaecd1fb8f90660803392a2005b34610257576020366003190112610257576004356001600160401b03811161025757610bb36020610ad7600a933690600401611252565b60039082019081520301902001805460ff19166001179055005b3461025757604036600319011261025757610be66112a8565b6001600160a01b0316600090815260056020526040902080546024359081101561025757610c1391611487565b61068157610c2361025391611340565b6040519182916020835260208301906112e1565b34610257576000366003190112610257576020600154604051908152f35b34610257576020366003190112610257576004356001600160401b038111610257576020610c8a610c9d923690600401611252565b81604051938285809451938492016112be565b81016003815203019020610cb081611340565b60018201546001600160a01b03908116926102539190610cd260028201611340565b91610cdf60038301611340565b90610cec60048401611340565b610cf860058501611340565b6006850154916007860154936008870154169460ff600a610d1b60098a01611340565b98015416976040519b8c9b8c6113e6565b3461025757602080600319360112610257576001600160a01b03610d4e6112a8565b1660005260058152604060002090815491610d6883611662565b92610d766040519485611231565b8084528284018092600052836000206000915b838310610df05750505050604051918083019381845251809452604083019360408160051b85010192916000955b828710610dc45785850386f35b909192938280610de0600193603f198a820301865288516112e1565b9601920196019592919092610db7565b6001868192610e01859a999a611340565b815201920192019190959495610d89565b34610257576000366003190112610257576020600254604051908152f35b34610257576020366003190112610257576004356001600160401b0381116102575760ff610e686020610c8a81943690600401611252565b8101600681520301902054166040519015158152f35b34610257576080366003190112610257576001600160401b0360043581811161025757610eaf903690600401611252565b6001600160a01b03916024358381169291908390036102575760443581811161025757610ee0903690600401611252565b9060643590811161025757610ef9903690600401611252565b9360405194835191610f1a60ff6020988981818a019761013481838b6112be565b80600860405189818951610f2f81838b6112be565b81016003815203019020015416330361119a5785156111605733861461111b5760ff600a60405189818951610f6581838b6112be565b81016003815203019020015416156110e05780600860405189818951610f8c81838b6112be565b8101600381520301902001541694600860405189818451610fae81838b6112be565b81016003815203019020016bffffffffffffffffffffffff60a01b908882825416179055604051610fde816111df565b8781528981019389855260408201954287526110148c60608501998b8b5260808601938452604051809381928a519283916112be565b810160048152030190208054600160401b8110156106975761103b916001820181556114b5565b939093610681577fd33ea0002dfedc25db0f9f698af224a8ec8617c502b4db917c208a652d573e6d986110cf986110ba986110a7978660049761109f965116828a5416178955600189019251169082541617905551600286015551600385016114d1565b5191016114d1565b6110b26002546115e0565b600255611605565b926040519182916040835260408301906112e1565b42888301520390a460405160018152f35b60405162461bcd60e51b81526004810188905260136024820152724c6f7465206e6f20657374612061637469766f60681b6044820152606490fd5b60405162461bcd60e51b815260048101889052601f60248201527f4e6f20707565646573207472616e7366657269722061207469206d69736d6f006044820152606490fd5b60405162461bcd60e51b8152600481018890526012602482015271446972656363696f6e20696e76616c69646160701b6044820152606490fd5b60405162461bcd60e51b815260048101889052601d60248201527f4e6f206572657320656c206475656e6f2064652065737465206c6f74650000006044820152606490fd5b60a081019081106001600160401b0382111761069757604052565b61016081019081106001600160401b0382111761069757604052565b604081019081106001600160401b0382111761069757604052565b90601f801991011681019081106001600160401b0382111761069757604052565b81601f82011215610257578035906001600160401b0382116106975760405192611286601f8401601f191660200185611231565b8284526020838301011161025757816000926020809301838601378301015290565b600435906001600160a01b038216820361025757565b60005b8381106112d15750506000910152565b81810151838201526020016112c1565b906020916112fa815180928185528580860191016112be565b601f01601f1916010190565b90600182811c92168015611336575b602083101461132057565b634e487b7160e01b600052602260045260246000fd5b91607f1691611315565b906040519182600082549261135484611306565b9081845260019485811690816000146113c35750600114611380575b505061137e92500383611231565b565b9093915060005260209081600020936000915b8183106113ab57505061137e93508201013880611370565b85548884018501529485019487945091830191611393565b91505061137e94506020925060ff191682840152151560051b8201013880611370565b99959061145f92956114438c9d9e9d6101409c9761143561147f9d98611417611451976101608087528601906112e1565b6001600160a01b039c8d1660208601528481036040860152906112e1565b9160608184039101526112e1565b8c810360808e0152906112e1565b908a820360a08c01526112e1565b9460c089015260e0880152166101008601528482036101208601526112e1565b931515910152565b805482101561149f5760005260206000200190600090565b634e487b7160e01b600052603260045260246000fd5b805482101561149f576000526005602060002091020190600090565b91909182516001600160401b038111610697576114ee8254611306565b601f8111611598575b50602080601f8311600114611534575081929394600092611529575b50508160011b916000199060031b1c1916179055565b015190503880611513565b90601f198316958460005282600020926000905b88821061158057505083600195969710611567575b505050811b019055565b015160001960f88460031b161c1916905538808061155d565b80600185968294968601518155019501930190611548565b600083815260208120601f840160051c810192602085106115d6575b601f0160051c01915b8281106115cb5750506114f7565b8181556001016115bd565b90925082906115b4565b60001981146115ef5760010190565b634e487b7160e01b600052601160045260246000fd5b61161d906020604051928284809451938492016112be565b810103902090565b1561162c57565b60405162461bcd60e51b815260206004820152600e60248201526d4c6f7465206e6f2065786973746560901b6044820152606490fd5b6001600160401b0381116106975760051b60200190565b906040918251818180935161169481602096878096016112be565b810160038152030190208351906116aa826111fa565b6116b381611340565b825260018060a01b039160ff600a84600185015416938684019485526116db60028201611340565b898501526116eb60038201611340565b60608501526116fc60048201611340565b608085015261170d60058201611340565b60a0850152600681015460c0850152600781015460e08501528560088201541661010085015261173f60098201611340565b610120850152015416159061014082159101526117c457511615611796577f4c6f7465207665726966696361646f20636f7272656374616d656e7465000000600193519161178c83611216565b601d835282015290565b7150726f647563746f7220696e76616c69646f60701b60009351916117ba83611216565b6012835282015290565b5050724c6f7465206e6f20657374612061637469766f60681b60009351916117eb83611216565b6013835282015290565b156117fc57565b60405162461bcd60e51b815260206004820152602960248201527f536f6c6f20656c206f776e657220707565646520656a656375746172206573746044820152683090333ab731b4b7b760b91b6064820152608490fdfea26469706673582212208c3576beff6bdc3f954f6f887bfa6f6dc2132703322316350658d0c9556c123b64736f6c63430008140033","opcodes":"PUSH1 0x80 DUP1 PUSH1 0x40 MSTORE CALLVALUE PUSH2 0x78 JUMPI CALLER PUSH1 0x1 DUP1 PUSH1 0xA0 SHL SUB NOT PUSH1 0x0 SLOAD AND OR PUSH1 0x0 SSTORE PUSH1 0x0 PUSH1 0x1 SSTORE PUSH1 0x0 PUSH1 0x2 SSTORE PUSH1 0x40 DUP2 MSTORE PUSH1 0x4 PUSH1 0x40 DUP3 ADD MSTORE PUSH4 0x76312E3 PUSH1 0xE4 SHL PUSH1 0x60 DUP3 ADD MSTORE TIMESTAMP PUSH1 0x20 DUP3 ADD MSTORE PUSH32 0x3B6C43F816C7F2729FE5330256755D7829518217EB7E48A596AFAECD1FB8F906 PUSH1 0x80 CALLER SWAP3 LOG2 PUSH1 0x40 MLOAD PUSH2 0x1889 SWAP1 DUP2 PUSH2 0x7E DUP3 CODECOPY RETURN JUMPDEST PUSH1 0x0 DUP1 REVERT INVALID PUSH1 0x80 PUSH1 0x40 MSTORE PUSH1 0x4 CALLDATASIZE LT ISZERO PUSH2 0x12 JUMPI PUSH1 0x0 DUP1 REVERT JUMPDEST PUSH1 0x0 CALLDATALOAD PUSH1 0xE0 SHR DUP1 PUSH4 0x1947F1E3 EQ PUSH2 0xE7E JUMPI DUP1 PUSH4 0x1FAF5785 EQ PUSH2 0xE30 JUMPI DUP1 PUSH4 0x2CC73F5E EQ PUSH2 0xE12 JUMPI DUP1 PUSH4 0x31227E1F EQ PUSH2 0xD2C JUMPI DUP1 PUSH4 0x32D463B1 EQ PUSH2 0xC55 JUMPI DUP1 PUSH4 0x3855A373 EQ PUSH2 0xC37 JUMPI DUP1 PUSH4 0x3D2718B5 EQ PUSH2 0xBCD JUMPI DUP1 PUSH4 0x4ED3EE07 EQ PUSH2 0xB7C JUMPI DUP1 PUSH4 0x63A599A4 EQ PUSH2 0xB03 JUMPI DUP1 PUSH4 0x654CEE9F EQ PUSH2 0xAA0 JUMPI DUP1 PUSH4 0x731D18B6 EQ PUSH2 0xA2F JUMPI DUP1 PUSH4 0x7775DCA3 EQ PUSH2 0x8AE JUMPI DUP1 PUSH4 0x84EB2D5C EQ PUSH2 0x810 JUMPI DUP1 PUSH4 0x8DA5CB5B EQ PUSH2 0x7E7 JUMPI DUP1 PUSH4 0x94861870 EQ PUSH2 0x35B JUMPI DUP1 PUSH4 0xA5AB059E EQ PUSH2 0x288 JUMPI DUP1 PUSH4 0xB118D04E EQ PUSH2 0x25C JUMPI PUSH4 0xE71A8124 EQ PUSH2 0xE2 JUMPI PUSH1 0x0 DUP1 REVERT JUMPDEST CALLVALUE PUSH2 0x257 JUMPI PUSH1 0x20 CALLDATASIZE PUSH1 0x3 NOT ADD SLT PUSH2 0x257 JUMPI PUSH1 0x4 CALLDATALOAD PUSH1 0x1 PUSH1 0x1 PUSH1 0x40 SHL SUB DUP2 GT PUSH2 0x257 JUMPI PUSH1 0x20 PUSH2 0x117 PUSH2 0x156 SWAP3 CALLDATASIZE SWAP1 PUSH1 0x4 ADD PUSH2 0x1252 JUMP JUMPDEST PUSH1 0x40 MLOAD SWAP1 PUSH2 0x145 PUSH1 0xFF DUP3 MLOAD SWAP4 DUP6 DUP2 DUP2 DUP7 ADD SWAP7 PUSH2 0x134 DUP2 DUP4 DUP11 PUSH2 0x12BE JUMP JUMPDEST DUP2 ADD PUSH1 0x6 DUP2 MSTORE SUB ADD SWAP1 KECCAK256 SLOAD AND PUSH2 0x1625 JUMP JUMPDEST PUSH1 0x40 MLOAD SWAP4 DUP5 SWAP3 DUP4 SWAP3 MLOAD SWAP3 DUP4 SWAP2 PUSH2 0x12BE JUMP JUMPDEST DUP2 ADD PUSH1 0x3 DUP2 MSTORE SUB ADD SWAP1 KECCAK256 PUSH1 0x40 MLOAD PUSH2 0x16C DUP2 PUSH2 0x11FA JUMP JUMPDEST PUSH2 0x175 DUP3 PUSH2 0x1340 JUMP JUMPDEST DUP2 MSTORE PUSH1 0x1 DUP3 ADD SLOAD PUSH1 0x1 PUSH1 0x1 PUSH1 0xA0 SHL SUB SWAP1 DUP2 AND PUSH1 0x20 DUP4 ADD SWAP1 DUP2 MSTORE SWAP2 PUSH2 0x253 SWAP2 PUSH2 0x120 SWAP1 PUSH2 0x1A3 PUSH1 0x2 DUP8 ADD PUSH2 0x1340 JUMP JUMPDEST SWAP6 PUSH1 0x40 DUP5 ADD SWAP7 DUP8 MSTORE PUSH2 0x1B7 PUSH1 0x3 DUP3 ADD PUSH2 0x1340 JUMP JUMPDEST SWAP2 PUSH1 0x60 DUP6 ADD SWAP3 DUP4 MSTORE PUSH2 0x1CB PUSH1 0x4 DUP4 ADD PUSH2 0x1340 JUMP JUMPDEST PUSH1 0x80 DUP7 ADD SWAP1 DUP2 MSTORE PUSH2 0x1DE PUSH1 0x5 DUP5 ADD PUSH2 0x1340 JUMP JUMPDEST PUSH1 0xA0 DUP8 ADD SWAP1 DUP2 MSTORE PUSH1 0x6 DUP5 ADD SLOAD SWAP2 PUSH1 0xC0 DUP9 ADD SWAP3 DUP4 MSTORE PUSH1 0x7 DUP6 ADD SLOAD SWAP4 PUSH1 0xE0 DUP10 ADD SWAP5 DUP6 MSTORE DUP1 PUSH1 0xFF PUSH1 0xA DUP3 PUSH1 0x8 DUP11 ADD SLOAD AND SWAP9 PUSH2 0x100 DUP14 ADD SWAP10 DUP11 MSTORE DUP13 PUSH2 0x221 PUSH1 0x9 DUP4 ADD PUSH2 0x1340 JUMP JUMPDEST SWAP13 DUP14 SWAP2 ADD MSTORE ADD SLOAD AND ISZERO ISZERO SWAP10 DUP11 PUSH2 0x140 DUP3 ADD MSTORE MLOAD SWAP12 MLOAD AND SWAP12 MLOAD SWAP7 MLOAD SWAP2 MLOAD SWAP3 MLOAD SWAP4 MLOAD SWAP5 MLOAD SWAP6 MLOAD AND SWAP6 PUSH1 0x40 MLOAD SWAP12 DUP13 SWAP12 DUP13 PUSH2 0x13E6 JUMP JUMPDEST SUB SWAP1 RETURN JUMPDEST PUSH1 0x0 DUP1 REVERT JUMPDEST CALLVALUE PUSH2 0x257 JUMPI PUSH1 0x0 CALLDATASIZE PUSH1 0x3 NOT ADD SLT PUSH2 0x257 JUMPI PUSH1 0x60 PUSH1 0x1 SLOAD PUSH1 0x2 SLOAD PUSH1 0x40 MLOAD SWAP2 DUP3 MSTORE PUSH1 0x20 DUP3 ADD MSTORE TIMESTAMP PUSH1 0x40 DUP3 ADD MSTORE RETURN JUMPDEST CALLVALUE PUSH2 0x257 JUMPI PUSH1 0x40 CALLDATASIZE PUSH1 0x3 NOT ADD SLT PUSH2 0x257 JUMPI PUSH1 0x4 CALLDATALOAD PUSH1 0x1 PUSH1 0x1 PUSH1 0x40 SHL SUB DUP2 GT PUSH2 0x257 JUMPI PUSH2 0x2B8 SWAP1 CALLDATASIZE SWAP1 PUSH1 0x4 ADD PUSH2 0x1252 JUMP JUMPDEST PUSH2 0x2D4 PUSH1 0x20 PUSH1 0x24 CALLDATALOAD SWAP3 DUP2 PUSH1 0x40 MLOAD SWAP4 DUP3 DUP6 DUP1 SWAP5 MLOAD SWAP4 DUP5 SWAP3 ADD PUSH2 0x12BE JUMP JUMPDEST DUP2 ADD PUSH1 0x4 DUP2 MSTORE SUB ADD SWAP1 KECCAK256 SWAP1 DUP2 SLOAD DUP2 LT ISZERO PUSH2 0x257 JUMPI PUSH2 0x2F1 SWAP2 PUSH2 0x14B5 JUMP JUMPDEST POP PUSH1 0x1 DUP1 PUSH1 0xA0 SHL SUB PUSH2 0x253 DUP2 DUP4 SLOAD AND SWAP2 PUSH1 0x1 DUP5 ADD SLOAD AND SWAP3 PUSH2 0x34D PUSH1 0x2 DUP3 ADD SLOAD SWAP2 PUSH2 0x329 PUSH1 0x4 PUSH2 0x322 PUSH1 0x3 DUP5 ADD PUSH2 0x1340 JUMP JUMPDEST SWAP3 ADD PUSH2 0x1340 JUMP JUMPDEST SWAP3 PUSH1 0x40 MLOAD SWAP7 DUP8 SWAP7 DUP8 MSTORE PUSH1 0x20 DUP8 ADD MSTORE PUSH1 0x40 DUP7 ADD MSTORE PUSH1 0xA0 PUSH1 0x60 DUP7 ADD MSTORE PUSH1 0xA0 DUP6 ADD SWAP1 PUSH2 0x12E1 JUMP JUMPDEST SWAP1 DUP4 DUP3 SUB PUSH1 0x80 DUP6 ADD MSTORE PUSH2 0x12E1 JUMP JUMPDEST CALLVALUE PUSH2 0x257 JUMPI PUSH1 0xE0 CALLDATASIZE PUSH1 0x3 NOT ADD SLT PUSH2 0x257 JUMPI PUSH1 0x1 PUSH1 0x1 PUSH1 0x40 SHL SUB PUSH1 0x4 CALLDATALOAD DUP2 DUP2 GT PUSH2 0x257 JUMPI PUSH2 0x38C SWAP1 CALLDATASIZE SWAP1 PUSH1 0x4 ADD PUSH2 0x1252 JUMP JUMPDEST PUSH1 0x24 CALLDATALOAD DUP3 DUP2 GT PUSH2 0x257 JUMPI PUSH2 0x3A4 SWAP1 CALLDATASIZE SWAP1 PUSH1 0x4 ADD PUSH2 0x1252 JUMP JUMPDEST SWAP2 PUSH1 0x44 CALLDATALOAD DUP2 DUP2 GT PUSH2 0x257 JUMPI PUSH2 0x3BD SWAP1 CALLDATASIZE SWAP1 PUSH1 0x4 ADD PUSH2 0x1252 JUMP JUMPDEST SWAP2 PUSH1 0x64 CALLDATALOAD DUP3 DUP2 GT PUSH2 0x257 JUMPI PUSH2 0x3D6 SWAP1 CALLDATASIZE SWAP1 PUSH1 0x4 ADD PUSH2 0x1252 JUMP JUMPDEST SWAP2 PUSH1 0x84 CALLDATALOAD DUP2 DUP2 GT PUSH2 0x257 JUMPI PUSH2 0x3EF SWAP1 CALLDATASIZE SWAP1 PUSH1 0x4 ADD PUSH2 0x1252 JUMP JUMPDEST SWAP1 PUSH1 0xC4 CALLDATALOAD SWAP1 DUP2 GT PUSH2 0x257 JUMPI PUSH2 0x408 SWAP1 CALLDATASIZE SWAP1 PUSH1 0x4 ADD PUSH2 0x1252 JUMP JUMPDEST DUP3 MLOAD ISZERO PUSH2 0x7AB JUMPI PUSH1 0xFF PUSH1 0x40 MLOAD PUSH1 0x20 DUP2 DUP7 MLOAD PUSH2 0x426 DUP2 DUP4 DUP6 DUP12 ADD PUSH2 0x12BE JUMP JUMPDEST DUP2 ADD PUSH1 0x6 DUP2 MSTORE SUB ADD SWAP1 KECCAK256 SLOAD AND PUSH2 0x772 JUMPI DUP6 MLOAD ISZERO PUSH2 0x72D JUMPI DUP5 MLOAD ISZERO PUSH2 0x6F2 JUMPI PUSH1 0xA4 CALLDATALOAD SWAP1 TIMESTAMP DUP3 GT PUSH2 0x6AD JUMPI PUSH1 0x40 MLOAD SWAP2 PUSH2 0x45C DUP4 PUSH2 0x11FA JUMP JUMPDEST DUP5 DUP4 MSTORE CALLER PUSH1 0x20 DUP5 ADD MSTORE DUP8 PUSH1 0x40 DUP5 ADD MSTORE DUP7 PUSH1 0x60 DUP5 ADD MSTORE DUP6 PUSH1 0x80 DUP5 ADD MSTORE DUP4 PUSH1 0xA0 DUP5 ADD MSTORE PUSH1 0xC0 DUP4 ADD MSTORE TIMESTAMP PUSH1 0xE0 DUP4 ADD MSTORE CALLER PUSH2 0x100 DUP4 ADD MSTORE PUSH2 0x120 DUP3 ADD MSTORE PUSH1 0x1 PUSH2 0x140 DUP3 ADD MSTORE PUSH2 0x140 PUSH1 0xA PUSH1 0x40 MLOAD PUSH1 0x20 DUP2 DUP8 MLOAD PUSH2 0x4B7 DUP2 DUP4 DUP6 DUP13 ADD PUSH2 0x12BE JUMP JUMPDEST DUP2 ADD PUSH1 0x3 DUP2 MSTORE SUB ADD SWAP1 KECCAK256 PUSH2 0x4CC DUP5 MLOAD DUP3 PUSH2 0x14D1 JUMP JUMPDEST PUSH1 0x20 DUP5 ADD MLOAD PUSH1 0x1 DUP3 ADD DUP1 SLOAD PUSH1 0x1 PUSH1 0x1 PUSH1 0xA0 SHL SUB NOT SWAP1 DUP2 AND PUSH1 0x1 PUSH1 0x1 PUSH1 0xA0 SHL SUB SWAP4 DUP5 AND OR SWAP1 SWAP2 SSTORE PUSH1 0x40 DUP7 ADD MLOAD PUSH2 0x504 SWAP1 PUSH1 0x2 DUP6 ADD PUSH2 0x14D1 JUMP JUMPDEST PUSH2 0x515 PUSH1 0x60 DUP8 ADD MLOAD PUSH1 0x3 DUP6 ADD PUSH2 0x14D1 JUMP JUMPDEST PUSH2 0x526 PUSH1 0x80 DUP8 ADD MLOAD PUSH1 0x4 DUP6 ADD PUSH2 0x14D1 JUMP JUMPDEST PUSH2 0x537 PUSH1 0xA0 DUP8 ADD MLOAD PUSH1 0x5 DUP6 ADD PUSH2 0x14D1 JUMP JUMPDEST PUSH1 0xC0 DUP7 ADD MLOAD PUSH1 0x6 DUP5 ADD SSTORE PUSH1 0xE0 DUP7 ADD MLOAD PUSH1 0x7 DUP5 ADD SSTORE PUSH1 0x8 DUP4 ADD SWAP2 PUSH2 0x100 DUP8 ADD MLOAD AND SWAP1 DUP3 SLOAD AND OR SWAP1 SSTORE PUSH2 0x570 PUSH2 0x120 DUP6 ADD MLOAD PUSH1 0x9 DUP4 ADD PUSH2 0x14D1 JUMP JUMPDEST ADD SWAP2 ADD MLOAD ISZERO ISZERO SWAP1 PUSH1 0xFF NOT SWAP2 PUSH1 0xFF DUP4 DUP4 SLOAD AND SWAP2 AND OR SWAP1 SSTORE PUSH1 0x1 PUSH1 0x40 MLOAD PUSH1 0x20 DUP2 DUP7 MLOAD PUSH2 0x59D DUP2 DUP4 DUP6 DUP12 ADD PUSH2 0x12BE JUMP JUMPDEST DUP2 ADD PUSH1 0x6 DUP2 MSTORE SUB ADD SWAP1 KECCAK256 SWAP2 DUP3 SLOAD AND OR SWAP1 SSTORE CALLER PUSH1 0x0 MSTORE PUSH1 0x5 PUSH1 0x20 MSTORE PUSH1 0x40 PUSH1 0x0 KECCAK256 DUP1 SLOAD PUSH1 0x1 PUSH1 0x40 SHL DUP2 LT ISZERO PUSH2 0x697 JUMPI PUSH2 0x5D9 SWAP2 PUSH1 0x1 DUP3 ADD DUP2 SSTORE PUSH2 0x1487 JUMP JUMPDEST PUSH2 0x681 JUMPI PUSH32 0x51EB35C1A3C78D8B95841877DBE7FC378CD1CBFA261E0FE81290B92EA5CAF454 SWAP4 PUSH2 0x64D PUSH2 0x629 DUP6 PUSH2 0x616 PUSH2 0x669 SWAP8 PUSH2 0x65B SWAP7 PUSH2 0x14D1 JUMP JUMPDEST PUSH2 0x621 PUSH1 0x1 SLOAD PUSH2 0x15E0 JUMP JUMPDEST PUSH1 0x1 SSTORE PUSH2 0x1605 JUMP JUMPDEST SWAP7 PUSH2 0x63F PUSH1 0x40 MLOAD SWAP10 PUSH1 0xA0 DUP12 MSTORE PUSH1 0xA0 DUP12 ADD SWAP1 PUSH2 0x12E1 JUMP JUMPDEST SWAP1 DUP10 DUP3 SUB PUSH1 0x20 DUP12 ADD MSTORE PUSH2 0x12E1 JUMP JUMPDEST SWAP1 DUP8 DUP3 SUB PUSH1 0x40 DUP10 ADD MSTORE PUSH2 0x12E1 JUMP JUMPDEST SWAP1 DUP6 DUP3 SUB PUSH1 0x60 DUP8 ADD MSTORE PUSH2 0x12E1 JUMP JUMPDEST SWAP3 TIMESTAMP PUSH1 0x80 DUP3 ADD MSTORE DUP1 CALLER SWAP5 SUB SWAP1 LOG3 PUSH1 0x20 PUSH1 0x40 MLOAD PUSH1 0x1 DUP2 MSTORE RETURN JUMPDEST PUSH4 0x4E487B71 PUSH1 0xE0 SHL PUSH1 0x0 MSTORE PUSH1 0x0 PUSH1 0x4 MSTORE PUSH1 0x24 PUSH1 0x0 REVERT JUMPDEST PUSH4 0x4E487B71 PUSH1 0xE0 SHL PUSH1 0x0 MSTORE PUSH1 0x41 PUSH1 0x4 MSTORE PUSH1 0x24 PUSH1 0x0 REVERT JUMPDEST PUSH1 0x40 MLOAD PUSH3 0x461BCD PUSH1 0xE5 SHL DUP2 MSTORE PUSH1 0x20 PUSH1 0x4 DUP3 ADD MSTORE PUSH1 0x19 PUSH1 0x24 DUP3 ADD MSTORE PUSH32 0x466563686120646520636F736563686120696E76616C69646100000000000000 PUSH1 0x44 DUP3 ADD MSTORE PUSH1 0x64 SWAP1 REVERT JUMPDEST PUSH1 0x40 MLOAD PUSH3 0x461BCD PUSH1 0xE5 SHL DUP2 MSTORE PUSH1 0x20 PUSH1 0x4 DUP3 ADD MSTORE PUSH1 0x13 PUSH1 0x24 DUP3 ADD MSTORE PUSH19 0x556269636163696F6E20726571756572696461 PUSH1 0x68 SHL PUSH1 0x44 DUP3 ADD MSTORE PUSH1 0x64 SWAP1 REVERT JUMPDEST PUSH1 0x40 MLOAD PUSH3 0x461BCD PUSH1 0xE5 SHL DUP2 MSTORE PUSH1 0x20 PUSH1 0x4 DUP3 ADD MSTORE PUSH1 0x1D PUSH1 0x24 DUP3 ADD MSTORE PUSH32 0x4E6F6D6272652064652070726F647563746F722072657175657269646F000000 PUSH1 0x44 DUP3 ADD MSTORE PUSH1 0x64 SWAP1 REVERT JUMPDEST PUSH1 0x40 MLOAD PUSH3 0x461BCD PUSH1 0xE5 SHL DUP2 MSTORE PUSH1 0x20 PUSH1 0x4 DUP3 ADD MSTORE PUSH1 0x11 PUSH1 0x24 DUP3 ADD MSTORE PUSH17 0x4C6F746520494420796120657869737465 PUSH1 0x78 SHL PUSH1 0x44 DUP3 ADD MSTORE PUSH1 0x64 SWAP1 REVERT JUMPDEST PUSH1 0x40 MLOAD PUSH3 0x461BCD PUSH1 0xE5 SHL DUP2 MSTORE PUSH1 0x20 PUSH1 0x4 DUP3 ADD MSTORE PUSH1 0x14 PUSH1 0x24 DUP3 ADD MSTORE PUSH20 0x4944206465206C6F74652072657175657269646F PUSH1 0x60 SHL PUSH1 0x44 DUP3 ADD MSTORE PUSH1 0x64 SWAP1 REVERT JUMPDEST CALLVALUE PUSH2 0x257 JUMPI PUSH1 0x0 CALLDATASIZE PUSH1 0x3 NOT ADD SLT PUSH2 0x257 JUMPI PUSH1 0x0 SLOAD PUSH1 0x40 MLOAD PUSH1 0x1 PUSH1 0x1 PUSH1 0xA0 SHL SUB SWAP1 SWAP2 AND DUP2 MSTORE PUSH1 0x20 SWAP1 RETURN JUMPDEST CALLVALUE PUSH2 0x257 JUMPI PUSH1 0x20 CALLDATASIZE PUSH1 0x3 NOT ADD SLT PUSH2 0x257 JUMPI PUSH2 0x829 PUSH2 0x12A8 JUMP JUMPDEST PUSH1 0x0 SLOAD SWAP1 PUSH1 0x1 PUSH1 0x1 PUSH1 0xA0 SHL SUB SWAP1 PUSH2 0x843 CALLER DUP4 DUP6 AND EQ PUSH2 0x17F5 JUMP JUMPDEST AND SWAP1 DUP2 ISZERO PUSH2 0x85B JUMPI PUSH1 0x1 PUSH1 0x1 PUSH1 0xA0 SHL SUB NOT AND OR PUSH1 0x0 SSTORE STOP JUMPDEST PUSH1 0x40 MLOAD PUSH3 0x461BCD PUSH1 0xE5 SHL DUP2 MSTORE PUSH1 0x20 PUSH1 0x4 DUP3 ADD MSTORE PUSH1 0x25 PUSH1 0x24 DUP3 ADD MSTORE PUSH32 0x4E7565766F206F776E6572206E6F207075656465207365722061646472657373 PUSH1 0x44 DUP3 ADD MSTORE PUSH5 0x207A65726F PUSH1 0xD8 SHL PUSH1 0x64 DUP3 ADD MSTORE PUSH1 0x84 SWAP1 REVERT JUMPDEST CALLVALUE PUSH2 0x257 JUMPI PUSH1 0x20 DUP1 PUSH1 0x3 NOT CALLDATASIZE ADD SLT PUSH2 0x257 JUMPI PUSH1 0x4 CALLDATALOAD PUSH1 0x1 PUSH1 0x1 PUSH1 0x40 SHL SUB DUP2 GT PUSH2 0x257 JUMPI DUP2 PUSH2 0x117 PUSH2 0x8E3 SWAP3 CALLDATASIZE SWAP1 PUSH1 0x4 ADD PUSH2 0x1252 JUMP JUMPDEST DUP2 ADD PUSH1 0x4 DUP2 MSTORE SUB ADD SWAP1 KECCAK256 SWAP1 DUP2 SLOAD SWAP2 PUSH2 0x8FA DUP4 PUSH2 0x1662 JUMP JUMPDEST SWAP3 PUSH2 0x908 PUSH1 0x40 MLOAD SWAP5 DUP6 PUSH2 0x1231 JUMP JUMPDEST DUP1 DUP5 MSTORE DUP3 DUP5 ADD DUP1 SWAP3 PUSH1 0x0 MSTORE DUP4 PUSH1 0x0 KECCAK256 PUSH1 0x0 SWAP2 JUMPDEST DUP4 DUP4 LT PUSH2 0x9C8 JUMPI POP POP POP POP PUSH1 0x40 MLOAD SWAP2 DUP1 DUP4 ADD SWAP4 DUP2 DUP5 MSTORE MLOAD DUP1 SWAP5 MSTORE PUSH1 0x40 DUP4 ADD SWAP4 PUSH1 0x40 DUP2 PUSH1 0x5 SHL DUP6 ADD ADD SWAP3 SWAP2 PUSH1 0x0 SWAP6 JUMPDEST DUP3 DUP8 LT PUSH2 0x956 JUMPI DUP6 DUP6 SUB DUP7 RETURN JUMPDEST SWAP1 SWAP2 SWAP3 SWAP4 DUP3 DUP1 PUSH2 0x9B8 PUSH1 0x1 SWAP4 PUSH1 0x3F NOT DUP11 DUP3 SUB ADD DUP7 MSTORE DUP9 MLOAD DUP6 DUP1 PUSH1 0xA0 SHL SUB DUP1 DUP3 MLOAD AND DUP4 MSTORE DUP5 DUP3 ADD MLOAD AND DUP5 DUP4 ADD MSTORE PUSH1 0x40 DUP2 ADD MLOAD PUSH1 0x40 DUP4 ADD MSTORE PUSH2 0x9A5 PUSH1 0x60 DUP1 DUP4 ADD MLOAD SWAP1 PUSH1 0xA0 DUP1 SWAP2 DUP7 ADD MSTORE DUP5 ADD SWAP1 PUSH2 0x12E1 JUMP JUMPDEST SWAP2 PUSH1 0x80 DUP1 SWAP3 ADD MLOAD SWAP2 DUP2 DUP5 SUB SWAP2 ADD MSTORE PUSH2 0x12E1 JUMP JUMPDEST SWAP7 ADD SWAP3 ADD SWAP7 ADD SWAP6 SWAP3 SWAP2 SWAP1 SWAP3 PUSH2 0x949 JUMP JUMPDEST PUSH1 0x5 DUP7 PUSH1 0x1 SWAP3 PUSH1 0x40 SWAP10 SWAP9 SWAP10 MLOAD PUSH2 0x9DD DUP2 PUSH2 0x11DF JUMP JUMPDEST DUP5 DUP1 PUSH1 0xA0 SHL SUB DUP1 DUP8 SLOAD AND DUP3 MSTORE DUP6 DUP8 ADD SLOAD AND DUP4 DUP3 ADD MSTORE PUSH1 0x2 DUP7 ADD SLOAD PUSH1 0x40 DUP3 ADD MSTORE PUSH2 0xA08 PUSH1 0x3 DUP8 ADD PUSH2 0x1340 JUMP JUMPDEST PUSH1 0x60 DUP3 ADD MSTORE PUSH2 0xA19 PUSH1 0x4 DUP8 ADD PUSH2 0x1340 JUMP JUMPDEST PUSH1 0x80 DUP3 ADD MSTORE DUP2 MSTORE ADD SWAP3 ADD SWAP3 ADD SWAP2 SWAP1 SWAP6 SWAP5 SWAP6 PUSH2 0x91B JUMP JUMPDEST CALLVALUE PUSH2 0x257 JUMPI PUSH1 0x20 CALLDATASIZE PUSH1 0x3 NOT ADD SLT PUSH2 0x257 JUMPI PUSH1 0x4 CALLDATALOAD PUSH1 0x1 PUSH1 0x1 PUSH1 0x40 SHL SUB DUP2 GT PUSH2 0x257 JUMPI PUSH2 0xA62 PUSH2 0xA81 SWAP2 CALLDATASIZE SWAP1 PUSH1 0x4 ADD PUSH2 0x1252 JUMP JUMPDEST PUSH2 0xA7C PUSH1 0xFF PUSH1 0x40 MLOAD PUSH1 0x20 DUP2 DUP6 MLOAD PUSH2 0x134 DUP2 DUP4 DUP6 DUP11 ADD PUSH2 0x12BE JUMP JUMPDEST PUSH2 0x1679 JUMP JUMPDEST SWAP1 PUSH2 0x253 PUSH1 0x40 MLOAD SWAP3 DUP4 SWAP3 ISZERO ISZERO DUP4 MSTORE PUSH1 0x40 PUSH1 0x20 DUP5 ADD MSTORE PUSH1 0x40 DUP4 ADD SWAP1 PUSH2 0x12E1 JUMP JUMPDEST CALLVALUE PUSH2 0x257 JUMPI PUSH1 0x20 CALLDATASIZE PUSH1 0x3 NOT ADD SLT PUSH2 0x257 JUMPI PUSH1 0x4 CALLDATALOAD PUSH1 0x1 PUSH1 0x1 PUSH1 0x40 SHL SUB DUP2 GT PUSH2 0x257 JUMPI PUSH2 0xAEC PUSH1 0x20 PUSH2 0xAD7 PUSH1 0xA SWAP4 CALLDATASIZE SWAP1 PUSH1 0x4 ADD PUSH2 0x1252 JUMP JUMPDEST PUSH2 0x117 PUSH1 0x1 DUP1 PUSH1 0xA0 SHL SUB PUSH1 0x0 SLOAD AND CALLER EQ PUSH2 0x17F5 JUMP JUMPDEST PUSH1 0x3 SWAP1 DUP3 ADD SWAP1 DUP2 MSTORE SUB ADD SWAP1 KECCAK256 ADD DUP1 SLOAD PUSH1 0xFF NOT AND SWAP1 SSTORE STOP JUMPDEST CALLVALUE PUSH2 0x257 JUMPI PUSH1 0x0 CALLDATASIZE PUSH1 0x3 NOT ADD SLT PUSH2 0x257 JUMPI PUSH2 0xB29 PUSH1 0x1 DUP1 PUSH1 0xA0 SHL SUB PUSH1 0x0 SLOAD AND CALLER EQ PUSH2 0x17F5 JUMP JUMPDEST PUSH1 0x40 MLOAD PUSH1 0x40 DUP2 MSTORE PUSH1 0xE PUSH1 0x40 DUP3 ADD MSTORE PUSH14 0x454D455247454E43595F53544F5 PUSH1 0x94 SHL PUSH1 0x60 DUP3 ADD MSTORE TIMESTAMP PUSH1 0x20 DUP3 ADD MSTORE PUSH32 0x3B6C43F816C7F2729FE5330256755D7829518217EB7E48A596AFAECD1FB8F906 PUSH1 0x80 CALLER SWAP3 LOG2 STOP JUMPDEST CALLVALUE PUSH2 0x257 JUMPI PUSH1 0x20 CALLDATASIZE PUSH1 0x3 NOT ADD SLT PUSH2 0x257 JUMPI PUSH1 0x4 CALLDATALOAD PUSH1 0x1 PUSH1 0x1 PUSH1 0x40 SHL SUB DUP2 GT PUSH2 0x257 JUMPI PUSH2 0xBB3 PUSH1 0x20 PUSH2 0xAD7 PUSH1 0xA SWAP4 CALLDATASIZE SWAP1 PUSH1 0x4 ADD PUSH2 0x1252 JUMP JUMPDEST PUSH1 0x3 SWAP1 DUP3 ADD SWAP1 DUP2 MSTORE SUB ADD SWAP1 KECCAK256 ADD DUP1 SLOAD PUSH1 0xFF NOT AND PUSH1 0x1 OR SWAP1 SSTORE STOP JUMPDEST CALLVALUE PUSH2 0x257 JUMPI PUSH1 0x40 CALLDATASIZE PUSH1 0x3 NOT ADD SLT PUSH2 0x257 JUMPI PUSH2 0xBE6 PUSH2 0x12A8 JUMP JUMPDEST PUSH1 0x1 PUSH1 0x1 PUSH1 0xA0 SHL SUB AND PUSH1 0x0 SWAP1 DUP2 MSTORE PUSH1 0x5 PUSH1 0x20 MSTORE PUSH1 0x40 SWAP1 KECCAK256 DUP1 SLOAD PUSH1 0x24 CALLDATALOAD SWAP1 DUP2 LT ISZERO PUSH2 0x257 JUMPI PUSH2 0xC13 SWAP2 PUSH2 0x1487 JUMP JUMPDEST PUSH2 0x681 JUMPI PUSH2 0xC23 PUSH2 0x253 SWAP2 PUSH2 0x1340 JUMP JUMPDEST PUSH1 0x40 MLOAD SWAP2 DUP3 SWAP2 PUSH1 0x20 DUP4 MSTORE PUSH1 0x20 DUP4 ADD SWAP1 PUSH2 0x12E1 JUMP JUMPDEST CALLVALUE PUSH2 0x257 JUMPI PUSH1 0x0 CALLDATASIZE PUSH1 0x3 NOT ADD SLT PUSH2 0x257 JUMPI PUSH1 0x20 PUSH1 0x1 SLOAD PUSH1 0x40 MLOAD SWAP1 DUP2 MSTORE RETURN JUMPDEST CALLVALUE PUSH2 0x257 JUMPI PUSH1 0x20 CALLDATASIZE PUSH1 0x3 NOT ADD SLT PUSH2 0x257 JUMPI PUSH1 0x4 CALLDATALOAD PUSH1 0x1 PUSH1 0x1 PUSH1 0x40 SHL SUB DUP2 GT PUSH2 0x257 JUMPI PUSH1 0x20 PUSH2 0xC8A PUSH2 0xC9D SWAP3 CALLDATASIZE SWAP1 PUSH1 0x4 ADD PUSH2 0x1252 JUMP JUMPDEST DUP2 PUSH1 0x40 MLOAD SWAP4 DUP3 DUP6 DUP1 SWAP5 MLOAD SWAP4 DUP5 SWAP3 ADD PUSH2 0x12BE JUMP JUMPDEST DUP2 ADD PUSH1 0x3 DUP2 MSTORE SUB ADD SWAP1 KECCAK256 PUSH2 0xCB0 DUP2 PUSH2 0x1340 JUMP JUMPDEST PUSH1 0x1 DUP3 ADD SLOAD PUSH1 0x1 PUSH1 0x1 PUSH1 0xA0 SHL SUB SWAP1 DUP2 AND SWAP3 PUSH2 0x253 SWAP2 SWAP1 PUSH2 0xCD2 PUSH1 0x2 DUP3 ADD PUSH2 0x1340 JUMP JUMPDEST SWAP2 PUSH2 0xCDF PUSH1 0x3 DUP4 ADD PUSH2 0x1340 JUMP JUMPDEST SWAP1 PUSH2 0xCEC PUSH1 0x4 DUP5 ADD PUSH2 0x1340 JUMP JUMPDEST PUSH2 0xCF8 PUSH1 0x5 DUP6 ADD PUSH2 0x1340 JUMP JUMPDEST PUSH1 0x6 DUP6 ADD SLOAD SWAP2 PUSH1 0x7 DUP7 ADD SLOAD SWAP4 PUSH1 0x8 DUP8 ADD SLOAD AND SWAP5 PUSH1 0xFF PUSH1 0xA PUSH2 0xD1B PUSH1 0x9 DUP11 ADD PUSH2 0x1340 JUMP JUMPDEST SWAP9 ADD SLOAD AND SWAP8 PUSH1 0x40 MLOAD SWAP12 DUP13 SWAP12 DUP13 PUSH2 0x13E6 JUMP JUMPDEST CALLVALUE PUSH2 0x257 JUMPI PUSH1 0x20 DUP1 PUSH1 0x3 NOT CALLDATASIZE ADD SLT PUSH2 0x257 JUMPI PUSH1 0x1 PUSH1 0x1 PUSH1 0xA0 SHL SUB PUSH2 0xD4E PUSH2 0x12A8 JUMP JUMPDEST AND PUSH1 0x0 MSTORE PUSH1 0x5 DUP2 MSTORE PUSH1 0x40 PUSH1 0x0 KECCAK256 SWAP1 DUP2 SLOAD SWAP2 PUSH2 0xD68 DUP4 PUSH2 0x1662 JUMP JUMPDEST SWAP3 PUSH2 0xD76 PUSH1 0x40 MLOAD SWAP5 DUP6 PUSH2 0x1231 JUMP JUMPDEST DUP1 DUP5 MSTORE DUP3 DUP5 ADD DUP1 SWAP3 PUSH1 0x0 MSTORE DUP4 PUSH1 0x0 KECCAK256 PUSH1 0x0 SWAP2 JUMPDEST DUP4 DUP4 LT PUSH2 0xDF0 JUMPI POP POP POP POP PUSH1 0x40 MLOAD SWAP2 DUP1 DUP4 ADD SWAP4 DUP2 DUP5 MSTORE MLOAD DUP1 SWAP5 MSTORE PUSH1 0x40 DUP4 ADD SWAP4 PUSH1 0x40 DUP2 PUSH1 0x5 SHL DUP6 ADD ADD SWAP3 SWAP2 PUSH1 0x0 SWAP6 JUMPDEST DUP3 DUP8 LT PUSH2 0xDC4 JUMPI DUP6 DUP6 SUB DUP7 RETURN JUMPDEST SWAP1 SWAP2 SWAP3 SWAP4 DUP3 DUP1 PUSH2 0xDE0 PUSH1 0x1 SWAP4 PUSH1 0x3F NOT DUP11 DUP3 SUB ADD DUP7 MSTORE DUP9 MLOAD PUSH2 0x12E1 JUMP JUMPDEST SWAP7 ADD SWAP3 ADD SWAP7 ADD SWAP6 SWAP3 SWAP2 SWAP1 SWAP3 PUSH2 0xDB7 JUMP JUMPDEST PUSH1 0x1 DUP7 DUP2 SWAP3 PUSH2 0xE01 DUP6 SWAP11 SWAP10 SWAP11 PUSH2 0x1340 JUMP JUMPDEST DUP2 MSTORE ADD SWAP3 ADD SWAP3 ADD SWAP2 SWAP1 SWAP6 SWAP5 SWAP6 PUSH2 0xD89 JUMP JUMPDEST CALLVALUE PUSH2 0x257 JUMPI PUSH1 0x0 CALLDATASIZE PUSH1 0x3 NOT ADD SLT PUSH2 0x257 JUMPI PUSH1 0x20 PUSH1 0x2 SLOAD PUSH1 0x40 MLOAD SWAP1 DUP2 MSTORE RETURN JUMPDEST CALLVALUE PUSH2 0x257 JUMPI PUSH1 0x20 CALLDATASIZE PUSH1 0x3 NOT ADD SLT PUSH2 0x257 JUMPI PUSH1 0x4 CALLDATALOAD PUSH1 0x1 PUSH1 0x1 PUSH1 0x40 SHL SUB DUP2 GT PUSH2 0x257 JUMPI PUSH1 0xFF PUSH2 0xE68 PUSH1 0x20 PUSH2 0xC8A DUP2 SWAP5 CALLDATASIZE SWAP1 PUSH1 0x4 ADD PUSH2 0x1252 JUMP JUMPDEST DUP2 ADD PUSH1 0x6 DUP2 MSTORE SUB ADD SWAP1 KECCAK256 SLOAD AND PUSH1 0x40 MLOAD SWAP1 ISZERO ISZERO DUP2 MSTORE RETURN JUMPDEST CALLVALUE PUSH2 0x257 JUMPI PUSH1 0x80 CALLDATASIZE PUSH1 0x3 NOT ADD SLT PUSH2 0x257 JUMPI PUSH1 0x1 PUSH1 0x1 PUSH1 0x40 SHL SUB PUSH1 0x4 CALLDATALOAD DUP2 DUP2 GT PUSH2 0x257 JUMPI PUSH2 0xEAF SWAP1 CALLDATASIZE SWAP1 PUSH1 0x4 ADD PUSH2 0x1252 JUMP JUMPDEST PUSH1 0x1 PUSH1 0x1 PUSH1 0xA0 SHL SUB SWAP2 PUSH1 0x24 CALLDATALOAD DUP4 DUP2 AND SWAP3 SWAP2 SWAP1 DUP4 SWAP1 SUB PUSH2 0x257 JUMPI PUSH1 0x44 CALLDATALOAD DUP2 DUP2 GT PUSH2 0x257 JUMPI PUSH2 0xEE0 SWAP1 CALLDATASIZE SWAP1 PUSH1 0x4 ADD PUSH2 0x1252 JUMP JUMPDEST SWAP1 PUSH1 0x64 CALLDATALOAD SWAP1 DUP2 GT PUSH2 0x257 JUMPI PUSH2 0xEF9 SWAP1 CALLDATASIZE SWAP1 PUSH1 0x4 ADD PUSH2 0x1252 JUMP JUMPDEST SWAP4 PUSH1 0x40 MLOAD SWAP5 DUP4 MLOAD SWAP2 PUSH2 0xF1A PUSH1 0xFF PUSH1 0x20 SWAP9 DUP10 DUP2 DUP2 DUP11 ADD SWAP8 PUSH2 0x134 DUP2 DUP4 DUP12 PUSH2 0x12BE JUMP JUMPDEST DUP1 PUSH1 0x8 PUSH1 0x40 MLOAD DUP10 DUP2 DUP10 MLOAD PUSH2 0xF2F DUP2 DUP4 DUP12 PUSH2 0x12BE JUMP JUMPDEST DUP2 ADD PUSH1 0x3 DUP2 MSTORE SUB ADD SWAP1 KECCAK256 ADD SLOAD AND CALLER SUB PUSH2 0x119A JUMPI DUP6 ISZERO PUSH2 0x1160 JUMPI CALLER DUP7 EQ PUSH2 0x111B JUMPI PUSH1 0xFF PUSH1 0xA PUSH1 0x40 MLOAD DUP10 DUP2 DUP10 MLOAD PUSH2 0xF65 DUP2 DUP4 DUP12 PUSH2 0x12BE JUMP JUMPDEST DUP2 ADD PUSH1 0x3 DUP2 MSTORE SUB ADD SWAP1 KECCAK256 ADD SLOAD AND ISZERO PUSH2 0x10E0 JUMPI DUP1 PUSH1 0x8 PUSH1 0x40 MLOAD DUP10 DUP2 DUP10 MLOAD PUSH2 0xF8C DUP2 DUP4 DUP12 PUSH2 0x12BE JUMP JUMPDEST DUP2 ADD PUSH1 0x3 DUP2 MSTORE SUB ADD SWAP1 KECCAK256 ADD SLOAD AND SWAP5 PUSH1 0x8 PUSH1 0x40 MLOAD DUP10 DUP2 DUP5 MLOAD PUSH2 0xFAE DUP2 DUP4 DUP12 PUSH2 0x12BE JUMP JUMPDEST DUP2 ADD PUSH1 0x3 DUP2 MSTORE SUB ADD SWAP1 KECCAK256 ADD PUSH12 0xFFFFFFFFFFFFFFFFFFFFFFFF PUSH1 0xA0 SHL SWAP1 DUP9 DUP3 DUP3 SLOAD AND OR SWAP1 SSTORE PUSH1 0x40 MLOAD PUSH2 0xFDE DUP2 PUSH2 0x11DF JUMP JUMPDEST DUP8 DUP2 MSTORE DUP10 DUP2 ADD SWAP4 DUP10 DUP6 MSTORE PUSH1 0x40 DUP3 ADD SWAP6 TIMESTAMP DUP8 MSTORE PUSH2 0x1014 DUP13 PUSH1 0x60 DUP6 ADD SWAP10 DUP12 DUP12 MSTORE PUSH1 0x80 DUP7 ADD SWAP4 DUP5 MSTORE PUSH1 0x40 MLOAD DUP1 SWAP4 DUP2 SWAP3 DUP11 MLOAD SWAP3 DUP4 SWAP2 PUSH2 0x12BE JUMP JUMPDEST DUP2 ADD PUSH1 0x4 DUP2 MSTORE SUB ADD SWAP1 KECCAK256 DUP1 SLOAD PUSH1 0x1 PUSH1 0x40 SHL DUP2 LT ISZERO PUSH2 0x697 JUMPI PUSH2 0x103B SWAP2 PUSH1 0x1 DUP3 ADD DUP2 SSTORE PUSH2 0x14B5 JUMP JUMPDEST SWAP4 SWAP1 SWAP4 PUSH2 0x681 JUMPI PUSH32 0xD33EA0002DFEDC25DB0F9F698AF224A8EC8617C502B4DB917C208A652D573E6D SWAP9 PUSH2 0x10CF SWAP9 PUSH2 0x10BA SWAP9 PUSH2 0x10A7 SWAP8 DUP7 PUSH1 0x4 SWAP8 PUSH2 0x109F SWAP7 MLOAD AND DUP3 DUP11 SLOAD AND OR DUP10 SSTORE PUSH1 0x1 DUP10 ADD SWAP3 MLOAD AND SWAP1 DUP3 SLOAD AND OR SWAP1 SSTORE MLOAD PUSH1 0x2 DUP7 ADD SSTORE MLOAD PUSH1 0x3 DUP6 ADD PUSH2 0x14D1 JUMP JUMPDEST MLOAD SWAP2 ADD PUSH2 0x14D1 JUMP JUMPDEST PUSH2 0x10B2 PUSH1 0x2 SLOAD PUSH2 0x15E0 JUMP JUMPDEST PUSH1 0x2 SSTORE PUSH2 0x1605 JUMP JUMPDEST SWAP3 PUSH1 0x40 MLOAD SWAP2 DUP3 SWAP2 PUSH1 0x40 DUP4 MSTORE PUSH1 0x40 DUP4 ADD SWAP1 PUSH2 0x12E1 JUMP JUMPDEST TIMESTAMP DUP9 DUP4 ADD MSTORE SUB SWAP1 LOG4 PUSH1 0x40 MLOAD PUSH1 0x1 DUP2 MSTORE RETURN JUMPDEST PUSH1 0x40 MLOAD PUSH3 0x461BCD PUSH1 0xE5 SHL DUP2 MSTORE PUSH1 0x4 DUP2 ADD DUP9 SWAP1 MSTORE PUSH1 0x13 PUSH1 0x24 DUP3 ADD MSTORE PUSH19 0x4C6F7465206E6F20657374612061637469766F PUSH1 0x68 SHL PUSH1 0x44 DUP3 ADD MSTORE PUSH1 0x64 SWAP1 REVERT JUMPDEST PUSH1 0x40 MLOAD PUSH3 0x461BCD PUSH1 0xE5 SHL DUP2 MSTORE PUSH1 0x4 DUP2 ADD DUP9 SWAP1 MSTORE PUSH1 0x1F PUSH1 0x24 DUP3 ADD MSTORE PUSH32 0x4E6F20707565646573207472616E7366657269722061207469206D69736D6F00 PUSH1 0x44 DUP3 ADD MSTORE PUSH1 0x64 SWAP1 REVERT JUMPDEST PUSH1 0x40 MLOAD PUSH3 0x461BCD PUSH1 0xE5 SHL DUP2 MSTORE PUSH1 0x4 DUP2 ADD DUP9 SWAP1 MSTORE PUSH1 0x12 PUSH1 0x24 DUP3 ADD MSTORE PUSH18 0x446972656363696F6E20696E76616C696461 PUSH1 0x70 SHL PUSH1 0x44 DUP3 ADD MSTORE PUSH1 0x64 SWAP1 REVERT JUMPDEST PUSH1 0x40 MLOAD PUSH3 0x461BCD PUSH1 0xE5 SHL DUP2 MSTORE PUSH1 0x4 DUP2 ADD DUP9 SWAP1 MSTORE PUSH1 0x1D PUSH1 0x24 DUP3 ADD MSTORE PUSH32 0x4E6F206572657320656C206475656E6F2064652065737465206C6F7465000000 PUSH1 0x44 DUP3 ADD MSTORE PUSH1 0x64 SWAP1 REVERT JUMPDEST PUSH1 0xA0 DUP2 ADD SWAP1 DUP2 LT PUSH1 0x1 PUSH1 0x1 PUSH1 0x40 SHL SUB DUP3 GT OR PUSH2 0x697 JUMPI PUSH1 0x40 MSTORE JUMP JUMPDEST PUSH2 0x160 DUP2 ADD SWAP1 DUP2 LT PUSH1 0x1 PUSH1 0x1 PUSH1 0x40 SHL SUB DUP3 GT OR PUSH2 0x697 JUMPI PUSH1 0x40 MSTORE JUMP JUMPDEST PUSH1 0x40 DUP2 ADD SWAP1 DUP2 LT PUSH1 0x1 PUSH1 0x1 PUSH1 0x40 SHL SUB DUP3 GT OR PUSH2 0x697 JUMPI PUSH1 0x40 MSTORE JUMP JUMPDEST SWAP1 PUSH1 0x1F DUP1 NOT SWAP2 ADD AND DUP2 ADD SWAP1 DUP2 LT PUSH1 0x1 PUSH1 0x1 PUSH1 0x40 SHL SUB DUP3 GT OR PUSH2 0x697 JUMPI PUSH1 0x40 MSTORE JUMP JUMPDEST DUP2 PUSH1 0x1F DUP3 ADD SLT ISZERO PUSH2 0x257 JUMPI DUP1 CALLDATALOAD SWAP1 PUSH1 0x1 PUSH1 0x1 PUSH1 0x40 SHL SUB DUP3 GT PUSH2 0x697 JUMPI PUSH1 0x40 MLOAD SWAP3 PUSH2 0x1286 PUSH1 0x1F DUP5 ADD PUSH1 0x1F NOT AND PUSH1 0x20 ADD DUP6 PUSH2 0x1231 JUMP JUMPDEST DUP3 DUP5 MSTORE PUSH1 0x20 DUP4 DUP4 ADD ADD GT PUSH2 0x257 JUMPI DUP2 PUSH1 0x0 SWAP3 PUSH1 0x20 DUP1 SWAP4 ADD DUP4 DUP7 ADD CALLDATACOPY DUP4 ADD ADD MSTORE SWAP1 JUMP JUMPDEST PUSH1 0x4 CALLDATALOAD SWAP1 PUSH1 0x1 PUSH1 0x1 PUSH1 0xA0 SHL SUB DUP3 AND DUP3 SUB PUSH2 0x257 JUMPI JUMP JUMPDEST PUSH1 0x0 JUMPDEST DUP4 DUP2 LT PUSH2 0x12D1 JUMPI POP POP PUSH1 0x0 SWAP2 ADD MSTORE JUMP JUMPDEST DUP2 DUP2 ADD MLOAD DUP4 DUP3 ADD MSTORE PUSH1 0x20 ADD PUSH2 0x12C1 JUMP JUMPDEST SWAP1 PUSH1 0x20 SWAP2 PUSH2 0x12FA DUP2 MLOAD DUP1 SWAP3 DUP2 DUP6 MSTORE DUP6 DUP1 DUP7 ADD SWAP2 ADD PUSH2 0x12BE JUMP JUMPDEST PUSH1 0x1F ADD PUSH1 0x1F NOT AND ADD ADD SWAP1 JUMP JUMPDEST SWAP1 PUSH1 0x1 DUP3 DUP2 SHR SWAP3 AND DUP1 ISZERO PUSH2 0x1336 JUMPI JUMPDEST PUSH1 0x20 DUP4 LT EQ PUSH2 0x1320 JUMPI JUMP JUMPDEST PUSH4 0x4E487B71 PUSH1 0xE0 SHL PUSH1 0x0 MSTORE PUSH1 0x22 PUSH1 0x4 MSTORE PUSH1 0x24 PUSH1 0x0 REVERT JUMPDEST SWAP2 PUSH1 0x7F AND SWAP2 PUSH2 0x1315 JUMP JUMPDEST SWAP1 PUSH1 0x40 MLOAD SWAP2 DUP3 PUSH1 0x0 DUP3 SLOAD SWAP3 PUSH2 0x1354 DUP5 PUSH2 0x1306 JUMP JUMPDEST SWAP1 DUP2 DUP5 MSTORE PUSH1 0x1 SWAP5 DUP6 DUP2 AND SWAP1 DUP2 PUSH1 0x0 EQ PUSH2 0x13C3 JUMPI POP PUSH1 0x1 EQ PUSH2 0x1380 JUMPI JUMPDEST POP POP PUSH2 0x137E SWAP3 POP SUB DUP4 PUSH2 0x1231 JUMP JUMPDEST JUMP JUMPDEST SWAP1 SWAP4 SWAP2 POP PUSH1 0x0 MSTORE PUSH1 0x20 SWAP1 DUP2 PUSH1 0x0 KECCAK256 SWAP4 PUSH1 0x0 SWAP2 JUMPDEST DUP2 DUP4 LT PUSH2 0x13AB JUMPI POP POP PUSH2 0x137E SWAP4 POP DUP3 ADD ADD CODESIZE DUP1 PUSH2 0x1370 JUMP JUMPDEST DUP6 SLOAD DUP9 DUP5 ADD DUP6 ADD MSTORE SWAP5 DUP6 ADD SWAP5 DUP8 SWAP5 POP SWAP2 DUP4 ADD SWAP2 PUSH2 0x1393 JUMP JUMPDEST SWAP2 POP POP PUSH2 0x137E SWAP5 POP PUSH1 0x20 SWAP3 POP PUSH1 0xFF NOT AND DUP3 DUP5 ADD MSTORE ISZERO ISZERO PUSH1 0x5 SHL DUP3 ADD ADD CODESIZE DUP1 PUSH2 0x1370 JUMP JUMPDEST SWAP10 SWAP6 SWAP1 PUSH2 0x145F SWAP3 SWAP6 PUSH2 0x1443 DUP13 SWAP14 SWAP15 SWAP14 PUSH2 0x140 SWAP13 SWAP8 PUSH2 0x1435 PUSH2 0x147F SWAP14 SWAP9 PUSH2 0x1417 PUSH2 0x1451 SWAP8 PUSH2 0x160 DUP1 DUP8 MSTORE DUP7 ADD SWAP1 PUSH2 0x12E1 JUMP JUMPDEST PUSH1 0x1 PUSH1 0x1 PUSH1 0xA0 SHL SUB SWAP13 DUP14 AND PUSH1 0x20 DUP7 ADD MSTORE DUP5 DUP2 SUB PUSH1 0x40 DUP7 ADD MSTORE SWAP1 PUSH2 0x12E1 JUMP JUMPDEST SWAP2 PUSH1 0x60 DUP2 DUP5 SUB SWAP2 ADD MSTORE PUSH2 0x12E1 JUMP JUMPDEST DUP13 DUP2 SUB PUSH1 0x80 DUP15 ADD MSTORE SWAP1 PUSH2 0x12E1 JUMP JUMPDEST SWAP1 DUP11 DUP3 SUB PUSH1 0xA0 DUP13 ADD MSTORE PUSH2 0x12E1 JUMP JUMPDEST SWAP5 PUSH1 0xC0 DUP10 ADD MSTORE PUSH1 0xE0 DUP9 ADD MSTORE AND PUSH2 0x100 DUP7 ADD MSTORE DUP5 DUP3 SUB PUSH2 0x120 DUP7 ADD MSTORE PUSH2 0x12E1 JUMP JUMPDEST SWAP4 ISZERO ISZERO SWAP2 ADD MSTORE JUMP JUMPDEST DUP1 SLOAD DUP3 LT ISZERO PUSH2 0x149F JUMPI PUSH1 0x0 MSTORE PUSH1 0x20 PUSH1 0x0 KECCAK256 ADD SWAP1 PUSH1 0x0 SWAP1 JUMP JUMPDEST PUSH4 0x4E487B71 PUSH1 0xE0 SHL PUSH1 0x0 MSTORE PUSH1 0x32 PUSH1 0x4 MSTORE PUSH1 0x24 PUSH1 0x0 REVERT JUMPDEST DUP1 SLOAD DUP3 LT ISZERO PUSH2 0x149F JUMPI PUSH1 0x0 MSTORE PUSH1 0x5 PUSH1 0x20 PUSH1 0x0 KECCAK256 SWAP2 MUL ADD SWAP1 PUSH1 0x0 SWAP1 JUMP JUMPDEST SWAP2 SWAP1 SWAP2 DUP3 MLOAD PUSH1 0x1 PUSH1 0x1 PUSH1 0x40 SHL SUB DUP2 GT PUSH2 0x697 JUMPI PUSH2 0x14EE DUP3 SLOAD PUSH2 0x1306 JUMP JUMPDEST PUSH1 0x1F DUP2 GT PUSH2 0x1598 JUMPI JUMPDEST POP PUSH1 0x20 DUP1 PUSH1 0x1F DUP4 GT PUSH1 0x1 EQ PUSH2 0x1534 JUMPI POP DUP2 SWAP3 SWAP4 SWAP5 PUSH1 0x0 SWAP3 PUSH2 0x1529 JUMPI JUMPDEST POP POP DUP2 PUSH1 0x1 SHL SWAP2 PUSH1 0x0 NOT SWAP1 PUSH1 0x3 SHL SHR NOT AND OR SWAP1 SSTORE JUMP JUMPDEST ADD MLOAD SWAP1 POP CODESIZE DUP1 PUSH2 0x1513 JUMP JUMPDEST SWAP1 PUSH1 0x1F NOT DUP4 AND SWAP6 DUP5 PUSH1 0x0 MSTORE DUP3 PUSH1 0x0 KECCAK256 SWAP3 PUSH1 0x0 SWAP1 JUMPDEST DUP9 DUP3 LT PUSH2 0x1580 JUMPI POP POP DUP4 PUSH1 0x1 SWAP6 SWAP7 SWAP8 LT PUSH2 0x1567 JUMPI JUMPDEST POP POP POP DUP2 SHL ADD SWAP1 SSTORE JUMP JUMPDEST ADD MLOAD PUSH1 0x0 NOT PUSH1 0xF8 DUP5 PUSH1 0x3 SHL AND SHR NOT AND SWAP1 SSTORE CODESIZE DUP1 DUP1 PUSH2 0x155D JUMP JUMPDEST DUP1 PUSH1 0x1 DUP6 SWAP7 DUP3 SWAP5 SWAP7 DUP7 ADD MLOAD DUP2 SSTORE ADD SWAP6 ADD SWAP4 ADD SWAP1 PUSH2 0x1548 JUMP JUMPDEST PUSH1 0x0 DUP4 DUP2 MSTORE PUSH1 0x20 DUP2 KECCAK256 PUSH1 0x1F DUP5 ADD PUSH1 0x5 SHR DUP2 ADD SWAP3 PUSH1 0x20 DUP6 LT PUSH2 0x15D6 JUMPI JUMPDEST PUSH1 0x1F ADD PUSH1 0x5 SHR ADD SWAP2 JUMPDEST DUP3 DUP2 LT PUSH2 0x15CB JUMPI POP POP PUSH2 0x14F7 JUMP JUMPDEST DUP2 DUP2 SSTORE PUSH1 0x1 ADD PUSH2 0x15BD JUMP JUMPDEST SWAP1 SWAP3 POP DUP3 SWAP1 PUSH2 0x15B4 JUMP JUMPDEST PUSH1 0x0 NOT DUP2 EQ PUSH2 0x15EF JUMPI PUSH1 0x1 ADD SWAP1 JUMP JUMPDEST PUSH4 0x4E487B71 PUSH1 0xE0 SHL PUSH1 0x0 MSTORE PUSH1 0x11 PUSH1 0x4 MSTORE PUSH1 0x24 PUSH1 0x0 REVERT JUMPDEST PUSH2 0x161D SWAP1 PUSH1 0x20 PUSH1 0x40 MLOAD SWAP3 DUP3 DUP5 DUP1 SWAP5 MLOAD SWAP4 DUP5 SWAP3 ADD PUSH2 0x12BE JUMP JUMPDEST DUP2 ADD SUB SWAP1 KECCAK256 SWAP1 JUMP JUMPDEST ISZERO PUSH2 0x162C JUMPI JUMP JUMPDEST PUSH1 0x40 MLOAD PUSH3 0x461BCD PUSH1 0xE5 SHL DUP2 MSTORE PUSH1 0x20 PUSH1 0x4 DUP3 ADD MSTORE PUSH1 0xE PUSH1 0x24 DUP3 ADD MSTORE PUSH14 0x4C6F7465206E6F20657869737465 PUSH1 0x90 SHL PUSH1 0x44 DUP3 ADD MSTORE PUSH1 0x64 SWAP1 REVERT JUMPDEST PUSH1 0x1 PUSH1 0x1 PUSH1 0x40 SHL SUB DUP2 GT PUSH2 0x697 JUMPI PUSH1 0x5 SHL PUSH1 0x20 ADD SWAP1 JUMP JUMPDEST SWAP1 PUSH1 0x40 SWAP2 DUP3 MLOAD DUP2 DUP2 DUP1 SWAP4 MLOAD PUSH2 0x1694 DUP2 PUSH1 0x20 SWAP7 DUP8 DUP1 SWAP7 ADD PUSH2 0x12BE JUMP JUMPDEST DUP2 ADD PUSH1 0x3 DUP2 MSTORE SUB ADD SWAP1 KECCAK256 DUP4 MLOAD SWAP1 PUSH2 0x16AA DUP3 PUSH2 0x11FA JUMP JUMPDEST PUSH2 0x16B3 DUP2 PUSH2 0x1340 JUMP JUMPDEST DUP3 MSTORE PUSH1 0x1 DUP1 PUSH1 0xA0 SHL SUB SWAP2 PUSH1 0xFF PUSH1 0xA DUP5 PUSH1 0x1 DUP6 ADD SLOAD AND SWAP4 DUP7 DUP5 ADD SWAP5 DUP6 MSTORE PUSH2 0x16DB PUSH1 0x2 DUP3 ADD PUSH2 0x1340 JUMP JUMPDEST DUP10 DUP6 ADD MSTORE PUSH2 0x16EB PUSH1 0x3 DUP3 ADD PUSH2 0x1340 JUMP JUMPDEST PUSH1 0x60 DUP6 ADD MSTORE PUSH2 0x16FC PUSH1 0x4 DUP3 ADD PUSH2 0x1340 JUMP JUMPDEST PUSH1 0x80 DUP6 ADD MSTORE PUSH2 0x170D PUSH1 0x5 DUP3 ADD PUSH2 0x1340 JUMP JUMPDEST PUSH1 0xA0 DUP6 ADD MSTORE PUSH1 0x6 DUP2 ADD SLOAD PUSH1 0xC0 DUP6 ADD MSTORE PUSH1 0x7 DUP2 ADD SLOAD PUSH1 0xE0 DUP6 ADD MSTORE DUP6 PUSH1 0x8 DUP3 ADD SLOAD AND PUSH2 0x100 DUP6 ADD MSTORE PUSH2 0x173F PUSH1 0x9 DUP3 ADD PUSH2 0x1340 JUMP JUMPDEST PUSH2 0x120 DUP6 ADD MSTORE ADD SLOAD AND ISZERO SWAP1 PUSH2 0x140 DUP3 ISZERO SWAP2 ADD MSTORE PUSH2 0x17C4 JUMPI MLOAD AND ISZERO PUSH2 0x1796 JUMPI PUSH32 0x4C6F7465207665726966696361646F20636F7272656374616D656E7465000000 PUSH1 0x1 SWAP4 MLOAD SWAP2 PUSH2 0x178C DUP4 PUSH2 0x1216 JUMP JUMPDEST PUSH1 0x1D DUP4 MSTORE DUP3 ADD MSTORE SWAP1 JUMP JUMPDEST PUSH18 0x50726F647563746F7220696E76616C69646F PUSH1 0x70 SHL PUSH1 0x0 SWAP4 MLOAD SWAP2 PUSH2 0x17BA DUP4 PUSH2 0x1216 JUMP JUMPDEST PUSH1 0x12 DUP4 MSTORE DUP3 ADD MSTORE SWAP1 JUMP JUMPDEST POP POP PUSH19 0x4C6F7465206E6F20657374612061637469766F PUSH1 0x68 SHL PUSH1 0x0 SWAP4 MLOAD SWAP2 PUSH2 0x17EB DUP4 PUSH2 0x1216 JUMP JUMPDEST PUSH1 0x13 DUP4 MSTORE DUP3 ADD MSTORE SWAP1 JUMP JUMPDEST ISZERO PUSH2 0x17FC JUMPI JUMP JUMPDEST PUSH1 0x40 MLOAD PUSH3 0x461BCD PUSH1 0xE5 SHL DUP2 MSTORE PUSH1 0x20 PUSH1 0x4 DUP3 ADD MSTORE PUSH1 0x29 PUSH1 0x24 DUP3 ADD MSTORE PUSH32 0x536F6C6F20656C206F776E657220707565646520656A65637574617220657374 PUSH1 0x44 DUP3 ADD MSTORE PUSH9 0x3090333AB731B4B7B7 PUSH1 0xB9 SHL PUSH1 0x64 DUP3 ADD MSTORE PUSH1 0x84 SWAP1 REVERT INVALID LOG2 PUSH5 0x6970667358 0x22 SLT KECCAK256 DUP13 CALLDATALOAD PUSH23 0xBEFF6BDC3F954F6F887BFA6F6DC2132703322316350658 0xD0 0xC9 SSTORE PUSH13 0x123B64736F6C63430008140033 "},"methodIdentifiers":{"activarLote(string)":"4ed3ee07","desactivarLote(string)":"654cee9f","emergencyStop()":"63a599a4","historialLotes(string,uint256)":"a5ab059e","loteIdExiste(string)":"1faf5785","lotes(string)":"32d463b1","lotesPorProductor(address,uint256)":"3d2718b5","obtenerEstadisticas()":"b118d04e","obtenerHistorial(string)":"7775dca3","obtenerLote(string)":"e71a8124","obtenerLotesPorProductor(address)":"31227e1f","owner()":"8da5cb5b","registrarLote(string,string,string,string,string,uint256,string)":"94861870","totalLotes()":"3855a373","totalTransferencias()":"2cc73f5e","transferirOwnershipContrato(address)":"84eb2d5c","transferirPropiedad(string,address,string,string)":"1947f1e3","verificarLote(string)":"731d18b6"}}}}}