{"contracts/SupplyChainTracking.sol":{"SupplyChainTracking":{"abi":[{"inputs":[],"stateMutability":"nonpayable","type":"constructor"},{"anonymous":false,"inputs":[{"indexed":true,"internalType":"bytes32","name":"batchIdHash","type":"bytes32"},{"indexed":false,"internalType":"string","name":"batchId","type":"string"},{"indexed":true,"internalType":"address","name":"creator","type":"address"},{"indexed":false,"internalType":"uint256","name":"timestamp","type":"uint256"}],"name":"BatchCreated","type":"event"},{"anonymous":false,"inputs":[{"indexed":true,"internalType":"bytes32","name":"batchIdHash","type":"bytes32"},{"indexed":false,"internalType":"string","name":"batchId","type":"string"},{"indexed":true,"internalType":"address","name":"by","type":"address"},{"indexed":false,"internalType":"uint256","name":"timestamp","type":"uint256"},{"indexed":false,"internalType":"string","name":"reason","type":"string"}],"name":"BatchFrozen","type":"event"},{"anonymous":false,"inputs":[{"indexed":true,"internalType":"bytes32","name":"batchIdHash","type":"bytes32"},{"indexed":false,"internalType":"string","name":"batchId","type":"string"},{"indexed":true,"internalType":"address","name":"by","type":"address"},{"indexed":false,"internalType":"uint256","name":"timestamp","type":"uint256"}],"name":"BatchUnfrozen","type":"event"},{"anonymous":false,"inputs":[{"indexed":true,"internalType":"address","name":"handler","type":"address"},{"indexed":false,"internalType":"enum SupplyChainTracking.Stage[]","name":"permissions","type":"uint8[]"},{"indexed":false,"internalType":"uint256","name":"timestamp","type":"uint256"}],"name":"HandlerAuthorized","type":"event"},{"anonymous":false,"inputs":[{"indexed":true,"internalType":"address","name":"handler","type":"address"},{"indexed":false,"internalType":"uint256","name":"timestamp","type":"uint256"}],"name":"HandlerRevoked","type":"event"},{"anonymous":false,"inputs":[{"indexed":true,"internalType":"bytes32","name":"batchIdHash","type":"bytes32"},{"indexed":false,"internalType":"string","name":"batchId","type":"string"},{"indexed":false,"internalType":"enum SupplyChainTracking.Stage","name":"stage","type":"uint8"},{"indexed":false,"internalType":"string","name":"location","type":"string"},{"indexed":true,"internalType":"address","name":"handler","type":"address"},{"indexed":false,"internalType":"uint256","name":"timestamp","type":"uint256"},{"indexed":false,"internalType":"string","name":"notes","type":"string"},{"indexed":false,"internalType":"bytes32","name":"certificateHash","type":"bytes32"},{"indexed":false,"internalType":"uint256","name":"transactionValue","type":"uint256"},{"indexed":false,"internalType":"bytes32","name":"qrCodeHash","type":"bytes32"}],"name":"TrackingEventAdded","type":"event"},{"inputs":[{"internalType":"string","name":"_batchId","type":"string"},{"internalType":"enum SupplyChainTracking.Stage","name":"_stage","type":"uint8"},{"internalType":"string","name":"_location","type":"string"},{"internalType":"string","name":"_notes","type":"string"}],"name":"addTrackingEvent","outputs":[],"stateMutability":"nonpayable","type":"function"},{"inputs":[{"internalType":"string","name":"_batchId","type":"string"},{"internalType":"enum SupplyChainTracking.Stage","name":"_stage","type":"uint8"},{"internalType":"string","name":"_location","type":"string"},{"internalType":"string","name":"_notes","type":"string"},{"internalType":"bytes32","name":"_certificateHash","type":"bytes32"},{"internalType":"uint256","name":"_transactionValue","type":"uint256"},{"internalType":"bytes32","name":"_qrCodeHash","type":"bytes32"}],"name":"addTrackingEventWithData","outputs":[],"stateMutability":"nonpayable","type":"function"},{"inputs":[{"internalType":"address","name":"_handler","type":"address"},{"internalType":"enum SupplyChainTracking.Stage[]","name":"_permissions","type":"uint8[]"}],"name":"authorizeHandler","outputs":[],"stateMutability":"nonpayable","type":"function"},{"inputs":[{"internalType":"address","name":"","type":"address"}],"name":"authorizedHandlers","outputs":[{"internalType":"bool","name":"","type":"bool"}],"stateMutability":"view","type":"function"},{"inputs":[{"internalType":"string","name":"_batchId","type":"string"}],"name":"batchExistsCheck","outputs":[{"internalType":"bool","name":"","type":"bool"}],"stateMutability":"view","type":"function"},{"inputs":[{"internalType":"bytes32","name":"","type":"bytes32"},{"internalType":"uint256","name":"","type":"uint256"}],"name":"batchHistory","outputs":[{"internalType":"enum SupplyChainTracking.Stage","name":"stage","type":"uint8"},{"internalType":"string","name":"location","type":"string"},{"internalType":"uint256","name":"timestamp","type":"uint256"},{"internalType":"address","name":"handler","type":"address"},{"internalType":"string","name":"notes","type":"string"},{"internalType":"bytes32","name":"certificateHash","type":"bytes32"},{"internalType":"uint256","name":"transactionValue","type":"uint256"},{"internalType":"bytes32","name":"qrCodeHash","type":"bytes32"}],"stateMutability":"view","type":"function"},{"inputs":[{"internalType":"bytes32","name":"","type":"bytes32"}],"name":"batches","outputs":[{"internalType":"bool","name":"exists","type":"bool"},{"internalType":"bool","name":"frozen","type":"bool"},{"internalType":"enum SupplyChainTracking.Stage","name":"currentStage","type":"uint8"},{"internalType":"bytes32","name":"batchHash","type":"bytes32"},{"internalType":"uint256","name":"creationTimestamp","type":"uint256"},{"internalType":"address","name":"creator","type":"address"},{"internalType":"string","name":"metadata","type":"string"}],"stateMutability":"view","type":"function"},{"inputs":[{"internalType":"string","name":"_batchId","type":"string"},{"internalType":"string","name":"_metadata","type":"string"}],"name":"createBatch","outputs":[],"stateMutability":"nonpayable","type":"function"},{"inputs":[{"internalType":"string","name":"_batchId","type":"string"},{"internalType":"string","name":"_reason","type":"string"}],"name":"freezeBatch","outputs":[],"stateMutability":"nonpayable","type":"function"},{"inputs":[{"internalType":"string","name":"_batchId","type":"string"}],"name":"getBatchHistory","outputs":[{"components":[{"internalType":"enum SupplyChainTracking.Stage","name":"stage","type":"uint8"},{"internalType":"string","name":"location","type":"string"},{"internalType":"uint256","name":"timestamp","type":"uint256"},{"internalType":"address","name":"handler","type":"address"},{"internalType":"string","name":"notes","type":"string"},{"internalType":"bytes32","name":"certificateHash","type":"bytes32"},{"internalType":"uint256","name":"transactionValue","type":"uint256"},{"internalType":"bytes32","name":"qrCodeHash","type":"bytes32"}],"internalType":"struct SupplyChainTracking.TrackingEvent[]","name":"","type":"tuple[]"}],"stateMutability":"view","type":"function"},{"inputs":[{"internalType":"string","name":"_batchId","type":"string"}],"name":"getBatchInfo","outputs":[{"components":[{"internalType":"bool","name":"exists","type":"bool"},{"internalType":"bool","name":"frozen","type":"bool"},{"internalType":"enum SupplyChainTracking.Stage","name":"currentStage","type":"uint8"},{"internalType":"bytes32","name":"batchHash","type":"bytes32"},{"internalType":"uint256","name":"creationTimestamp","type":"uint256"},{"internalType":"address","name":"creator","type":"address"},{"internalType":"string","name":"metadata","type":"string"}],"internalType":"struct SupplyChainTracking.Batch","name":"","type":"tuple"}],"stateMutability":"view","type":"function"},{"inputs":[{"internalType":"string","name":"_batchId","type":"string"}],"name":"getCurrentStage","outputs":[{"internalType":"enum SupplyChainTracking.Stage","name":"","type":"uint8"}],"stateMutability":"view","type":"function"},{"inputs":[{"internalType":"string","name":"_batchId","type":"string"}],"name":"getEventCount","outputs":[{"internalType":"uint256","name":"","type":"uint256"}],"stateMutability":"view","type":"function"},{"inputs":[{"internalType":"address","name":"_handler","type":"address"}],"name":"getHandlerPermissions","outputs":[{"internalType":"enum SupplyChainTracking.Stage[]","name":"","type":"uint8[]"}],"stateMutability":"view","type":"function"},{"inputs":[{"internalType":"address","name":"","type":"address"},{"internalType":"uint256","name":"","type":"uint256"}],"name":"handlerPermissions","outputs":[{"internalType":"enum SupplyChainTracking.Stage","name":"","type":"uint8"}],"stateMutability":"view","type":"function"},{"inputs":[],"name":"owner","outputs":[{"internalType":"address","name":"","type":"address"}],"stateMutability":"view","type":"function"},{"inputs":[{"internalType":"address","name":"_handler","type":"address"}],"name":"revokeHandler","outputs":[],"stateMutability":"nonpayable","type":"function"},{"inputs":[{"internalType":"string","name":"_batchId","type":"string"}],"name":"unfreezeBatch","outputs":[],"stateMutability":"nonpayable","type":"function"}],"evm":{"bytecode":{"linkReferences":{},"object":"608034620002d957600480546001600160a01b03191633908117825560009081526003602090815260408220805460ff1916600190811790915592939192906001600160401b0390610120840182811185821017620002c65760405260089384815281810161010080368337825115620002b3578782528251861015620002b357856040840152825160021015620002b35760026060840152825160031015620002b357600360808401528251891015620002b3578860a0840152825160051015620002b357600560c0840152825160061015620002b357600660e0840152825160071015620002b35760079083015233875260028352604087209151938411620002a057680100000000000000008411620002a057815484835580851062000243575b50908652818620948360051c96805b888110620001dc5750601f19851690940393846200015b575b604051612f2c9081620002df8239f35b97908895949392959880925b8584106200018857505050505050505001553880808080808080806200014b565b90919293949596998a519084821015620001c957620001b989928789939060ff809160031b9316831b921b19161790565b9b01979695940192919062000167565b634e487b7160e01b845260218352602484fd5b869082835b878110620001f55750818a01550162000132565b95809293505190858210156200023057620002228a92888a939060ff809160031b9316831b921b19161790565b9201950190889291620001e1565b634e487b7160e01b855260218d52602485fd5b828852838820601f80870160051c8201920160051c0190601f86168062000285575b5086905b8281106200027957505062000123565b89815501869062000269565b6000199081830191825491880360031b1c1690553862000265565b634e487b7160e01b875260418852602487fd5b634e487b7160e01b885260328952602488fd5b634e487b7160e01b865260418752602486fd5b600080fdfe6040608081526004908136101561001557600080fd5b60009160e0918335831c80630dc51a7814611de557806320e27a8c14611d805780632e58be7114611caa57806330527dc114611be157806335bcc652146119285780633cd7bca3146117f257806376671f071461103357806379ecc6bc14610cdb5780637e0a4e4414610c765780638da5cb5b14610c4d57806392b8f02114610933578063a252d8a714610741578063ad10faf4146106dd578063afc221df1461069f578063c1544590146105a4578063c81e25ab14610514578063d54d5b92146103a35763f5f09ed0146100e957600080fd5b34610397576080366003190112610397576001600160401b039084833583811161039f5761011a9036908601611f81565b9160243593600885101561039b576044358181116103975761013f9036908801611f81565b90606435908111610397576101579036908801611f81565b913384526020956003875261017160ff838720541661227a565b610190825188810188519161019d8b82818d0195610190818789612111565b8101038084520182611f60565b51902087528689526101b460ff85892054166122f3565b8351898101906101cc8b828c51610190818789612111565b51902087528689526101e760ff8589205460081c1615612336565b6101f385511515612374565b61020b89855180938282019586918d51928391612111565b51902097888652858852888a8488209260018b528589205461030b575b50836102b58188956102b08e600080516020612ed78339815191529f999a8e81996102f29f9e8f9a6102de9f9b849261026c6102676102d29f33612715565b612416565b86519761027889611f13565b6102828c8a6122c6565b880152428688015233606088015260808701528160a08701528160c0870152850152815260018c5220612470565b6122d2565b6102c983519a610100808d528c0190612134565b948a0190611fdc565b87830390880152612134565b904260608601528482036080860152612134565b948160a08401528160c08401528201528033940390a380f35b929394959698999750505060ff825460101c16906008821015610384575093836102d2846102b5818f9a968f8f600080516020612ed78339815191529f9e9b8e8b926102f29f8f956102de9f968e61036b869460ff6102b09b16116123c0565b50509a50509950509a50505095989950959b5050610228565b634e487b7160e01b8c526021905260248bfd5b8380fd5b8280fd5b5080fd5b5090913461039757602091826003193601126105105783356001600160401b03811161050c576105089394956103dd839236908901611f81565b606060c084516103ec81611f45565b848152848a820152848682015284838201528460808201528460a0820152015282516104278882816101908183019687815193849201612111565b51902080825281875261043f60ff84842054166122f3565b8152808652208151809661045282611f45565b82549360ff8516151583526104e48884019560ff8160081c161515875261048260ff8487019260101c16826122c6565b600186015492606086019384526104bb6002880154956080880196875260018060a01b039860a08a60038301541699019889520161206b565b9760c08d019889528b82519d8e9d8e52511515908d0152511515908b01525160608a0190611fdc565b5160808801525160a0870152511660c0850152519080840152610100830190612134565b0390f35b8580fd5b8480fd5b5091346103975760203660031901126103975790610508918360ff95833581528060205220805492600182015461058761056160028501549360018060a01b03600387015416950161206b565b958851998a9981831615158b52818360081c16151560208c01528a019160101c16611fdc565b6060870152608086015260a08501528060c0850152830190612134565b8483833461039b5760209081600319360112610397576105c261219f565b83546001600160a01b0390811694916105dc33871461220c565b16938486526003845260ff83872054161561066c578414610635575082845260038252808420805460ff19169055514281527faa7ffebb0a251446f9e5eceacaf1bdc80098446ae80fe20eda1a2260ff1a46b59190a280f35b82606492519162461bcd60e51b8352820152601360248201527221b0b73737ba103932bb37b5b29037bbb732b960691b6044820152fd5b5082606492519162461bcd60e51b8352820152600e60248201526d139bdd08185d5d1a1bdc9a5e995960921b6044820152fd5b84823461039f57602036600319011261039f5760209160ff9082906001600160a01b036106ca61219f565b1681526003855220541690519015158152f35b50833461073e576020928360031936011261039f5780356001600160401b03811161039b5783929161071191369101611f81565b825161072c8682816101908183019687815193849201612111565b51902081526001845220549051908152f35b80fd5b509192903461039f5760208060031936011261039b5781356001600160401b03811161039757610778909392919336908301611f81565b84516107938582816101908183019687815193849201612111565b51902082526001928381528483209586546107ad816121f5565b936107ba88519586611f60565b81855283850190819987528487209087925b84841061089e575050505050855195828701938388525180945280870190808560051b8901019895925b85841061080357888a0389f35b909192939495968580829b603f198c82030187528a5190610825818351611fdc565b8580610871610841868601516101008089880152860190612134565b858b0151858c01526060808701516001600160a01b03169086015260808087015186830391870191909152612134565b60a0808601519085015260c080860151908501529301519101529b990197969591909101930191906107f6565b98600887829d9b8d809c999a9b9c51906108b782611f13565b6108c560ff895416836122c6565b6108d086890161206b565b8285015260028801549082015260038701546001600160a01b031660608201526108fb86880161206b565b6080820152600587015460a0820152600687015460c082015260078701548b8201528152019301930192919a989a97969594976107cc565b5083903461039f5761094436612159565b90913384526020926003845261095f60ff838720541661227a565b815184810190610979868285516101908187858a01612111565b5190209283865285855260ff8387205416610c1357815115610bd05782516109a081611f45565b60019081815286810188815285820189815260608301888152608084019142835260a085019333855260c086019788528a8d528c8c52898d20955115159060ff61ff0088549251151560081b1692169061ffff191617178555516008811015610bbd5790610a12859493928e966122d2565b5185840155516002830155600382019060018060a01b039051166bffffffffffffffffffffffff60a01b8254161790550191518051986001600160401b038a11610baa5750610a618354612031565b601f8111610b71575b508690601f8a11600114610ae8579880610ace95949381938b9c7fbb2c59d4a0a8a64c5507c34ac3ab5419587aea4a76cc25e0a81bb576fc7875a19a9b9c94610add575b50501b916000199060031b1c19161790555b825192808452830190612134565b9342908201528033940390a380f35b015192508c80610aae565b838952878920999190601f1983168a5b818110610b5c5750917fbb2c59d4a0a8a64c5507c34ac3ab5419587aea4a76cc25e0a81bb576fc7875a198999a9b9184610ace989796959410610b43575b505050811b019055610ac0565b015160001960f88460031b161c191690558a8080610b36565b838301518d559b85019b928a01928a01610af8565b610b9a90848a52888a20601f8c0160051c8101918a8d10610ba0575b601f0160051c0190612263565b89610a6a565b9091508190610b8d565b634e487b7160e01b895260419052602488fd5b634e487b7160e01b8c5260218d5260248cfd5b825162461bcd60e51b8152808801869052601860248201527f42617463682049442063616e6e6f7420626520656d70747900000000000000006044820152606490fd5b825162461bcd60e51b81528088018690526014602482015273426174636820616c72656164792065786973747360601b6044820152606490fd5b5091503461039b578260031936011261039b575490516001600160a01b03909116815260209150f35b84823461039f578060031936011261039f57610c9061219f565b6001600160a01b0316825260026020528082208054602435929190831015610397579160ff610cd99260208660f896829852208360051c0154905194859360031b161c16611fdc565bf35b5083823461039f578260031936011261039f57610cf661219f565b60249384356001600160401b039586821161050c573660238301121561050c578185013594610d24866121f5565b94610d3185519687611f60565b86865260209384870184819960051b8301019136831161102f578501905b82821061101357505082546001600160a01b03929150610d72908316331461220c565b16958688526003845260ff8589205416610fdd57855115610f8a5786885260038452848820986001998a60ff1982541617905560028552858920918751918211610f7857600160401b8211610f78578254828455808310610f2f575b50918952848920918160051c938b8b5b868110610ecd575050601f1983169092039182610e3b575b8a8a7fbdc5cee89fbafd6b00bad3c83934f89cd072a940c99e857f5f638c0e9ad09ae18b8b8b610e2f82519383859485528401906121b5565b9042908301520390a280f35b948a929192958b915b838310610e82575050505050015593945084937fbdc5cee89fbafd6b00bad3c83934f89cd072a940c99e857f5f638c0e9ad09ae18780808080610df6565b90919293968751906008821015610ebb57610eaf8f92868c939060ff809160031b9316831b921b19161790565b98019493019190610e44565b634e487b7160e01b8e5260218452828efd5b8c8d5b8a8110610ee4575081870155018c90610dde565b948092935051906008821015610f1d578f939291610f148c918887949060ff809160031b9316831b921b19161790565b92019501610ed0565b634e487b7160e01b8f5260218552898ffd5b610f5990848c52878c20601f80860160051c82019281871680610f5f575b500160051c0190612263565b8b610dce565b8b600019808701928354920360031b1c16905538610f4d565b634e487b7160e01b8a5260418452848afd5b5060296084928486519362461bcd60e51b85528401528201527f48616e646c6572206d7573742068617665206174206c65617374206f6e65207060448201526832b936b4b9b9b4b7b760b91b6064820152fd5b5060126064928486519362461bcd60e51b855284015282015271105b1c9958591e48185d5d1a1bdc9a5e995960721b6044820152fd5b8135600881101561102b578152908601908601610d4f565b8b80fd5b8a80fd5b5090503461039b576020918260031936011261039757926001600160a01b0361105a61219f565b168152600283528282822083519586879484845492838152019381528481205b82601f83011061157d57918593916111a196610508999896945493838310611561575b838310611542575b838310611523575b838310611504575b8383106114e6575b8383106114c7575b8383106114a8575b838310611489575b8984841061146a575b5083831061144b575b83831061142c575b83831061140d575b8383106113ee575b8383106113cf575b8383106113b0575b838310611391575b838310611372575b838310611353575b838310611334575b838310611315575b8383106112f6575b8383106112d7575b8383106112b8575b838310611299575b83831061127a575b83831061125b575b83831061123c575b83831061121d575b838310611200575b508282106111e3575b8282106111c6575b50106111b0575b5090500385611f60565b519282849384528301906121b5565b816111bd9160f81c611fdc565b01859038611197565b846111da6001939660ff8760f01c16611fdc565b01930184611190565b846111f76001939660ff8760e81c16611fdc565b01930184611188565b946112138160ff87600196991c16611fdc565b019301843861117f565b9194818161123360019360ff8960d81c16611fdc565b01950191611177565b9194818161125260019360ff8960d01c16611fdc565b0195019161116f565b9194818161127160019360ff8960c81c16611fdc565b01950191611167565b9194818161129060019360ff8960c01c16611fdc565b0195019161115f565b919481816112af60019360ff8960b81c16611fdc565b01950191611157565b919481816112ce60019360ff8960b01c16611fdc565b0195019161114f565b919481816112ed60019360ff8960a81c16611fdc565b01950191611147565b9194818161130c60019360ff8960a01c16611fdc565b0195019161113f565b9194818161132b60019360ff8960981c16611fdc565b01950191611137565b9194818161134a60019360ff8960901c16611fdc565b0195019161112f565b9194818161136960019360ff8960881c16611fdc565b01950191611127565b9194818161138860019360ff8960801c16611fdc565b0195019161111f565b919481816113a760019360ff8960781c16611fdc565b01950191611117565b919481816113c660019360ff8960701c16611fdc565b0195019161110f565b919481816113e560019360ff8960681c16611fdc565b01950191611107565b9194818161140460019360ff8960601c16611fdc565b019501916110ff565b9194818161142360019360ff8960581c16611fdc565b019501916110f7565b9194818161144260019360ff8960501c16611fdc565b019501916110ef565b9194818161146160019360ff8960481c16611fdc565b019501916110e7565b8661147f600193959860ff8987951c16611fdc565b01950191896110de565b9194818161149f60019360ff8960381c16611fdc565b019501916110d5565b919481816114be60019360ff8960301c16611fdc565b019501916110cd565b919481816114dd60019360ff8960281c16611fdc565b019501916110c5565b919481816114fb60019360ff89851c16611fdc565b019501916110bd565b9194818161151a60019360ff8960181c16611fdc565b019501916110b5565b9194818161153960019360ff8960101c16611fdc565b019501916110ad565b9194818161155860019360ff8960081c16611fdc565b019501916110a5565b9194818161157460019360ff8916611fdc565b0195019161109d565b9550919390926104006001916117e1896117d361018061176561162f61171d8d8f8c61168d6116d59254998c8b60ff9a826115bb8d94858516611fdc565b6115cc878201858560081c16611fdc565b6115dd858201858560101c16611fdc565b61164b6060956115f4878401878760181c16611fdc565b61160760809987878c8701921c16611fdc565b61163c60a09b61161e8d8601898960281c16611fdc565b60c09e8f8601898960301c16611fdc565b8401878760381c16611fdc565b85856101008501921c16611fdc565b61165e6101208201858560481c16611fdc565b6116716101408201858560501c16611fdc565b6116846101608201858560581c16611fdc565b01921c16611fdc565b6116a06101a08c01888b60681c16611fdc565b6116b36101c08c01888b60701c16611fdc565b6116c66101e08c01888b60781c16611fdc565b86896102008d01921c16611fdc565b6116e86102208a01868960881c16611fdc565b6116fb6102408a01868960901c16611fdc565b61170e6102608a01868960981c16611fdc565b84876102808b01921c16611fdc565b6117306102a08801848760a81c16611fdc565b6117436102c08801848760b01c16611fdc565b6117566102e08801848760b81c16611fdc565b82856103008901921c16611fdc565b6117786103208601828560c81c16611fdc565b61178b6103408601828560d01c16611fdc565b61179e6103608601828560d81c16611fdc565b6117b06103808601848d1c8316611fdc565b6117c36103a08601828560e81c16611fdc565b6103c08501908360f01c16611fdc565b6103e083019060f81c611fdc565b01950191019187949287949261107a565b5091503461039b5761180336612159565b9261181860018060a01b03845416331461220c565b80519061019060209283810185519161183b8682818a0195610190818789612111565b519020885287845261185260ff848a2054166122f3565b61186a84845180938282019586918a51928391612111565b5190209384875286835260ff8288205460081c166118f05750916118ea6118d6927f62bd6469c7218127dcc9732539b3e00bddfc081e0f6aa1724beefb0bebf7999b9486895288825280892061010061ff00198254161790558051948594606086526060860190612134565b914290850152838203908401523396612134565b0390a380f35b82606492519162461bcd60e51b835282015260146024820152732130ba31b41030b63932b0b23c90333937bd32b760611b6044820152fd5b509092913461039b578060031936011261039b576001600160401b039184358381116105105761195b9036908701611f81565b9060243592600884101561050c57604435858111611bdd576119809036908901611f81565b94606435908111611bdd576119989036908901611f81565b94608435958760a4359260c4359533835287611a2360ff83602096600388526119c583838320541661227a565b8151888101906119e18a82818a519a019961019081878d612111565b51902081528088526119f78383832054166122f3565b8c8251611a0f8a82818101945161019081878d612111565b5190208152808852205460081c1615612336565b611a2f83511515612374565b8151611a4985828c61019083830196879251928391612111565b51902098898c528b8452818c209c60018552828d2054611b46575b509181611b0f848e9f8e9f968e9f91600080516020612ed78339815191529f828f998f9b8f93611b2f9f9e9c8f9e611b1b9f968f9a8f986102b099611af19d611ab06102678c33612715565b611ac58a519b611abf8d611f13565b8c6122c6565b8a015242888a01523360608a0152608089015260a088015260c0870152850152815260018c5220612470565b611b0683519c8d610100908181520190612134565b948c0190611fdc565b898303908a0152612134565b904260608801528682036080880152612134565b9660a085015260c08401528201528033940390a380f35b9c60ff815460101c166008811015611bc8578d9e5082611af18e9f948e9f94600080516020612ed78339815191529f828f998f998f93611b2f9f9e9c8f9c611b1b9f9d968f9d8f98879f99611b0f9f9a611ba76102b09c60ff8d16116123c0565b505050505050505050999b9c5050509e505050929450509c9b9a999c611a64565b5050634e487b7160e01b8c5260218d5260248cfd5b8680fd5b50346103975780600319360112610397576024359382358152600160205281812090815486101561073e5750611c7094611c1a91611fff565b509260ff84541693611c98611c316001830161206b565b93600283015495611c5060018060a01b0360038601541691850161206b565b90600585015497611c82600760068801549701549885519c8d809d611fdc565b61010060208d018190528c0190612134565b938a015260608901528782036080890152612134565b9360a086015260c08501528301520390f35b50833461073e576020928360031936011261039f5780356001600160401b03811161039b57611cdc9036908301611f81565b8351611cf78682816101908183019687815193849201612111565b51902090818352828552611d1060ff85852054166122f3565b818352600185528383205415611d3d5750828260ff92610cd99452808652205460101c1691518092611fdc565b835162461bcd60e51b8152908101859052601860248201527f4e6f20747261636b696e67206576656e747320666f756e6400000000000000006044820152606490fd5b50833461073e576020928360031936011261039f5780356001600160401b03811161039b5791611db6849260ff94369101611f81565b8251611dd18782816101908183019687815193849201612111565b519020815280855220541690519015158152f35b5091503461039b57602091826003193601126103975781356001600160401b03811161051057611e189036908401611f81565b611e2c60018060a01b03845416331461220c565b6101908251858101835191611e4b888281880195610190818789612111565b5190208752868652611e6260ff85892054166122f3565b611e7a86855180938282019586918851928391612111565b5190209283865285855260ff8387205460081c1615611eda575090610ace7fb41405fd4a002a5b40384a61d0df37fe656665b6d87ece83b4844329d06ce0729284875286865282872061ff00198154169055825192808452830190612134565b825162461bcd60e51b815290810185905260136024820152722130ba31b41034b9903737ba10333937bd32b760691b6044820152606490fd5b61010081019081106001600160401b03821117611f2f57604052565b634e487b7160e01b600052604160045260246000fd5b60e081019081106001600160401b03821117611f2f57604052565b90601f801991011681019081106001600160401b03821117611f2f57604052565b81601f82011215611fd7578035906001600160401b038211611f2f5760405192611fb5601f8401601f191660200185611f60565b82845260208383010111611fd757816000926020809301838601378301015290565b600080fd5b906008821015611fe95752565b634e487b7160e01b600052602160045260246000fd5b805482101561201b5760005260206000209060031b0190600090565b634e487b7160e01b600052603260045260246000fd5b90600182811c92168015612061575b602083101461204b57565b634e487b7160e01b600052602260045260246000fd5b91607f1691612040565b906040519182600082549261207f84612031565b9081845260019485811690816000146120ee57506001146120ab575b50506120a992500383611f60565b565b9093915060005260209081600020936000915b8183106120d65750506120a99350820101388061209b565b855488840185015294850194879450918301916120be565b9150506120a994506020925060ff191682840152151560051b820101388061209b565b60005b8381106121245750506000910152565b8181015183820152602001612114565b9060209161214d81518092818552858086019101612111565b601f01601f1916010190565b906040600319830112611fd7576001600160401b03600435818111611fd7578361218591600401611f81565b92602435918211611fd75761219c91600401611f81565b90565b600435906001600160a01b0382168203611fd757565b90815180825260208080930193019160005b8281106121d5575050505090565b909192938280826121e96001948951611fdc565b019501939291016121c7565b6001600160401b038111611f2f5760051b60200190565b1561221357565b60405162461bcd60e51b815260206004820152602260248201527f4f6e6c79206f776e65722063616e20706572666f726d2074686973206163746960448201526137b760f11b6064820152608490fd5b81811061226e575050565b60008155600101612263565b1561228157565b60405162461bcd60e51b815260206004820152601960248201527f4e6f7420616e20617574686f72697a65642068616e646c6572000000000000006044820152606490fd5b6008821015611fe95752565b906008811015611fe95762ff000082549160101b169062ff00001916179055565b156122fa57565b60405162461bcd60e51b815260206004820152601460248201527310985d18da08191bd95cc81b9bdd08195e1a5cdd60621b6044820152606490fd5b1561233d57565b60405162461bcd60e51b815260206004820152600f60248201526e2130ba31b41034b990333937bd32b760891b6044820152606490fd5b1561237b57565b60405162461bcd60e51b815260206004820152601860248201527f4c6f636174696f6e2063616e6e6f7420626520656d70747900000000000000006044820152606490fd5b156123c757565b60405162461bcd60e51b815260206004820152602160248201527f5374616765206d7573742062652061667465722063757272656e7420737461676044820152606560f81b6064820152608490fd5b1561241d57565b60405162461bcd60e51b815260206004820152602560248201527f48616e646c6572206e6f7420617574686f72697a656420666f72207468697320604482015264737461676560d81b6064820152608490fd5b8054600160401b811015611f2f5761248f906001928382018155611fff565b9290926126ff5780516008811015611fe95760ff801985541691161783558183019160209283830151918251916001600160401b0392838111611f2f57806124d78354612031565b95601f968781116126d1575b50889087831160011461266e57600092612663575b5050600019600383901b1c191690831b1790555b604084015160028701556003860160018060a01b036060860151166bffffffffffffffffffffffff60a01b82541617905560048601926080850151958651938411611f2f5761255b8554612031565b82811161262b575b50809184116001146125bc57509180809260e09695946007986000946125b1575b50501b916000199060031b1c19161790555b60a0810151600585015560c081015160068501550151910155565b015192503880612584565b91939495601f1984168660005283600020936000905b828210612614575050916007979593918560e0989694106125fb575b505050811b019055612596565b015160001960f88460031b161c191690553880806125ee565b8088869782949787015181550196019401906125d2565b6126549086600052826000208480880160051c82019285891061265a575b0160051c0190612263565b38612563565b92508192612649565b0151905038806124f8565b90859350601f19831691856000528a6000209260005b8c8282106126bb57505084116126a2575b505050811b01905561250c565b015160001960f88460031b161c19169055388080612695565b8385015186558997909501949384019301612684565b6126f990856000528a6000208980860160051c8201928d871061265a570160051c0190612263565b386124e3565b634e487b7160e01b600052600060045260246000fd5b6001600160a01b03166000908152600260209081526040808320815181548082529185528385209096949593929091879184918383019190895b81601f820110612c9a578461286a975493838310612c7e575b838310612c5f575b838310612c40575b838310612c21575b838310612c03575b838310612be4575b838310612bc5575b838310612ba6575b838310612b89575b50828210612b6c575b828210612b4f575b828210612b32575b828210612b15575b828210612af8575b828210612adb575b828210612abe575b828210612aa1575b828210612a84575b828210612a67575b828210612a4a575b828210612a2d575b828210612a10575b8282106129f3575b8282106129d6575b8282106129b9575b82821061299c575b82821061297f575b828210612962575b828210612945575b828210612928575b82821061290b575b50106128f5575b5090500386611f60565b835b85518110156128ed57818160051b870101516008808210156128d9578410156128c55783146128ba5760001981146128a65760010161286c565b634e487b7160e01b85526011600452602485fd5b505050915050600190565b634e487b7160e01b86526021600452602486fd5b634e487b7160e01b87526021600452602487fd5b505050915090565b816129029160f81c611fdc565b01839038612860565b8461291f6001939660ff8760f01c16611fdc565b01930184612859565b8461293c6001939660ff8760e81c16611fdc565b01930184612851565b846129596001939660ff8760e01c16611fdc565b01930184612849565b846129766001939660ff8760d81c16611fdc565b01930184612841565b846129936001939660ff8760d01c16611fdc565b01930184612839565b846129b06001939660ff8760c81c16611fdc565b01930184612831565b846129cd6001939660ff8760c01c16611fdc565b01930184612829565b846129ea6001939660ff8760b81c16611fdc565b01930184612821565b84612a076001939660ff8760b01c16611fdc565b01930184612819565b84612a246001939660ff8760a81c16611fdc565b01930184612811565b84612a416001939660ff8760a01c16611fdc565b01930184612809565b84612a5e6001939660ff8760981c16611fdc565b01930184612801565b84612a7b6001939660ff8760901c16611fdc565b019301846127f9565b84612a986001939660ff8760881c16611fdc565b019301846127f1565b84612ab56001939660ff8760801c16611fdc565b019301846127e9565b84612ad26001939660ff8760781c16611fdc565b019301846127e1565b84612aef6001939660ff8760701c16611fdc565b019301846127d9565b84612b0c6001939660ff8760681c16611fdc565b019301846127d1565b84612b296001939660ff8760601c16611fdc565b019301846127c9565b84612b466001939660ff8760581c16611fdc565b019301846127c1565b84612b636001939660ff8760501c16611fdc565b019301846127b9565b84612b806001939660ff8760481c16611fdc565b019301846127b1565b94612b9c8160ff87600196991c16611fdc565b01930184386127a8565b91948181612bbc60019360ff8960381c16611fdc565b019501916127a0565b91948181612bdb60019360ff8960301c16611fdc565b01950191612798565b91948181612bfa60019360ff8960281c16611fdc565b01950191612790565b91948181612c1860019360ff89851c16611fdc565b01950191612788565b91948181612c3760019360ff8960181c16611fdc565b01950191612780565b91948181612c5660019360ff8960101c16611fdc565b01950191612778565b91948181612c7560019360ff8960081c16611fdc565b01950191612770565b91948181612c9160019360ff8916611fdc565b01950191612768565b926001919492955061040090612ec488546117d3866117b0612d5c612e7c8d612e3489612dec60ff97612ccf838a8d16611fdc565b612ce08184018a8d60081c16611fdc565b612cf18584018a8d60101c16611fdc565b888b610200606095612d0a878201858560181c16611fdc565b612d1d6080958585888501921c16611fdc565b612db360a097612d34898401878760281c16611fdc565b612d6b60c09b612d4b8d8601898960301c16611fdc565b60e09e8f8601898960381c16611fdc565b87876101008701921c16611fdc565b612d7e6101208401878760481c16611fdc565b612d916101408401878760501c16611fdc565b612da46101608401878760581c16611fdc565b85856101808501921c16611fdc565b612dc66101a08201858560681c16611fdc565b612dd96101c08201858560701c16611fdc565b6116846101e08201858560781c16611fdc565b612dff6102208c01888b60881c16611fdc565b612e126102408c01888b60901c16611fdc565b612e256102608c01888b60981c16611fdc565b86896102808d01921c16611fdc565b612e476102a08a01868960a81c16611fdc565b612e5a6102c08a01868960b01c16611fdc565b612e6d6102e08a01868960b81c16611fdc565b84876103008b01921c16611fdc565b612e8f6103208801848760c81c16611fdc565b612ea26103408801848760d01c16611fdc565b612eb56103608801848760d81c16611fdc565b82856103808901921c16611fdc565b01950191019285928a9495929561274f56fe8ca8ca2aefb8ac23c41e4ef1b21b4c9bfcc363a88e6ebead9187c2ab714ce08da264697066735822122049d6984810784c1ab84effa13f6d053f166bde2cc888d9bd2bdfad1461c5bea564736f6c63430008140033","opcodes":"PUSH1 0x80 CALLVALUE PUSH3 0x2D9 JUMPI PUSH1 0x4 DUP1 SLOAD PUSH1 0x1 PUSH1 0x1 PUSH1 0xA0 SHL SUB NOT AND CALLER SWAP1 DUP2 OR DUP3 SSTORE PUSH1 0x0 SWAP1 DUP2 MSTORE PUSH1 0x3 PUSH1 0x20 SWAP1 DUP2 MSTORE PUSH1 0x40 DUP3 KECCAK256 DUP1 SLOAD PUSH1 0xFF NOT AND PUSH1 0x1 SWAP1 DUP2 OR SWAP1 SWAP2 SSTORE SWAP3 SWAP4 SWAP2 SWAP3 SWAP1 PUSH1 0x1 PUSH1 0x1 PUSH1 0x40 SHL SUB SWAP1 PUSH2 0x120 DUP5 ADD DUP3 DUP2 GT DUP6 DUP3 LT OR PUSH3 0x2C6 JUMPI PUSH1 0x40 MSTORE PUSH1 0x8 SWAP4 DUP5 DUP2 MSTORE DUP2 DUP2 ADD PUSH2 0x100 DUP1 CALLDATASIZE DUP4 CALLDATACOPY DUP3 MLOAD ISZERO PUSH3 0x2B3 JUMPI DUP8 DUP3 MSTORE DUP3 MLOAD DUP7 LT ISZERO PUSH3 0x2B3 JUMPI DUP6 PUSH1 0x40 DUP5 ADD MSTORE DUP3 MLOAD PUSH1 0x2 LT ISZERO PUSH3 0x2B3 JUMPI PUSH1 0x2 PUSH1 0x60 DUP5 ADD MSTORE DUP3 MLOAD PUSH1 0x3 LT ISZERO PUSH3 0x2B3 JUMPI PUSH1 0x3 PUSH1 0x80 DUP5 ADD MSTORE DUP3 MLOAD DUP10 LT ISZERO PUSH3 0x2B3 JUMPI DUP9 PUSH1 0xA0 DUP5 ADD MSTORE DUP3 MLOAD PUSH1 0x5 LT ISZERO PUSH3 0x2B3 JUMPI PUSH1 0x5 PUSH1 0xC0 DUP5 ADD MSTORE DUP3 MLOAD PUSH1 0x6 LT ISZERO PUSH3 0x2B3 JUMPI PUSH1 0x6 PUSH1 0xE0 DUP5 ADD MSTORE DUP3 MLOAD PUSH1 0x7 LT ISZERO PUSH3 0x2B3 JUMPI PUSH1 0x7 SWAP1 DUP4 ADD MSTORE CALLER DUP8 MSTORE PUSH1 0x2 DUP4 MSTORE PUSH1 0x40 DUP8 KECCAK256 SWAP2 MLOAD SWAP4 DUP5 GT PUSH3 0x2A0 JUMPI PUSH9 0x10000000000000000 DUP5 GT PUSH3 0x2A0 JUMPI DUP2 SLOAD DUP5 DUP4 SSTORE DUP1 DUP6 LT PUSH3 0x243 JUMPI JUMPDEST POP SWAP1 DUP7 MSTORE DUP2 DUP7 KECCAK256 SWAP5 DUP4 PUSH1 0x5 SHR SWAP7 DUP1 JUMPDEST DUP9 DUP2 LT PUSH3 0x1DC JUMPI POP PUSH1 0x1F NOT DUP6 AND SWAP1 SWAP5 SUB SWAP4 DUP5 PUSH3 0x15B JUMPI JUMPDEST PUSH1 0x40 MLOAD PUSH2 0x2F2C SWAP1 DUP2 PUSH3 0x2DF DUP3 CODECOPY RETURN JUMPDEST SWAP8 SWAP1 DUP9 SWAP6 SWAP5 SWAP4 SWAP3 SWAP6 SWAP9 DUP1 SWAP3 JUMPDEST DUP6 DUP5 LT PUSH3 0x188 JUMPI POP POP POP POP POP POP POP POP ADD SSTORE CODESIZE DUP1 DUP1 DUP1 DUP1 DUP1 DUP1 DUP1 DUP1 PUSH3 0x14B JUMP JUMPDEST SWAP1 SWAP2 SWAP3 SWAP4 SWAP5 SWAP6 SWAP7 SWAP10 DUP11 MLOAD SWAP1 DUP5 DUP3 LT ISZERO PUSH3 0x1C9 JUMPI PUSH3 0x1B9 DUP10 SWAP3 DUP8 DUP10 SWAP4 SWAP1 PUSH1 0xFF DUP1 SWAP2 PUSH1 0x3 SHL SWAP4 AND DUP4 SHL SWAP3 SHL NOT AND OR SWAP1 JUMP JUMPDEST SWAP12 ADD SWAP8 SWAP7 SWAP6 SWAP5 ADD SWAP3 SWAP2 SWAP1 PUSH3 0x167 JUMP JUMPDEST PUSH4 0x4E487B71 PUSH1 0xE0 SHL DUP5 MSTORE PUSH1 0x21 DUP4 MSTORE PUSH1 0x24 DUP5 REVERT JUMPDEST DUP7 SWAP1 DUP3 DUP4 JUMPDEST DUP8 DUP2 LT PUSH3 0x1F5 JUMPI POP DUP2 DUP11 ADD SSTORE ADD PUSH3 0x132 JUMP JUMPDEST SWAP6 DUP1 SWAP3 SWAP4 POP MLOAD SWAP1 DUP6 DUP3 LT ISZERO PUSH3 0x230 JUMPI PUSH3 0x222 DUP11 SWAP3 DUP9 DUP11 SWAP4 SWAP1 PUSH1 0xFF DUP1 SWAP2 PUSH1 0x3 SHL SWAP4 AND DUP4 SHL SWAP3 SHL NOT AND OR SWAP1 JUMP JUMPDEST SWAP3 ADD SWAP6 ADD SWAP1 DUP9 SWAP3 SWAP2 PUSH3 0x1E1 JUMP JUMPDEST PUSH4 0x4E487B71 PUSH1 0xE0 SHL DUP6 MSTORE PUSH1 0x21 DUP14 MSTORE PUSH1 0x24 DUP6 REVERT JUMPDEST DUP3 DUP9 MSTORE DUP4 DUP9 KECCAK256 PUSH1 0x1F DUP1 DUP8 ADD PUSH1 0x5 SHR DUP3 ADD SWAP3 ADD PUSH1 0x5 SHR ADD SWAP1 PUSH1 0x1F DUP7 AND DUP1 PUSH3 0x285 JUMPI JUMPDEST POP DUP7 SWAP1 JUMPDEST DUP3 DUP2 LT PUSH3 0x279 JUMPI POP POP PUSH3 0x123 JUMP JUMPDEST DUP10 DUP2 SSTORE ADD DUP7 SWAP1 PUSH3 0x269 JUMP JUMPDEST PUSH1 0x0 NOT SWAP1 DUP2 DUP4 ADD SWAP2 DUP3 SLOAD SWAP2 DUP9 SUB PUSH1 0x3 SHL SHR AND SWAP1 SSTORE CODESIZE PUSH3 0x265 JUMP JUMPDEST PUSH4 0x4E487B71 PUSH1 0xE0 SHL DUP8 MSTORE PUSH1 0x41 DUP9 MSTORE PUSH1 0x24 DUP8 REVERT JUMPDEST PUSH4 0x4E487B71 PUSH1 0xE0 SHL DUP9 MSTORE PUSH1 0x32 DUP10 MSTORE PUSH1 0x24 DUP9 REVERT JUMPDEST PUSH4 0x4E487B71 PUSH1 0xE0 SHL DUP7 MSTORE PUSH1 0x41 DUP8 MSTORE PUSH1 0x24 DUP7 REVERT JUMPDEST PUSH1 0x0 DUP1 REVERT INVALID PUSH1 0x40 PUSH1 0x80 DUP2 MSTORE PUSH1 0x4 SWAP1 DUP2 CALLDATASIZE LT ISZERO PUSH2 0x15 JUMPI PUSH1 0x0 DUP1 REVERT JUMPDEST PUSH1 0x0 SWAP2 PUSH1 0xE0 SWAP2 DUP4 CALLDATALOAD DUP4 SHR DUP1 PUSH4 0xDC51A78 EQ PUSH2 0x1DE5 JUMPI DUP1 PUSH4 0x20E27A8C EQ PUSH2 0x1D80 JUMPI DUP1 PUSH4 0x2E58BE71 EQ PUSH2 0x1CAA JUMPI DUP1 PUSH4 0x30527DC1 EQ PUSH2 0x1BE1 JUMPI DUP1 PUSH4 0x35BCC652 EQ PUSH2 0x1928 JUMPI DUP1 PUSH4 0x3CD7BCA3 EQ PUSH2 0x17F2 JUMPI DUP1 PUSH4 0x76671F07 EQ PUSH2 0x1033 JUMPI DUP1 PUSH4 0x79ECC6BC EQ PUSH2 0xCDB JUMPI DUP1 PUSH4 0x7E0A4E44 EQ PUSH2 0xC76 JUMPI DUP1 PUSH4 0x8DA5CB5B EQ PUSH2 0xC4D JUMPI DUP1 PUSH4 0x92B8F021 EQ PUSH2 0x933 JUMPI DUP1 PUSH4 0xA252D8A7 EQ PUSH2 0x741 JUMPI DUP1 PUSH4 0xAD10FAF4 EQ PUSH2 0x6DD JUMPI DUP1 PUSH4 0xAFC221DF EQ PUSH2 0x69F JUMPI DUP1 PUSH4 0xC1544590 EQ PUSH2 0x5A4 JUMPI DUP1 PUSH4 0xC81E25AB EQ PUSH2 0x514 JUMPI DUP1 PUSH4 0xD54D5B92 EQ PUSH2 0x3A3 JUMPI PUSH4 0xF5F09ED0 EQ PUSH2 0xE9 JUMPI PUSH1 0x0 DUP1 REVERT JUMPDEST CALLVALUE PUSH2 0x397 JUMPI PUSH1 0x80 CALLDATASIZE PUSH1 0x3 NOT ADD SLT PUSH2 0x397 JUMPI PUSH1 0x1 PUSH1 0x1 PUSH1 0x40 SHL SUB SWAP1 DUP5 DUP4 CALLDATALOAD DUP4 DUP2 GT PUSH2 0x39F JUMPI PUSH2 0x11A SWAP1 CALLDATASIZE SWAP1 DUP7 ADD PUSH2 0x1F81 JUMP JUMPDEST SWAP2 PUSH1 0x24 CALLDATALOAD SWAP4 PUSH1 0x8 DUP6 LT ISZERO PUSH2 0x39B JUMPI PUSH1 0x44 CALLDATALOAD DUP2 DUP2 GT PUSH2 0x397 JUMPI PUSH2 0x13F SWAP1 CALLDATASIZE SWAP1 DUP9 ADD PUSH2 0x1F81 JUMP JUMPDEST SWAP1 PUSH1 0x64 CALLDATALOAD SWAP1 DUP2 GT PUSH2 0x397 JUMPI PUSH2 0x157 SWAP1 CALLDATASIZE SWAP1 DUP9 ADD PUSH2 0x1F81 JUMP JUMPDEST SWAP2 CALLER DUP5 MSTORE PUSH1 0x20 SWAP6 PUSH1 0x3 DUP8 MSTORE PUSH2 0x171 PUSH1 0xFF DUP4 DUP8 KECCAK256 SLOAD AND PUSH2 0x227A JUMP JUMPDEST PUSH2 0x190 DUP3 MLOAD DUP9 DUP2 ADD DUP9 MLOAD SWAP2 PUSH2 0x19D DUP12 DUP3 DUP2 DUP14 ADD SWAP6 PUSH2 0x190 DUP2 DUP8 DUP10 PUSH2 0x2111 JUMP JUMPDEST DUP2 ADD SUB DUP1 DUP5 MSTORE ADD DUP3 PUSH2 0x1F60 JUMP JUMPDEST MLOAD SWAP1 KECCAK256 DUP8 MSTORE DUP7 DUP10 MSTORE PUSH2 0x1B4 PUSH1 0xFF DUP6 DUP10 KECCAK256 SLOAD AND PUSH2 0x22F3 JUMP JUMPDEST DUP4 MLOAD DUP10 DUP2 ADD SWAP1 PUSH2 0x1CC DUP12 DUP3 DUP13 MLOAD PUSH2 0x190 DUP2 DUP8 DUP10 PUSH2 0x2111 JUMP JUMPDEST MLOAD SWAP1 KECCAK256 DUP8 MSTORE DUP7 DUP10 MSTORE PUSH2 0x1E7 PUSH1 0xFF DUP6 DUP10 KECCAK256 SLOAD PUSH1 0x8 SHR AND ISZERO PUSH2 0x2336 JUMP JUMPDEST PUSH2 0x1F3 DUP6 MLOAD ISZERO ISZERO PUSH2 0x2374 JUMP JUMPDEST PUSH2 0x20B DUP10 DUP6 MLOAD DUP1 SWAP4 DUP3 DUP3 ADD SWAP6 DUP7 SWAP2 DUP14 MLOAD SWAP3 DUP4 SWAP2 PUSH2 0x2111 JUMP JUMPDEST MLOAD SWAP1 KECCAK256 SWAP8 DUP9 DUP7 MSTORE DUP6 DUP9 MSTORE DUP9 DUP11 DUP5 DUP9 KECCAK256 SWAP3 PUSH1 0x1 DUP12 MSTORE DUP6 DUP10 KECCAK256 SLOAD PUSH2 0x30B JUMPI JUMPDEST POP DUP4 PUSH2 0x2B5 DUP2 DUP9 SWAP6 PUSH2 0x2B0 DUP15 PUSH1 0x0 DUP1 MLOAD PUSH1 0x20 PUSH2 0x2ED7 DUP4 CODECOPY DUP2 MLOAD SWAP2 MSTORE SWAP16 SWAP10 SWAP11 DUP15 DUP2 SWAP10 PUSH2 0x2F2 SWAP16 SWAP15 DUP16 SWAP11 PUSH2 0x2DE SWAP16 SWAP12 DUP5 SWAP3 PUSH2 0x26C PUSH2 0x267 PUSH2 0x2D2 SWAP16 CALLER PUSH2 0x2715 JUMP JUMPDEST PUSH2 0x2416 JUMP JUMPDEST DUP7 MLOAD SWAP8 PUSH2 0x278 DUP10 PUSH2 0x1F13 JUMP JUMPDEST PUSH2 0x282 DUP13 DUP11 PUSH2 0x22C6 JUMP JUMPDEST DUP9 ADD MSTORE TIMESTAMP DUP7 DUP9 ADD MSTORE CALLER PUSH1 0x60 DUP9 ADD MSTORE PUSH1 0x80 DUP8 ADD MSTORE DUP2 PUSH1 0xA0 DUP8 ADD MSTORE DUP2 PUSH1 0xC0 DUP8 ADD MSTORE DUP6 ADD MSTORE DUP2 MSTORE PUSH1 0x1 DUP13 MSTORE KECCAK256 PUSH2 0x2470 JUMP JUMPDEST PUSH2 0x22D2 JUMP JUMPDEST PUSH2 0x2C9 DUP4 MLOAD SWAP11 PUSH2 0x100 DUP1 DUP14 MSTORE DUP13 ADD SWAP1 PUSH2 0x2134 JUMP JUMPDEST SWAP5 DUP11 ADD SWAP1 PUSH2 0x1FDC JUMP JUMPDEST DUP8 DUP4 SUB SWAP1 DUP9 ADD MSTORE PUSH2 0x2134 JUMP JUMPDEST SWAP1 TIMESTAMP PUSH1 0x60 DUP7 ADD MSTORE DUP5 DUP3 SUB PUSH1 0x80 DUP7 ADD MSTORE PUSH2 0x2134 JUMP JUMPDEST SWAP5 DUP2 PUSH1 0xA0 DUP5 ADD MSTORE DUP2 PUSH1 0xC0 DUP5 ADD MSTORE DUP3 ADD MSTORE DUP1 CALLER SWAP5 SUB SWAP1 LOG3 DUP1 RETURN JUMPDEST SWAP3 SWAP4 SWAP5 SWAP6 SWAP7 SWAP9 SWAP10 SWAP8 POP POP POP PUSH1 0xFF DUP3 SLOAD PUSH1 0x10 SHR AND SWAP1 PUSH1 0x8 DUP3 LT ISZERO PUSH2 0x384 JUMPI POP SWAP4 DUP4 PUSH2 0x2D2 DUP5 PUSH2 0x2B5 DUP2 DUP16 SWAP11 SWAP7 DUP16 DUP16 PUSH1 0x0 DUP1 MLOAD PUSH1 0x20 PUSH2 0x2ED7 DUP4 CODECOPY DUP2 MLOAD SWAP2 MSTORE SWAP16 SWAP15 SWAP12 DUP15 DUP12 SWAP3 PUSH2 0x2F2 SWAP16 DUP16 SWAP6 PUSH2 0x2DE SWAP16 SWAP7 DUP15 PUSH2 0x36B DUP7 SWAP5 PUSH1 0xFF PUSH2 0x2B0 SWAP12 AND GT PUSH2 0x23C0 JUMP JUMPDEST POP POP SWAP11 POP POP SWAP10 POP POP SWAP11 POP POP POP SWAP6 SWAP9 SWAP10 POP SWAP6 SWAP12 POP POP PUSH2 0x228 JUMP JUMPDEST PUSH4 0x4E487B71 PUSH1 0xE0 SHL DUP13 MSTORE PUSH1 0x21 SWAP1 MSTORE PUSH1 0x24 DUP12 REVERT JUMPDEST DUP4 DUP1 REVERT JUMPDEST DUP3 DUP1 REVERT JUMPDEST POP DUP1 REVERT JUMPDEST POP SWAP1 SWAP2 CALLVALUE PUSH2 0x397 JUMPI PUSH1 0x20 SWAP2 DUP3 PUSH1 0x3 NOT CALLDATASIZE ADD SLT PUSH2 0x510 JUMPI DUP4 CALLDATALOAD PUSH1 0x1 PUSH1 0x1 PUSH1 0x40 SHL SUB DUP2 GT PUSH2 0x50C JUMPI PUSH2 0x508 SWAP4 SWAP5 SWAP6 PUSH2 0x3DD DUP4 SWAP3 CALLDATASIZE SWAP1 DUP10 ADD PUSH2 0x1F81 JUMP JUMPDEST PUSH1 0x60 PUSH1 0xC0 DUP5 MLOAD PUSH2 0x3EC DUP2 PUSH2 0x1F45 JUMP JUMPDEST DUP5 DUP2 MSTORE DUP5 DUP11 DUP3 ADD MSTORE DUP5 DUP7 DUP3 ADD MSTORE DUP5 DUP4 DUP3 ADD MSTORE DUP5 PUSH1 0x80 DUP3 ADD MSTORE DUP5 PUSH1 0xA0 DUP3 ADD MSTORE ADD MSTORE DUP3 MLOAD PUSH2 0x427 DUP9 DUP3 DUP2 PUSH2 0x190 DUP2 DUP4 ADD SWAP7 DUP8 DUP2 MLOAD SWAP4 DUP5 SWAP3 ADD PUSH2 0x2111 JUMP JUMPDEST MLOAD SWAP1 KECCAK256 DUP1 DUP3 MSTORE DUP2 DUP8 MSTORE PUSH2 0x43F PUSH1 0xFF DUP5 DUP5 KECCAK256 SLOAD AND PUSH2 0x22F3 JUMP JUMPDEST DUP2 MSTORE DUP1 DUP7 MSTORE KECCAK256 DUP2 MLOAD DUP1 SWAP7 PUSH2 0x452 DUP3 PUSH2 0x1F45 JUMP JUMPDEST DUP3 SLOAD SWAP4 PUSH1 0xFF DUP6 AND ISZERO ISZERO DUP4 MSTORE PUSH2 0x4E4 DUP9 DUP5 ADD SWAP6 PUSH1 0xFF DUP2 PUSH1 0x8 SHR AND ISZERO ISZERO DUP8 MSTORE PUSH2 0x482 PUSH1 0xFF DUP5 DUP8 ADD SWAP3 PUSH1 0x10 SHR AND DUP3 PUSH2 0x22C6 JUMP JUMPDEST PUSH1 0x1 DUP7 ADD SLOAD SWAP3 PUSH1 0x60 DUP7 ADD SWAP4 DUP5 MSTORE PUSH2 0x4BB PUSH1 0x2 DUP9 ADD SLOAD SWAP6 PUSH1 0x80 DUP9 ADD SWAP7 DUP8 MSTORE PUSH1 0x1 DUP1 PUSH1 0xA0 SHL SUB SWAP9 PUSH1 0xA0 DUP11 PUSH1 0x3 DUP4 ADD SLOAD AND SWAP10 ADD SWAP9 DUP10 MSTORE ADD PUSH2 0x206B JUMP JUMPDEST SWAP8 PUSH1 0xC0 DUP14 ADD SWAP9 DUP10 MSTORE DUP12 DUP3 MLOAD SWAP14 DUP15 SWAP14 DUP15 MSTORE MLOAD ISZERO ISZERO SWAP1 DUP14 ADD MSTORE MLOAD ISZERO ISZERO SWAP1 DUP12 ADD MSTORE MLOAD PUSH1 0x60 DUP11 ADD SWAP1 PUSH2 0x1FDC JUMP JUMPDEST MLOAD PUSH1 0x80 DUP9 ADD MSTORE MLOAD PUSH1 0xA0 DUP8 ADD MSTORE MLOAD AND PUSH1 0xC0 DUP6 ADD MSTORE MLOAD SWAP1 DUP1 DUP5 ADD MSTORE PUSH2 0x100 DUP4 ADD SWAP1 PUSH2 0x2134 JUMP JUMPDEST SUB SWAP1 RETURN JUMPDEST DUP6 DUP1 REVERT JUMPDEST DUP5 DUP1 REVERT JUMPDEST POP SWAP2 CALLVALUE PUSH2 0x397 JUMPI PUSH1 0x20 CALLDATASIZE PUSH1 0x3 NOT ADD SLT PUSH2 0x397 JUMPI SWAP1 PUSH2 0x508 SWAP2 DUP4 PUSH1 0xFF SWAP6 DUP4 CALLDATALOAD DUP2 MSTORE DUP1 PUSH1 0x20 MSTORE KECCAK256 DUP1 SLOAD SWAP3 PUSH1 0x1 DUP3 ADD SLOAD PUSH2 0x587 PUSH2 0x561 PUSH1 0x2 DUP6 ADD SLOAD SWAP4 PUSH1 0x1 DUP1 PUSH1 0xA0 SHL SUB PUSH1 0x3 DUP8 ADD SLOAD AND SWAP6 ADD PUSH2 0x206B JUMP JUMPDEST SWAP6 DUP9 MLOAD SWAP10 DUP11 SWAP10 DUP2 DUP4 AND ISZERO ISZERO DUP12 MSTORE DUP2 DUP4 PUSH1 0x8 SHR AND ISZERO ISZERO PUSH1 0x20 DUP13 ADD MSTORE DUP11 ADD SWAP2 PUSH1 0x10 SHR AND PUSH2 0x1FDC JUMP JUMPDEST PUSH1 0x60 DUP8 ADD MSTORE PUSH1 0x80 DUP7 ADD MSTORE PUSH1 0xA0 DUP6 ADD MSTORE DUP1 PUSH1 0xC0 DUP6 ADD MSTORE DUP4 ADD SWAP1 PUSH2 0x2134 JUMP JUMPDEST DUP5 DUP4 DUP4 CALLVALUE PUSH2 0x39B JUMPI PUSH1 0x20 SWAP1 DUP2 PUSH1 0x3 NOT CALLDATASIZE ADD SLT PUSH2 0x397 JUMPI PUSH2 0x5C2 PUSH2 0x219F JUMP JUMPDEST DUP4 SLOAD PUSH1 0x1 PUSH1 0x1 PUSH1 0xA0 SHL SUB SWAP1 DUP2 AND SWAP5 SWAP2 PUSH2 0x5DC CALLER DUP8 EQ PUSH2 0x220C JUMP JUMPDEST AND SWAP4 DUP5 DUP7 MSTORE PUSH1 0x3 DUP5 MSTORE PUSH1 0xFF DUP4 DUP8 KECCAK256 SLOAD AND ISZERO PUSH2 0x66C JUMPI DUP5 EQ PUSH2 0x635 JUMPI POP DUP3 DUP5 MSTORE PUSH1 0x3 DUP3 MSTORE DUP1 DUP5 KECCAK256 DUP1 SLOAD PUSH1 0xFF NOT AND SWAP1 SSTORE MLOAD TIMESTAMP DUP2 MSTORE PUSH32 0xAA7FFEBB0A251446F9E5ECEACAF1BDC80098446AE80FE20EDA1A2260FF1A46B5 SWAP2 SWAP1 LOG2 DUP1 RETURN JUMPDEST DUP3 PUSH1 0x64 SWAP3 MLOAD SWAP2 PUSH3 0x461BCD PUSH1 0xE5 SHL DUP4 MSTORE DUP3 ADD MSTORE PUSH1 0x13 PUSH1 0x24 DUP3 ADD MSTORE PUSH19 0x21B0B73737BA103932BB37B5B29037BBB732B9 PUSH1 0x69 SHL PUSH1 0x44 DUP3 ADD MSTORE REVERT JUMPDEST POP DUP3 PUSH1 0x64 SWAP3 MLOAD SWAP2 PUSH3 0x461BCD PUSH1 0xE5 SHL DUP4 MSTORE DUP3 ADD MSTORE PUSH1 0xE PUSH1 0x24 DUP3 ADD MSTORE PUSH14 0x139BDD08185D5D1A1BDC9A5E9959 PUSH1 0x92 SHL PUSH1 0x44 DUP3 ADD MSTORE REVERT JUMPDEST DUP5 DUP3 CALLVALUE PUSH2 0x39F JUMPI PUSH1 0x20 CALLDATASIZE PUSH1 0x3 NOT ADD SLT PUSH2 0x39F JUMPI PUSH1 0x20 SWAP2 PUSH1 0xFF SWAP1 DUP3 SWAP1 PUSH1 0x1 PUSH1 0x1 PUSH1 0xA0 SHL SUB PUSH2 0x6CA PUSH2 0x219F JUMP JUMPDEST AND DUP2 MSTORE PUSH1 0x3 DUP6 MSTORE KECCAK256 SLOAD AND SWAP1 MLOAD SWAP1 ISZERO ISZERO DUP2 MSTORE RETURN JUMPDEST POP DUP4 CALLVALUE PUSH2 0x73E JUMPI PUSH1 0x20 SWAP3 DUP4 PUSH1 0x3 NOT CALLDATASIZE ADD SLT PUSH2 0x39F JUMPI DUP1 CALLDATALOAD PUSH1 0x1 PUSH1 0x1 PUSH1 0x40 SHL SUB DUP2 GT PUSH2 0x39B JUMPI DUP4 SWAP3 SWAP2 PUSH2 0x711 SWAP2 CALLDATASIZE SWAP2 ADD PUSH2 0x1F81 JUMP JUMPDEST DUP3 MLOAD PUSH2 0x72C DUP7 DUP3 DUP2 PUSH2 0x190 DUP2 DUP4 ADD SWAP7 DUP8 DUP2 MLOAD SWAP4 DUP5 SWAP3 ADD PUSH2 0x2111 JUMP JUMPDEST MLOAD SWAP1 KECCAK256 DUP2 MSTORE PUSH1 0x1 DUP5 MSTORE KECCAK256 SLOAD SWAP1 MLOAD SWAP1 DUP2 MSTORE RETURN JUMPDEST DUP1 REVERT JUMPDEST POP SWAP2 SWAP3 SWAP1 CALLVALUE PUSH2 0x39F JUMPI PUSH1 0x20 DUP1 PUSH1 0x3 NOT CALLDATASIZE ADD SLT PUSH2 0x39B JUMPI DUP2 CALLDATALOAD PUSH1 0x1 PUSH1 0x1 PUSH1 0x40 SHL SUB DUP2 GT PUSH2 0x397 JUMPI PUSH2 0x778 SWAP1 SWAP4 SWAP3 SWAP2 SWAP4 CALLDATASIZE SWAP1 DUP4 ADD PUSH2 0x1F81 JUMP JUMPDEST DUP5 MLOAD PUSH2 0x793 DUP6 DUP3 DUP2 PUSH2 0x190 DUP2 DUP4 ADD SWAP7 DUP8 DUP2 MLOAD SWAP4 DUP5 SWAP3 ADD PUSH2 0x2111 JUMP JUMPDEST MLOAD SWAP1 KECCAK256 DUP3 MSTORE PUSH1 0x1 SWAP3 DUP4 DUP2 MSTORE DUP5 DUP4 KECCAK256 SWAP6 DUP7 SLOAD PUSH2 0x7AD DUP2 PUSH2 0x21F5 JUMP JUMPDEST SWAP4 PUSH2 0x7BA DUP9 MLOAD SWAP6 DUP7 PUSH2 0x1F60 JUMP JUMPDEST DUP2 DUP6 MSTORE DUP4 DUP6 ADD SWAP1 DUP2 SWAP10 DUP8 MSTORE DUP5 DUP8 KECCAK256 SWAP1 DUP8 SWAP3 JUMPDEST DUP5 DUP5 LT PUSH2 0x89E JUMPI POP POP POP POP POP DUP6 MLOAD SWAP6 DUP3 DUP8 ADD SWAP4 DUP4 DUP9 MSTORE MLOAD DUP1 SWAP5 MSTORE DUP1 DUP8 ADD SWAP1 DUP1 DUP6 PUSH1 0x5 SHL DUP10 ADD ADD SWAP9 SWAP6 SWAP3 JUMPDEST DUP6 DUP5 LT PUSH2 0x803 JUMPI DUP9 DUP11 SUB DUP10 RETURN JUMPDEST SWAP1 SWAP2 SWAP3 SWAP4 SWAP5 SWAP6 SWAP7 DUP6 DUP1 DUP3 SWAP12 PUSH1 0x3F NOT DUP13 DUP3 SUB ADD DUP8 MSTORE DUP11 MLOAD SWAP1 PUSH2 0x825 DUP2 DUP4 MLOAD PUSH2 0x1FDC JUMP JUMPDEST DUP6 DUP1 PUSH2 0x871 PUSH2 0x841 DUP7 DUP7 ADD MLOAD PUSH2 0x100 DUP1 DUP10 DUP9 ADD MSTORE DUP7 ADD SWAP1 PUSH2 0x2134 JUMP JUMPDEST DUP6 DUP12 ADD MLOAD DUP6 DUP13 ADD MSTORE PUSH1 0x60 DUP1 DUP8 ADD MLOAD PUSH1 0x1 PUSH1 0x1 PUSH1 0xA0 SHL SUB AND SWAP1 DUP7 ADD MSTORE PUSH1 0x80 DUP1 DUP8 ADD MLOAD DUP7 DUP4 SUB SWAP2 DUP8 ADD SWAP2 SWAP1 SWAP2 MSTORE PUSH2 0x2134 JUMP JUMPDEST PUSH1 0xA0 DUP1 DUP7 ADD MLOAD SWAP1 DUP6 ADD MSTORE PUSH1 0xC0 DUP1 DUP7 ADD MLOAD SWAP1 DUP6 ADD MSTORE SWAP4 ADD MLOAD SWAP2 ADD MSTORE SWAP12 SWAP10 ADD SWAP8 SWAP7 SWAP6 SWAP2 SWAP1 SWAP2 ADD SWAP4 ADD SWAP2 SWAP1 PUSH2 0x7F6 JUMP JUMPDEST SWAP9 PUSH1 0x8 DUP8 DUP3 SWAP14 SWAP12 DUP14 DUP1 SWAP13 SWAP10 SWAP11 SWAP12 SWAP13 MLOAD SWAP1 PUSH2 0x8B7 DUP3 PUSH2 0x1F13 JUMP JUMPDEST PUSH2 0x8C5 PUSH1 0xFF DUP10 SLOAD AND DUP4 PUSH2 0x22C6 JUMP JUMPDEST PUSH2 0x8D0 DUP7 DUP10 ADD PUSH2 0x206B JUMP JUMPDEST DUP3 DUP6 ADD MSTORE PUSH1 0x2 DUP9 ADD SLOAD SWAP1 DUP3 ADD MSTORE PUSH1 0x3 DUP8 ADD SLOAD PUSH1 0x1 PUSH1 0x1 PUSH1 0xA0 SHL SUB AND PUSH1 0x60 DUP3 ADD MSTORE PUSH2 0x8FB DUP7 DUP9 ADD PUSH2 0x206B JUMP JUMPDEST PUSH1 0x80 DUP3 ADD MSTORE PUSH1 0x5 DUP8 ADD SLOAD PUSH1 0xA0 DUP3 ADD MSTORE PUSH1 0x6 DUP8 ADD SLOAD PUSH1 0xC0 DUP3 ADD MSTORE PUSH1 0x7 DUP8 ADD SLOAD DUP12 DUP3 ADD MSTORE DUP2 MSTORE ADD SWAP4 ADD SWAP4 ADD SWAP3 SWAP2 SWAP11 SWAP9 SWAP11 SWAP8 SWAP7 SWAP6 SWAP5 SWAP8 PUSH2 0x7CC JUMP JUMPDEST POP DUP4 SWAP1 CALLVALUE PUSH2 0x39F JUMPI PUSH2 0x944 CALLDATASIZE PUSH2 0x2159 JUMP JUMPDEST SWAP1 SWAP2 CALLER DUP5 MSTORE PUSH1 0x20 SWAP3 PUSH1 0x3 DUP5 MSTORE PUSH2 0x95F PUSH1 0xFF DUP4 DUP8 KECCAK256 SLOAD AND PUSH2 0x227A JUMP JUMPDEST DUP2 MLOAD DUP5 DUP2 ADD SWAP1 PUSH2 0x979 DUP7 DUP3 DUP6 MLOAD PUSH2 0x190 DUP2 DUP8 DUP6 DUP11 ADD PUSH2 0x2111 JUMP JUMPDEST MLOAD SWAP1 KECCAK256 SWAP3 DUP4 DUP7 MSTORE DUP6 DUP6 MSTORE PUSH1 0xFF DUP4 DUP8 KECCAK256 SLOAD AND PUSH2 0xC13 JUMPI DUP2 MLOAD ISZERO PUSH2 0xBD0 JUMPI DUP3 MLOAD PUSH2 0x9A0 DUP2 PUSH2 0x1F45 JUMP JUMPDEST PUSH1 0x1 SWAP1 DUP2 DUP2 MSTORE DUP7 DUP2 ADD DUP9 DUP2 MSTORE DUP6 DUP3 ADD DUP10 DUP2 MSTORE PUSH1 0x60 DUP4 ADD DUP9 DUP2 MSTORE PUSH1 0x80 DUP5 ADD SWAP2 TIMESTAMP DUP4 MSTORE PUSH1 0xA0 DUP6 ADD SWAP4 CALLER DUP6 MSTORE PUSH1 0xC0 DUP7 ADD SWAP8 DUP9 MSTORE DUP11 DUP14 MSTORE DUP13 DUP13 MSTORE DUP10 DUP14 KECCAK256 SWAP6 MLOAD ISZERO ISZERO SWAP1 PUSH1 0xFF PUSH2 0xFF00 DUP9 SLOAD SWAP3 MLOAD ISZERO ISZERO PUSH1 0x8 SHL AND SWAP3 AND SWAP1 PUSH2 0xFFFF NOT AND OR OR DUP6 SSTORE MLOAD PUSH1 0x8 DUP2 LT ISZERO PUSH2 0xBBD JUMPI SWAP1 PUSH2 0xA12 DUP6 SWAP5 SWAP4 SWAP3 DUP15 SWAP7 PUSH2 0x22D2 JUMP JUMPDEST MLOAD DUP6 DUP5 ADD SSTORE MLOAD PUSH1 0x2 DUP4 ADD SSTORE PUSH1 0x3 DUP3 ADD SWAP1 PUSH1 0x1 DUP1 PUSH1 0xA0 SHL SUB SWAP1 MLOAD AND PUSH12 0xFFFFFFFFFFFFFFFFFFFFFFFF PUSH1 0xA0 SHL DUP3 SLOAD AND OR SWAP1 SSTORE ADD SWAP2 MLOAD DUP1 MLOAD SWAP9 PUSH1 0x1 PUSH1 0x1 PUSH1 0x40 SHL SUB DUP11 GT PUSH2 0xBAA JUMPI POP PUSH2 0xA61 DUP4 SLOAD PUSH2 0x2031 JUMP JUMPDEST PUSH1 0x1F DUP2 GT PUSH2 0xB71 JUMPI JUMPDEST POP DUP7 SWAP1 PUSH1 0x1F DUP11 GT PUSH1 0x1 EQ PUSH2 0xAE8 JUMPI SWAP9 DUP1 PUSH2 0xACE SWAP6 SWAP5 SWAP4 DUP2 SWAP4 DUP12 SWAP13 PUSH32 0xBB2C59D4A0A8A64C5507C34AC3AB5419587AEA4A76CC25E0A81BB576FC7875A1 SWAP11 SWAP12 SWAP13 SWAP5 PUSH2 0xADD JUMPI JUMPDEST POP POP SHL SWAP2 PUSH1 0x0 NOT SWAP1 PUSH1 0x3 SHL SHR NOT AND OR SWAP1 SSTORE JUMPDEST DUP3 MLOAD SWAP3 DUP1 DUP5 MSTORE DUP4 ADD SWAP1 PUSH2 0x2134 JUMP JUMPDEST SWAP4 TIMESTAMP SWAP1 DUP3 ADD MSTORE DUP1 CALLER SWAP5 SUB SWAP1 LOG3 DUP1 RETURN JUMPDEST ADD MLOAD SWAP3 POP DUP13 DUP1 PUSH2 0xAAE JUMP JUMPDEST DUP4 DUP10 MSTORE DUP8 DUP10 KECCAK256 SWAP10 SWAP2 SWAP1 PUSH1 0x1F NOT DUP4 AND DUP11 JUMPDEST DUP2 DUP2 LT PUSH2 0xB5C JUMPI POP SWAP2 PUSH32 0xBB2C59D4A0A8A64C5507C34AC3AB5419587AEA4A76CC25E0A81BB576FC7875A1 SWAP9 SWAP10 SWAP11 SWAP12 SWAP2 DUP5 PUSH2 0xACE SWAP9 SWAP8 SWAP7 SWAP6 SWAP5 LT PUSH2 0xB43 JUMPI JUMPDEST POP POP POP DUP2 SHL ADD SWAP1 SSTORE PUSH2 0xAC0 JUMP JUMPDEST ADD MLOAD PUSH1 0x0 NOT PUSH1 0xF8 DUP5 PUSH1 0x3 SHL AND SHR NOT AND SWAP1 SSTORE DUP11 DUP1 DUP1 PUSH2 0xB36 JUMP JUMPDEST DUP4 DUP4 ADD MLOAD DUP14 SSTORE SWAP12 DUP6 ADD SWAP12 SWAP3 DUP11 ADD SWAP3 DUP11 ADD PUSH2 0xAF8 JUMP JUMPDEST PUSH2 0xB9A SWAP1 DUP5 DUP11 MSTORE DUP9 DUP11 KECCAK256 PUSH1 0x1F DUP13 ADD PUSH1 0x5 SHR DUP2 ADD SWAP2 DUP11 DUP14 LT PUSH2 0xBA0 JUMPI JUMPDEST PUSH1 0x1F ADD PUSH1 0x5 SHR ADD SWAP1 PUSH2 0x2263 JUMP JUMPDEST DUP10 PUSH2 0xA6A JUMP JUMPDEST SWAP1 SWAP2 POP DUP2 SWAP1 PUSH2 0xB8D JUMP JUMPDEST PUSH4 0x4E487B71 PUSH1 0xE0 SHL DUP10 MSTORE PUSH1 0x41 SWAP1 MSTORE PUSH1 0x24 DUP9 REVERT JUMPDEST PUSH4 0x4E487B71 PUSH1 0xE0 SHL DUP13 MSTORE PUSH1 0x21 DUP14 MSTORE PUSH1 0x24 DUP13 REVERT JUMPDEST DUP3 MLOAD PUSH3 0x461BCD PUSH1 0xE5 SHL DUP2 MSTORE DUP1 DUP9 ADD DUP7 SWAP1 MSTORE PUSH1 0x18 PUSH1 0x24 DUP3 ADD MSTORE PUSH32 0x42617463682049442063616E6E6F7420626520656D7074790000000000000000 PUSH1 0x44 DUP3 ADD MSTORE PUSH1 0x64 SWAP1 REVERT JUMPDEST DUP3 MLOAD PUSH3 0x461BCD PUSH1 0xE5 SHL DUP2 MSTORE DUP1 DUP9 ADD DUP7 SWAP1 MSTORE PUSH1 0x14 PUSH1 0x24 DUP3 ADD MSTORE PUSH20 0x426174636820616C726561647920657869737473 PUSH1 0x60 SHL PUSH1 0x44 DUP3 ADD MSTORE PUSH1 0x64 SWAP1 REVERT JUMPDEST POP SWAP2 POP CALLVALUE PUSH2 0x39B JUMPI DUP3 PUSH1 0x3 NOT CALLDATASIZE ADD SLT PUSH2 0x39B JUMPI SLOAD SWAP1 MLOAD PUSH1 0x1 PUSH1 0x1 PUSH1 0xA0 SHL SUB SWAP1 SWAP2 AND DUP2 MSTORE PUSH1 0x20 SWAP2 POP RETURN JUMPDEST DUP5 DUP3 CALLVALUE PUSH2 0x39F JUMPI DUP1 PUSH1 0x3 NOT CALLDATASIZE ADD SLT PUSH2 0x39F JUMPI PUSH2 0xC90 PUSH2 0x219F JUMP JUMPDEST PUSH1 0x1 PUSH1 0x1 PUSH1 0xA0 SHL SUB AND DUP3 MSTORE PUSH1 0x2 PUSH1 0x20 MSTORE DUP1 DUP3 KECCAK256 DUP1 SLOAD PUSH1 0x24 CALLDATALOAD SWAP3 SWAP2 SWAP1 DUP4 LT ISZERO PUSH2 0x397 JUMPI SWAP2 PUSH1 0xFF PUSH2 0xCD9 SWAP3 PUSH1 0x20 DUP7 PUSH1 0xF8 SWAP7 DUP3 SWAP9 MSTORE KECCAK256 DUP4 PUSH1 0x5 SHR ADD SLOAD SWAP1 MLOAD SWAP5 DUP6 SWAP4 PUSH1 0x3 SHL AND SHR AND PUSH2 0x1FDC JUMP JUMPDEST RETURN JUMPDEST POP DUP4 DUP3 CALLVALUE PUSH2 0x39F JUMPI DUP3 PUSH1 0x3 NOT CALLDATASIZE ADD SLT PUSH2 0x39F JUMPI PUSH2 0xCF6 PUSH2 0x219F JUMP JUMPDEST PUSH1 0x24 SWAP4 DUP5 CALLDATALOAD PUSH1 0x1 PUSH1 0x1 PUSH1 0x40 SHL SUB SWAP6 DUP7 DUP3 GT PUSH2 0x50C JUMPI CALLDATASIZE PUSH1 0x23 DUP4 ADD SLT ISZERO PUSH2 0x50C JUMPI DUP2 DUP6 ADD CALLDATALOAD SWAP5 PUSH2 0xD24 DUP7 PUSH2 0x21F5 JUMP JUMPDEST SWAP5 PUSH2 0xD31 DUP6 MLOAD SWAP7 DUP8 PUSH2 0x1F60 JUMP JUMPDEST DUP7 DUP7 MSTORE PUSH1 0x20 SWAP4 DUP5 DUP8 ADD DUP5 DUP2 SWAP10 PUSH1 0x5 SHL DUP4 ADD ADD SWAP2 CALLDATASIZE DUP4 GT PUSH2 0x102F JUMPI DUP6 ADD SWAP1 JUMPDEST DUP3 DUP3 LT PUSH2 0x1013 JUMPI POP POP DUP3 SLOAD PUSH1 0x1 PUSH1 0x1 PUSH1 0xA0 SHL SUB SWAP3 SWAP2 POP PUSH2 0xD72 SWAP1 DUP4 AND CALLER EQ PUSH2 0x220C JUMP JUMPDEST AND SWAP6 DUP7 DUP9 MSTORE PUSH1 0x3 DUP5 MSTORE PUSH1 0xFF DUP6 DUP10 KECCAK256 SLOAD AND PUSH2 0xFDD JUMPI DUP6 MLOAD ISZERO PUSH2 0xF8A JUMPI DUP7 DUP9 MSTORE PUSH1 0x3 DUP5 MSTORE DUP5 DUP9 KECCAK256 SWAP9 PUSH1 0x1 SWAP10 DUP11 PUSH1 0xFF NOT DUP3 SLOAD AND OR SWAP1 SSTORE PUSH1 0x2 DUP6 MSTORE DUP6 DUP10 KECCAK256 SWAP2 DUP8 MLOAD SWAP2 DUP3 GT PUSH2 0xF78 JUMPI PUSH1 0x1 PUSH1 0x40 SHL DUP3 GT PUSH2 0xF78 JUMPI DUP3 SLOAD DUP3 DUP5 SSTORE DUP1 DUP4 LT PUSH2 0xF2F JUMPI JUMPDEST POP SWAP2 DUP10 MSTORE DUP5 DUP10 KECCAK256 SWAP2 DUP2 PUSH1 0x5 SHR SWAP4 DUP12 DUP12 JUMPDEST DUP7 DUP2 LT PUSH2 0xECD JUMPI POP POP PUSH1 0x1F NOT DUP4 AND SWAP1 SWAP3 SUB SWAP2 DUP3 PUSH2 0xE3B JUMPI JUMPDEST DUP11 DUP11 PUSH32 0xBDC5CEE89FBAFD6B00BAD3C83934F89CD072A940C99E857F5F638C0E9AD09AE1 DUP12 DUP12 DUP12 PUSH2 0xE2F DUP3 MLOAD SWAP4 DUP4 DUP6 SWAP5 DUP6 MSTORE DUP5 ADD SWAP1 PUSH2 0x21B5 JUMP JUMPDEST SWAP1 TIMESTAMP SWAP1 DUP4 ADD MSTORE SUB SWAP1 LOG2 DUP1 RETURN JUMPDEST SWAP5 DUP11 SWAP3 SWAP2 SWAP3 SWAP6 DUP12 SWAP2 JUMPDEST DUP4 DUP4 LT PUSH2 0xE82 JUMPI POP POP POP POP POP ADD SSTORE SWAP4 SWAP5 POP DUP5 SWAP4 PUSH32 0xBDC5CEE89FBAFD6B00BAD3C83934F89CD072A940C99E857F5F638C0E9AD09AE1 DUP8 DUP1 DUP1 DUP1 DUP1 PUSH2 0xDF6 JUMP JUMPDEST SWAP1 SWAP2 SWAP3 SWAP4 SWAP7 DUP8 MLOAD SWAP1 PUSH1 0x8 DUP3 LT ISZERO PUSH2 0xEBB JUMPI PUSH2 0xEAF DUP16 SWAP3 DUP7 DUP13 SWAP4 SWAP1 PUSH1 0xFF DUP1 SWAP2 PUSH1 0x3 SHL SWAP4 AND DUP4 SHL SWAP3 SHL NOT AND OR SWAP1 JUMP JUMPDEST SWAP9 ADD SWAP5 SWAP4 ADD SWAP2 SWAP1 PUSH2 0xE44 JUMP JUMPDEST PUSH4 0x4E487B71 PUSH1 0xE0 SHL DUP15 MSTORE PUSH1 0x21 DUP5 MSTORE DUP3 DUP15 REVERT JUMPDEST DUP13 DUP14 JUMPDEST DUP11 DUP2 LT PUSH2 0xEE4 JUMPI POP DUP2 DUP8 ADD SSTORE ADD DUP13 SWAP1 PUSH2 0xDDE JUMP JUMPDEST SWAP5 DUP1 SWAP3 SWAP4 POP MLOAD SWAP1 PUSH1 0x8 DUP3 LT ISZERO PUSH2 0xF1D JUMPI DUP16 SWAP4 SWAP3 SWAP2 PUSH2 0xF14 DUP13 SWAP2 DUP9 DUP8 SWAP5 SWAP1 PUSH1 0xFF DUP1 SWAP2 PUSH1 0x3 SHL SWAP4 AND DUP4 SHL SWAP3 SHL NOT AND OR SWAP1 JUMP JUMPDEST SWAP3 ADD SWAP6 ADD PUSH2 0xED0 JUMP JUMPDEST PUSH4 0x4E487B71 PUSH1 0xE0 SHL DUP16 MSTORE PUSH1 0x21 DUP6 MSTORE DUP10 DUP16 REVERT JUMPDEST PUSH2 0xF59 SWAP1 DUP5 DUP13 MSTORE DUP8 DUP13 KECCAK256 PUSH1 0x1F DUP1 DUP7 ADD PUSH1 0x5 SHR DUP3 ADD SWAP3 DUP2 DUP8 AND DUP1 PUSH2 0xF5F JUMPI JUMPDEST POP ADD PUSH1 0x5 SHR ADD SWAP1 PUSH2 0x2263 JUMP JUMPDEST DUP12 PUSH2 0xDCE JUMP JUMPDEST DUP12 PUSH1 0x0 NOT DUP1 DUP8 ADD SWAP3 DUP4 SLOAD SWAP3 SUB PUSH1 0x3 SHL SHR AND SWAP1 SSTORE CODESIZE PUSH2 0xF4D JUMP JUMPDEST PUSH4 0x4E487B71 PUSH1 0xE0 SHL DUP11 MSTORE PUSH1 0x41 DUP5 MSTORE DUP5 DUP11 REVERT JUMPDEST POP PUSH1 0x29 PUSH1 0x84 SWAP3 DUP5 DUP7 MLOAD SWAP4 PUSH3 0x461BCD PUSH1 0xE5 SHL DUP6 MSTORE DUP5 ADD MSTORE DUP3 ADD MSTORE PUSH32 0x48616E646C6572206D7573742068617665206174206C65617374206F6E652070 PUSH1 0x44 DUP3 ADD MSTORE PUSH9 0x32B936B4B9B9B4B7B7 PUSH1 0xB9 SHL PUSH1 0x64 DUP3 ADD MSTORE REVERT JUMPDEST POP PUSH1 0x12 PUSH1 0x64 SWAP3 DUP5 DUP7 MLOAD SWAP4 PUSH3 0x461BCD PUSH1 0xE5 SHL DUP6 MSTORE DUP5 ADD MSTORE DUP3 ADD MSTORE PUSH18 0x105B1C9958591E48185D5D1A1BDC9A5E9959 PUSH1 0x72 SHL PUSH1 0x44 DUP3 ADD MSTORE REVERT JUMPDEST DUP2 CALLDATALOAD PUSH1 0x8 DUP2 LT ISZERO PUSH2 0x102B JUMPI DUP2 MSTORE SWAP1 DUP7 ADD SWAP1 DUP7 ADD PUSH2 0xD4F JUMP JUMPDEST DUP12 DUP1 REVERT JUMPDEST DUP11 DUP1 REVERT JUMPDEST POP SWAP1 POP CALLVALUE PUSH2 0x39B JUMPI PUSH1 0x20 SWAP2 DUP3 PUSH1 0x3 NOT CALLDATASIZE ADD SLT PUSH2 0x397 JUMPI SWAP3 PUSH1 0x1 PUSH1 0x1 PUSH1 0xA0 SHL SUB PUSH2 0x105A PUSH2 0x219F JUMP JUMPDEST AND DUP2 MSTORE PUSH1 0x2 DUP4 MSTORE DUP3 DUP3 DUP3 KECCAK256 DUP4 MLOAD SWAP6 DUP7 DUP8 SWAP5 DUP5 DUP5 SLOAD SWAP3 DUP4 DUP2 MSTORE ADD SWAP4 DUP2 MSTORE DUP5 DUP2 KECCAK256 JUMPDEST DUP3 PUSH1 0x1F DUP4 ADD LT PUSH2 0x157D JUMPI SWAP2 DUP6 SWAP4 SWAP2 PUSH2 0x11A1 SWAP7 PUSH2 0x508 SWAP10 SWAP9 SWAP7 SWAP5 SLOAD SWAP4 DUP4 DUP4 LT PUSH2 0x1561 JUMPI JUMPDEST DUP4 DUP4 LT PUSH2 0x1542 JUMPI JUMPDEST DUP4 DUP4 LT PUSH2 0x1523 JUMPI JUMPDEST DUP4 DUP4 LT PUSH2 0x1504 JUMPI JUMPDEST DUP4 DUP4 LT PUSH2 0x14E6 JUMPI JUMPDEST DUP4 DUP4 LT PUSH2 0x14C7 JUMPI JUMPDEST DUP4 DUP4 LT PUSH2 0x14A8 JUMPI JUMPDEST DUP4 DUP4 LT PUSH2 0x1489 JUMPI JUMPDEST DUP10 DUP5 DUP5 LT PUSH2 0x146A JUMPI JUMPDEST POP DUP4 DUP4 LT PUSH2 0x144B JUMPI JUMPDEST DUP4 DUP4 LT PUSH2 0x142C JUMPI JUMPDEST DUP4 DUP4 LT PUSH2 0x140D JUMPI JUMPDEST DUP4 DUP4 LT PUSH2 0x13EE JUMPI JUMPDEST DUP4 DUP4 LT PUSH2 0x13CF JUMPI JUMPDEST DUP4 DUP4 LT PUSH2 0x13B0 JUMPI JUMPDEST DUP4 DUP4 LT PUSH2 0x1391 JUMPI JUMPDEST DUP4 DUP4 LT PUSH2 0x1372 JUMPI JUMPDEST DUP4 DUP4 LT PUSH2 0x1353 JUMPI JUMPDEST DUP4 DUP4 LT PUSH2 0x1334 JUMPI JUMPDEST DUP4 DUP4 LT PUSH2 0x1315 JUMPI JUMPDEST DUP4 DUP4 LT PUSH2 0x12F6 JUMPI JUMPDEST DUP4 DUP4 LT PUSH2 0x12D7 JUMPI JUMPDEST DUP4 DUP4 LT PUSH2 0x12B8 JUMPI JUMPDEST DUP4 DUP4 LT PUSH2 0x1299 JUMPI JUMPDEST DUP4 DUP4 LT PUSH2 0x127A JUMPI JUMPDEST DUP4 DUP4 LT PUSH2 0x125B JUMPI JUMPDEST DUP4 DUP4 LT PUSH2 0x123C JUMPI JUMPDEST DUP4 DUP4 LT PUSH2 0x121D JUMPI JUMPDEST DUP4 DUP4 LT PUSH2 0x1200 JUMPI JUMPDEST POP DUP3 DUP3 LT PUSH2 0x11E3 JUMPI JUMPDEST DUP3 DUP3 LT PUSH2 0x11C6 JUMPI JUMPDEST POP LT PUSH2 0x11B0 JUMPI JUMPDEST POP SWAP1 POP SUB DUP6 PUSH2 0x1F60 JUMP JUMPDEST MLOAD SWAP3 DUP3 DUP5 SWAP4 DUP5 MSTORE DUP4 ADD SWAP1 PUSH2 0x21B5 JUMP JUMPDEST DUP2 PUSH2 0x11BD SWAP2 PUSH1 0xF8 SHR PUSH2 0x1FDC JUMP JUMPDEST ADD DUP6 SWAP1 CODESIZE PUSH2 0x1197 JUMP JUMPDEST DUP5 PUSH2 0x11DA PUSH1 0x1 SWAP4 SWAP7 PUSH1 0xFF DUP8 PUSH1 0xF0 SHR AND PUSH2 0x1FDC JUMP JUMPDEST ADD SWAP4 ADD DUP5 PUSH2 0x1190 JUMP JUMPDEST DUP5 PUSH2 0x11F7 PUSH1 0x1 SWAP4 SWAP7 PUSH1 0xFF DUP8 PUSH1 0xE8 SHR AND PUSH2 0x1FDC JUMP JUMPDEST ADD SWAP4 ADD DUP5 PUSH2 0x1188 JUMP JUMPDEST SWAP5 PUSH2 0x1213 DUP2 PUSH1 0xFF DUP8 PUSH1 0x1 SWAP7 SWAP10 SHR AND PUSH2 0x1FDC JUMP JUMPDEST ADD SWAP4 ADD DUP5 CODESIZE PUSH2 0x117F JUMP JUMPDEST SWAP2 SWAP5 DUP2 DUP2 PUSH2 0x1233 PUSH1 0x1 SWAP4 PUSH1 0xFF DUP10 PUSH1 0xD8 SHR AND PUSH2 0x1FDC JUMP JUMPDEST ADD SWAP6 ADD SWAP2 PUSH2 0x1177 JUMP JUMPDEST SWAP2 SWAP5 DUP2 DUP2 PUSH2 0x1252 PUSH1 0x1 SWAP4 PUSH1 0xFF DUP10 PUSH1 0xD0 SHR AND PUSH2 0x1FDC JUMP JUMPDEST ADD SWAP6 ADD SWAP2 PUSH2 0x116F JUMP JUMPDEST SWAP2 SWAP5 DUP2 DUP2 PUSH2 0x1271 PUSH1 0x1 SWAP4 PUSH1 0xFF DUP10 PUSH1 0xC8 SHR AND PUSH2 0x1FDC JUMP JUMPDEST ADD SWAP6 ADD SWAP2 PUSH2 0x1167 JUMP JUMPDEST SWAP2 SWAP5 DUP2 DUP2 PUSH2 0x1290 PUSH1 0x1 SWAP4 PUSH1 0xFF DUP10 PUSH1 0xC0 SHR AND PUSH2 0x1FDC JUMP JUMPDEST ADD SWAP6 ADD SWAP2 PUSH2 0x115F JUMP JUMPDEST SWAP2 SWAP5 DUP2 DUP2 PUSH2 0x12AF PUSH1 0x1 SWAP4 PUSH1 0xFF DUP10 PUSH1 0xB8 SHR AND PUSH2 0x1FDC JUMP JUMPDEST ADD SWAP6 ADD SWAP2 PUSH2 0x1157 JUMP JUMPDEST SWAP2 SWAP5 DUP2 DUP2 PUSH2 0x12CE PUSH1 0x1 SWAP4 PUSH1 0xFF DUP10 PUSH1 0xB0 SHR AND PUSH2 0x1FDC JUMP JUMPDEST ADD SWAP6 ADD SWAP2 PUSH2 0x114F JUMP JUMPDEST SWAP2 SWAP5 DUP2 DUP2 PUSH2 0x12ED PUSH1 0x1 SWAP4 PUSH1 0xFF DUP10 PUSH1 0xA8 SHR AND PUSH2 0x1FDC JUMP JUMPDEST ADD SWAP6 ADD SWAP2 PUSH2 0x1147 JUMP JUMPDEST SWAP2 SWAP5 DUP2 DUP2 PUSH2 0x130C PUSH1 0x1 SWAP4 PUSH1 0xFF DUP10 PUSH1 0xA0 SHR AND PUSH2 0x1FDC JUMP JUMPDEST ADD SWAP6 ADD SWAP2 PUSH2 0x113F JUMP JUMPDEST SWAP2 SWAP5 DUP2 DUP2 PUSH2 0x132B PUSH1 0x1 SWAP4 PUSH1 0xFF DUP10 PUSH1 0x98 SHR AND PUSH2 0x1FDC JUMP JUMPDEST ADD SWAP6 ADD SWAP2 PUSH2 0x1137 JUMP JUMPDEST SWAP2 SWAP5 DUP2 DUP2 PUSH2 0x134A PUSH1 0x1 SWAP4 PUSH1 0xFF DUP10 PUSH1 0x90 SHR AND PUSH2 0x1FDC JUMP JUMPDEST ADD SWAP6 ADD SWAP2 PUSH2 0x112F JUMP JUMPDEST SWAP2 SWAP5 DUP2 DUP2 PUSH2 0x1369 PUSH1 0x1 SWAP4 PUSH1 0xFF DUP10 PUSH1 0x88 SHR AND PUSH2 0x1FDC JUMP JUMPDEST ADD SWAP6 ADD SWAP2 PUSH2 0x1127 JUMP JUMPDEST SWAP2 SWAP5 DUP2 DUP2 PUSH2 0x1388 PUSH1 0x1 SWAP4 PUSH1 0xFF DUP10 PUSH1 0x80 SHR AND PUSH2 0x1FDC JUMP JUMPDEST ADD SWAP6 ADD SWAP2 PUSH2 0x111F JUMP JUMPDEST SWAP2 SWAP5 DUP2 DUP2 PUSH2 0x13A7 PUSH1 0x1 SWAP4 PUSH1 0xFF DUP10 PUSH1 0x78 SHR AND PUSH2 0x1FDC JUMP JUMPDEST ADD SWAP6 ADD SWAP2 PUSH2 0x1117 JUMP JUMPDEST SWAP2 SWAP5 DUP2 DUP2 PUSH2 0x13C6 PUSH1 0x1 SWAP4 PUSH1 0xFF DUP10 PUSH1 0x70 SHR AND PUSH2 0x1FDC JUMP JUMPDEST ADD SWAP6 ADD SWAP2 PUSH2 0x110F JUMP JUMPDEST SWAP2 SWAP5 DUP2 DUP2 PUSH2 0x13E5 PUSH1 0x1 SWAP4 PUSH1 0xFF DUP10 PUSH1 0x68 SHR AND PUSH2 0x1FDC JUMP JUMPDEST ADD SWAP6 ADD SWAP2 PUSH2 0x1107 JUMP JUMPDEST SWAP2 SWAP5 DUP2 DUP2 PUSH2 0x1404 PUSH1 0x1 SWAP4 PUSH1 0xFF DUP10 PUSH1 0x60 SHR AND PUSH2 0x1FDC JUMP JUMPDEST ADD SWAP6 ADD SWAP2 PUSH2 0x10FF JUMP JUMPDEST SWAP2 SWAP5 DUP2 DUP2 PUSH2 0x1423 PUSH1 0x1 SWAP4 PUSH1 0xFF DUP10 PUSH1 0x58 SHR AND PUSH2 0x1FDC JUMP JUMPDEST ADD SWAP6 ADD SWAP2 PUSH2 0x10F7 JUMP JUMPDEST SWAP2 SWAP5 DUP2 DUP2 PUSH2 0x1442 PUSH1 0x1 SWAP4 PUSH1 0xFF DUP10 PUSH1 0x50 SHR AND PUSH2 0x1FDC JUMP JUMPDEST ADD SWAP6 ADD SWAP2 PUSH2 0x10EF JUMP JUMPDEST SWAP2 SWAP5 DUP2 DUP2 PUSH2 0x1461 PUSH1 0x1 SWAP4 PUSH1 0xFF DUP10 PUSH1 0x48 SHR AND PUSH2 0x1FDC JUMP JUMPDEST ADD SWAP6 ADD SWAP2 PUSH2 0x10E7 JUMP JUMPDEST DUP7 PUSH2 0x147F PUSH1 0x1 SWAP4 SWAP6 SWAP9 PUSH1 0xFF DUP10 DUP8 SWAP6 SHR AND PUSH2 0x1FDC JUMP JUMPDEST ADD SWAP6 ADD SWAP2 DUP10 PUSH2 0x10DE JUMP JUMPDEST SWAP2 SWAP5 DUP2 DUP2 PUSH2 0x149F PUSH1 0x1 SWAP4 PUSH1 0xFF DUP10 PUSH1 0x38 SHR AND PUSH2 0x1FDC JUMP JUMPDEST ADD SWAP6 ADD SWAP2 PUSH2 0x10D5 JUMP JUMPDEST SWAP2 SWAP5 DUP2 DUP2 PUSH2 0x14BE PUSH1 0x1 SWAP4 PUSH1 0xFF DUP10 PUSH1 0x30 SHR AND PUSH2 0x1FDC JUMP JUMPDEST ADD SWAP6 ADD SWAP2 PUSH2 0x10CD JUMP JUMPDEST SWAP2 SWAP5 DUP2 DUP2 PUSH2 0x14DD PUSH1 0x1 SWAP4 PUSH1 0xFF DUP10 PUSH1 0x28 SHR AND PUSH2 0x1FDC JUMP JUMPDEST ADD SWAP6 ADD SWAP2 PUSH2 0x10C5 JUMP JUMPDEST SWAP2 SWAP5 DUP2 DUP2 PUSH2 0x14FB PUSH1 0x1 SWAP4 PUSH1 0xFF DUP10 DUP6 SHR AND PUSH2 0x1FDC JUMP JUMPDEST ADD SWAP6 ADD SWAP2 PUSH2 0x10BD JUMP JUMPDEST SWAP2 SWAP5 DUP2 DUP2 PUSH2 0x151A PUSH1 0x1 SWAP4 PUSH1 0xFF DUP10 PUSH1 0x18 SHR AND PUSH2 0x1FDC JUMP JUMPDEST ADD SWAP6 ADD SWAP2 PUSH2 0x10B5 JUMP JUMPDEST SWAP2 SWAP5 DUP2 DUP2 PUSH2 0x1539 PUSH1 0x1 SWAP4 PUSH1 0xFF DUP10 PUSH1 0x10 SHR AND PUSH2 0x1FDC JUMP JUMPDEST ADD SWAP6 ADD SWAP2 PUSH2 0x10AD JUMP JUMPDEST SWAP2 SWAP5 DUP2 DUP2 PUSH2 0x1558 PUSH1 0x1 SWAP4 PUSH1 0xFF DUP10 PUSH1 0x8 SHR AND PUSH2 0x1FDC JUMP JUMPDEST ADD SWAP6 ADD SWAP2 PUSH2 0x10A5 JUMP JUMPDEST SWAP2 SWAP5 DUP2 DUP2 PUSH2 0x1574 PUSH1 0x1 SWAP4 PUSH1 0xFF DUP10 AND PUSH2 0x1FDC JUMP JUMPDEST ADD SWAP6 ADD SWAP2 PUSH2 0x109D JUMP JUMPDEST SWAP6 POP SWAP2 SWAP4 SWAP1 SWAP3 PUSH2 0x400 PUSH1 0x1 SWAP2 PUSH2 0x17E1 DUP10 PUSH2 0x17D3 PUSH2 0x180 PUSH2 0x1765 PUSH2 0x162F PUSH2 0x171D DUP14 DUP16 DUP13 PUSH2 0x168D PUSH2 0x16D5 SWAP3 SLOAD SWAP10 DUP13 DUP12 PUSH1 0xFF SWAP11 DUP3 PUSH2 0x15BB DUP14 SWAP5 DUP6 DUP6 AND PUSH2 0x1FDC JUMP JUMPDEST PUSH2 0x15CC DUP8 DUP3 ADD DUP6 DUP6 PUSH1 0x8 SHR AND PUSH2 0x1FDC JUMP JUMPDEST PUSH2 0x15DD DUP6 DUP3 ADD DUP6 DUP6 PUSH1 0x10 SHR AND PUSH2 0x1FDC JUMP JUMPDEST PUSH2 0x164B PUSH1 0x60 SWAP6 PUSH2 0x15F4 DUP8 DUP5 ADD DUP8 DUP8 PUSH1 0x18 SHR AND PUSH2 0x1FDC JUMP JUMPDEST PUSH2 0x1607 PUSH1 0x80 SWAP10 DUP8 DUP8 DUP13 DUP8 ADD SWAP3 SHR AND PUSH2 0x1FDC JUMP JUMPDEST PUSH2 0x163C PUSH1 0xA0 SWAP12 PUSH2 0x161E DUP14 DUP7 ADD DUP10 DUP10 PUSH1 0x28 SHR AND PUSH2 0x1FDC JUMP JUMPDEST PUSH1 0xC0 SWAP15 DUP16 DUP7 ADD DUP10 DUP10 PUSH1 0x30 SHR AND PUSH2 0x1FDC JUMP JUMPDEST DUP5 ADD DUP8 DUP8 PUSH1 0x38 SHR AND PUSH2 0x1FDC JUMP JUMPDEST DUP6 DUP6 PUSH2 0x100 DUP6 ADD SWAP3 SHR AND PUSH2 0x1FDC JUMP JUMPDEST PUSH2 0x165E PUSH2 0x120 DUP3 ADD DUP6 DUP6 PUSH1 0x48 SHR AND PUSH2 0x1FDC JUMP JUMPDEST PUSH2 0x1671 PUSH2 0x140 DUP3 ADD DUP6 DUP6 PUSH1 0x50 SHR AND PUSH2 0x1FDC JUMP JUMPDEST PUSH2 0x1684 PUSH2 0x160 DUP3 ADD DUP6 DUP6 PUSH1 0x58 SHR AND PUSH2 0x1FDC JUMP JUMPDEST ADD SWAP3 SHR AND PUSH2 0x1FDC JUMP JUMPDEST PUSH2 0x16A0 PUSH2 0x1A0 DUP13 ADD DUP9 DUP12 PUSH1 0x68 SHR AND PUSH2 0x1FDC JUMP JUMPDEST PUSH2 0x16B3 PUSH2 0x1C0 DUP13 ADD DUP9 DUP12 PUSH1 0x70 SHR AND PUSH2 0x1FDC JUMP JUMPDEST PUSH2 0x16C6 PUSH2 0x1E0 DUP13 ADD DUP9 DUP12 PUSH1 0x78 SHR AND PUSH2 0x1FDC JUMP JUMPDEST DUP7 DUP10 PUSH2 0x200 DUP14 ADD SWAP3 SHR AND PUSH2 0x1FDC JUMP JUMPDEST PUSH2 0x16E8 PUSH2 0x220 DUP11 ADD DUP7 DUP10 PUSH1 0x88 SHR AND PUSH2 0x1FDC JUMP JUMPDEST PUSH2 0x16FB PUSH2 0x240 DUP11 ADD DUP7 DUP10 PUSH1 0x90 SHR AND PUSH2 0x1FDC JUMP JUMPDEST PUSH2 0x170E PUSH2 0x260 DUP11 ADD DUP7 DUP10 PUSH1 0x98 SHR AND PUSH2 0x1FDC JUMP JUMPDEST DUP5 DUP8 PUSH2 0x280 DUP12 ADD SWAP3 SHR AND PUSH2 0x1FDC JUMP JUMPDEST PUSH2 0x1730 PUSH2 0x2A0 DUP9 ADD DUP5 DUP8 PUSH1 0xA8 SHR AND PUSH2 0x1FDC JUMP JUMPDEST PUSH2 0x1743 PUSH2 0x2C0 DUP9 ADD DUP5 DUP8 PUSH1 0xB0 SHR AND PUSH2 0x1FDC JUMP JUMPDEST PUSH2 0x1756 PUSH2 0x2E0 DUP9 ADD DUP5 DUP8 PUSH1 0xB8 SHR AND PUSH2 0x1FDC JUMP JUMPDEST DUP3 DUP6 PUSH2 0x300 DUP10 ADD SWAP3 SHR AND PUSH2 0x1FDC JUMP JUMPDEST PUSH2 0x1778 PUSH2 0x320 DUP7 ADD DUP3 DUP6 PUSH1 0xC8 SHR AND PUSH2 0x1FDC JUMP JUMPDEST PUSH2 0x178B PUSH2 0x340 DUP7 ADD DUP3 DUP6 PUSH1 0xD0 SHR AND PUSH2 0x1FDC JUMP JUMPDEST PUSH2 0x179E PUSH2 0x360 DUP7 ADD DUP3 DUP6 PUSH1 0xD8 SHR AND PUSH2 0x1FDC JUMP JUMPDEST PUSH2 0x17B0 PUSH2 0x380 DUP7 ADD DUP5 DUP14 SHR DUP4 AND PUSH2 0x1FDC JUMP JUMPDEST PUSH2 0x17C3 PUSH2 0x3A0 DUP7 ADD DUP3 DUP6 PUSH1 0xE8 SHR AND PUSH2 0x1FDC JUMP JUMPDEST PUSH2 0x3C0 DUP6 ADD SWAP1 DUP4 PUSH1 0xF0 SHR AND PUSH2 0x1FDC JUMP JUMPDEST PUSH2 0x3E0 DUP4 ADD SWAP1 PUSH1 0xF8 SHR PUSH2 0x1FDC JUMP JUMPDEST ADD SWAP6 ADD SWAP2 ADD SWAP2 DUP8 SWAP5 SWAP3 DUP8 SWAP5 SWAP3 PUSH2 0x107A JUMP JUMPDEST POP SWAP2 POP CALLVALUE PUSH2 0x39B JUMPI PUSH2 0x1803 CALLDATASIZE PUSH2 0x2159 JUMP JUMPDEST SWAP3 PUSH2 0x1818 PUSH1 0x1 DUP1 PUSH1 0xA0 SHL SUB DUP5 SLOAD AND CALLER EQ PUSH2 0x220C JUMP JUMPDEST DUP1 MLOAD SWAP1 PUSH2 0x190 PUSH1 0x20 SWAP3 DUP4 DUP2 ADD DUP6 MLOAD SWAP2 PUSH2 0x183B DUP7 DUP3 DUP2 DUP11 ADD SWAP6 PUSH2 0x190 DUP2 DUP8 DUP10 PUSH2 0x2111 JUMP JUMPDEST MLOAD SWAP1 KECCAK256 DUP9 MSTORE DUP8 DUP5 MSTORE PUSH2 0x1852 PUSH1 0xFF DUP5 DUP11 KECCAK256 SLOAD AND PUSH2 0x22F3 JUMP JUMPDEST PUSH2 0x186A DUP5 DUP5 MLOAD DUP1 SWAP4 DUP3 DUP3 ADD SWAP6 DUP7 SWAP2 DUP11 MLOAD SWAP3 DUP4 SWAP2 PUSH2 0x2111 JUMP JUMPDEST MLOAD SWAP1 KECCAK256 SWAP4 DUP5 DUP8 MSTORE DUP7 DUP4 MSTORE PUSH1 0xFF DUP3 DUP9 KECCAK256 SLOAD PUSH1 0x8 SHR AND PUSH2 0x18F0 JUMPI POP SWAP2 PUSH2 0x18EA PUSH2 0x18D6 SWAP3 PUSH32 0x62BD6469C7218127DCC9732539B3E00BDDFC081E0F6AA1724BEEFB0BEBF7999B SWAP5 DUP7 DUP10 MSTORE DUP9 DUP3 MSTORE DUP1 DUP10 KECCAK256 PUSH2 0x100 PUSH2 0xFF00 NOT DUP3 SLOAD AND OR SWAP1 SSTORE DUP1 MLOAD SWAP5 DUP6 SWAP5 PUSH1 0x60 DUP7 MSTORE PUSH1 0x60 DUP7 ADD SWAP1 PUSH2 0x2134 JUMP JUMPDEST SWAP2 TIMESTAMP SWAP1 DUP6 ADD MSTORE DUP4 DUP3 SUB SWAP1 DUP5 ADD MSTORE CALLER SWAP7 PUSH2 0x2134 JUMP JUMPDEST SUB SWAP1 LOG3 DUP1 RETURN JUMPDEST DUP3 PUSH1 0x64 SWAP3 MLOAD SWAP2 PUSH3 0x461BCD PUSH1 0xE5 SHL DUP4 MSTORE DUP3 ADD MSTORE PUSH1 0x14 PUSH1 0x24 DUP3 ADD MSTORE PUSH20 0x2130BA31B41030B63932B0B23C90333937BD32B7 PUSH1 0x61 SHL PUSH1 0x44 DUP3 ADD MSTORE REVERT JUMPDEST POP SWAP1 SWAP3 SWAP2 CALLVALUE PUSH2 0x39B JUMPI DUP1 PUSH1 0x3 NOT CALLDATASIZE ADD SLT PUSH2 0x39B JUMPI PUSH1 0x1 PUSH1 0x1 PUSH1 0x40 SHL SUB SWAP2 DUP5 CALLDATALOAD DUP4 DUP2 GT PUSH2 0x510 JUMPI PUSH2 0x195B SWAP1 CALLDATASIZE SWAP1 DUP8 ADD PUSH2 0x1F81 JUMP JUMPDEST SWAP1 PUSH1 0x24 CALLDATALOAD SWAP3 PUSH1 0x8 DUP5 LT ISZERO PUSH2 0x50C JUMPI PUSH1 0x44 CALLDATALOAD DUP6 DUP2 GT PUSH2 0x1BDD JUMPI PUSH2 0x1980 SWAP1 CALLDATASIZE SWAP1 DUP10 ADD PUSH2 0x1F81 JUMP JUMPDEST SWAP5 PUSH1 0x64 CALLDATALOAD SWAP1 DUP2 GT PUSH2 0x1BDD JUMPI PUSH2 0x1998 SWAP1 CALLDATASIZE SWAP1 DUP10 ADD PUSH2 0x1F81 JUMP JUMPDEST SWAP5 PUSH1 0x84 CALLDATALOAD SWAP6 DUP8 PUSH1 0xA4 CALLDATALOAD SWAP3 PUSH1 0xC4 CALLDATALOAD SWAP6 CALLER DUP4 MSTORE DUP8 PUSH2 0x1A23 PUSH1 0xFF DUP4 PUSH1 0x20 SWAP7 PUSH1 0x3 DUP9 MSTORE PUSH2 0x19C5 DUP4 DUP4 DUP4 KECCAK256 SLOAD AND PUSH2 0x227A JUMP JUMPDEST DUP2 MLOAD DUP9 DUP2 ADD SWAP1 PUSH2 0x19E1 DUP11 DUP3 DUP2 DUP11 MLOAD SWAP11 ADD SWAP10 PUSH2 0x190 DUP2 DUP8 DUP14 PUSH2 0x2111 JUMP JUMPDEST MLOAD SWAP1 KECCAK256 DUP2 MSTORE DUP1 DUP9 MSTORE PUSH2 0x19F7 DUP4 DUP4 DUP4 KECCAK256 SLOAD AND PUSH2 0x22F3 JUMP JUMPDEST DUP13 DUP3 MLOAD PUSH2 0x1A0F DUP11 DUP3 DUP2 DUP2 ADD SWAP5 MLOAD PUSH2 0x190 DUP2 DUP8 DUP14 PUSH2 0x2111 JUMP JUMPDEST MLOAD SWAP1 KECCAK256 DUP2 MSTORE DUP1 DUP9 MSTORE KECCAK256 SLOAD PUSH1 0x8 SHR AND ISZERO PUSH2 0x2336 JUMP JUMPDEST PUSH2 0x1A2F DUP4 MLOAD ISZERO ISZERO PUSH2 0x2374 JUMP JUMPDEST DUP2 MLOAD PUSH2 0x1A49 DUP6 DUP3 DUP13 PUSH2 0x190 DUP4 DUP4 ADD SWAP7 DUP8 SWAP3 MLOAD SWAP3 DUP4 SWAP2 PUSH2 0x2111 JUMP JUMPDEST MLOAD SWAP1 KECCAK256 SWAP9 DUP10 DUP13 MSTORE DUP12 DUP5 MSTORE DUP2 DUP13 KECCAK256 SWAP13 PUSH1 0x1 DUP6 MSTORE DUP3 DUP14 KECCAK256 SLOAD PUSH2 0x1B46 JUMPI JUMPDEST POP SWAP2 DUP2 PUSH2 0x1B0F DUP5 DUP15 SWAP16 DUP15 SWAP16 SWAP7 DUP15 SWAP16 SWAP2 PUSH1 0x0 DUP1 MLOAD PUSH1 0x20 PUSH2 0x2ED7 DUP4 CODECOPY DUP2 MLOAD SWAP2 MSTORE SWAP16 DUP3 DUP16 SWAP10 DUP16 SWAP12 DUP16 SWAP4 PUSH2 0x1B2F SWAP16 SWAP15 SWAP13 DUP16 SWAP15 PUSH2 0x1B1B SWAP16 SWAP7 DUP16 SWAP11 DUP16 SWAP9 PUSH2 0x2B0 SWAP10 PUSH2 0x1AF1 SWAP14 PUSH2 0x1AB0 PUSH2 0x267 DUP13 CALLER PUSH2 0x2715 JUMP JUMPDEST PUSH2 0x1AC5 DUP11 MLOAD SWAP12 PUSH2 0x1ABF DUP14 PUSH2 0x1F13 JUMP JUMPDEST DUP13 PUSH2 0x22C6 JUMP JUMPDEST DUP11 ADD MSTORE TIMESTAMP DUP9 DUP11 ADD MSTORE CALLER PUSH1 0x60 DUP11 ADD MSTORE PUSH1 0x80 DUP10 ADD MSTORE PUSH1 0xA0 DUP9 ADD MSTORE PUSH1 0xC0 DUP8 ADD MSTORE DUP6 ADD MSTORE DUP2 MSTORE PUSH1 0x1 DUP13 MSTORE KECCAK256 PUSH2 0x2470 JUMP JUMPDEST PUSH2 0x1B06 DUP4 MLOAD SWAP13 DUP14 PUSH2 0x100 SWAP1 DUP2 DUP2 MSTORE ADD SWAP1 PUSH2 0x2134 JUMP JUMPDEST SWAP5 DUP13 ADD SWAP1 PUSH2 0x1FDC JUMP JUMPDEST DUP10 DUP4 SUB SWAP1 DUP11 ADD MSTORE PUSH2 0x2134 JUMP JUMPDEST SWAP1 TIMESTAMP PUSH1 0x60 DUP9 ADD MSTORE DUP7 DUP3 SUB PUSH1 0x80 DUP9 ADD MSTORE PUSH2 0x2134 JUMP JUMPDEST SWAP7 PUSH1 0xA0 DUP6 ADD MSTORE PUSH1 0xC0 DUP5 ADD MSTORE DUP3 ADD MSTORE DUP1 CALLER SWAP5 SUB SWAP1 LOG3 DUP1 RETURN JUMPDEST SWAP13 PUSH1 0xFF DUP2 SLOAD PUSH1 0x10 SHR AND PUSH1 0x8 DUP2 LT ISZERO PUSH2 0x1BC8 JUMPI DUP14 SWAP15 POP DUP3 PUSH2 0x1AF1 DUP15 SWAP16 SWAP5 DUP15 SWAP16 SWAP5 PUSH1 0x0 DUP1 MLOAD PUSH1 0x20 PUSH2 0x2ED7 DUP4 CODECOPY DUP2 MLOAD SWAP2 MSTORE SWAP16 DUP3 DUP16 SWAP10 DUP16 SWAP10 DUP16 SWAP4 PUSH2 0x1B2F SWAP16 SWAP15 SWAP13 DUP16 SWAP13 PUSH2 0x1B1B SWAP16 SWAP14 SWAP7 DUP16 SWAP14 DUP16 SWAP9 DUP8 SWAP16 SWAP10 PUSH2 0x1B0F SWAP16 SWAP11 PUSH2 0x1BA7 PUSH2 0x2B0 SWAP13 PUSH1 0xFF DUP14 AND GT PUSH2 0x23C0 JUMP JUMPDEST POP POP POP POP POP POP POP POP POP SWAP10 SWAP12 SWAP13 POP POP POP SWAP15 POP POP POP SWAP3 SWAP5 POP POP SWAP13 SWAP12 SWAP11 SWAP10 SWAP13 PUSH2 0x1A64 JUMP JUMPDEST POP POP PUSH4 0x4E487B71 PUSH1 0xE0 SHL DUP13 MSTORE PUSH1 0x21 DUP14 MSTORE PUSH1 0x24 DUP13 REVERT JUMPDEST DUP7 DUP1 REVERT JUMPDEST POP CALLVALUE PUSH2 0x397 JUMPI DUP1 PUSH1 0x3 NOT CALLDATASIZE ADD SLT PUSH2 0x397 JUMPI PUSH1 0x24 CALLDATALOAD SWAP4 DUP3 CALLDATALOAD DUP2 MSTORE PUSH1 0x1 PUSH1 0x20 MSTORE DUP2 DUP2 KECCAK256 SWAP1 DUP2 SLOAD DUP7 LT ISZERO PUSH2 0x73E JUMPI POP PUSH2 0x1C70 SWAP5 PUSH2 0x1C1A SWAP2 PUSH2 0x1FFF JUMP JUMPDEST POP SWAP3 PUSH1 0xFF DUP5 SLOAD AND SWAP4 PUSH2 0x1C98 PUSH2 0x1C31 PUSH1 0x1 DUP4 ADD PUSH2 0x206B JUMP JUMPDEST SWAP4 PUSH1 0x2 DUP4 ADD SLOAD SWAP6 PUSH2 0x1C50 PUSH1 0x1 DUP1 PUSH1 0xA0 SHL SUB PUSH1 0x3 DUP7 ADD SLOAD AND SWAP2 DUP6 ADD PUSH2 0x206B JUMP JUMPDEST SWAP1 PUSH1 0x5 DUP6 ADD SLOAD SWAP8 PUSH2 0x1C82 PUSH1 0x7 PUSH1 0x6 DUP9 ADD SLOAD SWAP8 ADD SLOAD SWAP9 DUP6 MLOAD SWAP13 DUP14 DUP1 SWAP14 PUSH2 0x1FDC JUMP JUMPDEST PUSH2 0x100 PUSH1 0x20 DUP14 ADD DUP2 SWAP1 MSTORE DUP13 ADD SWAP1 PUSH2 0x2134 JUMP JUMPDEST SWAP4 DUP11 ADD MSTORE PUSH1 0x60 DUP10 ADD MSTORE DUP8 DUP3 SUB PUSH1 0x80 DUP10 ADD MSTORE PUSH2 0x2134 JUMP JUMPDEST SWAP4 PUSH1 0xA0 DUP7 ADD MSTORE PUSH1 0xC0 DUP6 ADD MSTORE DUP4 ADD MSTORE SUB SWAP1 RETURN JUMPDEST POP DUP4 CALLVALUE PUSH2 0x73E JUMPI PUSH1 0x20 SWAP3 DUP4 PUSH1 0x3 NOT CALLDATASIZE ADD SLT PUSH2 0x39F JUMPI DUP1 CALLDATALOAD PUSH1 0x1 PUSH1 0x1 PUSH1 0x40 SHL SUB DUP2 GT PUSH2 0x39B JUMPI PUSH2 0x1CDC SWAP1 CALLDATASIZE SWAP1 DUP4 ADD PUSH2 0x1F81 JUMP JUMPDEST DUP4 MLOAD PUSH2 0x1CF7 DUP7 DUP3 DUP2 PUSH2 0x190 DUP2 DUP4 ADD SWAP7 DUP8 DUP2 MLOAD SWAP4 DUP5 SWAP3 ADD PUSH2 0x2111 JUMP JUMPDEST MLOAD SWAP1 KECCAK256 SWAP1 DUP2 DUP4 MSTORE DUP3 DUP6 MSTORE PUSH2 0x1D10 PUSH1 0xFF DUP6 DUP6 KECCAK256 SLOAD AND PUSH2 0x22F3 JUMP JUMPDEST DUP2 DUP4 MSTORE PUSH1 0x1 DUP6 MSTORE DUP4 DUP4 KECCAK256 SLOAD ISZERO PUSH2 0x1D3D JUMPI POP DUP3 DUP3 PUSH1 0xFF SWAP3 PUSH2 0xCD9 SWAP5 MSTORE DUP1 DUP7 MSTORE KECCAK256 SLOAD PUSH1 0x10 SHR AND SWAP2 MLOAD DUP1 SWAP3 PUSH2 0x1FDC JUMP JUMPDEST DUP4 MLOAD PUSH3 0x461BCD PUSH1 0xE5 SHL DUP2 MSTORE SWAP1 DUP2 ADD DUP6 SWAP1 MSTORE PUSH1 0x18 PUSH1 0x24 DUP3 ADD MSTORE PUSH32 0x4E6F20747261636B696E67206576656E747320666F756E640000000000000000 PUSH1 0x44 DUP3 ADD MSTORE PUSH1 0x64 SWAP1 REVERT JUMPDEST POP DUP4 CALLVALUE PUSH2 0x73E JUMPI PUSH1 0x20 SWAP3 DUP4 PUSH1 0x3 NOT CALLDATASIZE ADD SLT PUSH2 0x39F JUMPI DUP1 CALLDATALOAD PUSH1 0x1 PUSH1 0x1 PUSH1 0x40 SHL SUB DUP2 GT PUSH2 0x39B JUMPI SWAP2 PUSH2 0x1DB6 DUP5 SWAP3 PUSH1 0xFF SWAP5 CALLDATASIZE SWAP2 ADD PUSH2 0x1F81 JUMP JUMPDEST DUP3 MLOAD PUSH2 0x1DD1 DUP8 DUP3 DUP2 PUSH2 0x190 DUP2 DUP4 ADD SWAP7 DUP8 DUP2 MLOAD SWAP4 DUP5 SWAP3 ADD PUSH2 0x2111 JUMP JUMPDEST MLOAD SWAP1 KECCAK256 DUP2 MSTORE DUP1 DUP6 MSTORE KECCAK256 SLOAD AND SWAP1 MLOAD SWAP1 ISZERO ISZERO DUP2 MSTORE RETURN JUMPDEST POP SWAP2 POP CALLVALUE PUSH2 0x39B JUMPI PUSH1 0x20 SWAP2 DUP3 PUSH1 0x3 NOT CALLDATASIZE ADD SLT PUSH2 0x397 JUMPI DUP2 CALLDATALOAD PUSH1 0x1 PUSH1 0x1 PUSH1 0x40 SHL SUB DUP2 GT PUSH2 0x510 JUMPI PUSH2 0x1E18 SWAP1 CALLDATASIZE SWAP1 DUP5 ADD PUSH2 0x1F81 JUMP JUMPDEST PUSH2 0x1E2C PUSH1 0x1 DUP1 PUSH1 0xA0 SHL SUB DUP5 SLOAD AND CALLER EQ PUSH2 0x220C JUMP JUMPDEST PUSH2 0x190 DUP3 MLOAD DUP6 DUP2 ADD DUP4 MLOAD SWAP2 PUSH2 0x1E4B DUP9 DUP3 DUP2 DUP9 ADD SWAP6 PUSH2 0x190 DUP2 DUP8 DUP10 PUSH2 0x2111 JUMP JUMPDEST MLOAD SWAP1 KECCAK256 DUP8 MSTORE DUP7 DUP7 MSTORE PUSH2 0x1E62 PUSH1 0xFF DUP6 DUP10 KECCAK256 SLOAD AND PUSH2 0x22F3 JUMP JUMPDEST PUSH2 0x1E7A DUP7 DUP6 MLOAD DUP1 SWAP4 DUP3 DUP3 ADD SWAP6 DUP7 SWAP2 DUP9 MLOAD SWAP3 DUP4 SWAP2 PUSH2 0x2111 JUMP JUMPDEST MLOAD SWAP1 KECCAK256 SWAP3 DUP4 DUP7 MSTORE DUP6 DUP6 MSTORE PUSH1 0xFF DUP4 DUP8 KECCAK256 SLOAD PUSH1 0x8 SHR AND ISZERO PUSH2 0x1EDA JUMPI POP SWAP1 PUSH2 0xACE PUSH32 0xB41405FD4A002A5B40384A61D0DF37FE656665B6D87ECE83B4844329D06CE072 SWAP3 DUP5 DUP8 MSTORE DUP7 DUP7 MSTORE DUP3 DUP8 KECCAK256 PUSH2 0xFF00 NOT DUP2 SLOAD AND SWAP1 SSTORE DUP3 MLOAD SWAP3 DUP1 DUP5 MSTORE DUP4 ADD SWAP1 PUSH2 0x2134 JUMP JUMPDEST DUP3 MLOAD PUSH3 0x461BCD PUSH1 0xE5 SHL DUP2 MSTORE SWAP1 DUP2 ADD DUP6 SWAP1 MSTORE PUSH1 0x13 PUSH1 0x24 DUP3 ADD MSTORE PUSH19 0x2130BA31B41034B9903737BA10333937BD32B7 PUSH1 0x69 SHL PUSH1 0x44 DUP3 ADD MSTORE PUSH1 0x64 SWAP1 REVERT JUMPDEST PUSH2 0x100 DUP2 ADD SWAP1 DUP2 LT PUSH1 0x1 PUSH1 0x1 PUSH1 0x40 SHL SUB DUP3 GT OR PUSH2 0x1F2F JUMPI PUSH1 0x40 MSTORE JUMP JUMPDEST PUSH4 0x4E487B71 PUSH1 0xE0 SHL PUSH1 0x0 MSTORE PUSH1 0x41 PUSH1 0x4 MSTORE PUSH1 0x24 PUSH1 0x0 REVERT JUMPDEST PUSH1 0xE0 DUP2 ADD SWAP1 DUP2 LT PUSH1 0x1 PUSH1 0x1 PUSH1 0x40 SHL SUB DUP3 GT OR PUSH2 0x1F2F JUMPI PUSH1 0x40 MSTORE JUMP JUMPDEST SWAP1 PUSH1 0x1F DUP1 NOT SWAP2 ADD AND DUP2 ADD SWAP1 DUP2 LT PUSH1 0x1 PUSH1 0x1 PUSH1 0x40 SHL SUB DUP3 GT OR PUSH2 0x1F2F JUMPI PUSH1 0x40 MSTORE JUMP JUMPDEST DUP2 PUSH1 0x1F DUP3 ADD SLT ISZERO PUSH2 0x1FD7 JUMPI DUP1 CALLDATALOAD SWAP1 PUSH1 0x1 PUSH1 0x1 PUSH1 0x40 SHL SUB DUP3 GT PUSH2 0x1F2F JUMPI PUSH1 0x40 MLOAD SWAP3 PUSH2 0x1FB5 PUSH1 0x1F DUP5 ADD PUSH1 0x1F NOT AND PUSH1 0x20 ADD DUP6 PUSH2 0x1F60 JUMP JUMPDEST DUP3 DUP5 MSTORE PUSH1 0x20 DUP4 DUP4 ADD ADD GT PUSH2 0x1FD7 JUMPI DUP2 PUSH1 0x0 SWAP3 PUSH1 0x20 DUP1 SWAP4 ADD DUP4 DUP7 ADD CALLDATACOPY DUP4 ADD ADD MSTORE SWAP1 JUMP JUMPDEST PUSH1 0x0 DUP1 REVERT JUMPDEST SWAP1 PUSH1 0x8 DUP3 LT ISZERO PUSH2 0x1FE9 JUMPI MSTORE JUMP JUMPDEST PUSH4 0x4E487B71 PUSH1 0xE0 SHL PUSH1 0x0 MSTORE PUSH1 0x21 PUSH1 0x4 MSTORE PUSH1 0x24 PUSH1 0x0 REVERT JUMPDEST DUP1 SLOAD DUP3 LT ISZERO PUSH2 0x201B JUMPI PUSH1 0x0 MSTORE PUSH1 0x20 PUSH1 0x0 KECCAK256 SWAP1 PUSH1 0x3 SHL ADD SWAP1 PUSH1 0x0 SWAP1 JUMP JUMPDEST PUSH4 0x4E487B71 PUSH1 0xE0 SHL PUSH1 0x0 MSTORE PUSH1 0x32 PUSH1 0x4 MSTORE PUSH1 0x24 PUSH1 0x0 REVERT JUMPDEST SWAP1 PUSH1 0x1 DUP3 DUP2 SHR SWAP3 AND DUP1 ISZERO PUSH2 0x2061 JUMPI JUMPDEST PUSH1 0x20 DUP4 LT EQ PUSH2 0x204B JUMPI JUMP JUMPDEST PUSH4 0x4E487B71 PUSH1 0xE0 SHL PUSH1 0x0 MSTORE PUSH1 0x22 PUSH1 0x4 MSTORE PUSH1 0x24 PUSH1 0x0 REVERT JUMPDEST SWAP2 PUSH1 0x7F AND SWAP2 PUSH2 0x2040 JUMP JUMPDEST SWAP1 PUSH1 0x40 MLOAD SWAP2 DUP3 PUSH1 0x0 DUP3 SLOAD SWAP3 PUSH2 0x207F DUP5 PUSH2 0x2031 JUMP JUMPDEST SWAP1 DUP2 DUP5 MSTORE PUSH1 0x1 SWAP5 DUP6 DUP2 AND SWAP1 DUP2 PUSH1 0x0 EQ PUSH2 0x20EE JUMPI POP PUSH1 0x1 EQ PUSH2 0x20AB JUMPI JUMPDEST POP POP PUSH2 0x20A9 SWAP3 POP SUB DUP4 PUSH2 0x1F60 JUMP JUMPDEST JUMP JUMPDEST SWAP1 SWAP4 SWAP2 POP PUSH1 0x0 MSTORE PUSH1 0x20 SWAP1 DUP2 PUSH1 0x0 KECCAK256 SWAP4 PUSH1 0x0 SWAP2 JUMPDEST DUP2 DUP4 LT PUSH2 0x20D6 JUMPI POP POP PUSH2 0x20A9 SWAP4 POP DUP3 ADD ADD CODESIZE DUP1 PUSH2 0x209B JUMP JUMPDEST DUP6 SLOAD DUP9 DUP5 ADD DUP6 ADD MSTORE SWAP5 DUP6 ADD SWAP5 DUP8 SWAP5 POP SWAP2 DUP4 ADD SWAP2 PUSH2 0x20BE JUMP JUMPDEST SWAP2 POP POP PUSH2 0x20A9 SWAP5 POP PUSH1 0x20 SWAP3 POP PUSH1 0xFF NOT AND DUP3 DUP5 ADD MSTORE ISZERO ISZERO PUSH1 0x5 SHL DUP3 ADD ADD CODESIZE DUP1 PUSH2 0x209B JUMP JUMPDEST PUSH1 0x0 JUMPDEST DUP4 DUP2 LT PUSH2 0x2124 JUMPI POP POP PUSH1 0x0 SWAP2 ADD MSTORE JUMP JUMPDEST DUP2 DUP2 ADD MLOAD DUP4 DUP3 ADD MSTORE PUSH1 0x20 ADD PUSH2 0x2114 JUMP JUMPDEST SWAP1 PUSH1 0x20 SWAP2 PUSH2 0x214D DUP2 MLOAD DUP1 SWAP3 DUP2 DUP6 MSTORE DUP6 DUP1 DUP7 ADD SWAP2 ADD PUSH2 0x2111 JUMP JUMPDEST PUSH1 0x1F ADD PUSH1 0x1F NOT AND ADD ADD SWAP1 JUMP JUMPDEST SWAP1 PUSH1 0x40 PUSH1 0x3 NOT DUP4 ADD SLT PUSH2 0x1FD7 JUMPI PUSH1 0x1 PUSH1 0x1 PUSH1 0x40 SHL SUB PUSH1 0x4 CALLDATALOAD DUP2 DUP2 GT PUSH2 0x1FD7 JUMPI DUP4 PUSH2 0x2185 SWAP2 PUSH1 0x4 ADD PUSH2 0x1F81 JUMP JUMPDEST SWAP3 PUSH1 0x24 CALLDATALOAD SWAP2 DUP3 GT PUSH2 0x1FD7 JUMPI PUSH2 0x219C SWAP2 PUSH1 0x4 ADD PUSH2 0x1F81 JUMP JUMPDEST SWAP1 JUMP JUMPDEST PUSH1 0x4 CALLDATALOAD SWAP1 PUSH1 0x1 PUSH1 0x1 PUSH1 0xA0 SHL SUB DUP3 AND DUP3 SUB PUSH2 0x1FD7 JUMPI JUMP JUMPDEST SWAP1 DUP2 MLOAD DUP1 DUP3 MSTORE PUSH1 0x20 DUP1 DUP1 SWAP4 ADD SWAP4 ADD SWAP2 PUSH1 0x0 JUMPDEST DUP3 DUP2 LT PUSH2 0x21D5 JUMPI POP POP POP POP SWAP1 JUMP JUMPDEST SWAP1 SWAP2 SWAP3 SWAP4 DUP3 DUP1 DUP3 PUSH2 0x21E9 PUSH1 0x1 SWAP5 DUP10 MLOAD PUSH2 0x1FDC JUMP JUMPDEST ADD SWAP6 ADD SWAP4 SWAP3 SWAP2 ADD PUSH2 0x21C7 JUMP JUMPDEST PUSH1 0x1 PUSH1 0x1 PUSH1 0x40 SHL SUB DUP2 GT PUSH2 0x1F2F JUMPI PUSH1 0x5 SHL PUSH1 0x20 ADD SWAP1 JUMP JUMPDEST ISZERO PUSH2 0x2213 JUMPI JUMP JUMPDEST PUSH1 0x40 MLOAD PUSH3 0x461BCD PUSH1 0xE5 SHL DUP2 MSTORE PUSH1 0x20 PUSH1 0x4 DUP3 ADD MSTORE PUSH1 0x22 PUSH1 0x24 DUP3 ADD MSTORE PUSH32 0x4F6E6C79206F776E65722063616E20706572666F726D20746869732061637469 PUSH1 0x44 DUP3 ADD MSTORE PUSH2 0x37B7 PUSH1 0xF1 SHL PUSH1 0x64 DUP3 ADD MSTORE PUSH1 0x84 SWAP1 REVERT JUMPDEST DUP2 DUP2 LT PUSH2 0x226E JUMPI POP POP JUMP JUMPDEST PUSH1 0x0 DUP2 SSTORE PUSH1 0x1 ADD PUSH2 0x2263 JUMP JUMPDEST ISZERO PUSH2 0x2281 JUMPI JUMP JUMPDEST PUSH1 0x40 MLOAD PUSH3 0x461BCD PUSH1 0xE5 SHL DUP2 MSTORE PUSH1 0x20 PUSH1 0x4 DUP3 ADD MSTORE PUSH1 0x19 PUSH1 0x24 DUP3 ADD MSTORE PUSH32 0x4E6F7420616E20617574686F72697A65642068616E646C657200000000000000 PUSH1 0x44 DUP3 ADD MSTORE PUSH1 0x64 SWAP1 REVERT JUMPDEST PUSH1 0x8 DUP3 LT ISZERO PUSH2 0x1FE9 JUMPI MSTORE JUMP JUMPDEST SWAP1 PUSH1 0x8 DUP2 LT ISZERO PUSH2 0x1FE9 JUMPI PUSH3 0xFF0000 DUP3 SLOAD SWAP2 PUSH1 0x10 SHL AND SWAP1 PUSH3 0xFF0000 NOT AND OR SWAP1 SSTORE JUMP JUMPDEST ISZERO PUSH2 0x22FA JUMPI JUMP JUMPDEST PUSH1 0x40 MLOAD PUSH3 0x461BCD PUSH1 0xE5 SHL DUP2 MSTORE PUSH1 0x20 PUSH1 0x4 DUP3 ADD MSTORE PUSH1 0x14 PUSH1 0x24 DUP3 ADD MSTORE PUSH20 0x10985D18DA08191BD95CC81B9BDD08195E1A5CDD PUSH1 0x62 SHL PUSH1 0x44 DUP3 ADD MSTORE PUSH1 0x64 SWAP1 REVERT JUMPDEST ISZERO PUSH2 0x233D JUMPI JUMP JUMPDEST PUSH1 0x40 MLOAD PUSH3 0x461BCD PUSH1 0xE5 SHL DUP2 MSTORE PUSH1 0x20 PUSH1 0x4 DUP3 ADD MSTORE PUSH1 0xF PUSH1 0x24 DUP3 ADD MSTORE PUSH15 0x2130BA31B41034B990333937BD32B7 PUSH1 0x89 SHL PUSH1 0x44 DUP3 ADD MSTORE PUSH1 0x64 SWAP1 REVERT JUMPDEST ISZERO PUSH2 0x237B JUMPI JUMP JUMPDEST PUSH1 0x40 MLOAD PUSH3 0x461BCD PUSH1 0xE5 SHL DUP2 MSTORE PUSH1 0x20 PUSH1 0x4 DUP3 ADD MSTORE PUSH1 0x18 PUSH1 0x24 DUP3 ADD MSTORE PUSH32 0x4C6F636174696F6E2063616E6E6F7420626520656D7074790000000000000000 PUSH1 0x44 DUP3 ADD MSTORE PUSH1 0x64 SWAP1 REVERT JUMPDEST ISZERO PUSH2 0x23C7 JUMPI JUMP JUMPDEST PUSH1 0x40 MLOAD PUSH3 0x461BCD PUSH1 0xE5 SHL DUP2 MSTORE PUSH1 0x20 PUSH1 0x4 DUP3 ADD MSTORE PUSH1 0x21 PUSH1 0x24 DUP3 ADD MSTORE PUSH32 0x5374616765206D7573742062652061667465722063757272656E742073746167 PUSH1 0x44 DUP3 ADD MSTORE PUSH1 0x65 PUSH1 0xF8 SHL PUSH1 0x64 DUP3 ADD MSTORE PUSH1 0x84 SWAP1 REVERT JUMPDEST ISZERO PUSH2 0x241D JUMPI JUMP JUMPDEST PUSH1 0x40 MLOAD PUSH3 0x461BCD PUSH1 0xE5 SHL DUP2 MSTORE PUSH1 0x20 PUSH1 0x4 DUP3 ADD MSTORE PUSH1 0x25 PUSH1 0x24 DUP3 ADD MSTORE PUSH32 0x48616E646C6572206E6F7420617574686F72697A656420666F72207468697320 PUSH1 0x44 DUP3 ADD MSTORE PUSH5 0x7374616765 PUSH1 0xD8 SHL PUSH1 0x64 DUP3 ADD MSTORE PUSH1 0x84 SWAP1 REVERT JUMPDEST DUP1 SLOAD PUSH1 0x1 PUSH1 0x40 SHL DUP2 LT ISZERO PUSH2 0x1F2F JUMPI PUSH2 0x248F SWAP1 PUSH1 0x1 SWAP3 DUP4 DUP3 ADD DUP2 SSTORE PUSH2 0x1FFF JUMP JUMPDEST SWAP3 SWAP1 SWAP3 PUSH2 0x26FF JUMPI DUP1 MLOAD PUSH1 0x8 DUP2 LT ISZERO PUSH2 0x1FE9 JUMPI PUSH1 0xFF DUP1 NOT DUP6 SLOAD AND SWAP2 AND OR DUP4 SSTORE DUP2 DUP4 ADD SWAP2 PUSH1 0x20 SWAP3 DUP4 DUP4 ADD MLOAD SWAP2 DUP3 MLOAD SWAP2 PUSH1 0x1 PUSH1 0x1 PUSH1 0x40 SHL SUB SWAP3 DUP4 DUP2 GT PUSH2 0x1F2F JUMPI DUP1 PUSH2 0x24D7 DUP4 SLOAD PUSH2 0x2031 JUMP JUMPDEST SWAP6 PUSH1 0x1F SWAP7 DUP8 DUP2 GT PUSH2 0x26D1 JUMPI JUMPDEST POP DUP9 SWAP1 DUP8 DUP4 GT PUSH1 0x1 EQ PUSH2 0x266E JUMPI PUSH1 0x0 SWAP3 PUSH2 0x2663 JUMPI JUMPDEST POP POP PUSH1 0x0 NOT PUSH1 0x3 DUP4 SWAP1 SHL SHR NOT AND SWAP1 DUP4 SHL OR SWAP1 SSTORE JUMPDEST PUSH1 0x40 DUP5 ADD MLOAD PUSH1 0x2 DUP8 ADD SSTORE PUSH1 0x3 DUP7 ADD PUSH1 0x1 DUP1 PUSH1 0xA0 SHL SUB PUSH1 0x60 DUP7 ADD MLOAD AND PUSH12 0xFFFFFFFFFFFFFFFFFFFFFFFF PUSH1 0xA0 SHL DUP3 SLOAD AND OR SWAP1 SSTORE PUSH1 0x4 DUP7 ADD SWAP3 PUSH1 0x80 DUP6 ADD MLOAD SWAP6 DUP7 MLOAD SWAP4 DUP5 GT PUSH2 0x1F2F JUMPI PUSH2 0x255B DUP6 SLOAD PUSH2 0x2031 JUMP JUMPDEST DUP3 DUP2 GT PUSH2 0x262B JUMPI JUMPDEST POP DUP1 SWAP2 DUP5 GT PUSH1 0x1 EQ PUSH2 0x25BC JUMPI POP SWAP2 DUP1 DUP1 SWAP3 PUSH1 0xE0 SWAP7 SWAP6 SWAP5 PUSH1 0x7 SWAP9 PUSH1 0x0 SWAP5 PUSH2 0x25B1 JUMPI JUMPDEST POP POP SHL SWAP2 PUSH1 0x0 NOT SWAP1 PUSH1 0x3 SHL SHR NOT AND OR SWAP1 SSTORE JUMPDEST PUSH1 0xA0 DUP2 ADD MLOAD PUSH1 0x5 DUP6 ADD SSTORE PUSH1 0xC0 DUP2 ADD MLOAD PUSH1 0x6 DUP6 ADD SSTORE ADD MLOAD SWAP2 ADD SSTORE JUMP JUMPDEST ADD MLOAD SWAP3 POP CODESIZE DUP1 PUSH2 0x2584 JUMP JUMPDEST SWAP2 SWAP4 SWAP5 SWAP6 PUSH1 0x1F NOT DUP5 AND DUP7 PUSH1 0x0 MSTORE DUP4 PUSH1 0x0 KECCAK256 SWAP4 PUSH1 0x0 SWAP1 JUMPDEST DUP3 DUP3 LT PUSH2 0x2614 JUMPI POP POP SWAP2 PUSH1 0x7 SWAP8 SWAP6 SWAP4 SWAP2 DUP6 PUSH1 0xE0 SWAP9 SWAP7 SWAP5 LT PUSH2 0x25FB JUMPI JUMPDEST POP POP POP DUP2 SHL ADD SWAP1 SSTORE PUSH2 0x2596 JUMP JUMPDEST ADD MLOAD PUSH1 0x0 NOT PUSH1 0xF8 DUP5 PUSH1 0x3 SHL AND SHR NOT AND SWAP1 SSTORE CODESIZE DUP1 DUP1 PUSH2 0x25EE JUMP JUMPDEST DUP1 DUP9 DUP7 SWAP8 DUP3 SWAP5 SWAP8 DUP8 ADD MLOAD DUP2 SSTORE ADD SWAP7 ADD SWAP5 ADD SWAP1 PUSH2 0x25D2 JUMP JUMPDEST PUSH2 0x2654 SWAP1 DUP7 PUSH1 0x0 MSTORE DUP3 PUSH1 0x0 KECCAK256 DUP5 DUP1 DUP9 ADD PUSH1 0x5 SHR DUP3 ADD SWAP3 DUP6 DUP10 LT PUSH2 0x265A JUMPI JUMPDEST ADD PUSH1 0x5 SHR ADD SWAP1 PUSH2 0x2263 JUMP JUMPDEST CODESIZE PUSH2 0x2563 JUMP JUMPDEST SWAP3 POP DUP2 SWAP3 PUSH2 0x2649 JUMP JUMPDEST ADD MLOAD SWAP1 POP CODESIZE DUP1 PUSH2 0x24F8 JUMP JUMPDEST SWAP1 DUP6 SWAP4 POP PUSH1 0x1F NOT DUP4 AND SWAP2 DUP6 PUSH1 0x0 MSTORE DUP11 PUSH1 0x0 KECCAK256 SWAP3 PUSH1 0x0 JUMPDEST DUP13 DUP3 DUP3 LT PUSH2 0x26BB JUMPI POP POP DUP5 GT PUSH2 0x26A2 JUMPI JUMPDEST POP POP POP DUP2 SHL ADD SWAP1 SSTORE PUSH2 0x250C JUMP JUMPDEST ADD MLOAD PUSH1 0x0 NOT PUSH1 0xF8 DUP5 PUSH1 0x3 SHL AND SHR NOT AND SWAP1 SSTORE CODESIZE DUP1 DUP1 PUSH2 0x2695 JUMP JUMPDEST DUP4 DUP6 ADD MLOAD DUP7 SSTORE DUP10 SWAP8 SWAP1 SWAP6 ADD SWAP5 SWAP4 DUP5 ADD SWAP4 ADD PUSH2 0x2684 JUMP JUMPDEST PUSH2 0x26F9 SWAP1 DUP6 PUSH1 0x0 MSTORE DUP11 PUSH1 0x0 KECCAK256 DUP10 DUP1 DUP7 ADD PUSH1 0x5 SHR DUP3 ADD SWAP3 DUP14 DUP8 LT PUSH2 0x265A JUMPI ADD PUSH1 0x5 SHR ADD SWAP1 PUSH2 0x2263 JUMP JUMPDEST CODESIZE PUSH2 0x24E3 JUMP JUMPDEST PUSH4 0x4E487B71 PUSH1 0xE0 SHL PUSH1 0x0 MSTORE PUSH1 0x0 PUSH1 0x4 MSTORE PUSH1 0x24 PUSH1 0x0 REVERT JUMPDEST PUSH1 0x1 PUSH1 0x1 PUSH1 0xA0 SHL SUB AND PUSH1 0x0 SWAP1 DUP2 MSTORE PUSH1 0x2 PUSH1 0x20 SWAP1 DUP2 MSTORE PUSH1 0x40 DUP1 DUP4 KECCAK256 DUP2 MLOAD DUP2 SLOAD DUP1 DUP3 MSTORE SWAP2 DUP6 MSTORE DUP4 DUP6 KECCAK256 SWAP1 SWAP7 SWAP5 SWAP6 SWAP4 SWAP3 SWAP1 SWAP2 DUP8 SWAP2 DUP5 SWAP2 DUP4 DUP4 ADD SWAP2 SWAP1 DUP10 JUMPDEST DUP2 PUSH1 0x1F DUP3 ADD LT PUSH2 0x2C9A JUMPI DUP5 PUSH2 0x286A SWAP8 SLOAD SWAP4 DUP4 DUP4 LT PUSH2 0x2C7E JUMPI JUMPDEST DUP4 DUP4 LT PUSH2 0x2C5F JUMPI JUMPDEST DUP4 DUP4 LT PUSH2 0x2C40 JUMPI JUMPDEST DUP4 DUP4 LT PUSH2 0x2C21 JUMPI JUMPDEST DUP4 DUP4 LT PUSH2 0x2C03 JUMPI JUMPDEST DUP4 DUP4 LT PUSH2 0x2BE4 JUMPI JUMPDEST DUP4 DUP4 LT PUSH2 0x2BC5 JUMPI JUMPDEST DUP4 DUP4 LT PUSH2 0x2BA6 JUMPI JUMPDEST DUP4 DUP4 LT PUSH2 0x2B89 JUMPI JUMPDEST POP DUP3 DUP3 LT PUSH2 0x2B6C JUMPI JUMPDEST DUP3 DUP3 LT PUSH2 0x2B4F JUMPI JUMPDEST DUP3 DUP3 LT PUSH2 0x2B32 JUMPI JUMPDEST DUP3 DUP3 LT PUSH2 0x2B15 JUMPI JUMPDEST DUP3 DUP3 LT PUSH2 0x2AF8 JUMPI JUMPDEST DUP3 DUP3 LT PUSH2 0x2ADB JUMPI JUMPDEST DUP3 DUP3 LT PUSH2 0x2ABE JUMPI JUMPDEST DUP3 DUP3 LT PUSH2 0x2AA1 JUMPI JUMPDEST DUP3 DUP3 LT PUSH2 0x2A84 JUMPI JUMPDEST DUP3 DUP3 LT PUSH2 0x2A67 JUMPI JUMPDEST DUP3 DUP3 LT PUSH2 0x2A4A JUMPI JUMPDEST DUP3 DUP3 LT PUSH2 0x2A2D JUMPI JUMPDEST DUP3 DUP3 LT PUSH2 0x2A10 JUMPI JUMPDEST DUP3 DUP3 LT PUSH2 0x29F3 JUMPI JUMPDEST DUP3 DUP3 LT PUSH2 0x29D6 JUMPI JUMPDEST DUP3 DUP3 LT PUSH2 0x29B9 JUMPI JUMPDEST DUP3 DUP3 LT PUSH2 0x299C JUMPI JUMPDEST DUP3 DUP3 LT PUSH2 0x297F JUMPI JUMPDEST DUP3 DUP3 LT PUSH2 0x2962 JUMPI JUMPDEST DUP3 DUP3 LT PUSH2 0x2945 JUMPI JUMPDEST DUP3 DUP3 LT PUSH2 0x2928 JUMPI JUMPDEST DUP3 DUP3 LT PUSH2 0x290B JUMPI JUMPDEST POP LT PUSH2 0x28F5 JUMPI JUMPDEST POP SWAP1 POP SUB DUP7 PUSH2 0x1F60 JUMP JUMPDEST DUP4 JUMPDEST DUP6 MLOAD DUP2 LT ISZERO PUSH2 0x28ED JUMPI DUP2 DUP2 PUSH1 0x5 SHL DUP8 ADD ADD MLOAD PUSH1 0x8 DUP1 DUP3 LT ISZERO PUSH2 0x28D9 JUMPI DUP5 LT ISZERO PUSH2 0x28C5 JUMPI DUP4 EQ PUSH2 0x28BA JUMPI PUSH1 0x0 NOT DUP2 EQ PUSH2 0x28A6 JUMPI PUSH1 0x1 ADD PUSH2 0x286C JUMP JUMPDEST PUSH4 0x4E487B71 PUSH1 0xE0 SHL DUP6 MSTORE PUSH1 0x11 PUSH1 0x4 MSTORE PUSH1 0x24 DUP6 REVERT JUMPDEST POP POP POP SWAP2 POP POP PUSH1 0x1 SWAP1 JUMP JUMPDEST PUSH4 0x4E487B71 PUSH1 0xE0 SHL DUP7 MSTORE PUSH1 0x21 PUSH1 0x4 MSTORE PUSH1 0x24 DUP7 REVERT JUMPDEST PUSH4 0x4E487B71 PUSH1 0xE0 SHL DUP8 MSTORE PUSH1 0x21 PUSH1 0x4 MSTORE PUSH1 0x24 DUP8 REVERT JUMPDEST POP POP POP SWAP2 POP SWAP1 JUMP JUMPDEST DUP2 PUSH2 0x2902 SWAP2 PUSH1 0xF8 SHR PUSH2 0x1FDC JUMP JUMPDEST ADD DUP4 SWAP1 CODESIZE PUSH2 0x2860 JUMP JUMPDEST DUP5 PUSH2 0x291F PUSH1 0x1 SWAP4 SWAP7 PUSH1 0xFF DUP8 PUSH1 0xF0 SHR AND PUSH2 0x1FDC JUMP JUMPDEST ADD SWAP4 ADD DUP5 PUSH2 0x2859 JUMP JUMPDEST DUP5 PUSH2 0x293C PUSH1 0x1 SWAP4 SWAP7 PUSH1 0xFF DUP8 PUSH1 0xE8 SHR AND PUSH2 0x1FDC JUMP JUMPDEST ADD SWAP4 ADD DUP5 PUSH2 0x2851 JUMP JUMPDEST DUP5 PUSH2 0x2959 PUSH1 0x1 SWAP4 SWAP7 PUSH1 0xFF DUP8 PUSH1 0xE0 SHR AND PUSH2 0x1FDC JUMP JUMPDEST ADD SWAP4 ADD DUP5 PUSH2 0x2849 JUMP JUMPDEST DUP5 PUSH2 0x2976 PUSH1 0x1 SWAP4 SWAP7 PUSH1 0xFF DUP8 PUSH1 0xD8 SHR AND PUSH2 0x1FDC JUMP JUMPDEST ADD SWAP4 ADD DUP5 PUSH2 0x2841 JUMP JUMPDEST DUP5 PUSH2 0x2993 PUSH1 0x1 SWAP4 SWAP7 PUSH1 0xFF DUP8 PUSH1 0xD0 SHR AND PUSH2 0x1FDC JUMP JUMPDEST ADD SWAP4 ADD DUP5 PUSH2 0x2839 JUMP JUMPDEST DUP5 PUSH2 0x29B0 PUSH1 0x1 SWAP4 SWAP7 PUSH1 0xFF DUP8 PUSH1 0xC8 SHR AND PUSH2 0x1FDC JUMP JUMPDEST ADD SWAP4 ADD DUP5 PUSH2 0x2831 JUMP JUMPDEST DUP5 PUSH2 0x29CD PUSH1 0x1 SWAP4 SWAP7 PUSH1 0xFF DUP8 PUSH1 0xC0 SHR AND PUSH2 0x1FDC JUMP JUMPDEST ADD SWAP4 ADD DUP5 PUSH2 0x2829 JUMP JUMPDEST DUP5 PUSH2 0x29EA PUSH1 0x1 SWAP4 SWAP7 PUSH1 0xFF DUP8 PUSH1 0xB8 SHR AND PUSH2 0x1FDC JUMP JUMPDEST ADD SWAP4 ADD DUP5 PUSH2 0x2821 JUMP JUMPDEST DUP5 PUSH2 0x2A07 PUSH1 0x1 SWAP4 SWAP7 PUSH1 0xFF DUP8 PUSH1 0xB0 SHR AND PUSH2 0x1FDC JUMP JUMPDEST ADD SWAP4 ADD DUP5 PUSH2 0x2819 JUMP JUMPDEST DUP5 PUSH2 0x2A24 PUSH1 0x1 SWAP4 SWAP7 PUSH1 0xFF DUP8 PUSH1 0xA8 SHR AND PUSH2 0x1FDC JUMP JUMPDEST ADD SWAP4 ADD DUP5 PUSH2 0x2811 JUMP JUMPDEST DUP5 PUSH2 0x2A41 PUSH1 0x1 SWAP4 SWAP7 PUSH1 0xFF DUP8 PUSH1 0xA0 SHR AND PUSH2 0x1FDC JUMP JUMPDEST ADD SWAP4 ADD DUP5 PUSH2 0x2809 JUMP JUMPDEST DUP5 PUSH2 0x2A5E PUSH1 0x1 SWAP4 SWAP7 PUSH1 0xFF DUP8 PUSH1 0x98 SHR AND PUSH2 0x1FDC JUMP JUMPDEST ADD SWAP4 ADD DUP5 PUSH2 0x2801 JUMP JUMPDEST DUP5 PUSH2 0x2A7B PUSH1 0x1 SWAP4 SWAP7 PUSH1 0xFF DUP8 PUSH1 0x90 SHR AND PUSH2 0x1FDC JUMP JUMPDEST ADD SWAP4 ADD DUP5 PUSH2 0x27F9 JUMP JUMPDEST DUP5 PUSH2 0x2A98 PUSH1 0x1 SWAP4 SWAP7 PUSH1 0xFF DUP8 PUSH1 0x88 SHR AND PUSH2 0x1FDC JUMP JUMPDEST ADD SWAP4 ADD DUP5 PUSH2 0x27F1 JUMP JUMPDEST DUP5 PUSH2 0x2AB5 PUSH1 0x1 SWAP4 SWAP7 PUSH1 0xFF DUP8 PUSH1 0x80 SHR AND PUSH2 0x1FDC JUMP JUMPDEST ADD SWAP4 ADD DUP5 PUSH2 0x27E9 JUMP JUMPDEST DUP5 PUSH2 0x2AD2 PUSH1 0x1 SWAP4 SWAP7 PUSH1 0xFF DUP8 PUSH1 0x78 SHR AND PUSH2 0x1FDC JUMP JUMPDEST ADD SWAP4 ADD DUP5 PUSH2 0x27E1 JUMP JUMPDEST DUP5 PUSH2 0x2AEF PUSH1 0x1 SWAP4 SWAP7 PUSH1 0xFF DUP8 PUSH1 0x70 SHR AND PUSH2 0x1FDC JUMP JUMPDEST ADD SWAP4 ADD DUP5 PUSH2 0x27D9 JUMP JUMPDEST DUP5 PUSH2 0x2B0C PUSH1 0x1 SWAP4 SWAP7 PUSH1 0xFF DUP8 PUSH1 0x68 SHR AND PUSH2 0x1FDC JUMP JUMPDEST ADD SWAP4 ADD DUP5 PUSH2 0x27D1 JUMP JUMPDEST DUP5 PUSH2 0x2B29 PUSH1 0x1 SWAP4 SWAP7 PUSH1 0xFF DUP8 PUSH1 0x60 SHR AND PUSH2 0x1FDC JUMP JUMPDEST ADD SWAP4 ADD DUP5 PUSH2 0x27C9 JUMP JUMPDEST DUP5 PUSH2 0x2B46 PUSH1 0x1 SWAP4 SWAP7 PUSH1 0xFF DUP8 PUSH1 0x58 SHR AND PUSH2 0x1FDC JUMP JUMPDEST ADD SWAP4 ADD DUP5 PUSH2 0x27C1 JUMP JUMPDEST DUP5 PUSH2 0x2B63 PUSH1 0x1 SWAP4 SWAP7 PUSH1 0xFF DUP8 PUSH1 0x50 SHR AND PUSH2 0x1FDC JUMP JUMPDEST ADD SWAP4 ADD DUP5 PUSH2 0x27B9 JUMP JUMPDEST DUP5 PUSH2 0x2B80 PUSH1 0x1 SWAP4 SWAP7 PUSH1 0xFF DUP8 PUSH1 0x48 SHR AND PUSH2 0x1FDC JUMP JUMPDEST ADD SWAP4 ADD DUP5 PUSH2 0x27B1 JUMP JUMPDEST SWAP5 PUSH2 0x2B9C DUP2 PUSH1 0xFF DUP8 PUSH1 0x1 SWAP7 SWAP10 SHR AND PUSH2 0x1FDC JUMP JUMPDEST ADD SWAP4 ADD DUP5 CODESIZE PUSH2 0x27A8 JUMP JUMPDEST SWAP2 SWAP5 DUP2 DUP2 PUSH2 0x2BBC PUSH1 0x1 SWAP4 PUSH1 0xFF DUP10 PUSH1 0x38 SHR AND PUSH2 0x1FDC JUMP JUMPDEST ADD SWAP6 ADD SWAP2 PUSH2 0x27A0 JUMP JUMPDEST SWAP2 SWAP5 DUP2 DUP2 PUSH2 0x2BDB PUSH1 0x1 SWAP4 PUSH1 0xFF DUP10 PUSH1 0x30 SHR AND PUSH2 0x1FDC JUMP JUMPDEST ADD SWAP6 ADD SWAP2 PUSH2 0x2798 JUMP JUMPDEST SWAP2 SWAP5 DUP2 DUP2 PUSH2 0x2BFA PUSH1 0x1 SWAP4 PUSH1 0xFF DUP10 PUSH1 0x28 SHR AND PUSH2 0x1FDC JUMP JUMPDEST ADD SWAP6 ADD SWAP2 PUSH2 0x2790 JUMP JUMPDEST SWAP2 SWAP5 DUP2 DUP2 PUSH2 0x2C18 PUSH1 0x1 SWAP4 PUSH1 0xFF DUP10 DUP6 SHR AND PUSH2 0x1FDC JUMP JUMPDEST ADD SWAP6 ADD SWAP2 PUSH2 0x2788 JUMP JUMPDEST SWAP2 SWAP5 DUP2 DUP2 PUSH2 0x2C37 PUSH1 0x1 SWAP4 PUSH1 0xFF DUP10 PUSH1 0x18 SHR AND PUSH2 0x1FDC JUMP JUMPDEST ADD SWAP6 ADD SWAP2 PUSH2 0x2780 JUMP JUMPDEST SWAP2 SWAP5 DUP2 DUP2 PUSH2 0x2C56 PUSH1 0x1 SWAP4 PUSH1 0xFF DUP10 PUSH1 0x10 SHR AND PUSH2 0x1FDC JUMP JUMPDEST ADD SWAP6 ADD SWAP2 PUSH2 0x2778 JUMP JUMPDEST SWAP2 SWAP5 DUP2 DUP2 PUSH2 0x2C75 PUSH1 0x1 SWAP4 PUSH1 0xFF DUP10 PUSH1 0x8 SHR AND PUSH2 0x1FDC JUMP JUMPDEST ADD SWAP6 ADD SWAP2 PUSH2 0x2770 JUMP JUMPDEST SWAP2 SWAP5 DUP2 DUP2 PUSH2 0x2C91 PUSH1 0x1 SWAP4 PUSH1 0xFF DUP10 AND PUSH2 0x1FDC JUMP JUMPDEST ADD SWAP6 ADD SWAP2 PUSH2 0x2768 JUMP JUMPDEST SWAP3 PUSH1 0x1 SWAP2 SWAP5 SWAP3 SWAP6 POP PUSH2 0x400 SWAP1 PUSH2 0x2EC4 DUP9 SLOAD PUSH2 0x17D3 DUP7 PUSH2 0x17B0 PUSH2 0x2D5C PUSH2 0x2E7C DUP14 PUSH2 0x2E34 DUP10 PUSH2 0x2DEC PUSH1 0xFF SWAP8 PUSH2 0x2CCF DUP4 DUP11 DUP14 AND PUSH2 0x1FDC JUMP JUMPDEST PUSH2 0x2CE0 DUP2 DUP5 ADD DUP11 DUP14 PUSH1 0x8 SHR AND PUSH2 0x1FDC JUMP JUMPDEST PUSH2 0x2CF1 DUP6 DUP5 ADD DUP11 DUP14 PUSH1 0x10 SHR AND PUSH2 0x1FDC JUMP JUMPDEST DUP9 DUP12 PUSH2 0x200 PUSH1 0x60 SWAP6 PUSH2 0x2D0A DUP8 DUP3 ADD DUP6 DUP6 PUSH1 0x18 SHR AND PUSH2 0x1FDC JUMP JUMPDEST PUSH2 0x2D1D PUSH1 0x80 SWAP6 DUP6 DUP6 DUP9 DUP6 ADD SWAP3 SHR AND PUSH2 0x1FDC JUMP JUMPDEST PUSH2 0x2DB3 PUSH1 0xA0 SWAP8 PUSH2 0x2D34 DUP10 DUP5 ADD DUP8 DUP8 PUSH1 0x28 SHR AND PUSH2 0x1FDC JUMP JUMPDEST PUSH2 0x2D6B PUSH1 0xC0 SWAP12 PUSH2 0x2D4B DUP14 DUP7 ADD DUP10 DUP10 PUSH1 0x30 SHR AND PUSH2 0x1FDC JUMP JUMPDEST PUSH1 0xE0 SWAP15 DUP16 DUP7 ADD DUP10 DUP10 PUSH1 0x38 SHR AND PUSH2 0x1FDC JUMP JUMPDEST DUP8 DUP8 PUSH2 0x100 DUP8 ADD SWAP3 SHR AND PUSH2 0x1FDC JUMP JUMPDEST PUSH2 0x2D7E PUSH2 0x120 DUP5 ADD DUP8 DUP8 PUSH1 0x48 SHR AND PUSH2 0x1FDC JUMP JUMPDEST PUSH2 0x2D91 PUSH2 0x140 DUP5 ADD DUP8 DUP8 PUSH1 0x50 SHR AND PUSH2 0x1FDC JUMP JUMPDEST PUSH2 0x2DA4 PUSH2 0x160 DUP5 ADD DUP8 DUP8 PUSH1 0x58 SHR AND PUSH2 0x1FDC JUMP JUMPDEST DUP6 DUP6 PUSH2 0x180 DUP6 ADD SWAP3 SHR AND PUSH2 0x1FDC JUMP JUMPDEST PUSH2 0x2DC6 PUSH2 0x1A0 DUP3 ADD DUP6 DUP6 PUSH1 0x68 SHR AND PUSH2 0x1FDC JUMP JUMPDEST PUSH2 0x2DD9 PUSH2 0x1C0 DUP3 ADD DUP6 DUP6 PUSH1 0x70 SHR AND PUSH2 0x1FDC JUMP JUMPDEST PUSH2 0x1684 PUSH2 0x1E0 DUP3 ADD DUP6 DUP6 PUSH1 0x78 SHR AND PUSH2 0x1FDC JUMP JUMPDEST PUSH2 0x2DFF PUSH2 0x220 DUP13 ADD DUP9 DUP12 PUSH1 0x88 SHR AND PUSH2 0x1FDC JUMP JUMPDEST PUSH2 0x2E12 PUSH2 0x240 DUP13 ADD DUP9 DUP12 PUSH1 0x90 SHR AND PUSH2 0x1FDC JUMP JUMPDEST PUSH2 0x2E25 PUSH2 0x260 DUP13 ADD DUP9 DUP12 PUSH1 0x98 SHR AND PUSH2 0x1FDC JUMP JUMPDEST DUP7 DUP10 PUSH2 0x280 DUP14 ADD SWAP3 SHR AND PUSH2 0x1FDC JUMP JUMPDEST PUSH2 0x2E47 PUSH2 0x2A0 DUP11 ADD DUP7 DUP10 PUSH1 0xA8 SHR AND PUSH2 0x1FDC JUMP JUMPDEST PUSH2 0x2E5A PUSH2 0x2C0 DUP11 ADD DUP7 DUP10 PUSH1 0xB0 SHR AND PUSH2 0x1FDC JUMP JUMPDEST PUSH2 0x2E6D PUSH2 0x2E0 DUP11 ADD DUP7 DUP10 PUSH1 0xB8 SHR AND PUSH2 0x1FDC JUMP JUMPDEST DUP5 DUP8 PUSH2 0x300 DUP12 ADD SWAP3 SHR AND PUSH2 0x1FDC JUMP JUMPDEST PUSH2 0x2E8F PUSH2 0x320 DUP9 ADD DUP5 DUP8 PUSH1 0xC8 SHR AND PUSH2 0x1FDC JUMP JUMPDEST PUSH2 0x2EA2 PUSH2 0x340 DUP9 ADD DUP5 DUP8 PUSH1 0xD0 SHR AND PUSH2 0x1FDC JUMP JUMPDEST PUSH2 0x2EB5 PUSH2 0x360 DUP9 ADD DUP5 DUP8 PUSH1 0xD8 SHR AND PUSH2 0x1FDC JUMP JUMPDEST DUP3 DUP6 PUSH2 0x380 DUP10 ADD SWAP3 SHR AND PUSH2 0x1FDC JUMP JUMPDEST ADD SWAP6 ADD SWAP2 ADD SWAP3 DUP6 SWAP3 DUP11 SWAP5 SWAP6 SWAP3 SWAP6 PUSH2 0x274F JUMP INVALID DUP13 0xA8 0xCA 0x2A 0xEF 0xB8 0xAC 0x23 0xC4 0x1E 0x4E CALL 0xB2 SHL 0x4C SWAP12 0xFC 0xC3 PUSH4 0xA88E6EBE 0xAD SWAP2 DUP8 0xC2 0xAB PUSH18 0x4CE08DA264697066735822122049D6984810 PUSH25 0x4C1AB84EFFA13F6D053F166BDE2CC888D9BD2BDFAD1461C5BE 0xA5 PUSH5 0x736F6C6343 STOP ADDMOD EQ STOP CALLER "},"methodIdentifiers":{"addTrackingEvent(string,uint8,string,string)":"f5f09ed0","addTrackingEventWithData(string,uint8,string,string,bytes32,uint256,bytes32)":"35bcc652","authorizeHandler(address,uint8[])":"79ecc6bc","authorizedHandlers(address)":"afc221df","batchExistsCheck(string)":"20e27a8c","batchHistory(bytes32,uint256)":"30527dc1","batches(bytes32)":"c81e25ab","createBatch(string,string)":"92b8f021","freezeBatch(string,string)":"3cd7bca3","getBatchHistory(string)":"a252d8a7","getBatchInfo(string)":"d54d5b92","getCurrentStage(string)":"2e58be71","getEventCount(string)":"ad10faf4","getHandlerPermissions(address)":"76671f07","handlerPermissions(address,uint256)":"7e0a4e44","owner()":"8da5cb5b","revokeHandler(address)":"c1544590","unfreezeBatch(string)":"0dc51a78"}}}}}