{"contracts/MangoSupplyChain.sol":{"MangoSupplyChain":{"abi":[{"inputs":[],"stateMutability":"nonpayable","type":"constructor"},{"anonymous":false,"inputs":[{"indexed":true,"internalType":"string","name":"batchId","type":"string"},{"indexed":true,"internalType":"address","name":"producer","type":"address"},{"indexed":false,"internalType":"string","name":"variety","type":"string"},{"indexed":false,"internalType":"string","name":"varietyName","type":"string"},{"indexed":false,"internalType":"enum MangoSupplyChain.QualityGrade","name":"qualityGrade","type":"uint8"},{"indexed":false,"internalType":"uint256","name":"timestamp","type":"uint256"},{"indexed":false,"internalType":"uint256","name":"quantity","type":"uint256"}],"name":"BatchRegistered","type":"event"},{"anonymous":false,"inputs":[{"indexed":true,"internalType":"address","name":"handler","type":"address"},{"indexed":false,"internalType":"uint256","name":"timestamp","type":"uint256"}],"name":"HandlerAuthorized","type":"event"},{"anonymous":false,"inputs":[{"indexed":true,"internalType":"address","name":"handler","type":"address"},{"indexed":false,"internalType":"uint256","name":"timestamp","type":"uint256"}],"name":"HandlerRevoked","type":"event"},{"anonymous":false,"inputs":[{"indexed":true,"internalType":"string","name":"batchId","type":"string"},{"indexed":false,"internalType":"enum MangoSupplyChain.Stage","name":"newStage","type":"uint8"},{"indexed":false,"internalType":"uint256","name":"timestamp","type":"uint256"}],"name":"StageUpdated","type":"event"},{"anonymous":false,"inputs":[{"indexed":true,"internalType":"string","name":"batchId","type":"string"},{"indexed":false,"internalType":"enum MangoSupplyChain.Stage","name":"stage","type":"uint8"},{"indexed":false,"internalType":"string","name":"location","type":"string"},{"indexed":true,"internalType":"address","name":"handler","type":"address"},{"indexed":false,"internalType":"uint256","name":"timestamp","type":"uint256"}],"name":"TrackingEventAdded","type":"event"},{"anonymous":false,"inputs":[{"indexed":true,"internalType":"string","name":"varietyId","type":"string"},{"indexed":false,"internalType":"string","name":"name","type":"string"},{"indexed":false,"internalType":"bool","name":"exportable","type":"bool"},{"indexed":false,"internalType":"uint256","name":"timestamp","type":"uint256"}],"name":"VarietyRegistered","type":"event"},{"inputs":[{"internalType":"string","name":"_batchId","type":"string"},{"internalType":"enum MangoSupplyChain.Stage","name":"_stage","type":"uint8"},{"internalType":"string","name":"_location","type":"string"},{"internalType":"string","name":"_notes","type":"string"}],"name":"addTrackingEvent","outputs":[],"stateMutability":"nonpayable","type":"function"},{"inputs":[{"internalType":"uint256","name":"","type":"uint256"}],"name":"allBatchIds","outputs":[{"internalType":"string","name":"","type":"string"}],"stateMutability":"view","type":"function"},{"inputs":[{"internalType":"address","name":"_handler","type":"address"}],"name":"authorizeHandler","outputs":[],"stateMutability":"nonpayable","type":"function"},{"inputs":[{"internalType":"address","name":"","type":"address"}],"name":"authorizedHandlers","outputs":[{"internalType":"bool","name":"","type":"bool"}],"stateMutability":"view","type":"function"},{"inputs":[],"name":"batchCount","outputs":[{"internalType":"uint256","name":"","type":"uint256"}],"stateMutability":"view","type":"function"},{"inputs":[{"internalType":"string","name":"","type":"string"},{"internalType":"uint256","name":"","type":"uint256"}],"name":"batchHistory","outputs":[{"internalType":"enum MangoSupplyChain.Stage","name":"stage","type":"uint8"},{"internalType":"string","name":"location","type":"string"},{"internalType":"uint256","name":"timestamp","type":"uint256"},{"internalType":"address","name":"handler","type":"address"},{"internalType":"string","name":"notes","type":"string"}],"stateMutability":"view","type":"function"},{"inputs":[{"internalType":"string","name":"","type":"string"}],"name":"batches","outputs":[{"internalType":"string","name":"batchId","type":"string"},{"internalType":"address","name":"producer","type":"address"},{"internalType":"string","name":"producerName","type":"string"},{"internalType":"string","name":"location","type":"string"},{"internalType":"string","name":"variety","type":"string"},{"internalType":"string","name":"varietyName","type":"string"},{"internalType":"enum MangoSupplyChain.QualityGrade","name":"qualityGrade","type":"uint8"},{"internalType":"uint256","name":"registrationTime","type":"uint256"},{"internalType":"uint256","name":"quantity","type":"uint256"},{"internalType":"bool","name":"isExportable","type":"bool"},{"internalType":"enum MangoSupplyChain.Stage","name":"currentStage","type":"uint8"},{"internalType":"string","name":"dataHash","type":"string"}],"stateMutability":"view","type":"function"},{"inputs":[{"internalType":"string","name":"_varietyId","type":"string"}],"name":"deactivateVariety","outputs":[],"stateMutability":"nonpayable","type":"function"},{"inputs":[{"internalType":"string","name":"_batchId","type":"string"}],"name":"getBatch","outputs":[{"components":[{"internalType":"string","name":"batchId","type":"string"},{"internalType":"address","name":"producer","type":"address"},{"internalType":"string","name":"producerName","type":"string"},{"internalType":"string","name":"location","type":"string"},{"internalType":"string","name":"variety","type":"string"},{"internalType":"string","name":"varietyName","type":"string"},{"internalType":"enum MangoSupplyChain.QualityGrade","name":"qualityGrade","type":"uint8"},{"internalType":"uint256","name":"registrationTime","type":"uint256"},{"internalType":"uint256","name":"quantity","type":"uint256"},{"internalType":"bool","name":"isExportable","type":"bool"},{"internalType":"enum MangoSupplyChain.Stage","name":"currentStage","type":"uint8"},{"internalType":"string","name":"dataHash","type":"string"}],"internalType":"struct MangoSupplyChain.MangoBatch","name":"","type":"tuple"}],"stateMutability":"view","type":"function"},{"inputs":[{"internalType":"string","name":"_batchId","type":"string"}],"name":"getBatchHistory","outputs":[{"components":[{"internalType":"enum MangoSupplyChain.Stage","name":"stage","type":"uint8"},{"internalType":"string","name":"location","type":"string"},{"internalType":"uint256","name":"timestamp","type":"uint256"},{"internalType":"address","name":"handler","type":"address"},{"internalType":"string","name":"notes","type":"string"}],"internalType":"struct MangoSupplyChain.TrackingEvent[]","name":"","type":"tuple[]"}],"stateMutability":"view","type":"function"},{"inputs":[{"internalType":"address","name":"_producer","type":"address"}],"name":"getProducerBatches","outputs":[{"internalType":"string[]","name":"","type":"string[]"}],"stateMutability":"view","type":"function"},{"inputs":[{"internalType":"string","name":"_varietyId","type":"string"}],"name":"getVariety","outputs":[{"components":[{"internalType":"string","name":"id","type":"string"},{"internalType":"string","name":"name","type":"string"},{"internalType":"bool","name":"exportable","type":"bool"},{"internalType":"bool","name":"active","type":"bool"}],"internalType":"struct MangoSupplyChain.VarietyInfo","name":"","type":"tuple"}],"stateMutability":"view","type":"function"},{"inputs":[],"name":"minimallyRequiredQuantity","outputs":[{"internalType":"uint256","name":"","type":"uint256"}],"stateMutability":"view","type":"function"},{"inputs":[],"name":"owner","outputs":[{"internalType":"address","name":"","type":"address"}],"stateMutability":"view","type":"function"},{"inputs":[{"internalType":"address","name":"","type":"address"},{"internalType":"uint256","name":"","type":"uint256"}],"name":"producerBatches","outputs":[{"internalType":"string","name":"","type":"string"}],"stateMutability":"view","type":"function"},{"inputs":[{"internalType":"string","name":"_batchId","type":"string"},{"internalType":"string","name":"_producerName","type":"string"},{"internalType":"string","name":"_location","type":"string"},{"internalType":"string","name":"_varietyId","type":"string"},{"internalType":"enum MangoSupplyChain.QualityGrade","name":"_qualityGrade","type":"uint8"},{"internalType":"uint256","name":"_quantity","type":"uint256"},{"internalType":"string","name":"_dataHash","type":"string"}],"name":"registerBatch","outputs":[],"stateMutability":"nonpayable","type":"function"},{"inputs":[{"internalType":"string","name":"_varietyId","type":"string"},{"internalType":"string","name":"_name","type":"string"},{"internalType":"bool","name":"_exportable","type":"bool"}],"name":"registerVariety","outputs":[],"stateMutability":"nonpayable","type":"function"},{"inputs":[{"internalType":"string","name":"","type":"string"}],"name":"registeredVarieties","outputs":[{"internalType":"string","name":"id","type":"string"},{"internalType":"string","name":"name","type":"string"},{"internalType":"bool","name":"exportable","type":"bool"},{"internalType":"bool","name":"active","type":"bool"}],"stateMutability":"view","type":"function"},{"inputs":[{"internalType":"address","name":"_handler","type":"address"}],"name":"revokeHandler","outputs":[],"stateMutability":"nonpayable","type":"function"},{"inputs":[{"internalType":"uint256","name":"_quantity","type":"uint256"}],"name":"setMinQuantity","outputs":[],"stateMutability":"nonpayable","type":"function"},{"inputs":[{"internalType":"address","name":"_newOwner","type":"address"}],"name":"transferOwnership","outputs":[],"stateMutability":"nonpayable","type":"function"}],"evm":{"bytecode":{"linkReferences":{},"object":"608060405234620006a1576064600855600680546001600160a01b031916339081179091556000908152600560205260408120805460ff1916600117905560079081556200004c620006a6565b9062000057620006c7565b600c81526b746f6d6d792d61746b696e7360a01b602082015282526200007c620006c7565b60058152643430b232b760d91b602082015260208301526200009d620006c7565b600e81526d7069636f2d64652d70616a61726f60901b60208201526040830152620000c7620006c7565b60048152631ad95b9d60e21b60208201526060830152620000e7620006c7565b81815266617461756c666f60c81b6020820152608083015262000109620006c7565b600681526519591dd85c9960d21b602082015260a08301526200012b620006c7565b818152666372696f6c6c6f60c81b602082015260c08301526200014d620006c7565b818152666672616e63697360c81b602082015260e08301526200016f620006a6565b906200017a620006c7565b600c81526b546f6d6d792041746b696e7360a01b602082015282526200019f620006c7565b60058152642430b232b760d91b60208201526020830152620001c0620006c7565b600e81526d5069636f2064652050616a61726f60901b60208201526040830152620001ea620006c7565b600481526312d95b9d60e21b602082015260608301526200020a620006c7565b81815266417461756c666f60c81b602082015260808301526200022c620006c7565b600681526511591dd85c9960d21b602082015260a08301526200024e620006c7565b818152664372696f6c6c6f60c81b602082015260c083015262000270620006c7565b908152664672616e63697360c81b602082015260e082015262000292620006a6565b6001815260016020820152600060408201526001606082015260016080820152600160a0820152600060c0820152600160e082015260005b60088110620002e357604051611ee79081620007108239f35b620002ef8185620006e7565b51620002fc8285620006e7565b51620003098385620006e7565b516040519290151591906001600160401b03608085019081119085111762000598576080840160405283526020830152604082015260016060820152620003518286620006e7565b51604051908181519160005b8381106200068b57505060029181019182529003602001902081518051906001600160401b0382116200059857825490600182811c9216801562000680575b6020831014620005775781601f8493116200062b575b50602090601f8311600114620005ba57600092620005ae575b50508160011b916000199060031b1c19161781555b60208201518051906001600160401b03821162000598576001830154600181811c911680156200058d575b60208210146200057757601f81116200052b575b50602090601f8311600114620004b357600293929160009183620004a7575b50508160011b916000199060031b1c19161760018201555b0190604081015115159060ff61ff0060608554930151151560081b1692169061ffff19161717905560001981146200049157600101620002ca565b634e487b7160e01b600052601160045260246000fd5b0151905038806200043e565b906001840160005260206000209160005b601f198516811062000512575091839160019360029695601f19811610620004f8575b505050811b01600182015562000456565b015160001960f88460031b161c19169055388080620004e7565b91926020600181928685015181550194019201620004c4565b600184016000526020600020601f840160051c8101602085106200056f575b601f830160051c82018110620005625750506200041f565b600081556001016200054a565b50806200054a565b634e487b7160e01b600052602260045260246000fd5b90607f16906200040b565b634e487b7160e01b600052604160045260246000fd5b015190503880620003cb565b9250836000526020600020906000935b601f19841685106200060f576001945083601f19811610620005f5575b505050811b018155620003e0565b015160001960f88460031b161c19169055388080620005e7565b81810151835560209485019460019093019290910190620005ca565b909150836000526020600020601f840160051c81016020851062000678575b90849392915b601f830160051c8201811062000668575050620003b2565b6000815585945060010162000650565b50806200064a565b91607f16916200039c565b602082820181015186830152859350016200035d565b600080fd5b6040519061010082016001600160401b038111838210176200059857604052565b60408051919082016001600160401b038111838210176200059857604052565b906008811015620006f95760051b0190565b634e487b7160e01b600052603260045260246000fdfe608080604052600436101561001357600080fd5b60003560e01c90816306f130561461190d57508063290b17ec146118bc5780632fc85ad41461183d5780633031e0c31461181f57806349eb1134146117b5578063630f4180146115565780636a8c4081146114b25780636c4bf3e514610ec25780637ef1446a14610d4d5780638b4db87f14610c455780638da5cb5b14610c1c5780639b4bc92714610b42578063a252d8a71461097b578063a78bc4d71461094d578063afc221df1461090e578063c15445901461080b578063e69422be14610725578063f2fde38b14610689578063f5f09ed014610481578063f7e187e3146103b85763f9ca42741461010657600080fd5b346103b35760203660031901126103b3576004356001600160401b0381116103b3576101dd602061013e6103af933690600401611adb565b606061016060405161014f81611995565b82815260008582015282604082015282808201528260808201528260a0820152600060c0820152600060e08201526000610100820152600061012082015260006101408201520152604051906101cc6101c58251938581818601966101b581838a611a93565b8101600081520301902054611940565b1515611e57565b604051938492839251928391611a93565b810160008152030190206102ad600a604051926101f984611995565b610202816119ed565b845260018101546001600160a01b03166020850152610223600282016119ed565b6040850152610234600382016119ed565b6060850152610245600482016119ed565b6080850152610256600582016119ed565b60a085015261026f60ff60068301541660c08601611d93565b600781015460e085015260088101546101008501526102a760ff6009830154818116151561012088015260081c166101408601611d9f565b016119ed565b6101608201526040519182916020835261016061035161033b61032561030f6102e4865161018060208b01526101a08a0190611ab6565b60208701516001600160a01b031660408a810191909152870151898203601f190160608b0152611ab6565b6060860151888203601f190160808a0152611ab6565b6080850151878203601f190160a0890152611ab6565b60a0840151868203601f190160c0880152611ab6565b9161036460c082015160e0870190611b47565b60e0810151610100860152610100810151610120860152610120810151151561014086015261039b61014082015183870190611b54565b0151838203601f1901610180850152611ab6565b0390f35b600080fd5b346103b35760203660031901126103b3576103d1611b31565b6006546001600160a01b0391906103eb9083163314611b7d565b1680600052600560205260ff60406000205416610447578060005260056020526040600020600160ff198254161790557fe0945c1161bc5f2c6e66bbcf53d1e66ec6056880afed35854bd6a89051dce0a86020604051428152a2005b60405162461bcd60e51b8152602060048201526012602482015271105b1c9958591e48185d5d1a1bdc9a5e995960721b6044820152606490fd5b346103b35760803660031901126103b3576001600160401b036004358181116103b3576104b2903690600401611adb565b6024359060078210156103b3576044358381116103b3576104d7903690600401611adb565b926064359081116103b3576104f0903690600401611adb565b92336000526020936005855260ff6040600020541615610644576040927fc789b8d3e79f481651ebe83eeb45c1af4261c7470735982134070d350233f7e594926105d461062f9361059a8988516105576101c58851928481818c01956101b5818389611a93565b61056386511515611d47565b61058a8960098c5185818c5161057a81838a611a93565b8101600081520301902001611dab565b8951809381928951928391611a93565b810160018152030190208751916105b0836119b1565b6105ba8884611d9f565b848b84015242898401523360608401526080830152611dca565b6105dd82611ce3565b7ff5c8ba246a2f372cdbde2c0849b0b9332918b6b7e7b464aa9e9964ee4528b36f61061e87519361060e8589611b54565b60608b8601526060850190611ab6565b9242888201528033940390a3611ce3565b9361063c83518093611b54565b4290820152a2005b60405162461bcd60e51b815260048101869052601960248201527f4e6f7420616e20617574686f72697a65642068616e646c6572000000000000006044820152606490fd5b346103b35760203660031901126103b3576106a2611b31565b600654906001600160a01b03906106bc3383851614611b7d565b169081156106ee576001600160a01b03191681176006556000908152600560205260409020805460ff19166001179055005b60405162461bcd60e51b815260206004820152600f60248201526e496e76616c6964206164647265737360881b6044820152606490fd5b346103b3576020806003193601126103b3576001600160a01b03610747611b31565b166000526004815260406000209081549161076183611e9a565b9261076f60405194856119cc565b8084528284018092600052836000206000915b8383106107e95750505050604051918083019381845251809452604083019360408160051b85010192916000955b8287106107bd5785850386f35b9091929382806107d9600193603f198a82030186528851611ab6565b96019201960195929190926107b0565b60018681926107fa859a999a6119ed565b815201920192019190959495610782565b346103b3576020806003193601126103b357610825611b31565b6006546001600160a01b039081169291610840338514611b7d565b1691826000526005825260ff60406000205416156108d857821461089e577faa7ffebb0a251446f9e5eceacaf1bdc80098446ae80fe20eda1a2260ff1a46b5908260005260058152604060002060ff198154169055604051428152a2005b6064906040519062461bcd60e51b82526004820152601360248201527221b0b73737ba103932bb37b5b29037bbb732b960691b6044820152fd5b60405162461bcd60e51b815260048101839052600e60248201526d139bdd08185d5d1a1bdc9a5e995960921b6044820152606490fd5b346103b35760203660031901126103b3576001600160a01b0361092f611b31565b166000526005602052602060ff604060002054166040519015158152f35b346103b35760203660031901126103b35761097360018060a01b03600654163314611b7d565b600435600855005b346103b3576020806003193601126103b3576004356001600160401b0381116103b3576109ac903690600401611adb565b90604051916109cb6101c58251948481818601976101b581838b611a93565b6109dd60405193849251928391611a93565b820191818160019485815203019020918254916109f983611e9a565b92610a0760405194856119cc565b8084528184018095600052826000206000915b838310610acd5750505050604051928184019082855251809152604084019160408260051b86010195926000905b838210610a555786880387f35b90919293948380610abc839a603f198b82030186528951610a77828251611b54565b610a8d8482015160a08087860152840190611ab6565b9160408201516040820152606060018060a01b0381840151169082015260808092015191818403910152611ab6565b999701959493919091019101610a48565b94600585829997604099979951610ae3816119b1565b610af160ff87541682611d9f565b610afc8587016119ed565b818401526002860154604082015260038601546001600160a01b03166060820152610b29600487016119ed565b6080820152815201920192019190969496959395610a1a565b346103b35760403660031901126103b3576004356001600160401b0381116103b357610b72903690600401611adb565b610b8e6020602435928160405193828580945193849201611a93565b8101600181520301902080548210156103b357610bf391610bae91611b61565b506103af60ff82541691610bc4600182016119ed565b600282015491610c04610be6600460018060a01b0360038501541693016119ed565b9260405197888098611b54565b60a0602088015260a0870190611ab6565b92604086015260608501528382036080850152611ab6565b346103b35760003660031901126103b3576006546040516001600160a01b039091168152602090f35b346103b3576020806003193601126103b357600435906001600160401b0382116103b357610cb081610c7d6080943690600401611adb565b60006060604051610c8d8161197a565b818152818582015282604082015201528160405193828580945193849201611a93565b810160028152030190209060405191610cc88361197a565b610cd1816119ed565b8352610d386002610ce4600184016119ed565b92848601938452015491610d25604086019460ff85161515865260ff606088019560081c1615158552604051978897828952519188015260a0870190611ab6565b9051858203601f19016040870152611ab6565b91511515606084015251151560808301520390f35b346103b35760203660031901126103b3576004356001600160401b0381116103b357610d7d903690600401611adb565b6040518181809351602081930191610d9492611a93565b810160008152036020019020610da9816119ed565b60018201546001600160a01b031691610dc4600282016119ed565b90610dd1600382016119ed565b90610dde600482016119ed565b91610deb600583016119ed565b92600683015460ff1693600784015491600885015493600986015495600a01610e13906119ed565b976040519a8b9a610180808d528c01610e2b91611ab6565b9060208c01528a810360408c0152610e4291611ab6565b89810360608b0152610e5391611ab6565b88810360808a0152610e6491611ab6565b87810360a0890152610e7591611ab6565b9360c08701610e8391611b47565b60e086015261010085015260ff8116151561012085015261014084019060081c60ff1690610eb091611b54565b8281036101608401526103af91611ab6565b346103b35760e03660031901126103b3576004356001600160401b0381116103b357610ef2903690600401611adb565b6024356001600160401b0381116103b357610f11903690600401611adb565b906044356001600160401b0381116103b357610f31903690600401611adb565b916064356001600160401b0381116103b357610f51903690600401611adb565b92600460843510156103b35760c4356001600160401b0381116103b357610f7c903690600401611adb565b91604051610fb060ff6002885193602081818c0196610f9c81838a611a93565b810184815203019020015460081c16611d03565b84511561146d57610fcf60405160208188516101b58183858d01611a93565b61143157610fdf83511515611d47565b60085460a435106113f757602061100191604051809381928a51928391611a93565b8101600281520301902092604051936110198561197a565b611022816119ed565b85526002611032600183016119ed565b9182602088015201549060ff80831615159283604089015260081c1615156060870152816113e9575b6040519361106885611995565b878552336020860152604085015284606085015287608085015260a084015261109660843560c08501611d93565b4260e084015260a4356101008401521515610120830152600061014083015261016082015260405160208186516110d08183858b01611a93565b810160008152030190206110e5825182611bd4565b6001810160018060a01b036020840151166bffffffffffffffffffffffff60a01b82541617905561111d604083015160028301611bd4565b61112e606083015160038301611bd4565b61113f608083015160048301611bd4565b61115060a083015160058301611bd4565b6006810160c083015160048110156113d35760ff8019835416911617905560e082015160078201556101008201516008820155600981016111a46101208401511515829060ff801983541691151516179055565b61014083015160078110156113d3576111cf936111c661016092600a94611dab565b01519101611bd4565b600354600160401b908181101561137b5760018101806003558110156113bd57846112209160036000527fc2575a0e9e593c00f959f8c92f12db2869c3395a3b0502d05e2516446f71f85b01611bd4565b33600052600460205260406000209081549081101561137b5761124891600182018155611928565b6113a7578361125691611bd4565b600754600019811461139157600101600755604051602081855161127d8183858a01611a93565b8101600181520301902060405191611294836119b1565b60008352602083015242604083015233606083015260405160408101938185106001600160401b0386111761137b5761132961135594611331946020947f02c359f375f623ecb20e19f214e8c11b5d76186d701a708094f8aa8072c189a198604052601e81527f4261746368207265676973746572656420696e207468652073797374656d0000868201526080830152611dca565b015193611ce3565b926113476040519560a0875260a0870190611ab6565b908582036020870152611ab6565b9261136560408201608435611b47565b42606082015260a43560808201528033940390a3005b634e487b7160e01b600052604160045260246000fd5b634e487b7160e01b600052601160045260246000fd5b634e487b7160e01b600052600060045260246000fd5b634e487b7160e01b600052603260045260246000fd5b634e487b7160e01b600052602160045260246000fd5b60016084351115915061105b565b60405162461bcd60e51b8152602060048201526012602482015271145d585b9d1a5d1e481d1bdbc81cdb585b1b60721b6044820152606490fd5b60405162461bcd60e51b8152602060048201526014602482015273426174636820616c72656164792065786973747360601b6044820152606490fd5b60405162461bcd60e51b815260206004820152601860248201527f42617463682049442063616e6e6f7420626520656d70747900000000000000006044820152606490fd5b346103b35760203660031901126103b3576004356001600160401b0381116103b3576114fd60206114ea611347933690600401611adb565b8160405193828580945193849201611a93565b81016002815203019020611510816119ed565b9060ff61153c6002611524600185016119ed565b93015492604051958695608087526080870190611ab6565b918181161515604085015260081c16151560608301520390f35b346103b35760603660031901126103b3576001600160401b036004358181116103b357611587903690600401611adb565b906024359081116103b3576115a0903690600401611adb565b604435918215158093036103b3576115c360018060a01b03600654163314611b7d565b8051156117705781511561172b5760405190805160ff60026020948581818701956115ef818389611a93565b810184815203019020015460081c166116e657916116c27fd06ba4d8465452f9ab5c0abf0e95327233e2dff2c9c8ccf9c3eb53dab32987ac94926116d7946040519061163a8261197a565b8282526116a860028684019388855261169160408201958d87526116876116768b606086019860018a528b604051938492839251928391611a93565b810188815203019020935184611bd4565b5160018301611bd4565b0192511515839060ff801983541691151516179055565b51815461ff00191690151560081b61ff0016179055611ce3565b94604051938493606085526060850190611ab6565b918301524260408301520390a2005b60405162461bcd60e51b815260048101849052601a60248201527f5661726965747920616c726561647920726567697374657265640000000000006044820152606490fd5b60405162461bcd60e51b815260206004820152601c60248201527f56617269657479206e616d652063616e6e6f7420626520656d707479000000006044820152606490fd5b60405162461bcd60e51b815260206004820152601a60248201527f566172696574792049442063616e6e6f7420626520656d7074790000000000006044820152606490fd5b346103b35760403660031901126103b3576117ce611b31565b6001600160a01b031660009081526004602052604090208054602435908110156103b3576117fb91611928565b6113a75761180b6103af916119ed565b604051918291602083526020830190611ab6565b346103b35760003660031901126103b3576020600854604051908152f35b346103b35760203660031901126103b3576004356001600160401b0381116103b3576118a760206118746002933690600401611adb565b61188960018060a01b03600654163314611b7d565b604051906101cc60ff86835194868181870197610f9c81838b611a93565b81018481520301902001805461ff0019169055005b346103b35760203660031901126103b3576004356003548110156103b35761180b6103af9160036000527fc2575a0e9e593c00f959f8c92f12db2869c3395a3b0502d05e2516446f71f85b016119ed565b346103b35760003660031901126103b3576020906007548152f35b80548210156113bd5760005260206000200190600090565b90600182811c92168015611970575b602083101461195a57565b634e487b7160e01b600052602260045260246000fd5b91607f169161194f565b608081019081106001600160401b0382111761137b57604052565b61018081019081106001600160401b0382111761137b57604052565b60a081019081106001600160401b0382111761137b57604052565b90601f801991011681019081106001600160401b0382111761137b57604052565b9060405191826000825492611a0184611940565b908184526001948581169081600014611a705750600114611a2d575b5050611a2b925003836119cc565b565b9093915060005260209081600020936000915b818310611a58575050611a2b93508201013880611a1d565b85548884018501529485019487945091830191611a40565b915050611a2b94506020925060ff191682840152151560051b8201013880611a1d565b60005b838110611aa65750506000910152565b8181015183820152602001611a96565b90602091611acf81518092818552858086019101611a93565b601f01601f1916010190565b81601f820112156103b3578035906001600160401b03821161137b5760405192611b0f601f8401601f1916602001856119cc565b828452602083830101116103b357816000926020809301838601378301015290565b600435906001600160a01b03821682036103b357565b9060048210156113d35752565b9060078210156113d35752565b80548210156113bd576000526005602060002091020190600090565b15611b8457565b60405162461bcd60e51b815260206004820152602260248201527f4f6e6c79206f776e65722063616e20706572666f726d2074686973206163746960448201526137b760f11b6064820152608490fd5b91909182516001600160401b03811161137b57611bf18254611940565b601f8111611c9b575b50602080601f8311600114611c37575081929394600092611c2c575b50508160011b916000199060031b1c1916179055565b015190503880611c16565b90601f198316958460005282600020926000905b888210611c8357505083600195969710611c6a575b505050811b019055565b015160001960f88460031b161c19169055388080611c60565b80600185968294968601518155019501930190611c4b565b600083815260208120601f840160051c81019260208510611cd9575b601f0160051c01915b828110611cce575050611bfa565b818155600101611cc0565b9092508290611cb7565b611cfb90602060405192828480945193849201611a93565b810103902090565b15611d0a57565b60405162461bcd60e51b815260206004820152601560248201527456617269657479206973206e6f742061637469766560581b6044820152606490fd5b15611d4e57565b60405162461bcd60e51b815260206004820152601860248201527f4c6f636174696f6e2063616e6e6f7420626520656d70747900000000000000006044820152606490fd5b60048210156113d35752565b60078210156113d35752565b9060078110156113d35761ff0082549160081b169061ff001916179055565b8054600160401b81101561137b57611de791600182018155611b61565b6113a75781519160078310156113d3576080600491611a2b9460ff80198654169116178455611e1d602082015160018601611bd4565b604081015160028501556003840160018060a01b036060830151166bffffffffffffffffffffffff60a01b82541617905501519101611bd4565b15611e5e57565b60405162461bcd60e51b815260206004820152601460248201527310985d18da08191bd95cc81b9bdd08195e1a5cdd60621b6044820152606490fd5b6001600160401b03811161137b5760051b6020019056fea264697066735822122021fc6508f76402a4fdee9c5838f97ae3a4de9ffe9c8bcf16400ab201850f9cad64736f6c63430008140033","opcodes":"PUSH1 0x80 PUSH1 0x40 MSTORE CALLVALUE PUSH3 0x6A1 JUMPI PUSH1 0x64 PUSH1 0x8 SSTORE PUSH1 0x6 DUP1 SLOAD PUSH1 0x1 PUSH1 0x1 PUSH1 0xA0 SHL SUB NOT AND CALLER SWAP1 DUP2 OR SWAP1 SWAP2 SSTORE PUSH1 0x0 SWAP1 DUP2 MSTORE PUSH1 0x5 PUSH1 0x20 MSTORE PUSH1 0x40 DUP2 KECCAK256 DUP1 SLOAD PUSH1 0xFF NOT AND PUSH1 0x1 OR SWAP1 SSTORE PUSH1 0x7 SWAP1 DUP2 SSTORE PUSH3 0x4C PUSH3 0x6A6 JUMP JUMPDEST SWAP1 PUSH3 0x57 PUSH3 0x6C7 JUMP JUMPDEST PUSH1 0xC DUP2 MSTORE PUSH12 0x746F6D6D792D61746B696E73 PUSH1 0xA0 SHL PUSH1 0x20 DUP3 ADD MSTORE DUP3 MSTORE PUSH3 0x7C PUSH3 0x6C7 JUMP JUMPDEST PUSH1 0x5 DUP2 MSTORE PUSH5 0x3430B232B7 PUSH1 0xD9 SHL PUSH1 0x20 DUP3 ADD MSTORE PUSH1 0x20 DUP4 ADD MSTORE PUSH3 0x9D PUSH3 0x6C7 JUMP JUMPDEST PUSH1 0xE DUP2 MSTORE PUSH14 0x7069636F2D64652D70616A61726F PUSH1 0x90 SHL PUSH1 0x20 DUP3 ADD MSTORE PUSH1 0x40 DUP4 ADD MSTORE PUSH3 0xC7 PUSH3 0x6C7 JUMP JUMPDEST PUSH1 0x4 DUP2 MSTORE PUSH4 0x1AD95B9D PUSH1 0xE2 SHL PUSH1 0x20 DUP3 ADD MSTORE PUSH1 0x60 DUP4 ADD MSTORE PUSH3 0xE7 PUSH3 0x6C7 JUMP JUMPDEST DUP2 DUP2 MSTORE PUSH7 0x617461756C666F PUSH1 0xC8 SHL PUSH1 0x20 DUP3 ADD MSTORE PUSH1 0x80 DUP4 ADD MSTORE PUSH3 0x109 PUSH3 0x6C7 JUMP JUMPDEST PUSH1 0x6 DUP2 MSTORE PUSH6 0x19591DD85C99 PUSH1 0xD2 SHL PUSH1 0x20 DUP3 ADD MSTORE PUSH1 0xA0 DUP4 ADD MSTORE PUSH3 0x12B PUSH3 0x6C7 JUMP JUMPDEST DUP2 DUP2 MSTORE PUSH7 0x6372696F6C6C6F PUSH1 0xC8 SHL PUSH1 0x20 DUP3 ADD MSTORE PUSH1 0xC0 DUP4 ADD MSTORE PUSH3 0x14D PUSH3 0x6C7 JUMP JUMPDEST DUP2 DUP2 MSTORE PUSH7 0x6672616E636973 PUSH1 0xC8 SHL PUSH1 0x20 DUP3 ADD MSTORE PUSH1 0xE0 DUP4 ADD MSTORE PUSH3 0x16F PUSH3 0x6A6 JUMP JUMPDEST SWAP1 PUSH3 0x17A PUSH3 0x6C7 JUMP JUMPDEST PUSH1 0xC DUP2 MSTORE PUSH12 0x546F6D6D792041746B696E73 PUSH1 0xA0 SHL PUSH1 0x20 DUP3 ADD MSTORE DUP3 MSTORE PUSH3 0x19F PUSH3 0x6C7 JUMP JUMPDEST PUSH1 0x5 DUP2 MSTORE PUSH5 0x2430B232B7 PUSH1 0xD9 SHL PUSH1 0x20 DUP3 ADD MSTORE PUSH1 0x20 DUP4 ADD MSTORE PUSH3 0x1C0 PUSH3 0x6C7 JUMP JUMPDEST PUSH1 0xE DUP2 MSTORE PUSH14 0x5069636F2064652050616A61726F PUSH1 0x90 SHL PUSH1 0x20 DUP3 ADD MSTORE PUSH1 0x40 DUP4 ADD MSTORE PUSH3 0x1EA PUSH3 0x6C7 JUMP JUMPDEST PUSH1 0x4 DUP2 MSTORE PUSH4 0x12D95B9D PUSH1 0xE2 SHL PUSH1 0x20 DUP3 ADD MSTORE PUSH1 0x60 DUP4 ADD MSTORE PUSH3 0x20A PUSH3 0x6C7 JUMP JUMPDEST DUP2 DUP2 MSTORE PUSH7 0x417461756C666F PUSH1 0xC8 SHL PUSH1 0x20 DUP3 ADD MSTORE PUSH1 0x80 DUP4 ADD MSTORE PUSH3 0x22C PUSH3 0x6C7 JUMP JUMPDEST PUSH1 0x6 DUP2 MSTORE PUSH6 0x11591DD85C99 PUSH1 0xD2 SHL PUSH1 0x20 DUP3 ADD MSTORE PUSH1 0xA0 DUP4 ADD MSTORE PUSH3 0x24E PUSH3 0x6C7 JUMP JUMPDEST DUP2 DUP2 MSTORE PUSH7 0x4372696F6C6C6F PUSH1 0xC8 SHL PUSH1 0x20 DUP3 ADD MSTORE PUSH1 0xC0 DUP4 ADD MSTORE PUSH3 0x270 PUSH3 0x6C7 JUMP JUMPDEST SWAP1 DUP2 MSTORE PUSH7 0x4672616E636973 PUSH1 0xC8 SHL PUSH1 0x20 DUP3 ADD MSTORE PUSH1 0xE0 DUP3 ADD MSTORE PUSH3 0x292 PUSH3 0x6A6 JUMP JUMPDEST PUSH1 0x1 DUP2 MSTORE PUSH1 0x1 PUSH1 0x20 DUP3 ADD MSTORE PUSH1 0x0 PUSH1 0x40 DUP3 ADD MSTORE PUSH1 0x1 PUSH1 0x60 DUP3 ADD MSTORE PUSH1 0x1 PUSH1 0x80 DUP3 ADD MSTORE PUSH1 0x1 PUSH1 0xA0 DUP3 ADD MSTORE PUSH1 0x0 PUSH1 0xC0 DUP3 ADD MSTORE PUSH1 0x1 PUSH1 0xE0 DUP3 ADD MSTORE PUSH1 0x0 JUMPDEST PUSH1 0x8 DUP2 LT PUSH3 0x2E3 JUMPI PUSH1 0x40 MLOAD PUSH2 0x1EE7 SWAP1 DUP2 PUSH3 0x710 DUP3 CODECOPY RETURN JUMPDEST PUSH3 0x2EF DUP2 DUP6 PUSH3 0x6E7 JUMP JUMPDEST MLOAD PUSH3 0x2FC DUP3 DUP6 PUSH3 0x6E7 JUMP JUMPDEST MLOAD PUSH3 0x309 DUP4 DUP6 PUSH3 0x6E7 JUMP JUMPDEST MLOAD PUSH1 0x40 MLOAD SWAP3 SWAP1 ISZERO ISZERO SWAP2 SWAP1 PUSH1 0x1 PUSH1 0x1 PUSH1 0x40 SHL SUB PUSH1 0x80 DUP6 ADD SWAP1 DUP2 GT SWAP1 DUP6 GT OR PUSH3 0x598 JUMPI PUSH1 0x80 DUP5 ADD PUSH1 0x40 MSTORE DUP4 MSTORE PUSH1 0x20 DUP4 ADD MSTORE PUSH1 0x40 DUP3 ADD MSTORE PUSH1 0x1 PUSH1 0x60 DUP3 ADD MSTORE PUSH3 0x351 DUP3 DUP7 PUSH3 0x6E7 JUMP JUMPDEST MLOAD PUSH1 0x40 MLOAD SWAP1 DUP2 DUP2 MLOAD SWAP2 PUSH1 0x0 JUMPDEST DUP4 DUP2 LT PUSH3 0x68B JUMPI POP POP PUSH1 0x2 SWAP2 DUP2 ADD SWAP2 DUP3 MSTORE SWAP1 SUB PUSH1 0x20 ADD SWAP1 KECCAK256 DUP2 MLOAD DUP1 MLOAD SWAP1 PUSH1 0x1 PUSH1 0x1 PUSH1 0x40 SHL SUB DUP3 GT PUSH3 0x598 JUMPI DUP3 SLOAD SWAP1 PUSH1 0x1 DUP3 DUP2 SHR SWAP3 AND DUP1 ISZERO PUSH3 0x680 JUMPI JUMPDEST PUSH1 0x20 DUP4 LT EQ PUSH3 0x577 JUMPI DUP2 PUSH1 0x1F DUP5 SWAP4 GT PUSH3 0x62B JUMPI JUMPDEST POP PUSH1 0x20 SWAP1 PUSH1 0x1F DUP4 GT PUSH1 0x1 EQ PUSH3 0x5BA JUMPI PUSH1 0x0 SWAP3 PUSH3 0x5AE JUMPI JUMPDEST POP POP DUP2 PUSH1 0x1 SHL SWAP2 PUSH1 0x0 NOT SWAP1 PUSH1 0x3 SHL SHR NOT AND OR DUP2 SSTORE JUMPDEST PUSH1 0x20 DUP3 ADD MLOAD DUP1 MLOAD SWAP1 PUSH1 0x1 PUSH1 0x1 PUSH1 0x40 SHL SUB DUP3 GT PUSH3 0x598 JUMPI PUSH1 0x1 DUP4 ADD SLOAD PUSH1 0x1 DUP2 DUP2 SHR SWAP2 AND DUP1 ISZERO PUSH3 0x58D JUMPI JUMPDEST PUSH1 0x20 DUP3 LT EQ PUSH3 0x577 JUMPI PUSH1 0x1F DUP2 GT PUSH3 0x52B JUMPI JUMPDEST POP PUSH1 0x20 SWAP1 PUSH1 0x1F DUP4 GT PUSH1 0x1 EQ PUSH3 0x4B3 JUMPI PUSH1 0x2 SWAP4 SWAP3 SWAP2 PUSH1 0x0 SWAP2 DUP4 PUSH3 0x4A7 JUMPI JUMPDEST POP POP DUP2 PUSH1 0x1 SHL SWAP2 PUSH1 0x0 NOT SWAP1 PUSH1 0x3 SHL SHR NOT AND OR PUSH1 0x1 DUP3 ADD SSTORE JUMPDEST ADD SWAP1 PUSH1 0x40 DUP2 ADD MLOAD ISZERO ISZERO SWAP1 PUSH1 0xFF PUSH2 0xFF00 PUSH1 0x60 DUP6 SLOAD SWAP4 ADD MLOAD ISZERO ISZERO PUSH1 0x8 SHL AND SWAP3 AND SWAP1 PUSH2 0xFFFF NOT AND OR OR SWAP1 SSTORE PUSH1 0x0 NOT DUP2 EQ PUSH3 0x491 JUMPI PUSH1 0x1 ADD PUSH3 0x2CA JUMP JUMPDEST PUSH4 0x4E487B71 PUSH1 0xE0 SHL PUSH1 0x0 MSTORE PUSH1 0x11 PUSH1 0x4 MSTORE PUSH1 0x24 PUSH1 0x0 REVERT JUMPDEST ADD MLOAD SWAP1 POP CODESIZE DUP1 PUSH3 0x43E JUMP JUMPDEST SWAP1 PUSH1 0x1 DUP5 ADD PUSH1 0x0 MSTORE PUSH1 0x20 PUSH1 0x0 KECCAK256 SWAP2 PUSH1 0x0 JUMPDEST PUSH1 0x1F NOT DUP6 AND DUP2 LT PUSH3 0x512 JUMPI POP SWAP2 DUP4 SWAP2 PUSH1 0x1 SWAP4 PUSH1 0x2 SWAP7 SWAP6 PUSH1 0x1F NOT DUP2 AND LT PUSH3 0x4F8 JUMPI JUMPDEST POP POP POP DUP2 SHL ADD PUSH1 0x1 DUP3 ADD SSTORE PUSH3 0x456 JUMP JUMPDEST ADD MLOAD PUSH1 0x0 NOT PUSH1 0xF8 DUP5 PUSH1 0x3 SHL AND SHR NOT AND SWAP1 SSTORE CODESIZE DUP1 DUP1 PUSH3 0x4E7 JUMP JUMPDEST SWAP2 SWAP3 PUSH1 0x20 PUSH1 0x1 DUP2 SWAP3 DUP7 DUP6 ADD MLOAD DUP2 SSTORE ADD SWAP5 ADD SWAP3 ADD PUSH3 0x4C4 JUMP JUMPDEST PUSH1 0x1 DUP5 ADD PUSH1 0x0 MSTORE PUSH1 0x20 PUSH1 0x0 KECCAK256 PUSH1 0x1F DUP5 ADD PUSH1 0x5 SHR DUP2 ADD PUSH1 0x20 DUP6 LT PUSH3 0x56F JUMPI JUMPDEST PUSH1 0x1F DUP4 ADD PUSH1 0x5 SHR DUP3 ADD DUP2 LT PUSH3 0x562 JUMPI POP POP PUSH3 0x41F JUMP JUMPDEST PUSH1 0x0 DUP2 SSTORE PUSH1 0x1 ADD PUSH3 0x54A JUMP JUMPDEST POP DUP1 PUSH3 0x54A JUMP JUMPDEST PUSH4 0x4E487B71 PUSH1 0xE0 SHL PUSH1 0x0 MSTORE PUSH1 0x22 PUSH1 0x4 MSTORE PUSH1 0x24 PUSH1 0x0 REVERT JUMPDEST SWAP1 PUSH1 0x7F AND SWAP1 PUSH3 0x40B JUMP JUMPDEST PUSH4 0x4E487B71 PUSH1 0xE0 SHL PUSH1 0x0 MSTORE PUSH1 0x41 PUSH1 0x4 MSTORE PUSH1 0x24 PUSH1 0x0 REVERT JUMPDEST ADD MLOAD SWAP1 POP CODESIZE DUP1 PUSH3 0x3CB JUMP JUMPDEST SWAP3 POP DUP4 PUSH1 0x0 MSTORE PUSH1 0x20 PUSH1 0x0 KECCAK256 SWAP1 PUSH1 0x0 SWAP4 JUMPDEST PUSH1 0x1F NOT DUP5 AND DUP6 LT PUSH3 0x60F JUMPI PUSH1 0x1 SWAP5 POP DUP4 PUSH1 0x1F NOT DUP2 AND LT PUSH3 0x5F5 JUMPI JUMPDEST POP POP POP DUP2 SHL ADD DUP2 SSTORE PUSH3 0x3E0 JUMP JUMPDEST ADD MLOAD PUSH1 0x0 NOT PUSH1 0xF8 DUP5 PUSH1 0x3 SHL AND SHR NOT AND SWAP1 SSTORE CODESIZE DUP1 DUP1 PUSH3 0x5E7 JUMP JUMPDEST DUP2 DUP2 ADD MLOAD DUP4 SSTORE PUSH1 0x20 SWAP5 DUP6 ADD SWAP5 PUSH1 0x1 SWAP1 SWAP4 ADD SWAP3 SWAP1 SWAP2 ADD SWAP1 PUSH3 0x5CA JUMP JUMPDEST SWAP1 SWAP2 POP DUP4 PUSH1 0x0 MSTORE PUSH1 0x20 PUSH1 0x0 KECCAK256 PUSH1 0x1F DUP5 ADD PUSH1 0x5 SHR DUP2 ADD PUSH1 0x20 DUP6 LT PUSH3 0x678 JUMPI JUMPDEST SWAP1 DUP5 SWAP4 SWAP3 SWAP2 JUMPDEST PUSH1 0x1F DUP4 ADD PUSH1 0x5 SHR DUP3 ADD DUP2 LT PUSH3 0x668 JUMPI POP POP PUSH3 0x3B2 JUMP JUMPDEST PUSH1 0x0 DUP2 SSTORE DUP6 SWAP5 POP PUSH1 0x1 ADD PUSH3 0x650 JUMP JUMPDEST POP DUP1 PUSH3 0x64A JUMP JUMPDEST SWAP2 PUSH1 0x7F AND SWAP2 PUSH3 0x39C JUMP JUMPDEST PUSH1 0x20 DUP3 DUP3 ADD DUP2 ADD MLOAD DUP7 DUP4 ADD MSTORE DUP6 SWAP4 POP ADD PUSH3 0x35D JUMP JUMPDEST PUSH1 0x0 DUP1 REVERT JUMPDEST PUSH1 0x40 MLOAD SWAP1 PUSH2 0x100 DUP3 ADD PUSH1 0x1 PUSH1 0x1 PUSH1 0x40 SHL SUB DUP2 GT DUP4 DUP3 LT OR PUSH3 0x598 JUMPI PUSH1 0x40 MSTORE JUMP JUMPDEST PUSH1 0x40 DUP1 MLOAD SWAP2 SWAP1 DUP3 ADD PUSH1 0x1 PUSH1 0x1 PUSH1 0x40 SHL SUB DUP2 GT DUP4 DUP3 LT OR PUSH3 0x598 JUMPI PUSH1 0x40 MSTORE JUMP JUMPDEST SWAP1 PUSH1 0x8 DUP2 LT ISZERO PUSH3 0x6F9 JUMPI PUSH1 0x5 SHL ADD SWAP1 JUMP JUMPDEST PUSH4 0x4E487B71 PUSH1 0xE0 SHL PUSH1 0x0 MSTORE PUSH1 0x32 PUSH1 0x4 MSTORE PUSH1 0x24 PUSH1 0x0 REVERT INVALID PUSH1 0x80 DUP1 PUSH1 0x40 MSTORE PUSH1 0x4 CALLDATASIZE LT ISZERO PUSH2 0x13 JUMPI PUSH1 0x0 DUP1 REVERT JUMPDEST PUSH1 0x0 CALLDATALOAD PUSH1 0xE0 SHR SWAP1 DUP2 PUSH4 0x6F13056 EQ PUSH2 0x190D JUMPI POP DUP1 PUSH4 0x290B17EC EQ PUSH2 0x18BC JUMPI DUP1 PUSH4 0x2FC85AD4 EQ PUSH2 0x183D JUMPI DUP1 PUSH4 0x3031E0C3 EQ PUSH2 0x181F JUMPI DUP1 PUSH4 0x49EB1134 EQ PUSH2 0x17B5 JUMPI DUP1 PUSH4 0x630F4180 EQ PUSH2 0x1556 JUMPI DUP1 PUSH4 0x6A8C4081 EQ PUSH2 0x14B2 JUMPI DUP1 PUSH4 0x6C4BF3E5 EQ PUSH2 0xEC2 JUMPI DUP1 PUSH4 0x7EF1446A EQ PUSH2 0xD4D JUMPI DUP1 PUSH4 0x8B4DB87F EQ PUSH2 0xC45 JUMPI DUP1 PUSH4 0x8DA5CB5B EQ PUSH2 0xC1C JUMPI DUP1 PUSH4 0x9B4BC927 EQ PUSH2 0xB42 JUMPI DUP1 PUSH4 0xA252D8A7 EQ PUSH2 0x97B JUMPI DUP1 PUSH4 0xA78BC4D7 EQ PUSH2 0x94D JUMPI DUP1 PUSH4 0xAFC221DF EQ PUSH2 0x90E JUMPI DUP1 PUSH4 0xC1544590 EQ PUSH2 0x80B JUMPI DUP1 PUSH4 0xE69422BE EQ PUSH2 0x725 JUMPI DUP1 PUSH4 0xF2FDE38B EQ PUSH2 0x689 JUMPI DUP1 PUSH4 0xF5F09ED0 EQ PUSH2 0x481 JUMPI DUP1 PUSH4 0xF7E187E3 EQ PUSH2 0x3B8 JUMPI PUSH4 0xF9CA4274 EQ PUSH2 0x106 JUMPI PUSH1 0x0 DUP1 REVERT JUMPDEST CALLVALUE PUSH2 0x3B3 JUMPI PUSH1 0x20 CALLDATASIZE PUSH1 0x3 NOT ADD SLT PUSH2 0x3B3 JUMPI PUSH1 0x4 CALLDATALOAD PUSH1 0x1 PUSH1 0x1 PUSH1 0x40 SHL SUB DUP2 GT PUSH2 0x3B3 JUMPI PUSH2 0x1DD PUSH1 0x20 PUSH2 0x13E PUSH2 0x3AF SWAP4 CALLDATASIZE SWAP1 PUSH1 0x4 ADD PUSH2 0x1ADB JUMP JUMPDEST PUSH1 0x60 PUSH2 0x160 PUSH1 0x40 MLOAD PUSH2 0x14F DUP2 PUSH2 0x1995 JUMP JUMPDEST DUP3 DUP2 MSTORE PUSH1 0x0 DUP6 DUP3 ADD MSTORE DUP3 PUSH1 0x40 DUP3 ADD MSTORE DUP3 DUP1 DUP3 ADD MSTORE DUP3 PUSH1 0x80 DUP3 ADD MSTORE DUP3 PUSH1 0xA0 DUP3 ADD MSTORE PUSH1 0x0 PUSH1 0xC0 DUP3 ADD MSTORE PUSH1 0x0 PUSH1 0xE0 DUP3 ADD MSTORE PUSH1 0x0 PUSH2 0x100 DUP3 ADD MSTORE PUSH1 0x0 PUSH2 0x120 DUP3 ADD MSTORE PUSH1 0x0 PUSH2 0x140 DUP3 ADD MSTORE ADD MSTORE PUSH1 0x40 MLOAD SWAP1 PUSH2 0x1CC PUSH2 0x1C5 DUP3 MLOAD SWAP4 DUP6 DUP2 DUP2 DUP7 ADD SWAP7 PUSH2 0x1B5 DUP2 DUP4 DUP11 PUSH2 0x1A93 JUMP JUMPDEST DUP2 ADD PUSH1 0x0 DUP2 MSTORE SUB ADD SWAP1 KECCAK256 SLOAD PUSH2 0x1940 JUMP JUMPDEST ISZERO ISZERO PUSH2 0x1E57 JUMP JUMPDEST PUSH1 0x40 MLOAD SWAP4 DUP5 SWAP3 DUP4 SWAP3 MLOAD SWAP3 DUP4 SWAP2 PUSH2 0x1A93 JUMP JUMPDEST DUP2 ADD PUSH1 0x0 DUP2 MSTORE SUB ADD SWAP1 KECCAK256 PUSH2 0x2AD PUSH1 0xA PUSH1 0x40 MLOAD SWAP3 PUSH2 0x1F9 DUP5 PUSH2 0x1995 JUMP JUMPDEST PUSH2 0x202 DUP2 PUSH2 0x19ED JUMP JUMPDEST DUP5 MSTORE PUSH1 0x1 DUP2 ADD SLOAD PUSH1 0x1 PUSH1 0x1 PUSH1 0xA0 SHL SUB AND PUSH1 0x20 DUP6 ADD MSTORE PUSH2 0x223 PUSH1 0x2 DUP3 ADD PUSH2 0x19ED JUMP JUMPDEST PUSH1 0x40 DUP6 ADD MSTORE PUSH2 0x234 PUSH1 0x3 DUP3 ADD PUSH2 0x19ED JUMP JUMPDEST PUSH1 0x60 DUP6 ADD MSTORE PUSH2 0x245 PUSH1 0x4 DUP3 ADD PUSH2 0x19ED JUMP JUMPDEST PUSH1 0x80 DUP6 ADD MSTORE PUSH2 0x256 PUSH1 0x5 DUP3 ADD PUSH2 0x19ED JUMP JUMPDEST PUSH1 0xA0 DUP6 ADD MSTORE PUSH2 0x26F PUSH1 0xFF PUSH1 0x6 DUP4 ADD SLOAD AND PUSH1 0xC0 DUP7 ADD PUSH2 0x1D93 JUMP JUMPDEST PUSH1 0x7 DUP2 ADD SLOAD PUSH1 0xE0 DUP6 ADD MSTORE PUSH1 0x8 DUP2 ADD SLOAD PUSH2 0x100 DUP6 ADD MSTORE PUSH2 0x2A7 PUSH1 0xFF PUSH1 0x9 DUP4 ADD SLOAD DUP2 DUP2 AND ISZERO ISZERO PUSH2 0x120 DUP9 ADD MSTORE PUSH1 0x8 SHR AND PUSH2 0x140 DUP7 ADD PUSH2 0x1D9F JUMP JUMPDEST ADD PUSH2 0x19ED JUMP JUMPDEST PUSH2 0x160 DUP3 ADD MSTORE PUSH1 0x40 MLOAD SWAP2 DUP3 SWAP2 PUSH1 0x20 DUP4 MSTORE PUSH2 0x160 PUSH2 0x351 PUSH2 0x33B PUSH2 0x325 PUSH2 0x30F PUSH2 0x2E4 DUP7 MLOAD PUSH2 0x180 PUSH1 0x20 DUP12 ADD MSTORE PUSH2 0x1A0 DUP11 ADD SWAP1 PUSH2 0x1AB6 JUMP JUMPDEST PUSH1 0x20 DUP8 ADD MLOAD PUSH1 0x1 PUSH1 0x1 PUSH1 0xA0 SHL SUB AND PUSH1 0x40 DUP11 DUP2 ADD SWAP2 SWAP1 SWAP2 MSTORE DUP8 ADD MLOAD DUP10 DUP3 SUB PUSH1 0x1F NOT ADD PUSH1 0x60 DUP12 ADD MSTORE PUSH2 0x1AB6 JUMP JUMPDEST PUSH1 0x60 DUP7 ADD MLOAD DUP9 DUP3 SUB PUSH1 0x1F NOT ADD PUSH1 0x80 DUP11 ADD MSTORE PUSH2 0x1AB6 JUMP JUMPDEST PUSH1 0x80 DUP6 ADD MLOAD DUP8 DUP3 SUB PUSH1 0x1F NOT ADD PUSH1 0xA0 DUP10 ADD MSTORE PUSH2 0x1AB6 JUMP JUMPDEST PUSH1 0xA0 DUP5 ADD MLOAD DUP7 DUP3 SUB PUSH1 0x1F NOT ADD PUSH1 0xC0 DUP9 ADD MSTORE PUSH2 0x1AB6 JUMP JUMPDEST SWAP2 PUSH2 0x364 PUSH1 0xC0 DUP3 ADD MLOAD PUSH1 0xE0 DUP8 ADD SWAP1 PUSH2 0x1B47 JUMP JUMPDEST PUSH1 0xE0 DUP2 ADD MLOAD PUSH2 0x100 DUP7 ADD MSTORE PUSH2 0x100 DUP2 ADD MLOAD PUSH2 0x120 DUP7 ADD MSTORE PUSH2 0x120 DUP2 ADD MLOAD ISZERO ISZERO PUSH2 0x140 DUP7 ADD MSTORE PUSH2 0x39B PUSH2 0x140 DUP3 ADD MLOAD DUP4 DUP8 ADD SWAP1 PUSH2 0x1B54 JUMP JUMPDEST ADD MLOAD DUP4 DUP3 SUB PUSH1 0x1F NOT ADD PUSH2 0x180 DUP6 ADD MSTORE PUSH2 0x1AB6 JUMP JUMPDEST SUB SWAP1 RETURN JUMPDEST PUSH1 0x0 DUP1 REVERT JUMPDEST CALLVALUE PUSH2 0x3B3 JUMPI PUSH1 0x20 CALLDATASIZE PUSH1 0x3 NOT ADD SLT PUSH2 0x3B3 JUMPI PUSH2 0x3D1 PUSH2 0x1B31 JUMP JUMPDEST PUSH1 0x6 SLOAD PUSH1 0x1 PUSH1 0x1 PUSH1 0xA0 SHL SUB SWAP2 SWAP1 PUSH2 0x3EB SWAP1 DUP4 AND CALLER EQ PUSH2 0x1B7D JUMP JUMPDEST AND DUP1 PUSH1 0x0 MSTORE PUSH1 0x5 PUSH1 0x20 MSTORE PUSH1 0xFF PUSH1 0x40 PUSH1 0x0 KECCAK256 SLOAD AND PUSH2 0x447 JUMPI DUP1 PUSH1 0x0 MSTORE PUSH1 0x5 PUSH1 0x20 MSTORE PUSH1 0x40 PUSH1 0x0 KECCAK256 PUSH1 0x1 PUSH1 0xFF NOT DUP3 SLOAD AND OR SWAP1 SSTORE PUSH32 0xE0945C1161BC5F2C6E66BBCF53D1E66EC6056880AFED35854BD6A89051DCE0A8 PUSH1 0x20 PUSH1 0x40 MLOAD TIMESTAMP DUP2 MSTORE LOG2 STOP JUMPDEST PUSH1 0x40 MLOAD PUSH3 0x461BCD PUSH1 0xE5 SHL DUP2 MSTORE PUSH1 0x20 PUSH1 0x4 DUP3 ADD MSTORE PUSH1 0x12 PUSH1 0x24 DUP3 ADD MSTORE PUSH18 0x105B1C9958591E48185D5D1A1BDC9A5E9959 PUSH1 0x72 SHL PUSH1 0x44 DUP3 ADD MSTORE PUSH1 0x64 SWAP1 REVERT JUMPDEST CALLVALUE PUSH2 0x3B3 JUMPI PUSH1 0x80 CALLDATASIZE PUSH1 0x3 NOT ADD SLT PUSH2 0x3B3 JUMPI PUSH1 0x1 PUSH1 0x1 PUSH1 0x40 SHL SUB PUSH1 0x4 CALLDATALOAD DUP2 DUP2 GT PUSH2 0x3B3 JUMPI PUSH2 0x4B2 SWAP1 CALLDATASIZE SWAP1 PUSH1 0x4 ADD PUSH2 0x1ADB JUMP JUMPDEST PUSH1 0x24 CALLDATALOAD SWAP1 PUSH1 0x7 DUP3 LT ISZERO PUSH2 0x3B3 JUMPI PUSH1 0x44 CALLDATALOAD DUP4 DUP2 GT PUSH2 0x3B3 JUMPI PUSH2 0x4D7 SWAP1 CALLDATASIZE SWAP1 PUSH1 0x4 ADD PUSH2 0x1ADB JUMP JUMPDEST SWAP3 PUSH1 0x64 CALLDATALOAD SWAP1 DUP2 GT PUSH2 0x3B3 JUMPI PUSH2 0x4F0 SWAP1 CALLDATASIZE SWAP1 PUSH1 0x4 ADD PUSH2 0x1ADB JUMP JUMPDEST SWAP3 CALLER PUSH1 0x0 MSTORE PUSH1 0x20 SWAP4 PUSH1 0x5 DUP6 MSTORE PUSH1 0xFF PUSH1 0x40 PUSH1 0x0 KECCAK256 SLOAD AND ISZERO PUSH2 0x644 JUMPI PUSH1 0x40 SWAP3 PUSH32 0xC789B8D3E79F481651EBE83EEB45C1AF4261C7470735982134070D350233F7E5 SWAP5 SWAP3 PUSH2 0x5D4 PUSH2 0x62F SWAP4 PUSH2 0x59A DUP10 DUP9 MLOAD PUSH2 0x557 PUSH2 0x1C5 DUP9 MLOAD SWAP3 DUP5 DUP2 DUP2 DUP13 ADD SWAP6 PUSH2 0x1B5 DUP2 DUP4 DUP10 PUSH2 0x1A93 JUMP JUMPDEST PUSH2 0x563 DUP7 MLOAD ISZERO ISZERO PUSH2 0x1D47 JUMP JUMPDEST PUSH2 0x58A DUP10 PUSH1 0x9 DUP13 MLOAD DUP6 DUP2 DUP13 MLOAD PUSH2 0x57A DUP2 DUP4 DUP11 PUSH2 0x1A93 JUMP JUMPDEST DUP2 ADD PUSH1 0x0 DUP2 MSTORE SUB ADD SWAP1 KECCAK256 ADD PUSH2 0x1DAB JUMP JUMPDEST DUP10 MLOAD DUP1 SWAP4 DUP2 SWAP3 DUP10 MLOAD SWAP3 DUP4 SWAP2 PUSH2 0x1A93 JUMP JUMPDEST DUP2 ADD PUSH1 0x1 DUP2 MSTORE SUB ADD SWAP1 KECCAK256 DUP8 MLOAD SWAP2 PUSH2 0x5B0 DUP4 PUSH2 0x19B1 JUMP JUMPDEST PUSH2 0x5BA DUP9 DUP5 PUSH2 0x1D9F JUMP JUMPDEST DUP5 DUP12 DUP5 ADD MSTORE TIMESTAMP DUP10 DUP5 ADD MSTORE CALLER PUSH1 0x60 DUP5 ADD MSTORE PUSH1 0x80 DUP4 ADD MSTORE PUSH2 0x1DCA JUMP JUMPDEST PUSH2 0x5DD DUP3 PUSH2 0x1CE3 JUMP JUMPDEST PUSH32 0xF5C8BA246A2F372CDBDE2C0849B0B9332918B6B7E7B464AA9E9964EE4528B36F PUSH2 0x61E DUP8 MLOAD SWAP4 PUSH2 0x60E DUP6 DUP10 PUSH2 0x1B54 JUMP JUMPDEST PUSH1 0x60 DUP12 DUP7 ADD MSTORE PUSH1 0x60 DUP6 ADD SWAP1 PUSH2 0x1AB6 JUMP JUMPDEST SWAP3 TIMESTAMP DUP9 DUP3 ADD MSTORE DUP1 CALLER SWAP5 SUB SWAP1 LOG3 PUSH2 0x1CE3 JUMP JUMPDEST SWAP4 PUSH2 0x63C DUP4 MLOAD DUP1 SWAP4 PUSH2 0x1B54 JUMP JUMPDEST TIMESTAMP SWAP1 DUP3 ADD MSTORE LOG2 STOP JUMPDEST PUSH1 0x40 MLOAD PUSH3 0x461BCD PUSH1 0xE5 SHL DUP2 MSTORE PUSH1 0x4 DUP2 ADD DUP7 SWAP1 MSTORE PUSH1 0x19 PUSH1 0x24 DUP3 ADD MSTORE PUSH32 0x4E6F7420616E20617574686F72697A65642068616E646C657200000000000000 PUSH1 0x44 DUP3 ADD MSTORE PUSH1 0x64 SWAP1 REVERT JUMPDEST CALLVALUE PUSH2 0x3B3 JUMPI PUSH1 0x20 CALLDATASIZE PUSH1 0x3 NOT ADD SLT PUSH2 0x3B3 JUMPI PUSH2 0x6A2 PUSH2 0x1B31 JUMP JUMPDEST PUSH1 0x6 SLOAD SWAP1 PUSH1 0x1 PUSH1 0x1 PUSH1 0xA0 SHL SUB SWAP1 PUSH2 0x6BC CALLER DUP4 DUP6 AND EQ PUSH2 0x1B7D JUMP JUMPDEST AND SWAP1 DUP2 ISZERO PUSH2 0x6EE JUMPI PUSH1 0x1 PUSH1 0x1 PUSH1 0xA0 SHL SUB NOT AND DUP2 OR PUSH1 0x6 SSTORE PUSH1 0x0 SWAP1 DUP2 MSTORE PUSH1 0x5 PUSH1 0x20 MSTORE PUSH1 0x40 SWAP1 KECCAK256 DUP1 SLOAD PUSH1 0xFF NOT AND PUSH1 0x1 OR SWAP1 SSTORE STOP JUMPDEST PUSH1 0x40 MLOAD PUSH3 0x461BCD PUSH1 0xE5 SHL DUP2 MSTORE PUSH1 0x20 PUSH1 0x4 DUP3 ADD MSTORE PUSH1 0xF PUSH1 0x24 DUP3 ADD MSTORE PUSH15 0x496E76616C69642061646472657373 PUSH1 0x88 SHL PUSH1 0x44 DUP3 ADD MSTORE PUSH1 0x64 SWAP1 REVERT JUMPDEST CALLVALUE PUSH2 0x3B3 JUMPI PUSH1 0x20 DUP1 PUSH1 0x3 NOT CALLDATASIZE ADD SLT PUSH2 0x3B3 JUMPI PUSH1 0x1 PUSH1 0x1 PUSH1 0xA0 SHL SUB PUSH2 0x747 PUSH2 0x1B31 JUMP JUMPDEST AND PUSH1 0x0 MSTORE PUSH1 0x4 DUP2 MSTORE PUSH1 0x40 PUSH1 0x0 KECCAK256 SWAP1 DUP2 SLOAD SWAP2 PUSH2 0x761 DUP4 PUSH2 0x1E9A JUMP JUMPDEST SWAP3 PUSH2 0x76F PUSH1 0x40 MLOAD SWAP5 DUP6 PUSH2 0x19CC JUMP JUMPDEST DUP1 DUP5 MSTORE DUP3 DUP5 ADD DUP1 SWAP3 PUSH1 0x0 MSTORE DUP4 PUSH1 0x0 KECCAK256 PUSH1 0x0 SWAP2 JUMPDEST DUP4 DUP4 LT PUSH2 0x7E9 JUMPI POP POP POP POP PUSH1 0x40 MLOAD SWAP2 DUP1 DUP4 ADD SWAP4 DUP2 DUP5 MSTORE MLOAD DUP1 SWAP5 MSTORE PUSH1 0x40 DUP4 ADD SWAP4 PUSH1 0x40 DUP2 PUSH1 0x5 SHL DUP6 ADD ADD SWAP3 SWAP2 PUSH1 0x0 SWAP6 JUMPDEST DUP3 DUP8 LT PUSH2 0x7BD JUMPI DUP6 DUP6 SUB DUP7 RETURN JUMPDEST SWAP1 SWAP2 SWAP3 SWAP4 DUP3 DUP1 PUSH2 0x7D9 PUSH1 0x1 SWAP4 PUSH1 0x3F NOT DUP11 DUP3 SUB ADD DUP7 MSTORE DUP9 MLOAD PUSH2 0x1AB6 JUMP JUMPDEST SWAP7 ADD SWAP3 ADD SWAP7 ADD SWAP6 SWAP3 SWAP2 SWAP1 SWAP3 PUSH2 0x7B0 JUMP JUMPDEST PUSH1 0x1 DUP7 DUP2 SWAP3 PUSH2 0x7FA DUP6 SWAP11 SWAP10 SWAP11 PUSH2 0x19ED JUMP JUMPDEST DUP2 MSTORE ADD SWAP3 ADD SWAP3 ADD SWAP2 SWAP1 SWAP6 SWAP5 SWAP6 PUSH2 0x782 JUMP JUMPDEST CALLVALUE PUSH2 0x3B3 JUMPI PUSH1 0x20 DUP1 PUSH1 0x3 NOT CALLDATASIZE ADD SLT PUSH2 0x3B3 JUMPI PUSH2 0x825 PUSH2 0x1B31 JUMP JUMPDEST PUSH1 0x6 SLOAD PUSH1 0x1 PUSH1 0x1 PUSH1 0xA0 SHL SUB SWAP1 DUP2 AND SWAP3 SWAP2 PUSH2 0x840 CALLER DUP6 EQ PUSH2 0x1B7D JUMP JUMPDEST AND SWAP2 DUP3 PUSH1 0x0 MSTORE PUSH1 0x5 DUP3 MSTORE PUSH1 0xFF PUSH1 0x40 PUSH1 0x0 KECCAK256 SLOAD AND ISZERO PUSH2 0x8D8 JUMPI DUP3 EQ PUSH2 0x89E JUMPI PUSH32 0xAA7FFEBB0A251446F9E5ECEACAF1BDC80098446AE80FE20EDA1A2260FF1A46B5 SWAP1 DUP3 PUSH1 0x0 MSTORE PUSH1 0x5 DUP2 MSTORE PUSH1 0x40 PUSH1 0x0 KECCAK256 PUSH1 0xFF NOT DUP2 SLOAD AND SWAP1 SSTORE PUSH1 0x40 MLOAD TIMESTAMP DUP2 MSTORE LOG2 STOP JUMPDEST PUSH1 0x64 SWAP1 PUSH1 0x40 MLOAD SWAP1 PUSH3 0x461BCD PUSH1 0xE5 SHL DUP3 MSTORE PUSH1 0x4 DUP3 ADD MSTORE PUSH1 0x13 PUSH1 0x24 DUP3 ADD MSTORE PUSH19 0x21B0B73737BA103932BB37B5B29037BBB732B9 PUSH1 0x69 SHL PUSH1 0x44 DUP3 ADD MSTORE REVERT JUMPDEST PUSH1 0x40 MLOAD PUSH3 0x461BCD PUSH1 0xE5 SHL DUP2 MSTORE PUSH1 0x4 DUP2 ADD DUP4 SWAP1 MSTORE PUSH1 0xE PUSH1 0x24 DUP3 ADD MSTORE PUSH14 0x139BDD08185D5D1A1BDC9A5E9959 PUSH1 0x92 SHL PUSH1 0x44 DUP3 ADD MSTORE PUSH1 0x64 SWAP1 REVERT JUMPDEST CALLVALUE PUSH2 0x3B3 JUMPI PUSH1 0x20 CALLDATASIZE PUSH1 0x3 NOT ADD SLT PUSH2 0x3B3 JUMPI PUSH1 0x1 PUSH1 0x1 PUSH1 0xA0 SHL SUB PUSH2 0x92F PUSH2 0x1B31 JUMP JUMPDEST AND PUSH1 0x0 MSTORE PUSH1 0x5 PUSH1 0x20 MSTORE PUSH1 0x20 PUSH1 0xFF PUSH1 0x40 PUSH1 0x0 KECCAK256 SLOAD AND PUSH1 0x40 MLOAD SWAP1 ISZERO ISZERO DUP2 MSTORE RETURN JUMPDEST CALLVALUE PUSH2 0x3B3 JUMPI PUSH1 0x20 CALLDATASIZE PUSH1 0x3 NOT ADD SLT PUSH2 0x3B3 JUMPI PUSH2 0x973 PUSH1 0x1 DUP1 PUSH1 0xA0 SHL SUB PUSH1 0x6 SLOAD AND CALLER EQ PUSH2 0x1B7D JUMP JUMPDEST PUSH1 0x4 CALLDATALOAD PUSH1 0x8 SSTORE STOP JUMPDEST CALLVALUE PUSH2 0x3B3 JUMPI PUSH1 0x20 DUP1 PUSH1 0x3 NOT CALLDATASIZE ADD SLT PUSH2 0x3B3 JUMPI PUSH1 0x4 CALLDATALOAD PUSH1 0x1 PUSH1 0x1 PUSH1 0x40 SHL SUB DUP2 GT PUSH2 0x3B3 JUMPI PUSH2 0x9AC SWAP1 CALLDATASIZE SWAP1 PUSH1 0x4 ADD PUSH2 0x1ADB JUMP JUMPDEST SWAP1 PUSH1 0x40 MLOAD SWAP2 PUSH2 0x9CB PUSH2 0x1C5 DUP3 MLOAD SWAP5 DUP5 DUP2 DUP2 DUP7 ADD SWAP8 PUSH2 0x1B5 DUP2 DUP4 DUP12 PUSH2 0x1A93 JUMP JUMPDEST PUSH2 0x9DD PUSH1 0x40 MLOAD SWAP4 DUP5 SWAP3 MLOAD SWAP3 DUP4 SWAP2 PUSH2 0x1A93 JUMP JUMPDEST DUP3 ADD SWAP2 DUP2 DUP2 PUSH1 0x1 SWAP5 DUP6 DUP2 MSTORE SUB ADD SWAP1 KECCAK256 SWAP2 DUP3 SLOAD SWAP2 PUSH2 0x9F9 DUP4 PUSH2 0x1E9A JUMP JUMPDEST SWAP3 PUSH2 0xA07 PUSH1 0x40 MLOAD SWAP5 DUP6 PUSH2 0x19CC JUMP JUMPDEST DUP1 DUP5 MSTORE DUP2 DUP5 ADD DUP1 SWAP6 PUSH1 0x0 MSTORE DUP3 PUSH1 0x0 KECCAK256 PUSH1 0x0 SWAP2 JUMPDEST DUP4 DUP4 LT PUSH2 0xACD JUMPI POP POP POP POP PUSH1 0x40 MLOAD SWAP3 DUP2 DUP5 ADD SWAP1 DUP3 DUP6 MSTORE MLOAD DUP1 SWAP2 MSTORE PUSH1 0x40 DUP5 ADD SWAP2 PUSH1 0x40 DUP3 PUSH1 0x5 SHL DUP7 ADD ADD SWAP6 SWAP3 PUSH1 0x0 SWAP1 JUMPDEST DUP4 DUP3 LT PUSH2 0xA55 JUMPI DUP7 DUP9 SUB DUP8 RETURN JUMPDEST SWAP1 SWAP2 SWAP3 SWAP4 SWAP5 DUP4 DUP1 PUSH2 0xABC DUP4 SWAP11 PUSH1 0x3F NOT DUP12 DUP3 SUB ADD DUP7 MSTORE DUP10 MLOAD PUSH2 0xA77 DUP3 DUP3 MLOAD PUSH2 0x1B54 JUMP JUMPDEST PUSH2 0xA8D DUP5 DUP3 ADD MLOAD PUSH1 0xA0 DUP1 DUP8 DUP7 ADD MSTORE DUP5 ADD SWAP1 PUSH2 0x1AB6 JUMP JUMPDEST SWAP2 PUSH1 0x40 DUP3 ADD MLOAD PUSH1 0x40 DUP3 ADD MSTORE PUSH1 0x60 PUSH1 0x1 DUP1 PUSH1 0xA0 SHL SUB DUP2 DUP5 ADD MLOAD AND SWAP1 DUP3 ADD MSTORE PUSH1 0x80 DUP1 SWAP3 ADD MLOAD SWAP2 DUP2 DUP5 SUB SWAP2 ADD MSTORE PUSH2 0x1AB6 JUMP JUMPDEST SWAP10 SWAP8 ADD SWAP6 SWAP5 SWAP4 SWAP2 SWAP1 SWAP2 ADD SWAP2 ADD PUSH2 0xA48 JUMP JUMPDEST SWAP5 PUSH1 0x5 DUP6 DUP3 SWAP10 SWAP8 PUSH1 0x40 SWAP10 SWAP8 SWAP10 MLOAD PUSH2 0xAE3 DUP2 PUSH2 0x19B1 JUMP JUMPDEST PUSH2 0xAF1 PUSH1 0xFF DUP8 SLOAD AND DUP3 PUSH2 0x1D9F JUMP JUMPDEST PUSH2 0xAFC DUP6 DUP8 ADD PUSH2 0x19ED JUMP JUMPDEST DUP2 DUP5 ADD MSTORE PUSH1 0x2 DUP7 ADD SLOAD PUSH1 0x40 DUP3 ADD MSTORE PUSH1 0x3 DUP7 ADD SLOAD PUSH1 0x1 PUSH1 0x1 PUSH1 0xA0 SHL SUB AND PUSH1 0x60 DUP3 ADD MSTORE PUSH2 0xB29 PUSH1 0x4 DUP8 ADD PUSH2 0x19ED JUMP JUMPDEST PUSH1 0x80 DUP3 ADD MSTORE DUP2 MSTORE ADD SWAP3 ADD SWAP3 ADD SWAP2 SWAP1 SWAP7 SWAP5 SWAP7 SWAP6 SWAP4 SWAP6 PUSH2 0xA1A JUMP JUMPDEST CALLVALUE PUSH2 0x3B3 JUMPI PUSH1 0x40 CALLDATASIZE PUSH1 0x3 NOT ADD SLT PUSH2 0x3B3 JUMPI PUSH1 0x4 CALLDATALOAD PUSH1 0x1 PUSH1 0x1 PUSH1 0x40 SHL SUB DUP2 GT PUSH2 0x3B3 JUMPI PUSH2 0xB72 SWAP1 CALLDATASIZE SWAP1 PUSH1 0x4 ADD PUSH2 0x1ADB JUMP JUMPDEST PUSH2 0xB8E PUSH1 0x20 PUSH1 0x24 CALLDATALOAD SWAP3 DUP2 PUSH1 0x40 MLOAD SWAP4 DUP3 DUP6 DUP1 SWAP5 MLOAD SWAP4 DUP5 SWAP3 ADD PUSH2 0x1A93 JUMP JUMPDEST DUP2 ADD PUSH1 0x1 DUP2 MSTORE SUB ADD SWAP1 KECCAK256 DUP1 SLOAD DUP3 LT ISZERO PUSH2 0x3B3 JUMPI PUSH2 0xBF3 SWAP2 PUSH2 0xBAE SWAP2 PUSH2 0x1B61 JUMP JUMPDEST POP PUSH2 0x3AF PUSH1 0xFF DUP3 SLOAD AND SWAP2 PUSH2 0xBC4 PUSH1 0x1 DUP3 ADD PUSH2 0x19ED JUMP JUMPDEST PUSH1 0x2 DUP3 ADD SLOAD SWAP2 PUSH2 0xC04 PUSH2 0xBE6 PUSH1 0x4 PUSH1 0x1 DUP1 PUSH1 0xA0 SHL SUB PUSH1 0x3 DUP6 ADD SLOAD AND SWAP4 ADD PUSH2 0x19ED JUMP JUMPDEST SWAP3 PUSH1 0x40 MLOAD SWAP8 DUP9 DUP1 SWAP9 PUSH2 0x1B54 JUMP JUMPDEST PUSH1 0xA0 PUSH1 0x20 DUP9 ADD MSTORE PUSH1 0xA0 DUP8 ADD SWAP1 PUSH2 0x1AB6 JUMP JUMPDEST SWAP3 PUSH1 0x40 DUP7 ADD MSTORE PUSH1 0x60 DUP6 ADD MSTORE DUP4 DUP3 SUB PUSH1 0x80 DUP6 ADD MSTORE PUSH2 0x1AB6 JUMP JUMPDEST CALLVALUE PUSH2 0x3B3 JUMPI PUSH1 0x0 CALLDATASIZE PUSH1 0x3 NOT ADD SLT PUSH2 0x3B3 JUMPI PUSH1 0x6 SLOAD PUSH1 0x40 MLOAD PUSH1 0x1 PUSH1 0x1 PUSH1 0xA0 SHL SUB SWAP1 SWAP2 AND DUP2 MSTORE PUSH1 0x20 SWAP1 RETURN JUMPDEST CALLVALUE PUSH2 0x3B3 JUMPI PUSH1 0x20 DUP1 PUSH1 0x3 NOT CALLDATASIZE ADD SLT PUSH2 0x3B3 JUMPI PUSH1 0x4 CALLDATALOAD SWAP1 PUSH1 0x1 PUSH1 0x1 PUSH1 0x40 SHL SUB DUP3 GT PUSH2 0x3B3 JUMPI PUSH2 0xCB0 DUP2 PUSH2 0xC7D PUSH1 0x80 SWAP5 CALLDATASIZE SWAP1 PUSH1 0x4 ADD PUSH2 0x1ADB JUMP JUMPDEST PUSH1 0x0 PUSH1 0x60 PUSH1 0x40 MLOAD PUSH2 0xC8D DUP2 PUSH2 0x197A JUMP JUMPDEST DUP2 DUP2 MSTORE DUP2 DUP6 DUP3 ADD MSTORE DUP3 PUSH1 0x40 DUP3 ADD MSTORE ADD MSTORE DUP2 PUSH1 0x40 MLOAD SWAP4 DUP3 DUP6 DUP1 SWAP5 MLOAD SWAP4 DUP5 SWAP3 ADD PUSH2 0x1A93 JUMP JUMPDEST DUP2 ADD PUSH1 0x2 DUP2 MSTORE SUB ADD SWAP1 KECCAK256 SWAP1 PUSH1 0x40 MLOAD SWAP2 PUSH2 0xCC8 DUP4 PUSH2 0x197A JUMP JUMPDEST PUSH2 0xCD1 DUP2 PUSH2 0x19ED JUMP JUMPDEST DUP4 MSTORE PUSH2 0xD38 PUSH1 0x2 PUSH2 0xCE4 PUSH1 0x1 DUP5 ADD PUSH2 0x19ED JUMP JUMPDEST SWAP3 DUP5 DUP7 ADD SWAP4 DUP5 MSTORE ADD SLOAD SWAP2 PUSH2 0xD25 PUSH1 0x40 DUP7 ADD SWAP5 PUSH1 0xFF DUP6 AND ISZERO ISZERO DUP7 MSTORE PUSH1 0xFF PUSH1 0x60 DUP9 ADD SWAP6 PUSH1 0x8 SHR AND ISZERO ISZERO DUP6 MSTORE PUSH1 0x40 MLOAD SWAP8 DUP9 SWAP8 DUP3 DUP10 MSTORE MLOAD SWAP2 DUP9 ADD MSTORE PUSH1 0xA0 DUP8 ADD SWAP1 PUSH2 0x1AB6 JUMP JUMPDEST SWAP1 MLOAD DUP6 DUP3 SUB PUSH1 0x1F NOT ADD PUSH1 0x40 DUP8 ADD MSTORE PUSH2 0x1AB6 JUMP JUMPDEST SWAP2 MLOAD ISZERO ISZERO PUSH1 0x60 DUP5 ADD MSTORE MLOAD ISZERO ISZERO PUSH1 0x80 DUP4 ADD MSTORE SUB SWAP1 RETURN JUMPDEST CALLVALUE PUSH2 0x3B3 JUMPI PUSH1 0x20 CALLDATASIZE PUSH1 0x3 NOT ADD SLT PUSH2 0x3B3 JUMPI PUSH1 0x4 CALLDATALOAD PUSH1 0x1 PUSH1 0x1 PUSH1 0x40 SHL SUB DUP2 GT PUSH2 0x3B3 JUMPI PUSH2 0xD7D SWAP1 CALLDATASIZE SWAP1 PUSH1 0x4 ADD PUSH2 0x1ADB JUMP JUMPDEST PUSH1 0x40 MLOAD DUP2 DUP2 DUP1 SWAP4 MLOAD PUSH1 0x20 DUP2 SWAP4 ADD SWAP2 PUSH2 0xD94 SWAP3 PUSH2 0x1A93 JUMP JUMPDEST DUP2 ADD PUSH1 0x0 DUP2 MSTORE SUB PUSH1 0x20 ADD SWAP1 KECCAK256 PUSH2 0xDA9 DUP2 PUSH2 0x19ED JUMP JUMPDEST PUSH1 0x1 DUP3 ADD SLOAD PUSH1 0x1 PUSH1 0x1 PUSH1 0xA0 SHL SUB AND SWAP2 PUSH2 0xDC4 PUSH1 0x2 DUP3 ADD PUSH2 0x19ED JUMP JUMPDEST SWAP1 PUSH2 0xDD1 PUSH1 0x3 DUP3 ADD PUSH2 0x19ED JUMP JUMPDEST SWAP1 PUSH2 0xDDE PUSH1 0x4 DUP3 ADD PUSH2 0x19ED JUMP JUMPDEST SWAP2 PUSH2 0xDEB PUSH1 0x5 DUP4 ADD PUSH2 0x19ED JUMP JUMPDEST SWAP3 PUSH1 0x6 DUP4 ADD SLOAD PUSH1 0xFF AND SWAP4 PUSH1 0x7 DUP5 ADD SLOAD SWAP2 PUSH1 0x8 DUP6 ADD SLOAD SWAP4 PUSH1 0x9 DUP7 ADD SLOAD SWAP6 PUSH1 0xA ADD PUSH2 0xE13 SWAP1 PUSH2 0x19ED JUMP JUMPDEST SWAP8 PUSH1 0x40 MLOAD SWAP11 DUP12 SWAP11 PUSH2 0x180 DUP1 DUP14 MSTORE DUP13 ADD PUSH2 0xE2B SWAP2 PUSH2 0x1AB6 JUMP JUMPDEST SWAP1 PUSH1 0x20 DUP13 ADD MSTORE DUP11 DUP2 SUB PUSH1 0x40 DUP13 ADD MSTORE PUSH2 0xE42 SWAP2 PUSH2 0x1AB6 JUMP JUMPDEST DUP10 DUP2 SUB PUSH1 0x60 DUP12 ADD MSTORE PUSH2 0xE53 SWAP2 PUSH2 0x1AB6 JUMP JUMPDEST DUP9 DUP2 SUB PUSH1 0x80 DUP11 ADD MSTORE PUSH2 0xE64 SWAP2 PUSH2 0x1AB6 JUMP JUMPDEST DUP8 DUP2 SUB PUSH1 0xA0 DUP10 ADD MSTORE PUSH2 0xE75 SWAP2 PUSH2 0x1AB6 JUMP JUMPDEST SWAP4 PUSH1 0xC0 DUP8 ADD PUSH2 0xE83 SWAP2 PUSH2 0x1B47 JUMP JUMPDEST PUSH1 0xE0 DUP7 ADD MSTORE PUSH2 0x100 DUP6 ADD MSTORE PUSH1 0xFF DUP2 AND ISZERO ISZERO PUSH2 0x120 DUP6 ADD MSTORE PUSH2 0x140 DUP5 ADD SWAP1 PUSH1 0x8 SHR PUSH1 0xFF AND SWAP1 PUSH2 0xEB0 SWAP2 PUSH2 0x1B54 JUMP JUMPDEST DUP3 DUP2 SUB PUSH2 0x160 DUP5 ADD MSTORE PUSH2 0x3AF SWAP2 PUSH2 0x1AB6 JUMP JUMPDEST CALLVALUE PUSH2 0x3B3 JUMPI PUSH1 0xE0 CALLDATASIZE PUSH1 0x3 NOT ADD SLT PUSH2 0x3B3 JUMPI PUSH1 0x4 CALLDATALOAD PUSH1 0x1 PUSH1 0x1 PUSH1 0x40 SHL SUB DUP2 GT PUSH2 0x3B3 JUMPI PUSH2 0xEF2 SWAP1 CALLDATASIZE SWAP1 PUSH1 0x4 ADD PUSH2 0x1ADB JUMP JUMPDEST PUSH1 0x24 CALLDATALOAD PUSH1 0x1 PUSH1 0x1 PUSH1 0x40 SHL SUB DUP2 GT PUSH2 0x3B3 JUMPI PUSH2 0xF11 SWAP1 CALLDATASIZE SWAP1 PUSH1 0x4 ADD PUSH2 0x1ADB JUMP JUMPDEST SWAP1 PUSH1 0x44 CALLDATALOAD PUSH1 0x1 PUSH1 0x1 PUSH1 0x40 SHL SUB DUP2 GT PUSH2 0x3B3 JUMPI PUSH2 0xF31 SWAP1 CALLDATASIZE SWAP1 PUSH1 0x4 ADD PUSH2 0x1ADB JUMP JUMPDEST SWAP2 PUSH1 0x64 CALLDATALOAD PUSH1 0x1 PUSH1 0x1 PUSH1 0x40 SHL SUB DUP2 GT PUSH2 0x3B3 JUMPI PUSH2 0xF51 SWAP1 CALLDATASIZE SWAP1 PUSH1 0x4 ADD PUSH2 0x1ADB JUMP JUMPDEST SWAP3 PUSH1 0x4 PUSH1 0x84 CALLDATALOAD LT ISZERO PUSH2 0x3B3 JUMPI PUSH1 0xC4 CALLDATALOAD PUSH1 0x1 PUSH1 0x1 PUSH1 0x40 SHL SUB DUP2 GT PUSH2 0x3B3 JUMPI PUSH2 0xF7C SWAP1 CALLDATASIZE SWAP1 PUSH1 0x4 ADD PUSH2 0x1ADB JUMP JUMPDEST SWAP2 PUSH1 0x40 MLOAD PUSH2 0xFB0 PUSH1 0xFF PUSH1 0x2 DUP9 MLOAD SWAP4 PUSH1 0x20 DUP2 DUP2 DUP13 ADD SWAP7 PUSH2 0xF9C DUP2 DUP4 DUP11 PUSH2 0x1A93 JUMP JUMPDEST DUP2 ADD DUP5 DUP2 MSTORE SUB ADD SWAP1 KECCAK256 ADD SLOAD PUSH1 0x8 SHR AND PUSH2 0x1D03 JUMP JUMPDEST DUP5 MLOAD ISZERO PUSH2 0x146D JUMPI PUSH2 0xFCF PUSH1 0x40 MLOAD PUSH1 0x20 DUP2 DUP9 MLOAD PUSH2 0x1B5 DUP2 DUP4 DUP6 DUP14 ADD PUSH2 0x1A93 JUMP JUMPDEST PUSH2 0x1431 JUMPI PUSH2 0xFDF DUP4 MLOAD ISZERO ISZERO PUSH2 0x1D47 JUMP JUMPDEST PUSH1 0x8 SLOAD PUSH1 0xA4 CALLDATALOAD LT PUSH2 0x13F7 JUMPI PUSH1 0x20 PUSH2 0x1001 SWAP2 PUSH1 0x40 MLOAD DUP1 SWAP4 DUP2 SWAP3 DUP11 MLOAD SWAP3 DUP4 SWAP2 PUSH2 0x1A93 JUMP JUMPDEST DUP2 ADD PUSH1 0x2 DUP2 MSTORE SUB ADD SWAP1 KECCAK256 SWAP3 PUSH1 0x40 MLOAD SWAP4 PUSH2 0x1019 DUP6 PUSH2 0x197A JUMP JUMPDEST PUSH2 0x1022 DUP2 PUSH2 0x19ED JUMP JUMPDEST DUP6 MSTORE PUSH1 0x2 PUSH2 0x1032 PUSH1 0x1 DUP4 ADD PUSH2 0x19ED JUMP JUMPDEST SWAP2 DUP3 PUSH1 0x20 DUP9 ADD MSTORE ADD SLOAD SWAP1 PUSH1 0xFF DUP1 DUP4 AND ISZERO ISZERO SWAP3 DUP4 PUSH1 0x40 DUP10 ADD MSTORE PUSH1 0x8 SHR AND ISZERO ISZERO PUSH1 0x60 DUP8 ADD MSTORE DUP2 PUSH2 0x13E9 JUMPI JUMPDEST PUSH1 0x40 MLOAD SWAP4 PUSH2 0x1068 DUP6 PUSH2 0x1995 JUMP JUMPDEST DUP8 DUP6 MSTORE CALLER PUSH1 0x20 DUP7 ADD MSTORE PUSH1 0x40 DUP6 ADD MSTORE DUP5 PUSH1 0x60 DUP6 ADD MSTORE DUP8 PUSH1 0x80 DUP6 ADD MSTORE PUSH1 0xA0 DUP5 ADD MSTORE PUSH2 0x1096 PUSH1 0x84 CALLDATALOAD PUSH1 0xC0 DUP6 ADD PUSH2 0x1D93 JUMP JUMPDEST TIMESTAMP PUSH1 0xE0 DUP5 ADD MSTORE PUSH1 0xA4 CALLDATALOAD PUSH2 0x100 DUP5 ADD MSTORE ISZERO ISZERO PUSH2 0x120 DUP4 ADD MSTORE PUSH1 0x0 PUSH2 0x140 DUP4 ADD MSTORE PUSH2 0x160 DUP3 ADD MSTORE PUSH1 0x40 MLOAD PUSH1 0x20 DUP2 DUP7 MLOAD PUSH2 0x10D0 DUP2 DUP4 DUP6 DUP12 ADD PUSH2 0x1A93 JUMP JUMPDEST DUP2 ADD PUSH1 0x0 DUP2 MSTORE SUB ADD SWAP1 KECCAK256 PUSH2 0x10E5 DUP3 MLOAD DUP3 PUSH2 0x1BD4 JUMP JUMPDEST PUSH1 0x1 DUP2 ADD PUSH1 0x1 DUP1 PUSH1 0xA0 SHL SUB PUSH1 0x20 DUP5 ADD MLOAD AND PUSH12 0xFFFFFFFFFFFFFFFFFFFFFFFF PUSH1 0xA0 SHL DUP3 SLOAD AND OR SWAP1 SSTORE PUSH2 0x111D PUSH1 0x40 DUP4 ADD MLOAD PUSH1 0x2 DUP4 ADD PUSH2 0x1BD4 JUMP JUMPDEST PUSH2 0x112E PUSH1 0x60 DUP4 ADD MLOAD PUSH1 0x3 DUP4 ADD PUSH2 0x1BD4 JUMP JUMPDEST PUSH2 0x113F PUSH1 0x80 DUP4 ADD MLOAD PUSH1 0x4 DUP4 ADD PUSH2 0x1BD4 JUMP JUMPDEST PUSH2 0x1150 PUSH1 0xA0 DUP4 ADD MLOAD PUSH1 0x5 DUP4 ADD PUSH2 0x1BD4 JUMP JUMPDEST PUSH1 0x6 DUP2 ADD PUSH1 0xC0 DUP4 ADD MLOAD PUSH1 0x4 DUP2 LT ISZERO PUSH2 0x13D3 JUMPI PUSH1 0xFF DUP1 NOT DUP4 SLOAD AND SWAP2 AND OR SWAP1 SSTORE PUSH1 0xE0 DUP3 ADD MLOAD PUSH1 0x7 DUP3 ADD SSTORE PUSH2 0x100 DUP3 ADD MLOAD PUSH1 0x8 DUP3 ADD SSTORE PUSH1 0x9 DUP2 ADD PUSH2 0x11A4 PUSH2 0x120 DUP5 ADD MLOAD ISZERO ISZERO DUP3 SWAP1 PUSH1 0xFF DUP1 NOT DUP4 SLOAD AND SWAP2 ISZERO ISZERO AND OR SWAP1 SSTORE JUMP JUMPDEST PUSH2 0x140 DUP4 ADD MLOAD PUSH1 0x7 DUP2 LT ISZERO PUSH2 0x13D3 JUMPI PUSH2 0x11CF SWAP4 PUSH2 0x11C6 PUSH2 0x160 SWAP3 PUSH1 0xA SWAP5 PUSH2 0x1DAB JUMP JUMPDEST ADD MLOAD SWAP2 ADD PUSH2 0x1BD4 JUMP JUMPDEST PUSH1 0x3 SLOAD PUSH1 0x1 PUSH1 0x40 SHL SWAP1 DUP2 DUP2 LT ISZERO PUSH2 0x137B JUMPI PUSH1 0x1 DUP2 ADD DUP1 PUSH1 0x3 SSTORE DUP2 LT ISZERO PUSH2 0x13BD JUMPI DUP5 PUSH2 0x1220 SWAP2 PUSH1 0x3 PUSH1 0x0 MSTORE PUSH32 0xC2575A0E9E593C00F959F8C92F12DB2869C3395A3B0502D05E2516446F71F85B ADD PUSH2 0x1BD4 JUMP JUMPDEST CALLER PUSH1 0x0 MSTORE PUSH1 0x4 PUSH1 0x20 MSTORE PUSH1 0x40 PUSH1 0x0 KECCAK256 SWAP1 DUP2 SLOAD SWAP1 DUP2 LT ISZERO PUSH2 0x137B JUMPI PUSH2 0x1248 SWAP2 PUSH1 0x1 DUP3 ADD DUP2 SSTORE PUSH2 0x1928 JUMP JUMPDEST PUSH2 0x13A7 JUMPI DUP4 PUSH2 0x1256 SWAP2 PUSH2 0x1BD4 JUMP JUMPDEST PUSH1 0x7 SLOAD PUSH1 0x0 NOT DUP2 EQ PUSH2 0x1391 JUMPI PUSH1 0x1 ADD PUSH1 0x7 SSTORE PUSH1 0x40 MLOAD PUSH1 0x20 DUP2 DUP6 MLOAD PUSH2 0x127D DUP2 DUP4 DUP6 DUP11 ADD PUSH2 0x1A93 JUMP JUMPDEST DUP2 ADD PUSH1 0x1 DUP2 MSTORE SUB ADD SWAP1 KECCAK256 PUSH1 0x40 MLOAD SWAP2 PUSH2 0x1294 DUP4 PUSH2 0x19B1 JUMP JUMPDEST PUSH1 0x0 DUP4 MSTORE PUSH1 0x20 DUP4 ADD MSTORE TIMESTAMP PUSH1 0x40 DUP4 ADD MSTORE CALLER PUSH1 0x60 DUP4 ADD MSTORE PUSH1 0x40 MLOAD PUSH1 0x40 DUP2 ADD SWAP4 DUP2 DUP6 LT PUSH1 0x1 PUSH1 0x1 PUSH1 0x40 SHL SUB DUP7 GT OR PUSH2 0x137B JUMPI PUSH2 0x1329 PUSH2 0x1355 SWAP5 PUSH2 0x1331 SWAP5 PUSH1 0x20 SWAP5 PUSH32 0x2C359F375F623ECB20E19F214E8C11B5D76186D701A708094F8AA8072C189A1 SWAP9 PUSH1 0x40 MSTORE PUSH1 0x1E DUP2 MSTORE PUSH32 0x4261746368207265676973746572656420696E207468652073797374656D0000 DUP7 DUP3 ADD MSTORE PUSH1 0x80 DUP4 ADD MSTORE PUSH2 0x1DCA JUMP JUMPDEST ADD MLOAD SWAP4 PUSH2 0x1CE3 JUMP JUMPDEST SWAP3 PUSH2 0x1347 PUSH1 0x40 MLOAD SWAP6 PUSH1 0xA0 DUP8 MSTORE PUSH1 0xA0 DUP8 ADD SWAP1 PUSH2 0x1AB6 JUMP JUMPDEST SWAP1 DUP6 DUP3 SUB PUSH1 0x20 DUP8 ADD MSTORE PUSH2 0x1AB6 JUMP JUMPDEST SWAP3 PUSH2 0x1365 PUSH1 0x40 DUP3 ADD PUSH1 0x84 CALLDATALOAD PUSH2 0x1B47 JUMP JUMPDEST TIMESTAMP PUSH1 0x60 DUP3 ADD MSTORE PUSH1 0xA4 CALLDATALOAD PUSH1 0x80 DUP3 ADD MSTORE DUP1 CALLER SWAP5 SUB SWAP1 LOG3 STOP JUMPDEST PUSH4 0x4E487B71 PUSH1 0xE0 SHL PUSH1 0x0 MSTORE PUSH1 0x41 PUSH1 0x4 MSTORE PUSH1 0x24 PUSH1 0x0 REVERT JUMPDEST PUSH4 0x4E487B71 PUSH1 0xE0 SHL PUSH1 0x0 MSTORE PUSH1 0x11 PUSH1 0x4 MSTORE PUSH1 0x24 PUSH1 0x0 REVERT JUMPDEST PUSH4 0x4E487B71 PUSH1 0xE0 SHL PUSH1 0x0 MSTORE PUSH1 0x0 PUSH1 0x4 MSTORE PUSH1 0x24 PUSH1 0x0 REVERT JUMPDEST PUSH4 0x4E487B71 PUSH1 0xE0 SHL PUSH1 0x0 MSTORE PUSH1 0x32 PUSH1 0x4 MSTORE PUSH1 0x24 PUSH1 0x0 REVERT JUMPDEST PUSH4 0x4E487B71 PUSH1 0xE0 SHL PUSH1 0x0 MSTORE PUSH1 0x21 PUSH1 0x4 MSTORE PUSH1 0x24 PUSH1 0x0 REVERT JUMPDEST PUSH1 0x1 PUSH1 0x84 CALLDATALOAD GT ISZERO SWAP2 POP PUSH2 0x105B JUMP JUMPDEST PUSH1 0x40 MLOAD PUSH3 0x461BCD PUSH1 0xE5 SHL DUP2 MSTORE PUSH1 0x20 PUSH1 0x4 DUP3 ADD MSTORE PUSH1 0x12 PUSH1 0x24 DUP3 ADD MSTORE PUSH18 0x145D585B9D1A5D1E481D1BDBC81CDB585B1B PUSH1 0x72 SHL PUSH1 0x44 DUP3 ADD MSTORE PUSH1 0x64 SWAP1 REVERT JUMPDEST PUSH1 0x40 MLOAD PUSH3 0x461BCD PUSH1 0xE5 SHL DUP2 MSTORE PUSH1 0x20 PUSH1 0x4 DUP3 ADD MSTORE PUSH1 0x14 PUSH1 0x24 DUP3 ADD MSTORE PUSH20 0x426174636820616C726561647920657869737473 PUSH1 0x60 SHL PUSH1 0x44 DUP3 ADD MSTORE PUSH1 0x64 SWAP1 REVERT JUMPDEST PUSH1 0x40 MLOAD PUSH3 0x461BCD PUSH1 0xE5 SHL DUP2 MSTORE PUSH1 0x20 PUSH1 0x4 DUP3 ADD MSTORE PUSH1 0x18 PUSH1 0x24 DUP3 ADD MSTORE PUSH32 0x42617463682049442063616E6E6F7420626520656D7074790000000000000000 PUSH1 0x44 DUP3 ADD MSTORE PUSH1 0x64 SWAP1 REVERT JUMPDEST CALLVALUE PUSH2 0x3B3 JUMPI PUSH1 0x20 CALLDATASIZE PUSH1 0x3 NOT ADD SLT PUSH2 0x3B3 JUMPI PUSH1 0x4 CALLDATALOAD PUSH1 0x1 PUSH1 0x1 PUSH1 0x40 SHL SUB DUP2 GT PUSH2 0x3B3 JUMPI PUSH2 0x14FD PUSH1 0x20 PUSH2 0x14EA PUSH2 0x1347 SWAP4 CALLDATASIZE SWAP1 PUSH1 0x4 ADD PUSH2 0x1ADB JUMP JUMPDEST DUP2 PUSH1 0x40 MLOAD SWAP4 DUP3 DUP6 DUP1 SWAP5 MLOAD SWAP4 DUP5 SWAP3 ADD PUSH2 0x1A93 JUMP JUMPDEST DUP2 ADD PUSH1 0x2 DUP2 MSTORE SUB ADD SWAP1 KECCAK256 PUSH2 0x1510 DUP2 PUSH2 0x19ED JUMP JUMPDEST SWAP1 PUSH1 0xFF PUSH2 0x153C PUSH1 0x2 PUSH2 0x1524 PUSH1 0x1 DUP6 ADD PUSH2 0x19ED JUMP JUMPDEST SWAP4 ADD SLOAD SWAP3 PUSH1 0x40 MLOAD SWAP6 DUP7 SWAP6 PUSH1 0x80 DUP8 MSTORE PUSH1 0x80 DUP8 ADD SWAP1 PUSH2 0x1AB6 JUMP JUMPDEST SWAP2 DUP2 DUP2 AND ISZERO ISZERO PUSH1 0x40 DUP6 ADD MSTORE PUSH1 0x8 SHR AND ISZERO ISZERO PUSH1 0x60 DUP4 ADD MSTORE SUB SWAP1 RETURN JUMPDEST CALLVALUE PUSH2 0x3B3 JUMPI PUSH1 0x60 CALLDATASIZE PUSH1 0x3 NOT ADD SLT PUSH2 0x3B3 JUMPI PUSH1 0x1 PUSH1 0x1 PUSH1 0x40 SHL SUB PUSH1 0x4 CALLDATALOAD DUP2 DUP2 GT PUSH2 0x3B3 JUMPI PUSH2 0x1587 SWAP1 CALLDATASIZE SWAP1 PUSH1 0x4 ADD PUSH2 0x1ADB JUMP JUMPDEST SWAP1 PUSH1 0x24 CALLDATALOAD SWAP1 DUP2 GT PUSH2 0x3B3 JUMPI PUSH2 0x15A0 SWAP1 CALLDATASIZE SWAP1 PUSH1 0x4 ADD PUSH2 0x1ADB JUMP JUMPDEST PUSH1 0x44 CALLDATALOAD SWAP2 DUP3 ISZERO ISZERO DUP1 SWAP4 SUB PUSH2 0x3B3 JUMPI PUSH2 0x15C3 PUSH1 0x1 DUP1 PUSH1 0xA0 SHL SUB PUSH1 0x6 SLOAD AND CALLER EQ PUSH2 0x1B7D JUMP JUMPDEST DUP1 MLOAD ISZERO PUSH2 0x1770 JUMPI DUP2 MLOAD ISZERO PUSH2 0x172B JUMPI PUSH1 0x40 MLOAD SWAP1 DUP1 MLOAD PUSH1 0xFF PUSH1 0x2 PUSH1 0x20 SWAP5 DUP6 DUP2 DUP2 DUP8 ADD SWAP6 PUSH2 0x15EF DUP2 DUP4 DUP10 PUSH2 0x1A93 JUMP JUMPDEST DUP2 ADD DUP5 DUP2 MSTORE SUB ADD SWAP1 KECCAK256 ADD SLOAD PUSH1 0x8 SHR AND PUSH2 0x16E6 JUMPI SWAP2 PUSH2 0x16C2 PUSH32 0xD06BA4D8465452F9AB5C0ABF0E95327233E2DFF2C9C8CCF9C3EB53DAB32987AC SWAP5 SWAP3 PUSH2 0x16D7 SWAP5 PUSH1 0x40 MLOAD SWAP1 PUSH2 0x163A DUP3 PUSH2 0x197A JUMP JUMPDEST DUP3 DUP3 MSTORE PUSH2 0x16A8 PUSH1 0x2 DUP7 DUP5 ADD SWAP4 DUP9 DUP6 MSTORE PUSH2 0x1691 PUSH1 0x40 DUP3 ADD SWAP6 DUP14 DUP8 MSTORE PUSH2 0x1687 PUSH2 0x1676 DUP12 PUSH1 0x60 DUP7 ADD SWAP9 PUSH1 0x1 DUP11 MSTORE DUP12 PUSH1 0x40 MLOAD SWAP4 DUP5 SWAP3 DUP4 SWAP3 MLOAD SWAP3 DUP4 SWAP2 PUSH2 0x1A93 JUMP JUMPDEST DUP2 ADD DUP9 DUP2 MSTORE SUB ADD SWAP1 KECCAK256 SWAP4 MLOAD DUP5 PUSH2 0x1BD4 JUMP JUMPDEST MLOAD PUSH1 0x1 DUP4 ADD PUSH2 0x1BD4 JUMP JUMPDEST ADD SWAP3 MLOAD ISZERO ISZERO DUP4 SWAP1 PUSH1 0xFF DUP1 NOT DUP4 SLOAD AND SWAP2 ISZERO ISZERO AND OR SWAP1 SSTORE JUMP JUMPDEST MLOAD DUP2 SLOAD PUSH2 0xFF00 NOT AND SWAP1 ISZERO ISZERO PUSH1 0x8 SHL PUSH2 0xFF00 AND OR SWAP1 SSTORE PUSH2 0x1CE3 JUMP JUMPDEST SWAP5 PUSH1 0x40 MLOAD SWAP4 DUP5 SWAP4 PUSH1 0x60 DUP6 MSTORE PUSH1 0x60 DUP6 ADD SWAP1 PUSH2 0x1AB6 JUMP JUMPDEST SWAP2 DUP4 ADD MSTORE TIMESTAMP PUSH1 0x40 DUP4 ADD MSTORE SUB SWAP1 LOG2 STOP JUMPDEST PUSH1 0x40 MLOAD PUSH3 0x461BCD PUSH1 0xE5 SHL DUP2 MSTORE PUSH1 0x4 DUP2 ADD DUP5 SWAP1 MSTORE PUSH1 0x1A PUSH1 0x24 DUP3 ADD MSTORE PUSH32 0x5661726965747920616C72656164792072656769737465726564000000000000 PUSH1 0x44 DUP3 ADD MSTORE PUSH1 0x64 SWAP1 REVERT JUMPDEST PUSH1 0x40 MLOAD PUSH3 0x461BCD PUSH1 0xE5 SHL DUP2 MSTORE PUSH1 0x20 PUSH1 0x4 DUP3 ADD MSTORE PUSH1 0x1C PUSH1 0x24 DUP3 ADD MSTORE PUSH32 0x56617269657479206E616D652063616E6E6F7420626520656D70747900000000 PUSH1 0x44 DUP3 ADD MSTORE PUSH1 0x64 SWAP1 REVERT JUMPDEST PUSH1 0x40 MLOAD PUSH3 0x461BCD PUSH1 0xE5 SHL DUP2 MSTORE PUSH1 0x20 PUSH1 0x4 DUP3 ADD MSTORE PUSH1 0x1A PUSH1 0x24 DUP3 ADD MSTORE PUSH32 0x566172696574792049442063616E6E6F7420626520656D707479000000000000 PUSH1 0x44 DUP3 ADD MSTORE PUSH1 0x64 SWAP1 REVERT JUMPDEST CALLVALUE PUSH2 0x3B3 JUMPI PUSH1 0x40 CALLDATASIZE PUSH1 0x3 NOT ADD SLT PUSH2 0x3B3 JUMPI PUSH2 0x17CE PUSH2 0x1B31 JUMP JUMPDEST PUSH1 0x1 PUSH1 0x1 PUSH1 0xA0 SHL SUB AND PUSH1 0x0 SWAP1 DUP2 MSTORE PUSH1 0x4 PUSH1 0x20 MSTORE PUSH1 0x40 SWAP1 KECCAK256 DUP1 SLOAD PUSH1 0x24 CALLDATALOAD SWAP1 DUP2 LT ISZERO PUSH2 0x3B3 JUMPI PUSH2 0x17FB SWAP2 PUSH2 0x1928 JUMP JUMPDEST PUSH2 0x13A7 JUMPI PUSH2 0x180B PUSH2 0x3AF SWAP2 PUSH2 0x19ED JUMP JUMPDEST PUSH1 0x40 MLOAD SWAP2 DUP3 SWAP2 PUSH1 0x20 DUP4 MSTORE PUSH1 0x20 DUP4 ADD SWAP1 PUSH2 0x1AB6 JUMP JUMPDEST CALLVALUE PUSH2 0x3B3 JUMPI PUSH1 0x0 CALLDATASIZE PUSH1 0x3 NOT ADD SLT PUSH2 0x3B3 JUMPI PUSH1 0x20 PUSH1 0x8 SLOAD PUSH1 0x40 MLOAD SWAP1 DUP2 MSTORE RETURN JUMPDEST CALLVALUE PUSH2 0x3B3 JUMPI PUSH1 0x20 CALLDATASIZE PUSH1 0x3 NOT ADD SLT PUSH2 0x3B3 JUMPI PUSH1 0x4 CALLDATALOAD PUSH1 0x1 PUSH1 0x1 PUSH1 0x40 SHL SUB DUP2 GT PUSH2 0x3B3 JUMPI PUSH2 0x18A7 PUSH1 0x20 PUSH2 0x1874 PUSH1 0x2 SWAP4 CALLDATASIZE SWAP1 PUSH1 0x4 ADD PUSH2 0x1ADB JUMP JUMPDEST PUSH2 0x1889 PUSH1 0x1 DUP1 PUSH1 0xA0 SHL SUB PUSH1 0x6 SLOAD AND CALLER EQ PUSH2 0x1B7D JUMP JUMPDEST PUSH1 0x40 MLOAD SWAP1 PUSH2 0x1CC PUSH1 0xFF DUP7 DUP4 MLOAD SWAP5 DUP7 DUP2 DUP2 DUP8 ADD SWAP8 PUSH2 0xF9C DUP2 DUP4 DUP12 PUSH2 0x1A93 JUMP JUMPDEST DUP2 ADD DUP5 DUP2 MSTORE SUB ADD SWAP1 KECCAK256 ADD DUP1 SLOAD PUSH2 0xFF00 NOT AND SWAP1 SSTORE STOP JUMPDEST CALLVALUE PUSH2 0x3B3 JUMPI PUSH1 0x20 CALLDATASIZE PUSH1 0x3 NOT ADD SLT PUSH2 0x3B3 JUMPI PUSH1 0x4 CALLDATALOAD PUSH1 0x3 SLOAD DUP2 LT ISZERO PUSH2 0x3B3 JUMPI PUSH2 0x180B PUSH2 0x3AF SWAP2 PUSH1 0x3 PUSH1 0x0 MSTORE PUSH32 0xC2575A0E9E593C00F959F8C92F12DB2869C3395A3B0502D05E2516446F71F85B ADD PUSH2 0x19ED JUMP JUMPDEST CALLVALUE PUSH2 0x3B3 JUMPI PUSH1 0x0 CALLDATASIZE PUSH1 0x3 NOT ADD SLT PUSH2 0x3B3 JUMPI PUSH1 0x20 SWAP1 PUSH1 0x7 SLOAD DUP2 MSTORE RETURN JUMPDEST DUP1 SLOAD DUP3 LT ISZERO PUSH2 0x13BD JUMPI PUSH1 0x0 MSTORE PUSH1 0x20 PUSH1 0x0 KECCAK256 ADD SWAP1 PUSH1 0x0 SWAP1 JUMP JUMPDEST SWAP1 PUSH1 0x1 DUP3 DUP2 SHR SWAP3 AND DUP1 ISZERO PUSH2 0x1970 JUMPI JUMPDEST PUSH1 0x20 DUP4 LT EQ PUSH2 0x195A JUMPI JUMP JUMPDEST PUSH4 0x4E487B71 PUSH1 0xE0 SHL PUSH1 0x0 MSTORE PUSH1 0x22 PUSH1 0x4 MSTORE PUSH1 0x24 PUSH1 0x0 REVERT JUMPDEST SWAP2 PUSH1 0x7F AND SWAP2 PUSH2 0x194F JUMP JUMPDEST PUSH1 0x80 DUP2 ADD SWAP1 DUP2 LT PUSH1 0x1 PUSH1 0x1 PUSH1 0x40 SHL SUB DUP3 GT OR PUSH2 0x137B JUMPI PUSH1 0x40 MSTORE JUMP JUMPDEST PUSH2 0x180 DUP2 ADD SWAP1 DUP2 LT PUSH1 0x1 PUSH1 0x1 PUSH1 0x40 SHL SUB DUP3 GT OR PUSH2 0x137B JUMPI PUSH1 0x40 MSTORE JUMP JUMPDEST PUSH1 0xA0 DUP2 ADD SWAP1 DUP2 LT PUSH1 0x1 PUSH1 0x1 PUSH1 0x40 SHL SUB DUP3 GT OR PUSH2 0x137B JUMPI PUSH1 0x40 MSTORE JUMP JUMPDEST SWAP1 PUSH1 0x1F DUP1 NOT SWAP2 ADD AND DUP2 ADD SWAP1 DUP2 LT PUSH1 0x1 PUSH1 0x1 PUSH1 0x40 SHL SUB DUP3 GT OR PUSH2 0x137B JUMPI PUSH1 0x40 MSTORE JUMP JUMPDEST SWAP1 PUSH1 0x40 MLOAD SWAP2 DUP3 PUSH1 0x0 DUP3 SLOAD SWAP3 PUSH2 0x1A01 DUP5 PUSH2 0x1940 JUMP JUMPDEST SWAP1 DUP2 DUP5 MSTORE PUSH1 0x1 SWAP5 DUP6 DUP2 AND SWAP1 DUP2 PUSH1 0x0 EQ PUSH2 0x1A70 JUMPI POP PUSH1 0x1 EQ PUSH2 0x1A2D JUMPI JUMPDEST POP POP PUSH2 0x1A2B SWAP3 POP SUB DUP4 PUSH2 0x19CC JUMP JUMPDEST JUMP JUMPDEST SWAP1 SWAP4 SWAP2 POP PUSH1 0x0 MSTORE PUSH1 0x20 SWAP1 DUP2 PUSH1 0x0 KECCAK256 SWAP4 PUSH1 0x0 SWAP2 JUMPDEST DUP2 DUP4 LT PUSH2 0x1A58 JUMPI POP POP PUSH2 0x1A2B SWAP4 POP DUP3 ADD ADD CODESIZE DUP1 PUSH2 0x1A1D JUMP JUMPDEST DUP6 SLOAD DUP9 DUP5 ADD DUP6 ADD MSTORE SWAP5 DUP6 ADD SWAP5 DUP8 SWAP5 POP SWAP2 DUP4 ADD SWAP2 PUSH2 0x1A40 JUMP JUMPDEST SWAP2 POP POP PUSH2 0x1A2B SWAP5 POP PUSH1 0x20 SWAP3 POP PUSH1 0xFF NOT AND DUP3 DUP5 ADD MSTORE ISZERO ISZERO PUSH1 0x5 SHL DUP3 ADD ADD CODESIZE DUP1 PUSH2 0x1A1D JUMP JUMPDEST PUSH1 0x0 JUMPDEST DUP4 DUP2 LT PUSH2 0x1AA6 JUMPI POP POP PUSH1 0x0 SWAP2 ADD MSTORE JUMP JUMPDEST DUP2 DUP2 ADD MLOAD DUP4 DUP3 ADD MSTORE PUSH1 0x20 ADD PUSH2 0x1A96 JUMP JUMPDEST SWAP1 PUSH1 0x20 SWAP2 PUSH2 0x1ACF DUP2 MLOAD DUP1 SWAP3 DUP2 DUP6 MSTORE DUP6 DUP1 DUP7 ADD SWAP2 ADD PUSH2 0x1A93 JUMP JUMPDEST PUSH1 0x1F ADD PUSH1 0x1F NOT AND ADD ADD SWAP1 JUMP JUMPDEST DUP2 PUSH1 0x1F DUP3 ADD SLT ISZERO PUSH2 0x3B3 JUMPI DUP1 CALLDATALOAD SWAP1 PUSH1 0x1 PUSH1 0x1 PUSH1 0x40 SHL SUB DUP3 GT PUSH2 0x137B JUMPI PUSH1 0x40 MLOAD SWAP3 PUSH2 0x1B0F PUSH1 0x1F DUP5 ADD PUSH1 0x1F NOT AND PUSH1 0x20 ADD DUP6 PUSH2 0x19CC JUMP JUMPDEST DUP3 DUP5 MSTORE PUSH1 0x20 DUP4 DUP4 ADD ADD GT PUSH2 0x3B3 JUMPI DUP2 PUSH1 0x0 SWAP3 PUSH1 0x20 DUP1 SWAP4 ADD DUP4 DUP7 ADD CALLDATACOPY DUP4 ADD ADD MSTORE SWAP1 JUMP JUMPDEST PUSH1 0x4 CALLDATALOAD SWAP1 PUSH1 0x1 PUSH1 0x1 PUSH1 0xA0 SHL SUB DUP3 AND DUP3 SUB PUSH2 0x3B3 JUMPI JUMP JUMPDEST SWAP1 PUSH1 0x4 DUP3 LT ISZERO PUSH2 0x13D3 JUMPI MSTORE JUMP JUMPDEST SWAP1 PUSH1 0x7 DUP3 LT ISZERO PUSH2 0x13D3 JUMPI MSTORE JUMP JUMPDEST DUP1 SLOAD DUP3 LT ISZERO PUSH2 0x13BD JUMPI PUSH1 0x0 MSTORE PUSH1 0x5 PUSH1 0x20 PUSH1 0x0 KECCAK256 SWAP2 MUL ADD SWAP1 PUSH1 0x0 SWAP1 JUMP JUMPDEST ISZERO PUSH2 0x1B84 JUMPI JUMP JUMPDEST PUSH1 0x40 MLOAD PUSH3 0x461BCD PUSH1 0xE5 SHL DUP2 MSTORE PUSH1 0x20 PUSH1 0x4 DUP3 ADD MSTORE PUSH1 0x22 PUSH1 0x24 DUP3 ADD MSTORE PUSH32 0x4F6E6C79206F776E65722063616E20706572666F726D20746869732061637469 PUSH1 0x44 DUP3 ADD MSTORE PUSH2 0x37B7 PUSH1 0xF1 SHL PUSH1 0x64 DUP3 ADD MSTORE PUSH1 0x84 SWAP1 REVERT JUMPDEST SWAP2 SWAP1 SWAP2 DUP3 MLOAD PUSH1 0x1 PUSH1 0x1 PUSH1 0x40 SHL SUB DUP2 GT PUSH2 0x137B JUMPI PUSH2 0x1BF1 DUP3 SLOAD PUSH2 0x1940 JUMP JUMPDEST PUSH1 0x1F DUP2 GT PUSH2 0x1C9B JUMPI JUMPDEST POP PUSH1 0x20 DUP1 PUSH1 0x1F DUP4 GT PUSH1 0x1 EQ PUSH2 0x1C37 JUMPI POP DUP2 SWAP3 SWAP4 SWAP5 PUSH1 0x0 SWAP3 PUSH2 0x1C2C JUMPI JUMPDEST POP POP DUP2 PUSH1 0x1 SHL SWAP2 PUSH1 0x0 NOT SWAP1 PUSH1 0x3 SHL SHR NOT AND OR SWAP1 SSTORE JUMP JUMPDEST ADD MLOAD SWAP1 POP CODESIZE DUP1 PUSH2 0x1C16 JUMP JUMPDEST SWAP1 PUSH1 0x1F NOT DUP4 AND SWAP6 DUP5 PUSH1 0x0 MSTORE DUP3 PUSH1 0x0 KECCAK256 SWAP3 PUSH1 0x0 SWAP1 JUMPDEST DUP9 DUP3 LT PUSH2 0x1C83 JUMPI POP POP DUP4 PUSH1 0x1 SWAP6 SWAP7 SWAP8 LT PUSH2 0x1C6A JUMPI JUMPDEST POP POP POP DUP2 SHL ADD SWAP1 SSTORE JUMP JUMPDEST ADD MLOAD PUSH1 0x0 NOT PUSH1 0xF8 DUP5 PUSH1 0x3 SHL AND SHR NOT AND SWAP1 SSTORE CODESIZE DUP1 DUP1 PUSH2 0x1C60 JUMP JUMPDEST DUP1 PUSH1 0x1 DUP6 SWAP7 DUP3 SWAP5 SWAP7 DUP7 ADD MLOAD DUP2 SSTORE ADD SWAP6 ADD SWAP4 ADD SWAP1 PUSH2 0x1C4B JUMP JUMPDEST PUSH1 0x0 DUP4 DUP2 MSTORE PUSH1 0x20 DUP2 KECCAK256 PUSH1 0x1F DUP5 ADD PUSH1 0x5 SHR DUP2 ADD SWAP3 PUSH1 0x20 DUP6 LT PUSH2 0x1CD9 JUMPI JUMPDEST PUSH1 0x1F ADD PUSH1 0x5 SHR ADD SWAP2 JUMPDEST DUP3 DUP2 LT PUSH2 0x1CCE JUMPI POP POP PUSH2 0x1BFA JUMP JUMPDEST DUP2 DUP2 SSTORE PUSH1 0x1 ADD PUSH2 0x1CC0 JUMP JUMPDEST SWAP1 SWAP3 POP DUP3 SWAP1 PUSH2 0x1CB7 JUMP JUMPDEST PUSH2 0x1CFB SWAP1 PUSH1 0x20 PUSH1 0x40 MLOAD SWAP3 DUP3 DUP5 DUP1 SWAP5 MLOAD SWAP4 DUP5 SWAP3 ADD PUSH2 0x1A93 JUMP JUMPDEST DUP2 ADD SUB SWAP1 KECCAK256 SWAP1 JUMP JUMPDEST ISZERO PUSH2 0x1D0A JUMPI JUMP JUMPDEST PUSH1 0x40 MLOAD PUSH3 0x461BCD PUSH1 0xE5 SHL DUP2 MSTORE PUSH1 0x20 PUSH1 0x4 DUP3 ADD MSTORE PUSH1 0x15 PUSH1 0x24 DUP3 ADD MSTORE PUSH21 0x56617269657479206973206E6F7420616374697665 PUSH1 0x58 SHL PUSH1 0x44 DUP3 ADD MSTORE PUSH1 0x64 SWAP1 REVERT JUMPDEST ISZERO PUSH2 0x1D4E JUMPI JUMP JUMPDEST PUSH1 0x40 MLOAD PUSH3 0x461BCD PUSH1 0xE5 SHL DUP2 MSTORE PUSH1 0x20 PUSH1 0x4 DUP3 ADD MSTORE PUSH1 0x18 PUSH1 0x24 DUP3 ADD MSTORE PUSH32 0x4C6F636174696F6E2063616E6E6F7420626520656D7074790000000000000000 PUSH1 0x44 DUP3 ADD MSTORE PUSH1 0x64 SWAP1 REVERT JUMPDEST PUSH1 0x4 DUP3 LT ISZERO PUSH2 0x13D3 JUMPI MSTORE JUMP JUMPDEST PUSH1 0x7 DUP3 LT ISZERO PUSH2 0x13D3 JUMPI MSTORE JUMP JUMPDEST SWAP1 PUSH1 0x7 DUP2 LT ISZERO PUSH2 0x13D3 JUMPI PUSH2 0xFF00 DUP3 SLOAD SWAP2 PUSH1 0x8 SHL AND SWAP1 PUSH2 0xFF00 NOT AND OR SWAP1 SSTORE JUMP JUMPDEST DUP1 SLOAD PUSH1 0x1 PUSH1 0x40 SHL DUP2 LT ISZERO PUSH2 0x137B JUMPI PUSH2 0x1DE7 SWAP2 PUSH1 0x1 DUP3 ADD DUP2 SSTORE PUSH2 0x1B61 JUMP JUMPDEST PUSH2 0x13A7 JUMPI DUP2 MLOAD SWAP2 PUSH1 0x7 DUP4 LT ISZERO PUSH2 0x13D3 JUMPI PUSH1 0x80 PUSH1 0x4 SWAP2 PUSH2 0x1A2B SWAP5 PUSH1 0xFF DUP1 NOT DUP7 SLOAD AND SWAP2 AND OR DUP5 SSTORE PUSH2 0x1E1D PUSH1 0x20 DUP3 ADD MLOAD PUSH1 0x1 DUP7 ADD PUSH2 0x1BD4 JUMP JUMPDEST PUSH1 0x40 DUP2 ADD MLOAD PUSH1 0x2 DUP6 ADD SSTORE PUSH1 0x3 DUP5 ADD PUSH1 0x1 DUP1 PUSH1 0xA0 SHL SUB PUSH1 0x60 DUP4 ADD MLOAD AND PUSH12 0xFFFFFFFFFFFFFFFFFFFFFFFF PUSH1 0xA0 SHL DUP3 SLOAD AND OR SWAP1 SSTORE ADD MLOAD SWAP2 ADD PUSH2 0x1BD4 JUMP JUMPDEST ISZERO PUSH2 0x1E5E JUMPI JUMP JUMPDEST PUSH1 0x40 MLOAD PUSH3 0x461BCD PUSH1 0xE5 SHL DUP2 MSTORE PUSH1 0x20 PUSH1 0x4 DUP3 ADD MSTORE PUSH1 0x14 PUSH1 0x24 DUP3 ADD MSTORE PUSH20 0x10985D18DA08191BD95CC81B9BDD08195E1A5CDD PUSH1 0x62 SHL PUSH1 0x44 DUP3 ADD MSTORE PUSH1 0x64 SWAP1 REVERT JUMPDEST PUSH1 0x1 PUSH1 0x1 PUSH1 0x40 SHL SUB DUP2 GT PUSH2 0x137B JUMPI PUSH1 0x5 SHL PUSH1 0x20 ADD SWAP1 JUMP INVALID LOG2 PUSH5 0x6970667358 0x22 SLT KECCAK256 0x21 0xFC PUSH6 0x8F76402A4FD 0xEE SWAP13 PC CODESIZE 0xF9 PUSH27 0xE3A4DE9FFE9C8BCF16400AB201850F9CAD64736F6C634300081400 CALLER "},"methodIdentifiers":{"addTrackingEvent(string,uint8,string,string)":"f5f09ed0","allBatchIds(uint256)":"290b17ec","authorizeHandler(address)":"f7e187e3","authorizedHandlers(address)":"afc221df","batchCount()":"06f13056","batchHistory(string,uint256)":"9b4bc927","batches(string)":"7ef1446a","deactivateVariety(string)":"2fc85ad4","getBatch(string)":"f9ca4274","getBatchHistory(string)":"a252d8a7","getProducerBatches(address)":"e69422be","getVariety(string)":"8b4db87f","minimallyRequiredQuantity()":"3031e0c3","owner()":"8da5cb5b","producerBatches(address,uint256)":"49eb1134","registerBatch(string,string,string,string,uint8,uint256,string)":"6c4bf3e5","registerVariety(string,string,bool)":"630f4180","registeredVarieties(string)":"6a8c4081","revokeHandler(address)":"c1544590","setMinQuantity(uint256)":"a78bc4d7","transferOwnership(address)":"f2fde38b"}}}}}