{"contracts/MangoRegistry.sol":{"MangoRegistry":{"abi":[{"inputs":[],"stateMutability":"nonpayable","type":"constructor"},{"anonymous":false,"inputs":[{"indexed":true,"internalType":"string","name":"batchId","type":"string"},{"indexed":false,"internalType":"uint256","name":"timestamp","type":"uint256"}],"name":"BatchDeactivated","type":"event"},{"anonymous":false,"inputs":[{"indexed":true,"internalType":"string","name":"batchId","type":"string"},{"indexed":true,"internalType":"address","name":"producer","type":"address"},{"indexed":false,"internalType":"string","name":"location","type":"string"},{"indexed":false,"internalType":"string","name":"quality","type":"string"},{"indexed":false,"internalType":"uint256","name":"timestamp","type":"uint256"}],"name":"BatchRegistered","type":"event"},{"inputs":[{"internalType":"uint256","name":"","type":"uint256"}],"name":"allBatchIds","outputs":[{"internalType":"string","name":"","type":"string"}],"stateMutability":"view","type":"function"},{"inputs":[{"internalType":"string","name":"","type":"string"}],"name":"batches","outputs":[{"internalType":"string","name":"batchId","type":"string"},{"internalType":"address","name":"producer","type":"address"},{"internalType":"string","name":"location","type":"string"},{"internalType":"string","name":"quality","type":"string"},{"internalType":"uint256","name":"timestamp","type":"uint256"},{"internalType":"bool","name":"exists","type":"bool"},{"internalType":"bool","name":"isActive","type":"bool"}],"stateMutability":"view","type":"function"},{"inputs":[{"internalType":"string","name":"_batchId","type":"string"}],"name":"deactivateBatch","outputs":[],"stateMutability":"nonpayable","type":"function"},{"inputs":[{"internalType":"string","name":"_batchId","type":"string"}],"name":"getBatch","outputs":[{"components":[{"internalType":"string","name":"batchId","type":"string"},{"internalType":"address","name":"producer","type":"address"},{"internalType":"string","name":"location","type":"string"},{"internalType":"string","name":"quality","type":"string"},{"internalType":"uint256","name":"timestamp","type":"uint256"},{"internalType":"bool","name":"exists","type":"bool"},{"internalType":"bool","name":"isActive","type":"bool"}],"internalType":"struct MangoRegistry.Batch","name":"","type":"tuple"}],"stateMutability":"view","type":"function"},{"inputs":[{"internalType":"address","name":"_producer","type":"address"}],"name":"getProducerBatches","outputs":[{"internalType":"string[]","name":"","type":"string[]"}],"stateMutability":"view","type":"function"},{"inputs":[],"name":"getTotalBatches","outputs":[{"internalType":"uint256","name":"","type":"uint256"}],"stateMutability":"view","type":"function"},{"inputs":[],"name":"owner","outputs":[{"internalType":"address","name":"","type":"address"}],"stateMutability":"view","type":"function"},{"inputs":[{"internalType":"address","name":"","type":"address"},{"internalType":"uint256","name":"","type":"uint256"}],"name":"producerBatches","outputs":[{"internalType":"string","name":"","type":"string"}],"stateMutability":"view","type":"function"},{"inputs":[{"internalType":"string","name":"_batchId","type":"string"},{"internalType":"string","name":"_location","type":"string"},{"internalType":"string","name":"_quality","type":"string"}],"name":"registerBatch","outputs":[],"stateMutability":"nonpayable","type":"function"},{"inputs":[{"internalType":"address","name":"_verificationContract","type":"address"}],"name":"setVerificationContract","outputs":[],"stateMutability":"nonpayable","type":"function"},{"inputs":[],"name":"verificationContract","outputs":[{"internalType":"contract IVerification","name":"","type":"address"}],"stateMutability":"view","type":"function"}],"evm":{"bytecode":{"linkReferences":{},"object":"6080806040523461002857600080546001600160a01b03191633179055610fed908161002e8239f35b600080fdfe6040608081526004908136101561001557600080fd5b600091823560e01c80631e0e5bc414610a87578063290b17ec14610a3857806349eb1134146109b65780637e2226611461098d5780637ef1446a1461089b5780638da5cb5b14610873578063ae32ef1614610401578063e561dddc146103e4578063e69422be146102e4578063f9ca42741461013a5763fb48d6be1461009a57600080fd5b34610136576020366003190112610136576100b3610e2e565b83546001600160a01b039391929190841633036100e8575050166bffffffffffffffffffffffff60a01b600154161760015580f35b906020608492519162461bcd60e51b8352820152602260248201527f4f6e6c79206f776e65722063616e20706572666f726d2074686973206163746960448201526137b760f11b6064820152fd5b8280fd5b508290346102e0576020928360031936011261013657813567ffffffffffffffff81116102dc5761016e9036908401610c7c565b81519361017a85610c28565b6060948581528187820152858482015285808201528160808201528160a082015260c00152848251918051928281818401956101b7818389610de6565b810160028152030190206005015460ff166101d190610f74565b8351809381925180926101e392610de6565b81016002815203019020918151936101fa85610c28565b61020384610d40565b855260018401546001600160a01b0390811687870190815290929061022a60028701610d40565b87860190815261023c60038801610d40565b928489019384528701549660808901978852600501549560a089019560ff88161515875260c08a019760081c60ff161515885281519a8b9a818c5251908b0160e090526101008b0161028d91610e09565b935116908901525190601f19938489830301908901526102ac91610e09565b9051918682030160808701526102c191610e09565b925160a085015251151560c084015251151560e08301520390f35b8380fd5b5080fd5b508290346102e05760209081600319360112610136576001600160a01b0361030a610e2e565b168352600382528383209182549167ffffffffffffffff83116103d15750929084519061033c858260051b0183610c5a565b8082528482018094845285842084915b8383106103ad57505050508451938085019181865251809252858501958260051b8601019392955b8287106103815785850386f35b90919293828061039d600193603f198a82030186528851610e09565b9601920196019592919092610374565b60018881926103bf859b98999b610d40565b8152019201920191909694939661034c565b634e487b7160e01b855260419052602484fd5b503461013657826003193601126101365760209250549051908152f35b50346101365760603660031901126101365767ffffffffffffffff813581811161086f576104329036908401610c7c565b90602491823582811161086b5761044c9036908601610c7c565b926044928335908111610867576104669036908701610c7c565b9460018060a01b03916001928181855416806107b1575b505088519585519060ff60056020998a81818c019661049d81838a610de6565b8101600281520301902001541661077957865115610738578851156106f7578951156106b65750899185918a8451926104d584610c28565b8984528a8401338152868501918d83526060860193845260808601944286528d8d60a089019a8a8c5260c08a019a8b52518093819251809261051692610de6565b81016002815203019020955161052c9087610e44565b8a86019151166bffffffffffffffffffffffff60a01b82541617905551600284019061055791610e44565b516105659060038401610e44565b5185820155600501915115159082549051151560081b61ff00169160ff169061ffff191617179055338952600385528789209283546801000000000000000094858210156106a457906105bc918382018155610cd8565b61069357856105ca91610e44565b82549384101561068157830180835583101561067057508261063a610661947fcd4ecfa93f4f41aab4a729a38c974ff4c6122bb04bc58d04f6f21e7115bc471a97969461063f948c527f8a35acfbc15ff81a39ae7d344fd709f28e8600b4aa8c65c6b64bfe7fe36bd19b01610e44565b610f54565b94610654875194606086526060860190610e09565b9184830390850152610e09565b9342908201528033940390a380f35b634e487b7160e01b89526032825288fd5b50634e487b7160e01b89526041825288fd5b634e487b7160e01b8b528a8452828bfd5b634e487b7160e01b8c5260418552838cfd5b847f5175616c6974792063616e6e6f7420626520656d7074790000000000000000006064926017878f8d90519562461bcd60e51b8752860152840152820152fd5b847f4c6f636174696f6e2063616e6e6f7420626520656d70747900000000000000006064926018878f8d90519562461bcd60e51b8752860152840152820152fd5b847f42617463682049442063616e6e6f7420626520656d70747900000000000000006064926018878f8d90519562461bcd60e51b8752860152840152820152fd5b8473426174636820616c72656164792065786973747360601b6064926014878f8d90519562461bcd60e51b8752860152840152820152fd5b6020908b519283809263b9209e3360e01b825233898301525afa90811561085d578b9161081f575b50156107e657813861047d565b885162461bcd60e51b815260208185015260158184015274141c9bd91d58d95c881b9bdd081d995c9a599a5959605a1b81880152606490fd5b90506020813d8211610855575b8161083960209383610c5a565b810103126108515751801515810361085157386107d9565b8a80fd5b3d915061082c565b8a513d8d823e3d90fd5b8780fd5b8680fd5b8480fd5b5050346102e057816003193601126102e057905490516001600160a01b039091168152602090f35b5090346101365760203660031901126101365781359267ffffffffffffffff841161098a575060ff6108ea60206108d861094b9636908701610c7c565b81855193828580945193849201610de6565b810160028152030190209161096b61090184610d40565b600185015490959061095d906001600160a01b031661092260028801610d40565b600561093060038a01610d40565b948901549801549580519a8b9a60e08c5260e08c0190610e09565b9260208b0152898303908a0152610e09565b908682036060880152610e09565b926080850152818116151560a085015260081c16151560c08301520390f35b80fd5b5050346102e057816003193601126102e05760015490516001600160a01b039091168152602090f35b50913461098a578160031936011261098a576109d0610e2e565b6001600160a01b0316815260036020528181208054602435919082101561013657906109fb91610cd8565b939093610a2657610a2283610a0f86610d40565b9051918291602083526020830190610e09565b0390f35b634e487b7160e01b8252819052602490fd5b50346101365760203660031901126101365780359080548210156102dc5790610a0f91610a2294527f8a35acfbc15ff81a39ae7d344fd709f28e8600b4aa8c65c6b64bfe7fe36bd19b01610d40565b503461013657602090816003193601126102dc57803567ffffffffffffffff811161086f57610ab99036908301610c7c565b90835190610aea60ff6005855194878181890197610ad881838b610de6565b81016002815203019020015416610f74565b845160018451610afb818487610de6565b820191600283528681838060a01b0394030190200154163303610be55760ff6005865186818751610b2d81838a610de6565b81016002815203019020015460081c1615610ba2575082916005610b807f8de0197ce4274f5d8e7ee0f9ea7861955e64cdd880f19842085ba7cef04bdc2295610b99948851809381928751928391610de6565b810160028152030190200161ff00198154169055610f54565b9251428152a280f35b845162461bcd60e51b8152908101849052601960248201527f426174636820616c7265616479206465616374697661746564000000000000006044820152606490fd5b845162461bcd60e51b8152908101849052601c60248201527f4f6e6c792070726f64756365722063616e2064656163746976617465000000006044820152606490fd5b60e0810190811067ffffffffffffffff821117610c4457604052565b634e487b7160e01b600052604160045260246000fd5b90601f8019910116810190811067ffffffffffffffff821117610c4457604052565b81601f82011215610cd35780359067ffffffffffffffff8211610c445760405192610cb1601f8401601f191660200185610c5a565b82845260208383010111610cd357816000926020809301838601378301015290565b600080fd5b8054821015610cf05760005260206000200190600090565b634e487b7160e01b600052603260045260246000fd5b90600182811c92168015610d36575b6020831014610d2057565b634e487b7160e01b600052602260045260246000fd5b91607f1691610d15565b9060405191826000825492610d5484610d06565b908184526001948581169081600014610dc35750600114610d80575b5050610d7e92500383610c5a565b565b9093915060005260209081600020936000915b818310610dab575050610d7e93508201013880610d70565b85548884018501529485019487945091830191610d93565b915050610d7e94506020925060ff191682840152151560051b8201013880610d70565b60005b838110610df95750506000910152565b8181015183820152602001610de9565b90602091610e2281518092818552858086019101610de6565b601f01601f1916010190565b600435906001600160a01b0382168203610cd357565b919091825167ffffffffffffffff8111610c4457610e628254610d06565b601f8111610f0c575b50602080601f8311600114610ea8575081929394600092610e9d575b50508160011b916000199060031b1c1916179055565b015190503880610e87565b90601f198316958460005282600020926000905b888210610ef457505083600195969710610edb575b505050811b019055565b015160001960f88460031b161c19169055388080610ed1565b80600185968294968601518155019501930190610ebc565b600083815260208120601f840160051c81019260208510610f4a575b601f0160051c01915b828110610f3f575050610e6b565b818155600101610f31565b9092508290610f28565b610f6c90602060405192828480945193849201610de6565b810103902090565b15610f7b57565b60405162461bcd60e51b815260206004820152601460248201527310985d18da08191bd95cc81b9bdd08195e1a5cdd60621b6044820152606490fdfea264697066735822122055e33627ac484a1747406d29392b0f5ddeb37c138332b32c33a148fff4ab249e64736f6c63430008140033","opcodes":"PUSH1 0x80 DUP1 PUSH1 0x40 MSTORE CALLVALUE PUSH2 0x28 JUMPI PUSH1 0x0 DUP1 SLOAD PUSH1 0x1 PUSH1 0x1 PUSH1 0xA0 SHL SUB NOT AND CALLER OR SWAP1 SSTORE PUSH2 0xFED SWAP1 DUP2 PUSH2 0x2E DUP3 CODECOPY RETURN JUMPDEST PUSH1 0x0 DUP1 REVERT INVALID PUSH1 0x40 PUSH1 0x80 DUP2 MSTORE PUSH1 0x4 SWAP1 DUP2 CALLDATASIZE LT ISZERO PUSH2 0x15 JUMPI PUSH1 0x0 DUP1 REVERT JUMPDEST PUSH1 0x0 SWAP2 DUP3 CALLDATALOAD PUSH1 0xE0 SHR DUP1 PUSH4 0x1E0E5BC4 EQ PUSH2 0xA87 JUMPI DUP1 PUSH4 0x290B17EC EQ PUSH2 0xA38 JUMPI DUP1 PUSH4 0x49EB1134 EQ PUSH2 0x9B6 JUMPI DUP1 PUSH4 0x7E222661 EQ PUSH2 0x98D JUMPI DUP1 PUSH4 0x7EF1446A EQ PUSH2 0x89B JUMPI DUP1 PUSH4 0x8DA5CB5B EQ PUSH2 0x873 JUMPI DUP1 PUSH4 0xAE32EF16 EQ PUSH2 0x401 JUMPI DUP1 PUSH4 0xE561DDDC EQ PUSH2 0x3E4 JUMPI DUP1 PUSH4 0xE69422BE EQ PUSH2 0x2E4 JUMPI DUP1 PUSH4 0xF9CA4274 EQ PUSH2 0x13A JUMPI PUSH4 0xFB48D6BE EQ PUSH2 0x9A JUMPI PUSH1 0x0 DUP1 REVERT JUMPDEST CALLVALUE PUSH2 0x136 JUMPI PUSH1 0x20 CALLDATASIZE PUSH1 0x3 NOT ADD SLT PUSH2 0x136 JUMPI PUSH2 0xB3 PUSH2 0xE2E JUMP JUMPDEST DUP4 SLOAD PUSH1 0x1 PUSH1 0x1 PUSH1 0xA0 SHL SUB SWAP4 SWAP2 SWAP3 SWAP2 SWAP1 DUP5 AND CALLER SUB PUSH2 0xE8 JUMPI POP POP AND PUSH12 0xFFFFFFFFFFFFFFFFFFFFFFFF PUSH1 0xA0 SHL PUSH1 0x1 SLOAD AND OR PUSH1 0x1 SSTORE DUP1 RETURN JUMPDEST SWAP1 PUSH1 0x20 PUSH1 0x84 SWAP3 MLOAD SWAP2 PUSH3 0x461BCD PUSH1 0xE5 SHL DUP4 MSTORE DUP3 ADD MSTORE PUSH1 0x22 PUSH1 0x24 DUP3 ADD MSTORE PUSH32 0x4F6E6C79206F776E65722063616E20706572666F726D20746869732061637469 PUSH1 0x44 DUP3 ADD MSTORE PUSH2 0x37B7 PUSH1 0xF1 SHL PUSH1 0x64 DUP3 ADD MSTORE REVERT JUMPDEST DUP3 DUP1 REVERT JUMPDEST POP DUP3 SWAP1 CALLVALUE PUSH2 0x2E0 JUMPI PUSH1 0x20 SWAP3 DUP4 PUSH1 0x3 NOT CALLDATASIZE ADD SLT PUSH2 0x136 JUMPI DUP2 CALLDATALOAD PUSH8 0xFFFFFFFFFFFFFFFF DUP2 GT PUSH2 0x2DC JUMPI PUSH2 0x16E SWAP1 CALLDATASIZE SWAP1 DUP5 ADD PUSH2 0xC7C JUMP JUMPDEST DUP2 MLOAD SWAP4 PUSH2 0x17A DUP6 PUSH2 0xC28 JUMP JUMPDEST PUSH1 0x60 SWAP5 DUP6 DUP2 MSTORE DUP2 DUP8 DUP3 ADD MSTORE DUP6 DUP5 DUP3 ADD MSTORE DUP6 DUP1 DUP3 ADD MSTORE DUP2 PUSH1 0x80 DUP3 ADD MSTORE DUP2 PUSH1 0xA0 DUP3 ADD MSTORE PUSH1 0xC0 ADD MSTORE DUP5 DUP3 MLOAD SWAP2 DUP1 MLOAD SWAP3 DUP3 DUP2 DUP2 DUP5 ADD SWAP6 PUSH2 0x1B7 DUP2 DUP4 DUP10 PUSH2 0xDE6 JUMP JUMPDEST DUP2 ADD PUSH1 0x2 DUP2 MSTORE SUB ADD SWAP1 KECCAK256 PUSH1 0x5 ADD SLOAD PUSH1 0xFF AND PUSH2 0x1D1 SWAP1 PUSH2 0xF74 JUMP JUMPDEST DUP4 MLOAD DUP1 SWAP4 DUP2 SWAP3 MLOAD DUP1 SWAP3 PUSH2 0x1E3 SWAP3 PUSH2 0xDE6 JUMP JUMPDEST DUP2 ADD PUSH1 0x2 DUP2 MSTORE SUB ADD SWAP1 KECCAK256 SWAP2 DUP2 MLOAD SWAP4 PUSH2 0x1FA DUP6 PUSH2 0xC28 JUMP JUMPDEST PUSH2 0x203 DUP5 PUSH2 0xD40 JUMP JUMPDEST DUP6 MSTORE PUSH1 0x1 DUP5 ADD SLOAD PUSH1 0x1 PUSH1 0x1 PUSH1 0xA0 SHL SUB SWAP1 DUP2 AND DUP8 DUP8 ADD SWAP1 DUP2 MSTORE SWAP1 SWAP3 SWAP1 PUSH2 0x22A PUSH1 0x2 DUP8 ADD PUSH2 0xD40 JUMP JUMPDEST DUP8 DUP7 ADD SWAP1 DUP2 MSTORE PUSH2 0x23C PUSH1 0x3 DUP9 ADD PUSH2 0xD40 JUMP JUMPDEST SWAP3 DUP5 DUP10 ADD SWAP4 DUP5 MSTORE DUP8 ADD SLOAD SWAP7 PUSH1 0x80 DUP10 ADD SWAP8 DUP9 MSTORE PUSH1 0x5 ADD SLOAD SWAP6 PUSH1 0xA0 DUP10 ADD SWAP6 PUSH1 0xFF DUP9 AND ISZERO ISZERO DUP8 MSTORE PUSH1 0xC0 DUP11 ADD SWAP8 PUSH1 0x8 SHR PUSH1 0xFF AND ISZERO ISZERO DUP9 MSTORE DUP2 MLOAD SWAP11 DUP12 SWAP11 DUP2 DUP13 MSTORE MLOAD SWAP1 DUP12 ADD PUSH1 0xE0 SWAP1 MSTORE PUSH2 0x100 DUP12 ADD PUSH2 0x28D SWAP2 PUSH2 0xE09 JUMP JUMPDEST SWAP4 MLOAD AND SWAP1 DUP10 ADD MSTORE MLOAD SWAP1 PUSH1 0x1F NOT SWAP4 DUP5 DUP10 DUP4 SUB ADD SWAP1 DUP10 ADD MSTORE PUSH2 0x2AC SWAP2 PUSH2 0xE09 JUMP JUMPDEST SWAP1 MLOAD SWAP2 DUP7 DUP3 SUB ADD PUSH1 0x80 DUP8 ADD MSTORE PUSH2 0x2C1 SWAP2 PUSH2 0xE09 JUMP JUMPDEST SWAP3 MLOAD PUSH1 0xA0 DUP6 ADD MSTORE MLOAD ISZERO ISZERO PUSH1 0xC0 DUP5 ADD MSTORE MLOAD ISZERO ISZERO PUSH1 0xE0 DUP4 ADD MSTORE SUB SWAP1 RETURN JUMPDEST DUP4 DUP1 REVERT JUMPDEST POP DUP1 REVERT JUMPDEST POP DUP3 SWAP1 CALLVALUE PUSH2 0x2E0 JUMPI PUSH1 0x20 SWAP1 DUP2 PUSH1 0x3 NOT CALLDATASIZE ADD SLT PUSH2 0x136 JUMPI PUSH1 0x1 PUSH1 0x1 PUSH1 0xA0 SHL SUB PUSH2 0x30A PUSH2 0xE2E JUMP JUMPDEST AND DUP4 MSTORE PUSH1 0x3 DUP3 MSTORE DUP4 DUP4 KECCAK256 SWAP2 DUP3 SLOAD SWAP2 PUSH8 0xFFFFFFFFFFFFFFFF DUP4 GT PUSH2 0x3D1 JUMPI POP SWAP3 SWAP1 DUP5 MLOAD SWAP1 PUSH2 0x33C DUP6 DUP3 PUSH1 0x5 SHL ADD DUP4 PUSH2 0xC5A JUMP JUMPDEST DUP1 DUP3 MSTORE DUP5 DUP3 ADD DUP1 SWAP5 DUP5 MSTORE DUP6 DUP5 KECCAK256 DUP5 SWAP2 JUMPDEST DUP4 DUP4 LT PUSH2 0x3AD JUMPI POP POP POP POP DUP5 MLOAD SWAP4 DUP1 DUP6 ADD SWAP2 DUP2 DUP7 MSTORE MLOAD DUP1 SWAP3 MSTORE DUP6 DUP6 ADD SWAP6 DUP3 PUSH1 0x5 SHL DUP7 ADD ADD SWAP4 SWAP3 SWAP6 JUMPDEST DUP3 DUP8 LT PUSH2 0x381 JUMPI DUP6 DUP6 SUB DUP7 RETURN JUMPDEST SWAP1 SWAP2 SWAP3 SWAP4 DUP3 DUP1 PUSH2 0x39D PUSH1 0x1 SWAP4 PUSH1 0x3F NOT DUP11 DUP3 SUB ADD DUP7 MSTORE DUP9 MLOAD PUSH2 0xE09 JUMP JUMPDEST SWAP7 ADD SWAP3 ADD SWAP7 ADD SWAP6 SWAP3 SWAP2 SWAP1 SWAP3 PUSH2 0x374 JUMP JUMPDEST PUSH1 0x1 DUP9 DUP2 SWAP3 PUSH2 0x3BF DUP6 SWAP12 SWAP9 SWAP10 SWAP12 PUSH2 0xD40 JUMP JUMPDEST DUP2 MSTORE ADD SWAP3 ADD SWAP3 ADD SWAP2 SWAP1 SWAP7 SWAP5 SWAP4 SWAP7 PUSH2 0x34C JUMP JUMPDEST PUSH4 0x4E487B71 PUSH1 0xE0 SHL DUP6 MSTORE PUSH1 0x41 SWAP1 MSTORE PUSH1 0x24 DUP5 REVERT JUMPDEST POP CALLVALUE PUSH2 0x136 JUMPI DUP3 PUSH1 0x3 NOT CALLDATASIZE ADD SLT PUSH2 0x136 JUMPI PUSH1 0x20 SWAP3 POP SLOAD SWAP1 MLOAD SWAP1 DUP2 MSTORE RETURN JUMPDEST POP CALLVALUE PUSH2 0x136 JUMPI PUSH1 0x60 CALLDATASIZE PUSH1 0x3 NOT ADD SLT PUSH2 0x136 JUMPI PUSH8 0xFFFFFFFFFFFFFFFF DUP2 CALLDATALOAD DUP2 DUP2 GT PUSH2 0x86F JUMPI PUSH2 0x432 SWAP1 CALLDATASIZE SWAP1 DUP5 ADD PUSH2 0xC7C JUMP JUMPDEST SWAP1 PUSH1 0x24 SWAP2 DUP3 CALLDATALOAD DUP3 DUP2 GT PUSH2 0x86B JUMPI PUSH2 0x44C SWAP1 CALLDATASIZE SWAP1 DUP7 ADD PUSH2 0xC7C JUMP JUMPDEST SWAP3 PUSH1 0x44 SWAP3 DUP4 CALLDATALOAD SWAP1 DUP2 GT PUSH2 0x867 JUMPI PUSH2 0x466 SWAP1 CALLDATASIZE SWAP1 DUP8 ADD PUSH2 0xC7C JUMP JUMPDEST SWAP5 PUSH1 0x1 DUP1 PUSH1 0xA0 SHL SUB SWAP2 PUSH1 0x1 SWAP3 DUP2 DUP2 DUP6 SLOAD AND DUP1 PUSH2 0x7B1 JUMPI JUMPDEST POP POP DUP9 MLOAD SWAP6 DUP6 MLOAD SWAP1 PUSH1 0xFF PUSH1 0x5 PUSH1 0x20 SWAP10 DUP11 DUP2 DUP2 DUP13 ADD SWAP7 PUSH2 0x49D DUP2 DUP4 DUP11 PUSH2 0xDE6 JUMP JUMPDEST DUP2 ADD PUSH1 0x2 DUP2 MSTORE SUB ADD SWAP1 KECCAK256 ADD SLOAD AND PUSH2 0x779 JUMPI DUP7 MLOAD ISZERO PUSH2 0x738 JUMPI DUP9 MLOAD ISZERO PUSH2 0x6F7 JUMPI DUP10 MLOAD ISZERO PUSH2 0x6B6 JUMPI POP DUP10 SWAP2 DUP6 SWAP2 DUP11 DUP5 MLOAD SWAP3 PUSH2 0x4D5 DUP5 PUSH2 0xC28 JUMP JUMPDEST DUP10 DUP5 MSTORE DUP11 DUP5 ADD CALLER DUP2 MSTORE DUP7 DUP6 ADD SWAP2 DUP14 DUP4 MSTORE PUSH1 0x60 DUP7 ADD SWAP4 DUP5 MSTORE PUSH1 0x80 DUP7 ADD SWAP5 TIMESTAMP DUP7 MSTORE DUP14 DUP14 PUSH1 0xA0 DUP10 ADD SWAP11 DUP11 DUP13 MSTORE PUSH1 0xC0 DUP11 ADD SWAP11 DUP12 MSTORE MLOAD DUP1 SWAP4 DUP2 SWAP3 MLOAD DUP1 SWAP3 PUSH2 0x516 SWAP3 PUSH2 0xDE6 JUMP JUMPDEST DUP2 ADD PUSH1 0x2 DUP2 MSTORE SUB ADD SWAP1 KECCAK256 SWAP6 MLOAD PUSH2 0x52C SWAP1 DUP8 PUSH2 0xE44 JUMP JUMPDEST DUP11 DUP7 ADD SWAP2 MLOAD AND PUSH12 0xFFFFFFFFFFFFFFFFFFFFFFFF PUSH1 0xA0 SHL DUP3 SLOAD AND OR SWAP1 SSTORE MLOAD PUSH1 0x2 DUP5 ADD SWAP1 PUSH2 0x557 SWAP2 PUSH2 0xE44 JUMP JUMPDEST MLOAD PUSH2 0x565 SWAP1 PUSH1 0x3 DUP5 ADD PUSH2 0xE44 JUMP JUMPDEST MLOAD DUP6 DUP3 ADD SSTORE PUSH1 0x5 ADD SWAP2 MLOAD ISZERO ISZERO SWAP1 DUP3 SLOAD SWAP1 MLOAD ISZERO ISZERO PUSH1 0x8 SHL PUSH2 0xFF00 AND SWAP2 PUSH1 0xFF AND SWAP1 PUSH2 0xFFFF NOT AND OR OR SWAP1 SSTORE CALLER DUP10 MSTORE PUSH1 0x3 DUP6 MSTORE DUP8 DUP10 KECCAK256 SWAP3 DUP4 SLOAD PUSH9 0x10000000000000000 SWAP5 DUP6 DUP3 LT ISZERO PUSH2 0x6A4 JUMPI SWAP1 PUSH2 0x5BC SWAP2 DUP4 DUP3 ADD DUP2 SSTORE PUSH2 0xCD8 JUMP JUMPDEST PUSH2 0x693 JUMPI DUP6 PUSH2 0x5CA SWAP2 PUSH2 0xE44 JUMP JUMPDEST DUP3 SLOAD SWAP4 DUP5 LT ISZERO PUSH2 0x681 JUMPI DUP4 ADD DUP1 DUP4 SSTORE DUP4 LT ISZERO PUSH2 0x670 JUMPI POP DUP3 PUSH2 0x63A PUSH2 0x661 SWAP5 PUSH32 0xCD4ECFA93F4F41AAB4A729A38C974FF4C6122BB04BC58D04F6F21E7115BC471A SWAP8 SWAP7 SWAP5 PUSH2 0x63F SWAP5 DUP13 MSTORE PUSH32 0x8A35ACFBC15FF81A39AE7D344FD709F28E8600B4AA8C65C6B64BFE7FE36BD19B ADD PUSH2 0xE44 JUMP JUMPDEST PUSH2 0xF54 JUMP JUMPDEST SWAP5 PUSH2 0x654 DUP8 MLOAD SWAP5 PUSH1 0x60 DUP7 MSTORE PUSH1 0x60 DUP7 ADD SWAP1 PUSH2 0xE09 JUMP JUMPDEST SWAP2 DUP5 DUP4 SUB SWAP1 DUP6 ADD MSTORE PUSH2 0xE09 JUMP JUMPDEST SWAP4 TIMESTAMP SWAP1 DUP3 ADD MSTORE DUP1 CALLER SWAP5 SUB SWAP1 LOG3 DUP1 RETURN JUMPDEST PUSH4 0x4E487B71 PUSH1 0xE0 SHL DUP10 MSTORE PUSH1 0x32 DUP3 MSTORE DUP9 REVERT JUMPDEST POP PUSH4 0x4E487B71 PUSH1 0xE0 SHL DUP10 MSTORE PUSH1 0x41 DUP3 MSTORE DUP9 REVERT JUMPDEST PUSH4 0x4E487B71 PUSH1 0xE0 SHL DUP12 MSTORE DUP11 DUP5 MSTORE DUP3 DUP12 REVERT JUMPDEST PUSH4 0x4E487B71 PUSH1 0xE0 SHL DUP13 MSTORE PUSH1 0x41 DUP6 MSTORE DUP4 DUP13 REVERT JUMPDEST DUP5 PUSH32 0x5175616C6974792063616E6E6F7420626520656D707479000000000000000000 PUSH1 0x64 SWAP3 PUSH1 0x17 DUP8 DUP16 DUP14 SWAP1 MLOAD SWAP6 PUSH3 0x461BCD PUSH1 0xE5 SHL DUP8 MSTORE DUP7 ADD MSTORE DUP5 ADD MSTORE DUP3 ADD MSTORE REVERT JUMPDEST DUP5 PUSH32 0x4C6F636174696F6E2063616E6E6F7420626520656D7074790000000000000000 PUSH1 0x64 SWAP3 PUSH1 0x18 DUP8 DUP16 DUP14 SWAP1 MLOAD SWAP6 PUSH3 0x461BCD PUSH1 0xE5 SHL DUP8 MSTORE DUP7 ADD MSTORE DUP5 ADD MSTORE DUP3 ADD MSTORE REVERT JUMPDEST DUP5 PUSH32 0x42617463682049442063616E6E6F7420626520656D7074790000000000000000 PUSH1 0x64 SWAP3 PUSH1 0x18 DUP8 DUP16 DUP14 SWAP1 MLOAD SWAP6 PUSH3 0x461BCD PUSH1 0xE5 SHL DUP8 MSTORE DUP7 ADD MSTORE DUP5 ADD MSTORE DUP3 ADD MSTORE REVERT JUMPDEST DUP5 PUSH20 0x426174636820616C726561647920657869737473 PUSH1 0x60 SHL PUSH1 0x64 SWAP3 PUSH1 0x14 DUP8 DUP16 DUP14 SWAP1 MLOAD SWAP6 PUSH3 0x461BCD PUSH1 0xE5 SHL DUP8 MSTORE DUP7 ADD MSTORE DUP5 ADD MSTORE DUP3 ADD MSTORE REVERT JUMPDEST PUSH1 0x20 SWAP1 DUP12 MLOAD SWAP3 DUP4 DUP1 SWAP3 PUSH4 0xB9209E33 PUSH1 0xE0 SHL DUP3 MSTORE CALLER DUP10 DUP4 ADD MSTORE GAS STATICCALL SWAP1 DUP2 ISZERO PUSH2 0x85D JUMPI DUP12 SWAP2 PUSH2 0x81F JUMPI JUMPDEST POP ISZERO PUSH2 0x7E6 JUMPI DUP2 CODESIZE PUSH2 0x47D JUMP JUMPDEST DUP9 MLOAD PUSH3 0x461BCD PUSH1 0xE5 SHL DUP2 MSTORE PUSH1 0x20 DUP2 DUP6 ADD MSTORE PUSH1 0x15 DUP2 DUP5 ADD MSTORE PUSH21 0x141C9BD91D58D95C881B9BDD081D995C9A599A5959 PUSH1 0x5A SHL DUP2 DUP9 ADD MSTORE PUSH1 0x64 SWAP1 REVERT JUMPDEST SWAP1 POP PUSH1 0x20 DUP2 RETURNDATASIZE DUP3 GT PUSH2 0x855 JUMPI JUMPDEST DUP2 PUSH2 0x839 PUSH1 0x20 SWAP4 DUP4 PUSH2 0xC5A JUMP JUMPDEST DUP2 ADD SUB SLT PUSH2 0x851 JUMPI MLOAD DUP1 ISZERO ISZERO DUP2 SUB PUSH2 0x851 JUMPI CODESIZE PUSH2 0x7D9 JUMP JUMPDEST DUP11 DUP1 REVERT JUMPDEST RETURNDATASIZE SWAP2 POP PUSH2 0x82C JUMP JUMPDEST DUP11 MLOAD RETURNDATASIZE DUP14 DUP3 RETURNDATACOPY RETURNDATASIZE SWAP1 REVERT JUMPDEST DUP8 DUP1 REVERT JUMPDEST DUP7 DUP1 REVERT JUMPDEST DUP5 DUP1 REVERT JUMPDEST POP POP CALLVALUE PUSH2 0x2E0 JUMPI DUP2 PUSH1 0x3 NOT CALLDATASIZE ADD SLT PUSH2 0x2E0 JUMPI SWAP1 SLOAD SWAP1 MLOAD PUSH1 0x1 PUSH1 0x1 PUSH1 0xA0 SHL SUB SWAP1 SWAP2 AND DUP2 MSTORE PUSH1 0x20 SWAP1 RETURN JUMPDEST POP SWAP1 CALLVALUE PUSH2 0x136 JUMPI PUSH1 0x20 CALLDATASIZE PUSH1 0x3 NOT ADD SLT PUSH2 0x136 JUMPI DUP2 CALLDATALOAD SWAP3 PUSH8 0xFFFFFFFFFFFFFFFF DUP5 GT PUSH2 0x98A JUMPI POP PUSH1 0xFF PUSH2 0x8EA PUSH1 0x20 PUSH2 0x8D8 PUSH2 0x94B SWAP7 CALLDATASIZE SWAP1 DUP8 ADD PUSH2 0xC7C JUMP JUMPDEST DUP2 DUP6 MLOAD SWAP4 DUP3 DUP6 DUP1 SWAP5 MLOAD SWAP4 DUP5 SWAP3 ADD PUSH2 0xDE6 JUMP JUMPDEST DUP2 ADD PUSH1 0x2 DUP2 MSTORE SUB ADD SWAP1 KECCAK256 SWAP2 PUSH2 0x96B PUSH2 0x901 DUP5 PUSH2 0xD40 JUMP JUMPDEST PUSH1 0x1 DUP6 ADD SLOAD SWAP1 SWAP6 SWAP1 PUSH2 0x95D SWAP1 PUSH1 0x1 PUSH1 0x1 PUSH1 0xA0 SHL SUB AND PUSH2 0x922 PUSH1 0x2 DUP9 ADD PUSH2 0xD40 JUMP JUMPDEST PUSH1 0x5 PUSH2 0x930 PUSH1 0x3 DUP11 ADD PUSH2 0xD40 JUMP JUMPDEST SWAP5 DUP10 ADD SLOAD SWAP9 ADD SLOAD SWAP6 DUP1 MLOAD SWAP11 DUP12 SWAP11 PUSH1 0xE0 DUP13 MSTORE PUSH1 0xE0 DUP13 ADD SWAP1 PUSH2 0xE09 JUMP JUMPDEST SWAP3 PUSH1 0x20 DUP12 ADD MSTORE DUP10 DUP4 SUB SWAP1 DUP11 ADD MSTORE PUSH2 0xE09 JUMP JUMPDEST SWAP1 DUP7 DUP3 SUB PUSH1 0x60 DUP9 ADD MSTORE PUSH2 0xE09 JUMP JUMPDEST SWAP3 PUSH1 0x80 DUP6 ADD MSTORE DUP2 DUP2 AND ISZERO ISZERO PUSH1 0xA0 DUP6 ADD MSTORE PUSH1 0x8 SHR AND ISZERO ISZERO PUSH1 0xC0 DUP4 ADD MSTORE SUB SWAP1 RETURN JUMPDEST DUP1 REVERT JUMPDEST POP POP CALLVALUE PUSH2 0x2E0 JUMPI DUP2 PUSH1 0x3 NOT CALLDATASIZE ADD SLT PUSH2 0x2E0 JUMPI PUSH1 0x1 SLOAD SWAP1 MLOAD PUSH1 0x1 PUSH1 0x1 PUSH1 0xA0 SHL SUB SWAP1 SWAP2 AND DUP2 MSTORE PUSH1 0x20 SWAP1 RETURN JUMPDEST POP SWAP2 CALLVALUE PUSH2 0x98A JUMPI DUP2 PUSH1 0x3 NOT CALLDATASIZE ADD SLT PUSH2 0x98A JUMPI PUSH2 0x9D0 PUSH2 0xE2E JUMP JUMPDEST PUSH1 0x1 PUSH1 0x1 PUSH1 0xA0 SHL SUB AND DUP2 MSTORE PUSH1 0x3 PUSH1 0x20 MSTORE DUP2 DUP2 KECCAK256 DUP1 SLOAD PUSH1 0x24 CALLDATALOAD SWAP2 SWAP1 DUP3 LT ISZERO PUSH2 0x136 JUMPI SWAP1 PUSH2 0x9FB SWAP2 PUSH2 0xCD8 JUMP JUMPDEST SWAP4 SWAP1 SWAP4 PUSH2 0xA26 JUMPI PUSH2 0xA22 DUP4 PUSH2 0xA0F DUP7 PUSH2 0xD40 JUMP JUMPDEST SWAP1 MLOAD SWAP2 DUP3 SWAP2 PUSH1 0x20 DUP4 MSTORE PUSH1 0x20 DUP4 ADD SWAP1 PUSH2 0xE09 JUMP JUMPDEST SUB SWAP1 RETURN JUMPDEST PUSH4 0x4E487B71 PUSH1 0xE0 SHL DUP3 MSTORE DUP2 SWAP1 MSTORE PUSH1 0x24 SWAP1 REVERT JUMPDEST POP CALLVALUE PUSH2 0x136 JUMPI PUSH1 0x20 CALLDATASIZE PUSH1 0x3 NOT ADD SLT PUSH2 0x136 JUMPI DUP1 CALLDATALOAD SWAP1 DUP1 SLOAD DUP3 LT ISZERO PUSH2 0x2DC JUMPI SWAP1 PUSH2 0xA0F SWAP2 PUSH2 0xA22 SWAP5 MSTORE PUSH32 0x8A35ACFBC15FF81A39AE7D344FD709F28E8600B4AA8C65C6B64BFE7FE36BD19B ADD PUSH2 0xD40 JUMP JUMPDEST POP CALLVALUE PUSH2 0x136 JUMPI PUSH1 0x20 SWAP1 DUP2 PUSH1 0x3 NOT CALLDATASIZE ADD SLT PUSH2 0x2DC JUMPI DUP1 CALLDATALOAD PUSH8 0xFFFFFFFFFFFFFFFF DUP2 GT PUSH2 0x86F JUMPI PUSH2 0xAB9 SWAP1 CALLDATASIZE SWAP1 DUP4 ADD PUSH2 0xC7C JUMP JUMPDEST SWAP1 DUP4 MLOAD SWAP1 PUSH2 0xAEA PUSH1 0xFF PUSH1 0x5 DUP6 MLOAD SWAP5 DUP8 DUP2 DUP2 DUP10 ADD SWAP8 PUSH2 0xAD8 DUP2 DUP4 DUP12 PUSH2 0xDE6 JUMP JUMPDEST DUP2 ADD PUSH1 0x2 DUP2 MSTORE SUB ADD SWAP1 KECCAK256 ADD SLOAD AND PUSH2 0xF74 JUMP JUMPDEST DUP5 MLOAD PUSH1 0x1 DUP5 MLOAD PUSH2 0xAFB DUP2 DUP5 DUP8 PUSH2 0xDE6 JUMP JUMPDEST DUP3 ADD SWAP2 PUSH1 0x2 DUP4 MSTORE DUP7 DUP2 DUP4 DUP1 PUSH1 0xA0 SHL SUB SWAP5 SUB ADD SWAP1 KECCAK256 ADD SLOAD AND CALLER SUB PUSH2 0xBE5 JUMPI PUSH1 0xFF PUSH1 0x5 DUP7 MLOAD DUP7 DUP2 DUP8 MLOAD PUSH2 0xB2D DUP2 DUP4 DUP11 PUSH2 0xDE6 JUMP JUMPDEST DUP2 ADD PUSH1 0x2 DUP2 MSTORE SUB ADD SWAP1 KECCAK256 ADD SLOAD PUSH1 0x8 SHR AND ISZERO PUSH2 0xBA2 JUMPI POP DUP3 SWAP2 PUSH1 0x5 PUSH2 0xB80 PUSH32 0x8DE0197CE4274F5D8E7EE0F9EA7861955E64CDD880F19842085BA7CEF04BDC22 SWAP6 PUSH2 0xB99 SWAP5 DUP9 MLOAD DUP1 SWAP4 DUP2 SWAP3 DUP8 MLOAD SWAP3 DUP4 SWAP2 PUSH2 0xDE6 JUMP JUMPDEST DUP2 ADD PUSH1 0x2 DUP2 MSTORE SUB ADD SWAP1 KECCAK256 ADD PUSH2 0xFF00 NOT DUP2 SLOAD AND SWAP1 SSTORE PUSH2 0xF54 JUMP JUMPDEST SWAP3 MLOAD TIMESTAMP DUP2 MSTORE LOG2 DUP1 RETURN JUMPDEST DUP5 MLOAD PUSH3 0x461BCD PUSH1 0xE5 SHL DUP2 MSTORE SWAP1 DUP2 ADD DUP5 SWAP1 MSTORE PUSH1 0x19 PUSH1 0x24 DUP3 ADD MSTORE PUSH32 0x426174636820616C726561647920646561637469766174656400000000000000 PUSH1 0x44 DUP3 ADD MSTORE PUSH1 0x64 SWAP1 REVERT JUMPDEST DUP5 MLOAD PUSH3 0x461BCD PUSH1 0xE5 SHL DUP2 MSTORE SWAP1 DUP2 ADD DUP5 SWAP1 MSTORE PUSH1 0x1C PUSH1 0x24 DUP3 ADD MSTORE PUSH32 0x4F6E6C792070726F64756365722063616E206465616374697661746500000000 PUSH1 0x44 DUP3 ADD MSTORE PUSH1 0x64 SWAP1 REVERT JUMPDEST PUSH1 0xE0 DUP2 ADD SWAP1 DUP2 LT PUSH8 0xFFFFFFFFFFFFFFFF DUP3 GT OR PUSH2 0xC44 JUMPI PUSH1 0x40 MSTORE JUMP JUMPDEST PUSH4 0x4E487B71 PUSH1 0xE0 SHL PUSH1 0x0 MSTORE PUSH1 0x41 PUSH1 0x4 MSTORE PUSH1 0x24 PUSH1 0x0 REVERT JUMPDEST SWAP1 PUSH1 0x1F DUP1 NOT SWAP2 ADD AND DUP2 ADD SWAP1 DUP2 LT PUSH8 0xFFFFFFFFFFFFFFFF DUP3 GT OR PUSH2 0xC44 JUMPI PUSH1 0x40 MSTORE JUMP JUMPDEST DUP2 PUSH1 0x1F DUP3 ADD SLT ISZERO PUSH2 0xCD3 JUMPI DUP1 CALLDATALOAD SWAP1 PUSH8 0xFFFFFFFFFFFFFFFF DUP3 GT PUSH2 0xC44 JUMPI PUSH1 0x40 MLOAD SWAP3 PUSH2 0xCB1 PUSH1 0x1F DUP5 ADD PUSH1 0x1F NOT AND PUSH1 0x20 ADD DUP6 PUSH2 0xC5A JUMP JUMPDEST DUP3 DUP5 MSTORE PUSH1 0x20 DUP4 DUP4 ADD ADD GT PUSH2 0xCD3 JUMPI DUP2 PUSH1 0x0 SWAP3 PUSH1 0x20 DUP1 SWAP4 ADD DUP4 DUP7 ADD CALLDATACOPY DUP4 ADD ADD MSTORE SWAP1 JUMP JUMPDEST PUSH1 0x0 DUP1 REVERT JUMPDEST DUP1 SLOAD DUP3 LT ISZERO PUSH2 0xCF0 JUMPI PUSH1 0x0 MSTORE PUSH1 0x20 PUSH1 0x0 KECCAK256 ADD SWAP1 PUSH1 0x0 SWAP1 JUMP JUMPDEST PUSH4 0x4E487B71 PUSH1 0xE0 SHL PUSH1 0x0 MSTORE PUSH1 0x32 PUSH1 0x4 MSTORE PUSH1 0x24 PUSH1 0x0 REVERT JUMPDEST SWAP1 PUSH1 0x1 DUP3 DUP2 SHR SWAP3 AND DUP1 ISZERO PUSH2 0xD36 JUMPI JUMPDEST PUSH1 0x20 DUP4 LT EQ PUSH2 0xD20 JUMPI JUMP JUMPDEST PUSH4 0x4E487B71 PUSH1 0xE0 SHL PUSH1 0x0 MSTORE PUSH1 0x22 PUSH1 0x4 MSTORE PUSH1 0x24 PUSH1 0x0 REVERT JUMPDEST SWAP2 PUSH1 0x7F AND SWAP2 PUSH2 0xD15 JUMP JUMPDEST SWAP1 PUSH1 0x40 MLOAD SWAP2 DUP3 PUSH1 0x0 DUP3 SLOAD SWAP3 PUSH2 0xD54 DUP5 PUSH2 0xD06 JUMP JUMPDEST SWAP1 DUP2 DUP5 MSTORE PUSH1 0x1 SWAP5 DUP6 DUP2 AND SWAP1 DUP2 PUSH1 0x0 EQ PUSH2 0xDC3 JUMPI POP PUSH1 0x1 EQ PUSH2 0xD80 JUMPI JUMPDEST POP POP PUSH2 0xD7E SWAP3 POP SUB DUP4 PUSH2 0xC5A JUMP JUMPDEST JUMP JUMPDEST SWAP1 SWAP4 SWAP2 POP PUSH1 0x0 MSTORE PUSH1 0x20 SWAP1 DUP2 PUSH1 0x0 KECCAK256 SWAP4 PUSH1 0x0 SWAP2 JUMPDEST DUP2 DUP4 LT PUSH2 0xDAB JUMPI POP POP PUSH2 0xD7E SWAP4 POP DUP3 ADD ADD CODESIZE DUP1 PUSH2 0xD70 JUMP JUMPDEST DUP6 SLOAD DUP9 DUP5 ADD DUP6 ADD MSTORE SWAP5 DUP6 ADD SWAP5 DUP8 SWAP5 POP SWAP2 DUP4 ADD SWAP2 PUSH2 0xD93 JUMP JUMPDEST SWAP2 POP POP PUSH2 0xD7E SWAP5 POP PUSH1 0x20 SWAP3 POP PUSH1 0xFF NOT AND DUP3 DUP5 ADD MSTORE ISZERO ISZERO PUSH1 0x5 SHL DUP3 ADD ADD CODESIZE DUP1 PUSH2 0xD70 JUMP JUMPDEST PUSH1 0x0 JUMPDEST DUP4 DUP2 LT PUSH2 0xDF9 JUMPI POP POP PUSH1 0x0 SWAP2 ADD MSTORE JUMP JUMPDEST DUP2 DUP2 ADD MLOAD DUP4 DUP3 ADD MSTORE PUSH1 0x20 ADD PUSH2 0xDE9 JUMP JUMPDEST SWAP1 PUSH1 0x20 SWAP2 PUSH2 0xE22 DUP2 MLOAD DUP1 SWAP3 DUP2 DUP6 MSTORE DUP6 DUP1 DUP7 ADD SWAP2 ADD PUSH2 0xDE6 JUMP JUMPDEST PUSH1 0x1F ADD PUSH1 0x1F NOT AND ADD ADD SWAP1 JUMP JUMPDEST PUSH1 0x4 CALLDATALOAD SWAP1 PUSH1 0x1 PUSH1 0x1 PUSH1 0xA0 SHL SUB DUP3 AND DUP3 SUB PUSH2 0xCD3 JUMPI JUMP JUMPDEST SWAP2 SWAP1 SWAP2 DUP3 MLOAD PUSH8 0xFFFFFFFFFFFFFFFF DUP2 GT PUSH2 0xC44 JUMPI PUSH2 0xE62 DUP3 SLOAD PUSH2 0xD06 JUMP JUMPDEST PUSH1 0x1F DUP2 GT PUSH2 0xF0C JUMPI JUMPDEST POP PUSH1 0x20 DUP1 PUSH1 0x1F DUP4 GT PUSH1 0x1 EQ PUSH2 0xEA8 JUMPI POP DUP2 SWAP3 SWAP4 SWAP5 PUSH1 0x0 SWAP3 PUSH2 0xE9D JUMPI JUMPDEST POP POP DUP2 PUSH1 0x1 SHL SWAP2 PUSH1 0x0 NOT SWAP1 PUSH1 0x3 SHL SHR NOT AND OR SWAP1 SSTORE JUMP JUMPDEST ADD MLOAD SWAP1 POP CODESIZE DUP1 PUSH2 0xE87 JUMP JUMPDEST SWAP1 PUSH1 0x1F NOT DUP4 AND SWAP6 DUP5 PUSH1 0x0 MSTORE DUP3 PUSH1 0x0 KECCAK256 SWAP3 PUSH1 0x0 SWAP1 JUMPDEST DUP9 DUP3 LT PUSH2 0xEF4 JUMPI POP POP DUP4 PUSH1 0x1 SWAP6 SWAP7 SWAP8 LT PUSH2 0xEDB JUMPI JUMPDEST POP POP POP DUP2 SHL ADD SWAP1 SSTORE JUMP JUMPDEST ADD MLOAD PUSH1 0x0 NOT PUSH1 0xF8 DUP5 PUSH1 0x3 SHL AND SHR NOT AND SWAP1 SSTORE CODESIZE DUP1 DUP1 PUSH2 0xED1 JUMP JUMPDEST DUP1 PUSH1 0x1 DUP6 SWAP7 DUP3 SWAP5 SWAP7 DUP7 ADD MLOAD DUP2 SSTORE ADD SWAP6 ADD SWAP4 ADD SWAP1 PUSH2 0xEBC JUMP JUMPDEST PUSH1 0x0 DUP4 DUP2 MSTORE PUSH1 0x20 DUP2 KECCAK256 PUSH1 0x1F DUP5 ADD PUSH1 0x5 SHR DUP2 ADD SWAP3 PUSH1 0x20 DUP6 LT PUSH2 0xF4A JUMPI JUMPDEST PUSH1 0x1F ADD PUSH1 0x5 SHR ADD SWAP2 JUMPDEST DUP3 DUP2 LT PUSH2 0xF3F JUMPI POP POP PUSH2 0xE6B JUMP JUMPDEST DUP2 DUP2 SSTORE PUSH1 0x1 ADD PUSH2 0xF31 JUMP JUMPDEST SWAP1 SWAP3 POP DUP3 SWAP1 PUSH2 0xF28 JUMP JUMPDEST PUSH2 0xF6C SWAP1 PUSH1 0x20 PUSH1 0x40 MLOAD SWAP3 DUP3 DUP5 DUP1 SWAP5 MLOAD SWAP4 DUP5 SWAP3 ADD PUSH2 0xDE6 JUMP JUMPDEST DUP2 ADD SUB SWAP1 KECCAK256 SWAP1 JUMP JUMPDEST ISZERO PUSH2 0xF7B JUMPI JUMP JUMPDEST PUSH1 0x40 MLOAD PUSH3 0x461BCD PUSH1 0xE5 SHL DUP2 MSTORE PUSH1 0x20 PUSH1 0x4 DUP3 ADD MSTORE PUSH1 0x14 PUSH1 0x24 DUP3 ADD MSTORE PUSH20 0x10985D18DA08191BD95CC81B9BDD08195E1A5CDD PUSH1 0x62 SHL PUSH1 0x44 DUP3 ADD MSTORE PUSH1 0x64 SWAP1 REVERT INVALID LOG2 PUSH5 0x6970667358 0x22 SLT KECCAK256 SSTORE 0xE3 CALLDATASIZE 0x27 0xAC BASEFEE 0x4A OR SELFBALANCE BLOCKHASH PUSH14 0x29392B0F5DDEB37C138332B32C33 LOG1 BASEFEE SELFDESTRUCT DELEGATECALL 0xAB 0x24 SWAP15 PUSH5 0x736F6C6343 STOP ADDMOD EQ STOP CALLER "},"methodIdentifiers":{"allBatchIds(uint256)":"290b17ec","batches(string)":"7ef1446a","deactivateBatch(string)":"1e0e5bc4","getBatch(string)":"f9ca4274","getProducerBatches(address)":"e69422be","getTotalBatches()":"e561dddc","owner()":"8da5cb5b","producerBatches(address,uint256)":"49eb1134","registerBatch(string,string,string)":"ae32ef16","setVerificationContract(address)":"fb48d6be","verificationContract()":"7e222661"}}}}}