{
  "_format": "hh-sol-artifact-1",
  "contractName": "MangoRegistry",
  "sourceName": "contracts/MangoRegistry.sol",
  "abi": [
    {
      "inputs": [],
      "stateMutability": "nonpayable",
      "type": "constructor"
    },
    {
      "anonymous": false,
      "inputs": [
        {
          "indexed": true,
          "internalType": "string",
          "name": "batchId",
          "type": "string"
        },
        {
          "indexed": false,
          "internalType": "uint256",
          "name": "timestamp",
          "type": "uint256"
        }
      ],
      "name": "BatchDeactivated",
      "type": "event"
    },
    {
      "anonymous": false,
      "inputs": [
        {
          "indexed": true,
          "internalType": "string",
          "name": "batchId",
          "type": "string"
        },
        {
          "indexed": true,
          "internalType": "address",
          "name": "producer",
          "type": "address"
        },
        {
          "indexed": false,
          "internalType": "string",
          "name": "location",
          "type": "string"
        },
        {
          "indexed": false,
          "internalType": "string",
          "name": "quality",
          "type": "string"
        },
        {
          "indexed": false,
          "internalType": "uint256",
          "name": "timestamp",
          "type": "uint256"
        }
      ],
      "name": "BatchRegistered",
      "type": "event"
    },
    {
      "inputs": [
        {
          "internalType": "uint256",
          "name": "",
          "type": "uint256"
        }
      ],
      "name": "allBatchIds",
      "outputs": [
        {
          "internalType": "string",
          "name": "",
          "type": "string"
        }
      ],
      "stateMutability": "view",
      "type": "function"
    },
    {
      "inputs": [
        {
          "internalType": "string",
          "name": "",
          "type": "string"
        }
      ],
      "name": "batches",
      "outputs": [
        {
          "internalType": "string",
          "name": "batchId",
          "type": "string"
        },
        {
          "internalType": "address",
          "name": "producer",
          "type": "address"
        },
        {
          "internalType": "string",
          "name": "location",
          "type": "string"
        },
        {
          "internalType": "string",
          "name": "quality",
          "type": "string"
        },
        {
          "internalType": "uint256",
          "name": "timestamp",
          "type": "uint256"
        },
        {
          "internalType": "bool",
          "name": "exists",
          "type": "bool"
        },
        {
          "internalType": "bool",
          "name": "isActive",
          "type": "bool"
        }
      ],
      "stateMutability": "view",
      "type": "function"
    },
    {
      "inputs": [
        {
          "internalType": "string",
          "name": "_batchId",
          "type": "string"
        }
      ],
      "name": "deactivateBatch",
      "outputs": [],
      "stateMutability": "nonpayable",
      "type": "function"
    },
    {
      "inputs": [
        {
          "internalType": "string",
          "name": "_batchId",
          "type": "string"
        }
      ],
      "name": "getBatch",
      "outputs": [
        {
          "components": [
            {
              "internalType": "string",
              "name": "batchId",
              "type": "string"
            },
            {
              "internalType": "address",
              "name": "producer",
              "type": "address"
            },
            {
              "internalType": "string",
              "name": "location",
              "type": "string"
            },
            {
              "internalType": "string",
              "name": "quality",
              "type": "string"
            },
            {
              "internalType": "uint256",
              "name": "timestamp",
              "type": "uint256"
            },
            {
              "internalType": "bool",
              "name": "exists",
              "type": "bool"
            },
            {
              "internalType": "bool",
              "name": "isActive",
              "type": "bool"
            }
          ],
          "internalType": "struct MangoRegistry.Batch",
          "name": "",
          "type": "tuple"
        }
      ],
      "stateMutability": "view",
      "type": "function"
    },
    {
      "inputs": [
        {
          "internalType": "address",
          "name": "_producer",
          "type": "address"
        }
      ],
      "name": "getProducerBatches",
      "outputs": [
        {
          "internalType": "string[]",
          "name": "",
          "type": "string[]"
        }
      ],
      "stateMutability": "view",
      "type": "function"
    },
    {
      "inputs": [],
      "name": "getTotalBatches",
      "outputs": [
        {
          "internalType": "uint256",
          "name": "",
          "type": "uint256"
        }
      ],
      "stateMutability": "view",
      "type": "function"
    },
    {
      "inputs": [],
      "name": "owner",
      "outputs": [
        {
          "internalType": "address",
          "name": "",
          "type": "address"
        }
      ],
      "stateMutability": "view",
      "type": "function"
    },
    {
      "inputs": [
        {
          "internalType": "address",
          "name": "",
          "type": "address"
        },
        {
          "internalType": "uint256",
          "name": "",
          "type": "uint256"
        }
      ],
      "name": "producerBatches",
      "outputs": [
        {
          "internalType": "string",
          "name": "",
          "type": "string"
        }
      ],
      "stateMutability": "view",
      "type": "function"
    },
    {
      "inputs": [
        {
          "internalType": "string",
          "name": "_batchId",
          "type": "string"
        },
        {
          "internalType": "string",
          "name": "_location",
          "type": "string"
        },
        {
          "internalType": "string",
          "name": "_quality",
          "type": "string"
        }
      ],
      "name": "registerBatch",
      "outputs": [],
      "stateMutability": "nonpayable",
      "type": "function"
    },
    {
      "inputs": [
        {
          "internalType": "address",
          "name": "_verificationContract",
          "type": "address"
        }
      ],
      "name": "setVerificationContract",
      "outputs": [],
      "stateMutability": "nonpayable",
      "type": "function"
    },
    {
      "inputs": [],
      "name": "verificationContract",
      "outputs": [
        {
          "internalType": "contract IVerification",
          "name": "",
          "type": "address"
        }
      ],
      "stateMutability": "view",
      "type": "function"
    }
  ],
  "bytecode": "0x6080806040523461002857600080546001600160a01b03191633179055610fed908161002e8239f35b600080fdfe6040608081526004908136101561001557600080fd5b600091823560e01c80631e0e5bc414610a87578063290b17ec14610a3857806349eb1134146109b65780637e2226611461098d5780637ef1446a1461089b5780638da5cb5b14610873578063ae32ef1614610401578063e561dddc146103e4578063e69422be146102e4578063f9ca42741461013a5763fb48d6be1461009a57600080fd5b34610136576020366003190112610136576100b3610e2e565b83546001600160a01b039391929190841633036100e8575050166bffffffffffffffffffffffff60a01b600154161760015580f35b906020608492519162461bcd60e51b8352820152602260248201527f4f6e6c79206f776e65722063616e20706572666f726d2074686973206163746960448201526137b760f11b6064820152fd5b8280fd5b508290346102e0576020928360031936011261013657813567ffffffffffffffff81116102dc5761016e9036908401610c7c565b81519361017a85610c28565b6060948581528187820152858482015285808201528160808201528160a082015260c00152848251918051928281818401956101b7818389610de6565b810160028152030190206005015460ff166101d190610f74565b8351809381925180926101e392610de6565b81016002815203019020918151936101fa85610c28565b61020384610d40565b855260018401546001600160a01b0390811687870190815290929061022a60028701610d40565b87860190815261023c60038801610d40565b928489019384528701549660808901978852600501549560a089019560ff88161515875260c08a019760081c60ff161515885281519a8b9a818c5251908b0160e090526101008b0161028d91610e09565b935116908901525190601f19938489830301908901526102ac91610e09565b9051918682030160808701526102c191610e09565b925160a085015251151560c084015251151560e08301520390f35b8380fd5b5080fd5b508290346102e05760209081600319360112610136576001600160a01b0361030a610e2e565b168352600382528383209182549167ffffffffffffffff83116103d15750929084519061033c858260051b0183610c5a565b8082528482018094845285842084915b8383106103ad57505050508451938085019181865251809252858501958260051b8601019392955b8287106103815785850386f35b90919293828061039d600193603f198a82030186528851610e09565b9601920196019592919092610374565b60018881926103bf859b98999b610d40565b8152019201920191909694939661034c565b634e487b7160e01b855260419052602484fd5b503461013657826003193601126101365760209250549051908152f35b50346101365760603660031901126101365767ffffffffffffffff813581811161086f576104329036908401610c7c565b90602491823582811161086b5761044c9036908601610c7c565b926044928335908111610867576104669036908701610c7c565b9460018060a01b03916001928181855416806107b1575b505088519585519060ff60056020998a81818c019661049d81838a610de6565b8101600281520301902001541661077957865115610738578851156106f7578951156106b65750899185918a8451926104d584610c28565b8984528a8401338152868501918d83526060860193845260808601944286528d8d60a089019a8a8c5260c08a019a8b52518093819251809261051692610de6565b81016002815203019020955161052c9087610e44565b8a86019151166bffffffffffffffffffffffff60a01b82541617905551600284019061055791610e44565b516105659060038401610e44565b5185820155600501915115159082549051151560081b61ff00169160ff169061ffff191617179055338952600385528789209283546801000000000000000094858210156106a457906105bc918382018155610cd8565b61069357856105ca91610e44565b82549384101561068157830180835583101561067057508261063a610661947fcd4ecfa93f4f41aab4a729a38c974ff4c6122bb04bc58d04f6f21e7115bc471a97969461063f948c527f8a35acfbc15ff81a39ae7d344fd709f28e8600b4aa8c65c6b64bfe7fe36bd19b01610e44565b610f54565b94610654875194606086526060860190610e09565b9184830390850152610e09565b9342908201528033940390a380f35b634e487b7160e01b89526032825288fd5b50634e487b7160e01b89526041825288fd5b634e487b7160e01b8b528a8452828bfd5b634e487b7160e01b8c5260418552838cfd5b847f5175616c6974792063616e6e6f7420626520656d7074790000000000000000006064926017878f8d90519562461bcd60e51b8752860152840152820152fd5b847f4c6f636174696f6e2063616e6e6f7420626520656d70747900000000000000006064926018878f8d90519562461bcd60e51b8752860152840152820152fd5b847f42617463682049442063616e6e6f7420626520656d70747900000000000000006064926018878f8d90519562461bcd60e51b8752860152840152820152fd5b8473426174636820616c72656164792065786973747360601b6064926014878f8d90519562461bcd60e51b8752860152840152820152fd5b6020908b519283809263b9209e3360e01b825233898301525afa90811561085d578b9161081f575b50156107e657813861047d565b885162461bcd60e51b815260208185015260158184015274141c9bd91d58d95c881b9bdd081d995c9a599a5959605a1b81880152606490fd5b90506020813d8211610855575b8161083960209383610c5a565b810103126108515751801515810361085157386107d9565b8a80fd5b3d915061082c565b8a513d8d823e3d90fd5b8780fd5b8680fd5b8480fd5b5050346102e057816003193601126102e057905490516001600160a01b039091168152602090f35b5090346101365760203660031901126101365781359267ffffffffffffffff841161098a575060ff6108ea60206108d861094b9636908701610c7c565b81855193828580945193849201610de6565b810160028152030190209161096b61090184610d40565b600185015490959061095d906001600160a01b031661092260028801610d40565b600561093060038a01610d40565b948901549801549580519a8b9a60e08c5260e08c0190610e09565b9260208b0152898303908a0152610e09565b908682036060880152610e09565b926080850152818116151560a085015260081c16151560c08301520390f35b80fd5b5050346102e057816003193601126102e05760015490516001600160a01b039091168152602090f35b50913461098a578160031936011261098a576109d0610e2e565b6001600160a01b0316815260036020528181208054602435919082101561013657906109fb91610cd8565b939093610a2657610a2283610a0f86610d40565b9051918291602083526020830190610e09565b0390f35b634e487b7160e01b8252819052602490fd5b50346101365760203660031901126101365780359080548210156102dc5790610a0f91610a2294527f8a35acfbc15ff81a39ae7d344fd709f28e8600b4aa8c65c6b64bfe7fe36bd19b01610d40565b503461013657602090816003193601126102dc57803567ffffffffffffffff811161086f57610ab99036908301610c7c565b90835190610aea60ff6005855194878181890197610ad881838b610de6565b81016002815203019020015416610f74565b845160018451610afb818487610de6565b820191600283528681838060a01b0394030190200154163303610be55760ff6005865186818751610b2d81838a610de6565b81016002815203019020015460081c1615610ba2575082916005610b807f8de0197ce4274f5d8e7ee0f9ea7861955e64cdd880f19842085ba7cef04bdc2295610b99948851809381928751928391610de6565b810160028152030190200161ff00198154169055610f54565b9251428152a280f35b845162461bcd60e51b8152908101849052601960248201527f426174636820616c7265616479206465616374697661746564000000000000006044820152606490fd5b845162461bcd60e51b8152908101849052601c60248201527f4f6e6c792070726f64756365722063616e2064656163746976617465000000006044820152606490fd5b60e0810190811067ffffffffffffffff821117610c4457604052565b634e487b7160e01b600052604160045260246000fd5b90601f8019910116810190811067ffffffffffffffff821117610c4457604052565b81601f82011215610cd35780359067ffffffffffffffff8211610c445760405192610cb1601f8401601f191660200185610c5a565b82845260208383010111610cd357816000926020809301838601378301015290565b600080fd5b8054821015610cf05760005260206000200190600090565b634e487b7160e01b600052603260045260246000fd5b90600182811c92168015610d36575b6020831014610d2057565b634e487b7160e01b600052602260045260246000fd5b91607f1691610d15565b9060405191826000825492610d5484610d06565b908184526001948581169081600014610dc35750600114610d80575b5050610d7e92500383610c5a565b565b9093915060005260209081600020936000915b818310610dab575050610d7e93508201013880610d70565b85548884018501529485019487945091830191610d93565b915050610d7e94506020925060ff191682840152151560051b8201013880610d70565b60005b838110610df95750506000910152565b8181015183820152602001610de9565b90602091610e2281518092818552858086019101610de6565b601f01601f1916010190565b600435906001600160a01b0382168203610cd357565b919091825167ffffffffffffffff8111610c4457610e628254610d06565b601f8111610f0c575b50602080601f8311600114610ea8575081929394600092610e9d575b50508160011b916000199060031b1c1916179055565b015190503880610e87565b90601f198316958460005282600020926000905b888210610ef457505083600195969710610edb575b505050811b019055565b015160001960f88460031b161c19169055388080610ed1565b80600185968294968601518155019501930190610ebc565b600083815260208120601f840160051c81019260208510610f4a575b601f0160051c01915b828110610f3f575050610e6b565b818155600101610f31565b9092508290610f28565b610f6c90602060405192828480945193849201610de6565b810103902090565b15610f7b57565b60405162461bcd60e51b815260206004820152601460248201527310985d18da08191bd95cc81b9bdd08195e1a5cdd60621b6044820152606490fdfea264697066735822122055e33627ac484a1747406d29392b0f5ddeb37c138332b32c33a148fff4ab249e64736f6c63430008140033",
  "linkReferences": {},
  "deployedLinkReferences": {}
}