{
  "_format": "hh-sol-artifact-1",
  "contractName": "SupplyChainTracking",
  "sourceName": "contracts/SupplyChainTracking.sol",
  "abi": [
    {
      "inputs": [],
      "stateMutability": "nonpayable",
      "type": "constructor"
    },
    {
      "anonymous": false,
      "inputs": [
        {
          "indexed": true,
          "internalType": "bytes32",
          "name": "batchIdHash",
          "type": "bytes32"
        },
        {
          "indexed": false,
          "internalType": "string",
          "name": "batchId",
          "type": "string"
        },
        {
          "indexed": true,
          "internalType": "address",
          "name": "creator",
          "type": "address"
        },
        {
          "indexed": false,
          "internalType": "uint256",
          "name": "timestamp",
          "type": "uint256"
        }
      ],
      "name": "BatchCreated",
      "type": "event"
    },
    {
      "anonymous": false,
      "inputs": [
        {
          "indexed": true,
          "internalType": "bytes32",
          "name": "batchIdHash",
          "type": "bytes32"
        },
        {
          "indexed": false,
          "internalType": "string",
          "name": "batchId",
          "type": "string"
        },
        {
          "indexed": true,
          "internalType": "address",
          "name": "by",
          "type": "address"
        },
        {
          "indexed": false,
          "internalType": "uint256",
          "name": "timestamp",
          "type": "uint256"
        },
        {
          "indexed": false,
          "internalType": "string",
          "name": "reason",
          "type": "string"
        }
      ],
      "name": "BatchFrozen",
      "type": "event"
    },
    {
      "anonymous": false,
      "inputs": [
        {
          "indexed": true,
          "internalType": "bytes32",
          "name": "batchIdHash",
          "type": "bytes32"
        },
        {
          "indexed": false,
          "internalType": "string",
          "name": "batchId",
          "type": "string"
        },
        {
          "indexed": true,
          "internalType": "address",
          "name": "by",
          "type": "address"
        },
        {
          "indexed": false,
          "internalType": "uint256",
          "name": "timestamp",
          "type": "uint256"
        }
      ],
      "name": "BatchUnfrozen",
      "type": "event"
    },
    {
      "anonymous": false,
      "inputs": [
        {
          "indexed": true,
          "internalType": "address",
          "name": "handler",
          "type": "address"
        },
        {
          "indexed": false,
          "internalType": "enum SupplyChainTracking.Stage[]",
          "name": "permissions",
          "type": "uint8[]"
        },
        {
          "indexed": false,
          "internalType": "uint256",
          "name": "timestamp",
          "type": "uint256"
        }
      ],
      "name": "HandlerAuthorized",
      "type": "event"
    },
    {
      "anonymous": false,
      "inputs": [
        {
          "indexed": true,
          "internalType": "address",
          "name": "handler",
          "type": "address"
        },
        {
          "indexed": false,
          "internalType": "uint256",
          "name": "timestamp",
          "type": "uint256"
        }
      ],
      "name": "HandlerRevoked",
      "type": "event"
    },
    {
      "anonymous": false,
      "inputs": [
        {
          "indexed": true,
          "internalType": "bytes32",
          "name": "batchIdHash",
          "type": "bytes32"
        },
        {
          "indexed": false,
          "internalType": "string",
          "name": "batchId",
          "type": "string"
        },
        {
          "indexed": false,
          "internalType": "enum SupplyChainTracking.Stage",
          "name": "stage",
          "type": "uint8"
        },
        {
          "indexed": false,
          "internalType": "string",
          "name": "location",
          "type": "string"
        },
        {
          "indexed": true,
          "internalType": "address",
          "name": "handler",
          "type": "address"
        },
        {
          "indexed": false,
          "internalType": "uint256",
          "name": "timestamp",
          "type": "uint256"
        },
        {
          "indexed": false,
          "internalType": "string",
          "name": "notes",
          "type": "string"
        },
        {
          "indexed": false,
          "internalType": "bytes32",
          "name": "certificateHash",
          "type": "bytes32"
        },
        {
          "indexed": false,
          "internalType": "uint256",
          "name": "transactionValue",
          "type": "uint256"
        },
        {
          "indexed": false,
          "internalType": "bytes32",
          "name": "qrCodeHash",
          "type": "bytes32"
        }
      ],
      "name": "TrackingEventAdded",
      "type": "event"
    },
    {
      "inputs": [
        {
          "internalType": "string",
          "name": "_batchId",
          "type": "string"
        },
        {
          "internalType": "enum SupplyChainTracking.Stage",
          "name": "_stage",
          "type": "uint8"
        },
        {
          "internalType": "string",
          "name": "_location",
          "type": "string"
        },
        {
          "internalType": "string",
          "name": "_notes",
          "type": "string"
        }
      ],
      "name": "addTrackingEvent",
      "outputs": [],
      "stateMutability": "nonpayable",
      "type": "function"
    },
    {
      "inputs": [
        {
          "internalType": "string",
          "name": "_batchId",
          "type": "string"
        },
        {
          "internalType": "enum SupplyChainTracking.Stage",
          "name": "_stage",
          "type": "uint8"
        },
        {
          "internalType": "string",
          "name": "_location",
          "type": "string"
        },
        {
          "internalType": "string",
          "name": "_notes",
          "type": "string"
        },
        {
          "internalType": "bytes32",
          "name": "_certificateHash",
          "type": "bytes32"
        },
        {
          "internalType": "uint256",
          "name": "_transactionValue",
          "type": "uint256"
        },
        {
          "internalType": "bytes32",
          "name": "_qrCodeHash",
          "type": "bytes32"
        }
      ],
      "name": "addTrackingEventWithData",
      "outputs": [],
      "stateMutability": "nonpayable",
      "type": "function"
    },
    {
      "inputs": [
        {
          "internalType": "address",
          "name": "_handler",
          "type": "address"
        },
        {
          "internalType": "enum SupplyChainTracking.Stage[]",
          "name": "_permissions",
          "type": "uint8[]"
        }
      ],
      "name": "authorizeHandler",
      "outputs": [],
      "stateMutability": "nonpayable",
      "type": "function"
    },
    {
      "inputs": [
        {
          "internalType": "address",
          "name": "",
          "type": "address"
        }
      ],
      "name": "authorizedHandlers",
      "outputs": [
        {
          "internalType": "bool",
          "name": "",
          "type": "bool"
        }
      ],
      "stateMutability": "view",
      "type": "function"
    },
    {
      "inputs": [
        {
          "internalType": "string",
          "name": "_batchId",
          "type": "string"
        }
      ],
      "name": "batchExistsCheck",
      "outputs": [
        {
          "internalType": "bool",
          "name": "",
          "type": "bool"
        }
      ],
      "stateMutability": "view",
      "type": "function"
    },
    {
      "inputs": [
        {
          "internalType": "bytes32",
          "name": "",
          "type": "bytes32"
        },
        {
          "internalType": "uint256",
          "name": "",
          "type": "uint256"
        }
      ],
      "name": "batchHistory",
      "outputs": [
        {
          "internalType": "enum SupplyChainTracking.Stage",
          "name": "stage",
          "type": "uint8"
        },
        {
          "internalType": "string",
          "name": "location",
          "type": "string"
        },
        {
          "internalType": "uint256",
          "name": "timestamp",
          "type": "uint256"
        },
        {
          "internalType": "address",
          "name": "handler",
          "type": "address"
        },
        {
          "internalType": "string",
          "name": "notes",
          "type": "string"
        },
        {
          "internalType": "bytes32",
          "name": "certificateHash",
          "type": "bytes32"
        },
        {
          "internalType": "uint256",
          "name": "transactionValue",
          "type": "uint256"
        },
        {
          "internalType": "bytes32",
          "name": "qrCodeHash",
          "type": "bytes32"
        }
      ],
      "stateMutability": "view",
      "type": "function"
    },
    {
      "inputs": [
        {
          "internalType": "bytes32",
          "name": "",
          "type": "bytes32"
        }
      ],
      "name": "batches",
      "outputs": [
        {
          "internalType": "bool",
          "name": "exists",
          "type": "bool"
        },
        {
          "internalType": "bool",
          "name": "frozen",
          "type": "bool"
        },
        {
          "internalType": "enum SupplyChainTracking.Stage",
          "name": "currentStage",
          "type": "uint8"
        },
        {
          "internalType": "bytes32",
          "name": "batchHash",
          "type": "bytes32"
        },
        {
          "internalType": "uint256",
          "name": "creationTimestamp",
          "type": "uint256"
        },
        {
          "internalType": "address",
          "name": "creator",
          "type": "address"
        },
        {
          "internalType": "string",
          "name": "metadata",
          "type": "string"
        }
      ],
      "stateMutability": "view",
      "type": "function"
    },
    {
      "inputs": [
        {
          "internalType": "string",
          "name": "_batchId",
          "type": "string"
        },
        {
          "internalType": "string",
          "name": "_metadata",
          "type": "string"
        }
      ],
      "name": "createBatch",
      "outputs": [],
      "stateMutability": "nonpayable",
      "type": "function"
    },
    {
      "inputs": [
        {
          "internalType": "string",
          "name": "_batchId",
          "type": "string"
        },
        {
          "internalType": "string",
          "name": "_reason",
          "type": "string"
        }
      ],
      "name": "freezeBatch",
      "outputs": [],
      "stateMutability": "nonpayable",
      "type": "function"
    },
    {
      "inputs": [
        {
          "internalType": "string",
          "name": "_batchId",
          "type": "string"
        }
      ],
      "name": "getBatchHistory",
      "outputs": [
        {
          "components": [
            {
              "internalType": "enum SupplyChainTracking.Stage",
              "name": "stage",
              "type": "uint8"
            },
            {
              "internalType": "string",
              "name": "location",
              "type": "string"
            },
            {
              "internalType": "uint256",
              "name": "timestamp",
              "type": "uint256"
            },
            {
              "internalType": "address",
              "name": "handler",
              "type": "address"
            },
            {
              "internalType": "string",
              "name": "notes",
              "type": "string"
            },
            {
              "internalType": "bytes32",
              "name": "certificateHash",
              "type": "bytes32"
            },
            {
              "internalType": "uint256",
              "name": "transactionValue",
              "type": "uint256"
            },
            {
              "internalType": "bytes32",
              "name": "qrCodeHash",
              "type": "bytes32"
            }
          ],
          "internalType": "struct SupplyChainTracking.TrackingEvent[]",
          "name": "",
          "type": "tuple[]"
        }
      ],
      "stateMutability": "view",
      "type": "function"
    },
    {
      "inputs": [
        {
          "internalType": "string",
          "name": "_batchId",
          "type": "string"
        }
      ],
      "name": "getBatchInfo",
      "outputs": [
        {
          "components": [
            {
              "internalType": "bool",
              "name": "exists",
              "type": "bool"
            },
            {
              "internalType": "bool",
              "name": "frozen",
              "type": "bool"
            },
            {
              "internalType": "enum SupplyChainTracking.Stage",
              "name": "currentStage",
              "type": "uint8"
            },
            {
              "internalType": "bytes32",
              "name": "batchHash",
              "type": "bytes32"
            },
            {
              "internalType": "uint256",
              "name": "creationTimestamp",
              "type": "uint256"
            },
            {
              "internalType": "address",
              "name": "creator",
              "type": "address"
            },
            {
              "internalType": "string",
              "name": "metadata",
              "type": "string"
            }
          ],
          "internalType": "struct SupplyChainTracking.Batch",
          "name": "",
          "type": "tuple"
        }
      ],
      "stateMutability": "view",
      "type": "function"
    },
    {
      "inputs": [
        {
          "internalType": "string",
          "name": "_batchId",
          "type": "string"
        }
      ],
      "name": "getCurrentStage",
      "outputs": [
        {
          "internalType": "enum SupplyChainTracking.Stage",
          "name": "",
          "type": "uint8"
        }
      ],
      "stateMutability": "view",
      "type": "function"
    },
    {
      "inputs": [
        {
          "internalType": "string",
          "name": "_batchId",
          "type": "string"
        }
      ],
      "name": "getEventCount",
      "outputs": [
        {
          "internalType": "uint256",
          "name": "",
          "type": "uint256"
        }
      ],
      "stateMutability": "view",
      "type": "function"
    },
    {
      "inputs": [
        {
          "internalType": "address",
          "name": "_handler",
          "type": "address"
        }
      ],
      "name": "getHandlerPermissions",
      "outputs": [
        {
          "internalType": "enum SupplyChainTracking.Stage[]",
          "name": "",
          "type": "uint8[]"
        }
      ],
      "stateMutability": "view",
      "type": "function"
    },
    {
      "inputs": [
        {
          "internalType": "address",
          "name": "",
          "type": "address"
        },
        {
          "internalType": "uint256",
          "name": "",
          "type": "uint256"
        }
      ],
      "name": "handlerPermissions",
      "outputs": [
        {
          "internalType": "enum SupplyChainTracking.Stage",
          "name": "",
          "type": "uint8"
        }
      ],
      "stateMutability": "view",
      "type": "function"
    },
    {
      "inputs": [],
      "name": "owner",
      "outputs": [
        {
          "internalType": "address",
          "name": "",
          "type": "address"
        }
      ],
      "stateMutability": "view",
      "type": "function"
    },
    {
      "inputs": [
        {
          "internalType": "address",
          "name": "_handler",
          "type": "address"
        }
      ],
      "name": "revokeHandler",
      "outputs": [],
      "stateMutability": "nonpayable",
      "type": "function"
    },
    {
      "inputs": [
        {
          "internalType": "string",
          "name": "_batchId",
          "type": "string"
        }
      ],
      "name": "unfreezeBatch",
      "outputs": [],
      "stateMutability": "nonpayable",
      "type": "function"
    }
  ],
  "bytecode": "0x608034620002d957600480546001600160a01b03191633908117825560009081526003602090815260408220805460ff1916600190811790915592939192906001600160401b0390610120840182811185821017620002c65760405260089384815281810161010080368337825115620002b3578782528251861015620002b357856040840152825160021015620002b35760026060840152825160031015620002b357600360808401528251891015620002b3578860a0840152825160051015620002b357600560c0840152825160061015620002b357600660e0840152825160071015620002b35760079083015233875260028352604087209151938411620002a057680100000000000000008411620002a057815484835580851062000243575b50908652818620948360051c96805b888110620001dc5750601f19851690940393846200015b575b604051612f2c9081620002df8239f35b97908895949392959880925b8584106200018857505050505050505001553880808080808080806200014b565b90919293949596998a519084821015620001c957620001b989928789939060ff809160031b9316831b921b19161790565b9b01979695940192919062000167565b634e487b7160e01b845260218352602484fd5b869082835b878110620001f55750818a01550162000132565b95809293505190858210156200023057620002228a92888a939060ff809160031b9316831b921b19161790565b9201950190889291620001e1565b634e487b7160e01b855260218d52602485fd5b828852838820601f80870160051c8201920160051c0190601f86168062000285575b5086905b8281106200027957505062000123565b89815501869062000269565b6000199081830191825491880360031b1c1690553862000265565b634e487b7160e01b875260418852602487fd5b634e487b7160e01b885260328952602488fd5b634e487b7160e01b865260418752602486fd5b600080fdfe6040608081526004908136101561001557600080fd5b60009160e0918335831c80630dc51a7814611de557806320e27a8c14611d805780632e58be7114611caa57806330527dc114611be157806335bcc652146119285780633cd7bca3146117f257806376671f071461103357806379ecc6bc14610cdb5780637e0a4e4414610c765780638da5cb5b14610c4d57806392b8f02114610933578063a252d8a714610741578063ad10faf4146106dd578063afc221df1461069f578063c1544590146105a4578063c81e25ab14610514578063d54d5b92146103a35763f5f09ed0146100e957600080fd5b34610397576080366003190112610397576001600160401b039084833583811161039f5761011a9036908601611f81565b9160243593600885101561039b576044358181116103975761013f9036908801611f81565b90606435908111610397576101579036908801611f81565b913384526020956003875261017160ff838720541661227a565b610190825188810188519161019d8b82818d0195610190818789612111565b8101038084520182611f60565b51902087528689526101b460ff85892054166122f3565b8351898101906101cc8b828c51610190818789612111565b51902087528689526101e760ff8589205460081c1615612336565b6101f385511515612374565b61020b89855180938282019586918d51928391612111565b51902097888652858852888a8488209260018b528589205461030b575b50836102b58188956102b08e600080516020612ed78339815191529f999a8e81996102f29f9e8f9a6102de9f9b849261026c6102676102d29f33612715565b612416565b86519761027889611f13565b6102828c8a6122c6565b880152428688015233606088015260808701528160a08701528160c0870152850152815260018c5220612470565b6122d2565b6102c983519a610100808d528c0190612134565b948a0190611fdc565b87830390880152612134565b904260608601528482036080860152612134565b948160a08401528160c08401528201528033940390a380f35b929394959698999750505060ff825460101c16906008821015610384575093836102d2846102b5818f9a968f8f600080516020612ed78339815191529f9e9b8e8b926102f29f8f956102de9f968e61036b869460ff6102b09b16116123c0565b50509a50509950509a50505095989950959b5050610228565b634e487b7160e01b8c526021905260248bfd5b8380fd5b8280fd5b5080fd5b5090913461039757602091826003193601126105105783356001600160401b03811161050c576105089394956103dd839236908901611f81565b606060c084516103ec81611f45565b848152848a820152848682015284838201528460808201528460a0820152015282516104278882816101908183019687815193849201612111565b51902080825281875261043f60ff84842054166122f3565b8152808652208151809661045282611f45565b82549360ff8516151583526104e48884019560ff8160081c161515875261048260ff8487019260101c16826122c6565b600186015492606086019384526104bb6002880154956080880196875260018060a01b039860a08a60038301541699019889520161206b565b9760c08d019889528b82519d8e9d8e52511515908d0152511515908b01525160608a0190611fdc565b5160808801525160a0870152511660c0850152519080840152610100830190612134565b0390f35b8580fd5b8480fd5b5091346103975760203660031901126103975790610508918360ff95833581528060205220805492600182015461058761056160028501549360018060a01b03600387015416950161206b565b958851998a9981831615158b52818360081c16151560208c01528a019160101c16611fdc565b6060870152608086015260a08501528060c0850152830190612134565b8483833461039b5760209081600319360112610397576105c261219f565b83546001600160a01b0390811694916105dc33871461220c565b16938486526003845260ff83872054161561066c578414610635575082845260038252808420805460ff19169055514281527faa7ffebb0a251446f9e5eceacaf1bdc80098446ae80fe20eda1a2260ff1a46b59190a280f35b82606492519162461bcd60e51b8352820152601360248201527221b0b73737ba103932bb37b5b29037bbb732b960691b6044820152fd5b5082606492519162461bcd60e51b8352820152600e60248201526d139bdd08185d5d1a1bdc9a5e995960921b6044820152fd5b84823461039f57602036600319011261039f5760209160ff9082906001600160a01b036106ca61219f565b1681526003855220541690519015158152f35b50833461073e576020928360031936011261039f5780356001600160401b03811161039b5783929161071191369101611f81565b825161072c8682816101908183019687815193849201612111565b51902081526001845220549051908152f35b80fd5b509192903461039f5760208060031936011261039b5781356001600160401b03811161039757610778909392919336908301611f81565b84516107938582816101908183019687815193849201612111565b51902082526001928381528483209586546107ad816121f5565b936107ba88519586611f60565b81855283850190819987528487209087925b84841061089e575050505050855195828701938388525180945280870190808560051b8901019895925b85841061080357888a0389f35b909192939495968580829b603f198c82030187528a5190610825818351611fdc565b8580610871610841868601516101008089880152860190612134565b858b0151858c01526060808701516001600160a01b03169086015260808087015186830391870191909152612134565b60a0808601519085015260c080860151908501529301519101529b990197969591909101930191906107f6565b98600887829d9b8d809c999a9b9c51906108b782611f13565b6108c560ff895416836122c6565b6108d086890161206b565b8285015260028801549082015260038701546001600160a01b031660608201526108fb86880161206b565b6080820152600587015460a0820152600687015460c082015260078701548b8201528152019301930192919a989a97969594976107cc565b5083903461039f5761094436612159565b90913384526020926003845261095f60ff838720541661227a565b815184810190610979868285516101908187858a01612111565b5190209283865285855260ff8387205416610c1357815115610bd05782516109a081611f45565b60019081815286810188815285820189815260608301888152608084019142835260a085019333855260c086019788528a8d528c8c52898d20955115159060ff61ff0088549251151560081b1692169061ffff191617178555516008811015610bbd5790610a12859493928e966122d2565b5185840155516002830155600382019060018060a01b039051166bffffffffffffffffffffffff60a01b8254161790550191518051986001600160401b038a11610baa5750610a618354612031565b601f8111610b71575b508690601f8a11600114610ae8579880610ace95949381938b9c7fbb2c59d4a0a8a64c5507c34ac3ab5419587aea4a76cc25e0a81bb576fc7875a19a9b9c94610add575b50501b916000199060031b1c19161790555b825192808452830190612134565b9342908201528033940390a380f35b015192508c80610aae565b838952878920999190601f1983168a5b818110610b5c5750917fbb2c59d4a0a8a64c5507c34ac3ab5419587aea4a76cc25e0a81bb576fc7875a198999a9b9184610ace989796959410610b43575b505050811b019055610ac0565b015160001960f88460031b161c191690558a8080610b36565b838301518d559b85019b928a01928a01610af8565b610b9a90848a52888a20601f8c0160051c8101918a8d10610ba0575b601f0160051c0190612263565b89610a6a565b9091508190610b8d565b634e487b7160e01b895260419052602488fd5b634e487b7160e01b8c5260218d5260248cfd5b825162461bcd60e51b8152808801869052601860248201527f42617463682049442063616e6e6f7420626520656d70747900000000000000006044820152606490fd5b825162461bcd60e51b81528088018690526014602482015273426174636820616c72656164792065786973747360601b6044820152606490fd5b5091503461039b578260031936011261039b575490516001600160a01b03909116815260209150f35b84823461039f578060031936011261039f57610c9061219f565b6001600160a01b0316825260026020528082208054602435929190831015610397579160ff610cd99260208660f896829852208360051c0154905194859360031b161c16611fdc565bf35b5083823461039f578260031936011261039f57610cf661219f565b60249384356001600160401b039586821161050c573660238301121561050c578185013594610d24866121f5565b94610d3185519687611f60565b86865260209384870184819960051b8301019136831161102f578501905b82821061101357505082546001600160a01b03929150610d72908316331461220c565b16958688526003845260ff8589205416610fdd57855115610f8a5786885260038452848820986001998a60ff1982541617905560028552858920918751918211610f7857600160401b8211610f78578254828455808310610f2f575b50918952848920918160051c938b8b5b868110610ecd575050601f1983169092039182610e3b575b8a8a7fbdc5cee89fbafd6b00bad3c83934f89cd072a940c99e857f5f638c0e9ad09ae18b8b8b610e2f82519383859485528401906121b5565b9042908301520390a280f35b948a929192958b915b838310610e82575050505050015593945084937fbdc5cee89fbafd6b00bad3c83934f89cd072a940c99e857f5f638c0e9ad09ae18780808080610df6565b90919293968751906008821015610ebb57610eaf8f92868c939060ff809160031b9316831b921b19161790565b98019493019190610e44565b634e487b7160e01b8e5260218452828efd5b8c8d5b8a8110610ee4575081870155018c90610dde565b948092935051906008821015610f1d578f939291610f148c918887949060ff809160031b9316831b921b19161790565b92019501610ed0565b634e487b7160e01b8f5260218552898ffd5b610f5990848c52878c20601f80860160051c82019281871680610f5f575b500160051c0190612263565b8b610dce565b8b600019808701928354920360031b1c16905538610f4d565b634e487b7160e01b8a5260418452848afd5b5060296084928486519362461bcd60e51b85528401528201527f48616e646c6572206d7573742068617665206174206c65617374206f6e65207060448201526832b936b4b9b9b4b7b760b91b6064820152fd5b5060126064928486519362461bcd60e51b855284015282015271105b1c9958591e48185d5d1a1bdc9a5e995960721b6044820152fd5b8135600881101561102b578152908601908601610d4f565b8b80fd5b8a80fd5b5090503461039b576020918260031936011261039757926001600160a01b0361105a61219f565b168152600283528282822083519586879484845492838152019381528481205b82601f83011061157d57918593916111a196610508999896945493838310611561575b838310611542575b838310611523575b838310611504575b8383106114e6575b8383106114c7575b8383106114a8575b838310611489575b8984841061146a575b5083831061144b575b83831061142c575b83831061140d575b8383106113ee575b8383106113cf575b8383106113b0575b838310611391575b838310611372575b838310611353575b838310611334575b838310611315575b8383106112f6575b8383106112d7575b8383106112b8575b838310611299575b83831061127a575b83831061125b575b83831061123c575b83831061121d575b838310611200575b508282106111e3575b8282106111c6575b50106111b0575b5090500385611f60565b519282849384528301906121b5565b816111bd9160f81c611fdc565b01859038611197565b846111da6001939660ff8760f01c16611fdc565b01930184611190565b846111f76001939660ff8760e81c16611fdc565b01930184611188565b946112138160ff87600196991c16611fdc565b019301843861117f565b9194818161123360019360ff8960d81c16611fdc565b01950191611177565b9194818161125260019360ff8960d01c16611fdc565b0195019161116f565b9194818161127160019360ff8960c81c16611fdc565b01950191611167565b9194818161129060019360ff8960c01c16611fdc565b0195019161115f565b919481816112af60019360ff8960b81c16611fdc565b01950191611157565b919481816112ce60019360ff8960b01c16611fdc565b0195019161114f565b919481816112ed60019360ff8960a81c16611fdc565b01950191611147565b9194818161130c60019360ff8960a01c16611fdc565b0195019161113f565b9194818161132b60019360ff8960981c16611fdc565b01950191611137565b9194818161134a60019360ff8960901c16611fdc565b0195019161112f565b9194818161136960019360ff8960881c16611fdc565b01950191611127565b9194818161138860019360ff8960801c16611fdc565b0195019161111f565b919481816113a760019360ff8960781c16611fdc565b01950191611117565b919481816113c660019360ff8960701c16611fdc565b0195019161110f565b919481816113e560019360ff8960681c16611fdc565b01950191611107565b9194818161140460019360ff8960601c16611fdc565b019501916110ff565b9194818161142360019360ff8960581c16611fdc565b019501916110f7565b9194818161144260019360ff8960501c16611fdc565b019501916110ef565b9194818161146160019360ff8960481c16611fdc565b019501916110e7565b8661147f600193959860ff8987951c16611fdc565b01950191896110de565b9194818161149f60019360ff8960381c16611fdc565b019501916110d5565b919481816114be60019360ff8960301c16611fdc565b019501916110cd565b919481816114dd60019360ff8960281c16611fdc565b019501916110c5565b919481816114fb60019360ff89851c16611fdc565b019501916110bd565b9194818161151a60019360ff8960181c16611fdc565b019501916110b5565b9194818161153960019360ff8960101c16611fdc565b019501916110ad565b9194818161155860019360ff8960081c16611fdc565b019501916110a5565b9194818161157460019360ff8916611fdc565b0195019161109d565b9550919390926104006001916117e1896117d361018061176561162f61171d8d8f8c61168d6116d59254998c8b60ff9a826115bb8d94858516611fdc565b6115cc878201858560081c16611fdc565b6115dd858201858560101c16611fdc565b61164b6060956115f4878401878760181c16611fdc565b61160760809987878c8701921c16611fdc565b61163c60a09b61161e8d8601898960281c16611fdc565b60c09e8f8601898960301c16611fdc565b8401878760381c16611fdc565b85856101008501921c16611fdc565b61165e6101208201858560481c16611fdc565b6116716101408201858560501c16611fdc565b6116846101608201858560581c16611fdc565b01921c16611fdc565b6116a06101a08c01888b60681c16611fdc565b6116b36101c08c01888b60701c16611fdc565b6116c66101e08c01888b60781c16611fdc565b86896102008d01921c16611fdc565b6116e86102208a01868960881c16611fdc565b6116fb6102408a01868960901c16611fdc565b61170e6102608a01868960981c16611fdc565b84876102808b01921c16611fdc565b6117306102a08801848760a81c16611fdc565b6117436102c08801848760b01c16611fdc565b6117566102e08801848760b81c16611fdc565b82856103008901921c16611fdc565b6117786103208601828560c81c16611fdc565b61178b6103408601828560d01c16611fdc565b61179e6103608601828560d81c16611fdc565b6117b06103808601848d1c8316611fdc565b6117c36103a08601828560e81c16611fdc565b6103c08501908360f01c16611fdc565b6103e083019060f81c611fdc565b01950191019187949287949261107a565b5091503461039b5761180336612159565b9261181860018060a01b03845416331461220c565b80519061019060209283810185519161183b8682818a0195610190818789612111565b519020885287845261185260ff848a2054166122f3565b61186a84845180938282019586918a51928391612111565b5190209384875286835260ff8288205460081c166118f05750916118ea6118d6927f62bd6469c7218127dcc9732539b3e00bddfc081e0f6aa1724beefb0bebf7999b9486895288825280892061010061ff00198254161790558051948594606086526060860190612134565b914290850152838203908401523396612134565b0390a380f35b82606492519162461bcd60e51b835282015260146024820152732130ba31b41030b63932b0b23c90333937bd32b760611b6044820152fd5b509092913461039b578060031936011261039b576001600160401b039184358381116105105761195b9036908701611f81565b9060243592600884101561050c57604435858111611bdd576119809036908901611f81565b94606435908111611bdd576119989036908901611f81565b94608435958760a4359260c4359533835287611a2360ff83602096600388526119c583838320541661227a565b8151888101906119e18a82818a519a019961019081878d612111565b51902081528088526119f78383832054166122f3565b8c8251611a0f8a82818101945161019081878d612111565b5190208152808852205460081c1615612336565b611a2f83511515612374565b8151611a4985828c61019083830196879251928391612111565b51902098898c528b8452818c209c60018552828d2054611b46575b509181611b0f848e9f8e9f968e9f91600080516020612ed78339815191529f828f998f9b8f93611b2f9f9e9c8f9e611b1b9f968f9a8f986102b099611af19d611ab06102678c33612715565b611ac58a519b611abf8d611f13565b8c6122c6565b8a015242888a01523360608a0152608089015260a088015260c0870152850152815260018c5220612470565b611b0683519c8d610100908181520190612134565b948c0190611fdc565b898303908a0152612134565b904260608801528682036080880152612134565b9660a085015260c08401528201528033940390a380f35b9c60ff815460101c166008811015611bc8578d9e5082611af18e9f948e9f94600080516020612ed78339815191529f828f998f998f93611b2f9f9e9c8f9c611b1b9f9d968f9d8f98879f99611b0f9f9a611ba76102b09c60ff8d16116123c0565b505050505050505050999b9c5050509e505050929450509c9b9a999c611a64565b5050634e487b7160e01b8c5260218d5260248cfd5b8680fd5b50346103975780600319360112610397576024359382358152600160205281812090815486101561073e5750611c7094611c1a91611fff565b509260ff84541693611c98611c316001830161206b565b93600283015495611c5060018060a01b0360038601541691850161206b565b90600585015497611c82600760068801549701549885519c8d809d611fdc565b61010060208d018190528c0190612134565b938a015260608901528782036080890152612134565b9360a086015260c08501528301520390f35b50833461073e576020928360031936011261039f5780356001600160401b03811161039b57611cdc9036908301611f81565b8351611cf78682816101908183019687815193849201612111565b51902090818352828552611d1060ff85852054166122f3565b818352600185528383205415611d3d5750828260ff92610cd99452808652205460101c1691518092611fdc565b835162461bcd60e51b8152908101859052601860248201527f4e6f20747261636b696e67206576656e747320666f756e6400000000000000006044820152606490fd5b50833461073e576020928360031936011261039f5780356001600160401b03811161039b5791611db6849260ff94369101611f81565b8251611dd18782816101908183019687815193849201612111565b519020815280855220541690519015158152f35b5091503461039b57602091826003193601126103975781356001600160401b03811161051057611e189036908401611f81565b611e2c60018060a01b03845416331461220c565b6101908251858101835191611e4b888281880195610190818789612111565b5190208752868652611e6260ff85892054166122f3565b611e7a86855180938282019586918851928391612111565b5190209283865285855260ff8387205460081c1615611eda575090610ace7fb41405fd4a002a5b40384a61d0df37fe656665b6d87ece83b4844329d06ce0729284875286865282872061ff00198154169055825192808452830190612134565b825162461bcd60e51b815290810185905260136024820152722130ba31b41034b9903737ba10333937bd32b760691b6044820152606490fd5b61010081019081106001600160401b03821117611f2f57604052565b634e487b7160e01b600052604160045260246000fd5b60e081019081106001600160401b03821117611f2f57604052565b90601f801991011681019081106001600160401b03821117611f2f57604052565b81601f82011215611fd7578035906001600160401b038211611f2f5760405192611fb5601f8401601f191660200185611f60565b82845260208383010111611fd757816000926020809301838601378301015290565b600080fd5b906008821015611fe95752565b634e487b7160e01b600052602160045260246000fd5b805482101561201b5760005260206000209060031b0190600090565b634e487b7160e01b600052603260045260246000fd5b90600182811c92168015612061575b602083101461204b57565b634e487b7160e01b600052602260045260246000fd5b91607f1691612040565b906040519182600082549261207f84612031565b9081845260019485811690816000146120ee57506001146120ab575b50506120a992500383611f60565b565b9093915060005260209081600020936000915b8183106120d65750506120a99350820101388061209b565b855488840185015294850194879450918301916120be565b9150506120a994506020925060ff191682840152151560051b820101388061209b565b60005b8381106121245750506000910152565b8181015183820152602001612114565b9060209161214d81518092818552858086019101612111565b601f01601f1916010190565b906040600319830112611fd7576001600160401b03600435818111611fd7578361218591600401611f81565b92602435918211611fd75761219c91600401611f81565b90565b600435906001600160a01b0382168203611fd757565b90815180825260208080930193019160005b8281106121d5575050505090565b909192938280826121e96001948951611fdc565b019501939291016121c7565b6001600160401b038111611f2f5760051b60200190565b1561221357565b60405162461bcd60e51b815260206004820152602260248201527f4f6e6c79206f776e65722063616e20706572666f726d2074686973206163746960448201526137b760f11b6064820152608490fd5b81811061226e575050565b60008155600101612263565b1561228157565b60405162461bcd60e51b815260206004820152601960248201527f4e6f7420616e20617574686f72697a65642068616e646c6572000000000000006044820152606490fd5b6008821015611fe95752565b906008811015611fe95762ff000082549160101b169062ff00001916179055565b156122fa57565b60405162461bcd60e51b815260206004820152601460248201527310985d18da08191bd95cc81b9bdd08195e1a5cdd60621b6044820152606490fd5b1561233d57565b60405162461bcd60e51b815260206004820152600f60248201526e2130ba31b41034b990333937bd32b760891b6044820152606490fd5b1561237b57565b60405162461bcd60e51b815260206004820152601860248201527f4c6f636174696f6e2063616e6e6f7420626520656d70747900000000000000006044820152606490fd5b156123c757565b60405162461bcd60e51b815260206004820152602160248201527f5374616765206d7573742062652061667465722063757272656e7420737461676044820152606560f81b6064820152608490fd5b1561241d57565b60405162461bcd60e51b815260206004820152602560248201527f48616e646c6572206e6f7420617574686f72697a656420666f72207468697320604482015264737461676560d81b6064820152608490fd5b8054600160401b811015611f2f5761248f906001928382018155611fff565b9290926126ff5780516008811015611fe95760ff801985541691161783558183019160209283830151918251916001600160401b0392838111611f2f57806124d78354612031565b95601f968781116126d1575b50889087831160011461266e57600092612663575b5050600019600383901b1c191690831b1790555b604084015160028701556003860160018060a01b036060860151166bffffffffffffffffffffffff60a01b82541617905560048601926080850151958651938411611f2f5761255b8554612031565b82811161262b575b50809184116001146125bc57509180809260e09695946007986000946125b1575b50501b916000199060031b1c19161790555b60a0810151600585015560c081015160068501550151910155565b015192503880612584565b91939495601f1984168660005283600020936000905b828210612614575050916007979593918560e0989694106125fb575b505050811b019055612596565b015160001960f88460031b161c191690553880806125ee565b8088869782949787015181550196019401906125d2565b6126549086600052826000208480880160051c82019285891061265a575b0160051c0190612263565b38612563565b92508192612649565b0151905038806124f8565b90859350601f19831691856000528a6000209260005b8c8282106126bb57505084116126a2575b505050811b01905561250c565b015160001960f88460031b161c19169055388080612695565b8385015186558997909501949384019301612684565b6126f990856000528a6000208980860160051c8201928d871061265a570160051c0190612263565b386124e3565b634e487b7160e01b600052600060045260246000fd5b6001600160a01b03166000908152600260209081526040808320815181548082529185528385209096949593929091879184918383019190895b81601f820110612c9a578461286a975493838310612c7e575b838310612c5f575b838310612c40575b838310612c21575b838310612c03575b838310612be4575b838310612bc5575b838310612ba6575b838310612b89575b50828210612b6c575b828210612b4f575b828210612b32575b828210612b15575b828210612af8575b828210612adb575b828210612abe575b828210612aa1575b828210612a84575b828210612a67575b828210612a4a575b828210612a2d575b828210612a10575b8282106129f3575b8282106129d6575b8282106129b9575b82821061299c575b82821061297f575b828210612962575b828210612945575b828210612928575b82821061290b575b50106128f5575b5090500386611f60565b835b85518110156128ed57818160051b870101516008808210156128d9578410156128c55783146128ba5760001981146128a65760010161286c565b634e487b7160e01b85526011600452602485fd5b505050915050600190565b634e487b7160e01b86526021600452602486fd5b634e487b7160e01b87526021600452602487fd5b505050915090565b816129029160f81c611fdc565b01839038612860565b8461291f6001939660ff8760f01c16611fdc565b01930184612859565b8461293c6001939660ff8760e81c16611fdc565b01930184612851565b846129596001939660ff8760e01c16611fdc565b01930184612849565b846129766001939660ff8760d81c16611fdc565b01930184612841565b846129936001939660ff8760d01c16611fdc565b01930184612839565b846129b06001939660ff8760c81c16611fdc565b01930184612831565b846129cd6001939660ff8760c01c16611fdc565b01930184612829565b846129ea6001939660ff8760b81c16611fdc565b01930184612821565b84612a076001939660ff8760b01c16611fdc565b01930184612819565b84612a246001939660ff8760a81c16611fdc565b01930184612811565b84612a416001939660ff8760a01c16611fdc565b01930184612809565b84612a5e6001939660ff8760981c16611fdc565b01930184612801565b84612a7b6001939660ff8760901c16611fdc565b019301846127f9565b84612a986001939660ff8760881c16611fdc565b019301846127f1565b84612ab56001939660ff8760801c16611fdc565b019301846127e9565b84612ad26001939660ff8760781c16611fdc565b019301846127e1565b84612aef6001939660ff8760701c16611fdc565b019301846127d9565b84612b0c6001939660ff8760681c16611fdc565b019301846127d1565b84612b296001939660ff8760601c16611fdc565b019301846127c9565b84612b466001939660ff8760581c16611fdc565b019301846127c1565b84612b636001939660ff8760501c16611fdc565b019301846127b9565b84612b806001939660ff8760481c16611fdc565b019301846127b1565b94612b9c8160ff87600196991c16611fdc565b01930184386127a8565b91948181612bbc60019360ff8960381c16611fdc565b019501916127a0565b91948181612bdb60019360ff8960301c16611fdc565b01950191612798565b91948181612bfa60019360ff8960281c16611fdc565b01950191612790565b91948181612c1860019360ff89851c16611fdc565b01950191612788565b91948181612c3760019360ff8960181c16611fdc565b01950191612780565b91948181612c5660019360ff8960101c16611fdc565b01950191612778565b91948181612c7560019360ff8960081c16611fdc565b01950191612770565b91948181612c9160019360ff8916611fdc565b01950191612768565b926001919492955061040090612ec488546117d3866117b0612d5c612e7c8d612e3489612dec60ff97612ccf838a8d16611fdc565b612ce08184018a8d60081c16611fdc565b612cf18584018a8d60101c16611fdc565b888b610200606095612d0a878201858560181c16611fdc565b612d1d6080958585888501921c16611fdc565b612db360a097612d34898401878760281c16611fdc565b612d6b60c09b612d4b8d8601898960301c16611fdc565b60e09e8f8601898960381c16611fdc565b87876101008701921c16611fdc565b612d7e6101208401878760481c16611fdc565b612d916101408401878760501c16611fdc565b612da46101608401878760581c16611fdc565b85856101808501921c16611fdc565b612dc66101a08201858560681c16611fdc565b612dd96101c08201858560701c16611fdc565b6116846101e08201858560781c16611fdc565b612dff6102208c01888b60881c16611fdc565b612e126102408c01888b60901c16611fdc565b612e256102608c01888b60981c16611fdc565b86896102808d01921c16611fdc565b612e476102a08a01868960a81c16611fdc565b612e5a6102c08a01868960b01c16611fdc565b612e6d6102e08a01868960b81c16611fdc565b84876103008b01921c16611fdc565b612e8f6103208801848760c81c16611fdc565b612ea26103408801848760d01c16611fdc565b612eb56103608801848760d81c16611fdc565b82856103808901921c16611fdc565b01950191019285928a9495929561274f56fe8ca8ca2aefb8ac23c41e4ef1b21b4c9bfcc363a88e6ebead9187c2ab714ce08da264697066735822122049d6984810784c1ab84effa13f6d053f166bde2cc888d9bd2bdfad1461c5bea564736f6c63430008140033",
  "linkReferences": {},
  "deployedLinkReferences": {}
}