{
  "_format": "hh-sol-artifact-1",
  "contractName": "Verification",
  "sourceName": "contracts/Verification.sol",
  "abi": [
    {
      "inputs": [],
      "stateMutability": "nonpayable",
      "type": "constructor"
    },
    {
      "anonymous": false,
      "inputs": [
        {
          "indexed": true,
          "internalType": "address",
          "name": "user",
          "type": "address"
        },
        {
          "indexed": false,
          "internalType": "uint256",
          "name": "timestamp",
          "type": "uint256"
        }
      ],
      "name": "UserRevoked",
      "type": "event"
    },
    {
      "anonymous": false,
      "inputs": [
        {
          "indexed": true,
          "internalType": "address",
          "name": "user",
          "type": "address"
        },
        {
          "indexed": false,
          "internalType": "uint256",
          "name": "timestamp",
          "type": "uint256"
        }
      ],
      "name": "UserVerified",
      "type": "event"
    },
    {
      "inputs": [
        {
          "internalType": "address",
          "name": "",
          "type": "address"
        }
      ],
      "name": "isVerified",
      "outputs": [
        {
          "internalType": "bool",
          "name": "",
          "type": "bool"
        }
      ],
      "stateMutability": "view",
      "type": "function"
    },
    {
      "inputs": [],
      "name": "owner",
      "outputs": [
        {
          "internalType": "address",
          "name": "",
          "type": "address"
        }
      ],
      "stateMutability": "view",
      "type": "function"
    },
    {
      "inputs": [
        {
          "internalType": "address",
          "name": "_user",
          "type": "address"
        }
      ],
      "name": "revokeUser",
      "outputs": [],
      "stateMutability": "nonpayable",
      "type": "function"
    },
    {
      "inputs": [
        {
          "internalType": "address",
          "name": "_user",
          "type": "address"
        }
      ],
      "name": "verifyUser",
      "outputs": [],
      "stateMutability": "nonpayable",
      "type": "function"
    }
  ],
  "bytecode": "0x6080806040523461002857600180546001600160a01b031916331790556102cd908161002e8239f35b600080fdfe60406080815260048036101561001457600080fd5b600091823560e01c80634d8131201461017c5780638da5cb5b1461014f578063b9209e33146101115763ef097fc41461004c57600080fd5b3461010d57602036600319011261010d5781356001600160a01b0381811693918490036101095761008290600154163314610240565b8284528360205260ff8285205416156100d3575060207f75af106136e6e9960067caef37ace95fde15a0ec63b419e1c949ea7a10c4d7ba9183855284825280852060ff19815416905551428152a280f35b6020606492519162461bcd60e51b83528201526011602482015270155cd95c881b9bdd081d995c9a599a5959607a1b6044820152fd5b8480fd5b8280fd5b50903461010d57602036600319011261010d57356001600160a01b0381169081900361010d57818360ff926020955280855220541690519015158152f35b83823461017857816003193601126101785760015490516001600160a01b039091168152602090f35b5080fd5b503461010d57602036600319011261010d5781356001600160a01b038181169391849003610109576101b390600154163314610240565b8284528360205260ff8285205416610206575060207f22b3126528cda4618d13b6945f5e96fe53a5125f386aa591ee89134e2681c62191838552848252808520600160ff1982541617905551428152a280f35b6020606492519162461bcd60e51b83528201526015602482015274155cd95c88185b1c9958591e481d995c9a599a5959605a1b6044820152fd5b1561024757565b60405162461bcd60e51b815260206004820152602260248201527f4f6e6c79206f776e65722063616e20706572666f726d2074686973206163746960448201526137b760f11b6064820152608490fdfea26469706673582212204faa579e985ffb5249b43b1dba2c1f543c2423505b55299b397a3731636107da64736f6c63430008140033",
  "linkReferences": {},
  "deployedLinkReferences": {}
}