{
  "_format": "hh-sol-artifact-1",
  "contractName": "QualityCertification",
  "sourceName": "contracts/QualityCertification.sol",
  "abi": [
    {
      "inputs": [],
      "stateMutability": "nonpayable",
      "type": "constructor"
    },
    {
      "anonymous": false,
      "inputs": [
        {
          "indexed": true,
          "internalType": "address",
          "name": "certifier",
          "type": "address"
        },
        {
          "indexed": false,
          "internalType": "uint256",
          "name": "timestamp",
          "type": "uint256"
        }
      ],
      "name": "CertifierAuthorized",
      "type": "event"
    },
    {
      "anonymous": false,
      "inputs": [
        {
          "indexed": true,
          "internalType": "address",
          "name": "certifier",
          "type": "address"
        },
        {
          "indexed": false,
          "internalType": "uint256",
          "name": "timestamp",
          "type": "uint256"
        }
      ],
      "name": "CertifierRevoked",
      "type": "event"
    },
    {
      "anonymous": false,
      "inputs": [
        {
          "indexed": true,
          "internalType": "string",
          "name": "batchId",
          "type": "string"
        },
        {
          "indexed": true,
          "internalType": "address",
          "name": "certifier",
          "type": "address"
        },
        {
          "indexed": false,
          "internalType": "string",
          "name": "certificateHash",
          "type": "string"
        },
        {
          "indexed": false,
          "internalType": "string",
          "name": "qualityGrade",
          "type": "string"
        },
        {
          "indexed": false,
          "internalType": "uint256",
          "name": "timestamp",
          "type": "uint256"
        }
      ],
      "name": "QualityCertified",
      "type": "event"
    },
    {
      "inputs": [
        {
          "internalType": "address",
          "name": "_certifier",
          "type": "address"
        }
      ],
      "name": "authorizeCertifier",
      "outputs": [],
      "stateMutability": "nonpayable",
      "type": "function"
    },
    {
      "inputs": [
        {
          "internalType": "address",
          "name": "",
          "type": "address"
        }
      ],
      "name": "authorizedCertifiers",
      "outputs": [
        {
          "internalType": "bool",
          "name": "",
          "type": "bool"
        }
      ],
      "stateMutability": "view",
      "type": "function"
    },
    {
      "inputs": [
        {
          "internalType": "string",
          "name": "",
          "type": "string"
        }
      ],
      "name": "certificates",
      "outputs": [
        {
          "internalType": "address",
          "name": "certifier",
          "type": "address"
        },
        {
          "internalType": "string",
          "name": "certificateHash",
          "type": "string"
        },
        {
          "internalType": "string",
          "name": "qualityGrade",
          "type": "string"
        },
        {
          "internalType": "uint256",
          "name": "timestamp",
          "type": "uint256"
        },
        {
          "internalType": "bool",
          "name": "exists",
          "type": "bool"
        }
      ],
      "stateMutability": "view",
      "type": "function"
    },
    {
      "inputs": [
        {
          "internalType": "string",
          "name": "_batchId",
          "type": "string"
        },
        {
          "internalType": "string",
          "name": "_certificateHash",
          "type": "string"
        },
        {
          "internalType": "string",
          "name": "_qualityGrade",
          "type": "string"
        }
      ],
      "name": "certifyQuality",
      "outputs": [],
      "stateMutability": "nonpayable",
      "type": "function"
    },
    {
      "inputs": [
        {
          "internalType": "string",
          "name": "_batchId",
          "type": "string"
        }
      ],
      "name": "getCertificate",
      "outputs": [
        {
          "components": [
            {
              "internalType": "address",
              "name": "certifier",
              "type": "address"
            },
            {
              "internalType": "string",
              "name": "certificateHash",
              "type": "string"
            },
            {
              "internalType": "string",
              "name": "qualityGrade",
              "type": "string"
            },
            {
              "internalType": "uint256",
              "name": "timestamp",
              "type": "uint256"
            },
            {
              "internalType": "bool",
              "name": "exists",
              "type": "bool"
            }
          ],
          "internalType": "struct QualityCertification.Certificate",
          "name": "",
          "type": "tuple"
        }
      ],
      "stateMutability": "view",
      "type": "function"
    },
    {
      "inputs": [
        {
          "internalType": "string",
          "name": "_batchId",
          "type": "string"
        }
      ],
      "name": "isCertified",
      "outputs": [
        {
          "internalType": "bool",
          "name": "",
          "type": "bool"
        }
      ],
      "stateMutability": "view",
      "type": "function"
    },
    {
      "inputs": [],
      "name": "owner",
      "outputs": [
        {
          "internalType": "address",
          "name": "",
          "type": "address"
        }
      ],
      "stateMutability": "view",
      "type": "function"
    },
    {
      "inputs": [
        {
          "internalType": "address",
          "name": "_certifier",
          "type": "address"
        }
      ],
      "name": "revokeCertifier",
      "outputs": [],
      "stateMutability": "nonpayable",
      "type": "function"
    }
  ],
  "bytecode": "0x60808060405234610040573360018060a01b031960025416176002553360005260016020526040600020600160ff19825416179055610d1190816100468239f35b600080fdfe6080604052600436101561001257600080fd5b60003560e01c8063723f36b714610a765780637e49e70c146105155780638da5cb5b146104ec5780638f2b91ea14610427578063bba7dcc4146103e4578063be72014714610319578063c86de368146102155763ed0f2e751461007457600080fd5b34610210576020806003193601126102105760043567ffffffffffffffff8111610210576100a6903690600401610b05565b600060806040516100b681610ac7565b8281526060858201526060604082015282606082015201526040519060ff60048251938581818601966100ea81838a610b5c565b81016000815203019020015416156101cb57610113918391604051938492839251928391610b5c565b810160008152030190206040519061012a82610ac7565b80546001600160a01b039081168352926101b861014960018401610bb9565b8285019081526101a561015e60028601610bb9565b916040870192835260ff600460038801549760608a0198895201541694608088019515158652604051988998828a525116908801525160a0604088015260c0870190610c5f565b9051858203601f19016060870152610c5f565b9151608084015251151560a08301520390f35b60405162461bcd60e51b815260048101849052601a60248201527f436572746966696361746520646f6573206e6f742065786973740000000000006044820152606490fd5b600080fd5b3461021057602080600319360112610210576004356001600160a01b038181169291839003610210576002541661024d813314610c84565b826000526001825260ff60406000205416156102e35782146102a9577f345161068331a24bf39f98a734565b3203c3c33f1b8bdb35e8b2d4d5ad84aea1908260005260018152604060002060ff198154169055604051428152a2005b6064906040519062461bcd60e51b82526004820152601360248201527221b0b73737ba103932bb37b5b29037bbb732b960691b6044820152fd5b60405162461bcd60e51b815260048101839052600e60248201526d139bdd08185d5d1a1bdc9a5e995960921b6044820152606490fd5b34610210576020366003190112610210576004356001600160a01b03818116918290036102105761034f90600254163314610c84565b80600052600160205260ff604060002054166103aa578060005260016020526040600020600160ff198254161790557f0cbb6267ec61364879139915e76cdd4168ab53916b6886add7ad86644f3df2a36020604051428152a2005b60405162461bcd60e51b8152602060048201526012602482015271105b1c9958591e48185d5d1a1bdc9a5e995960721b6044820152606490fd5b34610210576020366003190112610210576004356001600160a01b03811690819003610210576000526001602052602060ff604060002054166040519015158152f35b346102105760203660031901126102105760043567ffffffffffffffff811161021057602061045d610470923690600401610b05565b8160405193828580945193849201610b5c565b60009082019081520301902080546001600160a01b031661049360018301610bb9565b916104a060028201610bb9565b6104db60ff6004600385015494015416916104cd604051968796875260a0602088015260a0870190610c5f565b908582036040870152610c5f565b916060840152151560808301520390f35b34610210576000366003190112610210576002546040516001600160a01b039091168152602090f35b346102105760603660031901126102105760043567ffffffffffffffff811161021057610546903690600401610b05565b60243567ffffffffffffffff811161021057610566903690600401610b05565b9060443567ffffffffffffffff811161021057610587903690600401610b05565b9033600052600160205260ff6040600020541615610a315760ff600460405160208185516105b88183858a01610b5c565b810160008152030190200154166109ec578051156109a757825115610963576040516105e381610ac7565b338152602081018481528360408301524260608301526001608083015260405160208185516106158183858a01610b5c565b600090820190815203019020825181546001600160a01b0319166001600160a01b0391909116178155905180519067ffffffffffffffff821161087d5781906106616001850154610b7f565b601f8111610910575b50602090601f831160011461089e57600092610893575b50508160011b916000199060031b1c19161760018201555b604082015180519067ffffffffffffffff821161087d576106bd6002840154610b7f565b601f8111610836575b50602090601f831160011461079a57600461075794847fcc18c65de75c7fdcdd3b8bd9d81745dd2ee0056cb2a558131d15a49b1a9e26ec9895610780989560809560009261078f575b50508160011b916000199060031b1c19161760028201555b6060840151600382015501910151151560ff80198354169116179055602060405192828480945193849201610b5c565b81010390209261077260405195606087526060870190610c5f565b908582036020870152610c5f565b924260408201528033940390a3005b015190508c8061070f565b90601f198316916002850160005260206000209260005b81811061081e57509460018561078098956080956004957fcc18c65de75c7fdcdd3b8bd9d81745dd2ee0056cb2a558131d15a49b1a9e26ec9c996107579b10610805575b505050811b016002820155610727565b015160001960f88460031b161c191690558c80806107f5565b929360206001819287860151815501950193016107b1565b600284016000526020600020601f840160051c810160208510610876575b601f830160051c8201811061086a5750506106c6565b60008155600101610854565b5080610854565b634e487b7160e01b600052604160045260246000fd5b015190508780610681565b9250600184016000526020600020906000935b601f19841685106108f5576001945083601f198116106108dc575b505050811b016001820155610699565b015160001960f88460031b161c191690558780806108cc565b818101518355602094850194600190930192909101906108b1565b909150600184016000526020600020601f840160051c81016020851061095c575b90849392915b601f830160051c8201811061094d57505061066a565b60008155859450600101610937565b5080610931565b606460405162461bcd60e51b815260206004820152602060248201527f436572746966696361746520686173682063616e6e6f7420626520656d7074796044820152fd5b60405162461bcd60e51b815260206004820152601860248201527f42617463682049442063616e6e6f7420626520656d70747900000000000000006044820152606490fd5b60405162461bcd60e51b815260206004820152601760248201527f426174636820616c7265616479206365727469666965640000000000000000006044820152606490fd5b60405162461bcd60e51b815260206004820152601b60248201527f4e6f7420616e20617574686f72697a65642063657274696669657200000000006044820152606490fd5b346102105760203660031901126102105760043567ffffffffffffffff81116102105760ff6004610ab0602061045d819536908501610b05565b810160008152030190200154166040519015158152f35b60a0810190811067ffffffffffffffff82111761087d57604052565b90601f8019910116810190811067ffffffffffffffff82111761087d57604052565b81601f820112156102105780359067ffffffffffffffff821161087d5760405192610b3a601f8401601f191660200185610ae3565b8284526020838301011161021057816000926020809301838601378301015290565b60005b838110610b6f5750506000910152565b8181015183820152602001610b5f565b90600182811c92168015610baf575b6020831014610b9957565b634e487b7160e01b600052602260045260246000fd5b91607f1691610b8e565b9060405191826000825492610bcd84610b7f565b908184526001948581169081600014610c3c5750600114610bf9575b5050610bf792500383610ae3565b565b9093915060005260209081600020936000915b818310610c24575050610bf793508201013880610be9565b85548884018501529485019487945091830191610c0c565b915050610bf794506020925060ff191682840152151560051b8201013880610be9565b90602091610c7881518092818552858086019101610b5c565b601f01601f1916010190565b15610c8b57565b60405162461bcd60e51b815260206004820152602260248201527f4f6e6c79206f776e65722063616e20706572666f726d2074686973206163746960448201526137b760f11b6064820152608490fdfea264697066735822122089fc80cf95e93b88df2859b21b7b5dae495906cbbd6ad38ed78310fdefe9789564736f6c63430008140033",
  "linkReferences": {},
  "deployedLinkReferences": {}
}