{
  "_format": "hh-sol-artifact-1",
  "contractName": "MangoChainRegistry",
  "sourceName": "contracts/MangoChainRegistry.sol",
  "abi": [
    {
      "inputs": [],
      "stateMutability": "nonpayable",
      "type": "constructor"
    },
    {
      "anonymous": false,
      "inputs": [
        {
          "indexed": true,
          "internalType": "address",
          "name": "admin",
          "type": "address"
        },
        {
          "indexed": false,
          "internalType": "string",
          "name": "version",
          "type": "string"
        },
        {
          "indexed": false,
          "internalType": "uint256",
          "name": "timestamp",
          "type": "uint256"
        }
      ],
      "name": "ContratoActualizado",
      "type": "event"
    },
    {
      "anonymous": false,
      "inputs": [
        {
          "indexed": true,
          "internalType": "string",
          "name": "loteId",
          "type": "string"
        },
        {
          "indexed": true,
          "internalType": "address",
          "name": "productor",
          "type": "address"
        },
        {
          "indexed": false,
          "internalType": "string",
          "name": "productorName",
          "type": "string"
        },
        {
          "indexed": false,
          "internalType": "string",
          "name": "ubicacion",
          "type": "string"
        },
        {
          "indexed": false,
          "internalType": "string",
          "name": "variedad",
          "type": "string"
        },
        {
          "indexed": false,
          "internalType": "string",
          "name": "calidad",
          "type": "string"
        },
        {
          "indexed": false,
          "internalType": "uint256",
          "name": "fechaRegistro",
          "type": "uint256"
        }
      ],
      "name": "LoteRegistrado",
      "type": "event"
    },
    {
      "anonymous": false,
      "inputs": [
        {
          "indexed": true,
          "internalType": "string",
          "name": "loteId",
          "type": "string"
        },
        {
          "indexed": false,
          "internalType": "address",
          "name": "verifier",
          "type": "address"
        },
        {
          "indexed": false,
          "internalType": "uint256",
          "name": "timestamp",
          "type": "uint256"
        },
        {
          "indexed": false,
          "internalType": "bool",
          "name": "resultado",
          "type": "bool"
        }
      ],
      "name": "LoteVerificado",
      "type": "event"
    },
    {
      "anonymous": false,
      "inputs": [
        {
          "indexed": true,
          "internalType": "string",
          "name": "loteId",
          "type": "string"
        },
        {
          "indexed": true,
          "internalType": "address",
          "name": "previousOwner",
          "type": "address"
        },
        {
          "indexed": true,
          "internalType": "address",
          "name": "newOwner",
          "type": "address"
        },
        {
          "indexed": false,
          "internalType": "string",
          "name": "motivo",
          "type": "string"
        },
        {
          "indexed": false,
          "internalType": "uint256",
          "name": "timestamp",
          "type": "uint256"
        }
      ],
      "name": "PropiedadTransferida",
      "type": "event"
    },
    {
      "inputs": [
        {
          "internalType": "string",
          "name": "_loteId",
          "type": "string"
        }
      ],
      "name": "activarLote",
      "outputs": [],
      "stateMutability": "nonpayable",
      "type": "function"
    },
    {
      "inputs": [
        {
          "internalType": "string",
          "name": "_loteId",
          "type": "string"
        }
      ],
      "name": "desactivarLote",
      "outputs": [],
      "stateMutability": "nonpayable",
      "type": "function"
    },
    {
      "inputs": [],
      "name": "emergencyStop",
      "outputs": [],
      "stateMutability": "nonpayable",
      "type": "function"
    },
    {
      "inputs": [
        {
          "internalType": "string",
          "name": "",
          "type": "string"
        },
        {
          "internalType": "uint256",
          "name": "",
          "type": "uint256"
        }
      ],
      "name": "historialLotes",
      "outputs": [
        {
          "internalType": "address",
          "name": "from",
          "type": "address"
        },
        {
          "internalType": "address",
          "name": "to",
          "type": "address"
        },
        {
          "internalType": "uint256",
          "name": "timestamp",
          "type": "uint256"
        },
        {
          "internalType": "string",
          "name": "motivo",
          "type": "string"
        },
        {
          "internalType": "string",
          "name": "comentario",
          "type": "string"
        }
      ],
      "stateMutability": "view",
      "type": "function"
    },
    {
      "inputs": [
        {
          "internalType": "string",
          "name": "",
          "type": "string"
        }
      ],
      "name": "loteIdExiste",
      "outputs": [
        {
          "internalType": "bool",
          "name": "",
          "type": "bool"
        }
      ],
      "stateMutability": "view",
      "type": "function"
    },
    {
      "inputs": [
        {
          "internalType": "string",
          "name": "",
          "type": "string"
        }
      ],
      "name": "lotes",
      "outputs": [
        {
          "internalType": "string",
          "name": "loteId",
          "type": "string"
        },
        {
          "internalType": "address",
          "name": "productor",
          "type": "address"
        },
        {
          "internalType": "string",
          "name": "productorName",
          "type": "string"
        },
        {
          "internalType": "string",
          "name": "ubicacion",
          "type": "string"
        },
        {
          "internalType": "string",
          "name": "variedad",
          "type": "string"
        },
        {
          "internalType": "string",
          "name": "calidad",
          "type": "string"
        },
        {
          "internalType": "uint256",
          "name": "fechaCosecha",
          "type": "uint256"
        },
        {
          "internalType": "uint256",
          "name": "fechaRegistro",
          "type": "uint256"
        },
        {
          "internalType": "address",
          "name": "owner",
          "type": "address"
        },
        {
          "internalType": "string",
          "name": "metadata",
          "type": "string"
        },
        {
          "internalType": "bool",
          "name": "activo",
          "type": "bool"
        }
      ],
      "stateMutability": "view",
      "type": "function"
    },
    {
      "inputs": [
        {
          "internalType": "address",
          "name": "",
          "type": "address"
        },
        {
          "internalType": "uint256",
          "name": "",
          "type": "uint256"
        }
      ],
      "name": "lotesPorProductor",
      "outputs": [
        {
          "internalType": "string",
          "name": "",
          "type": "string"
        }
      ],
      "stateMutability": "view",
      "type": "function"
    },
    {
      "inputs": [],
      "name": "obtenerEstadisticas",
      "outputs": [
        {
          "internalType": "uint256",
          "name": "",
          "type": "uint256"
        },
        {
          "internalType": "uint256",
          "name": "",
          "type": "uint256"
        },
        {
          "internalType": "uint256",
          "name": "",
          "type": "uint256"
        }
      ],
      "stateMutability": "view",
      "type": "function"
    },
    {
      "inputs": [
        {
          "internalType": "string",
          "name": "_loteId",
          "type": "string"
        }
      ],
      "name": "obtenerHistorial",
      "outputs": [
        {
          "components": [
            {
              "internalType": "address",
              "name": "from",
              "type": "address"
            },
            {
              "internalType": "address",
              "name": "to",
              "type": "address"
            },
            {
              "internalType": "uint256",
              "name": "timestamp",
              "type": "uint256"
            },
            {
              "internalType": "string",
              "name": "motivo",
              "type": "string"
            },
            {
              "internalType": "string",
              "name": "comentario",
              "type": "string"
            }
          ],
          "internalType": "struct MangoChainRegistry.Transferencia[]",
          "name": "",
          "type": "tuple[]"
        }
      ],
      "stateMutability": "view",
      "type": "function"
    },
    {
      "inputs": [
        {
          "internalType": "string",
          "name": "_loteId",
          "type": "string"
        }
      ],
      "name": "obtenerLote",
      "outputs": [
        {
          "internalType": "string",
          "name": "",
          "type": "string"
        },
        {
          "internalType": "address",
          "name": "",
          "type": "address"
        },
        {
          "internalType": "string",
          "name": "",
          "type": "string"
        },
        {
          "internalType": "string",
          "name": "",
          "type": "string"
        },
        {
          "internalType": "string",
          "name": "",
          "type": "string"
        },
        {
          "internalType": "string",
          "name": "",
          "type": "string"
        },
        {
          "internalType": "uint256",
          "name": "",
          "type": "uint256"
        },
        {
          "internalType": "uint256",
          "name": "",
          "type": "uint256"
        },
        {
          "internalType": "address",
          "name": "",
          "type": "address"
        },
        {
          "internalType": "string",
          "name": "",
          "type": "string"
        },
        {
          "internalType": "bool",
          "name": "",
          "type": "bool"
        }
      ],
      "stateMutability": "view",
      "type": "function"
    },
    {
      "inputs": [
        {
          "internalType": "address",
          "name": "_productor",
          "type": "address"
        }
      ],
      "name": "obtenerLotesPorProductor",
      "outputs": [
        {
          "internalType": "string[]",
          "name": "",
          "type": "string[]"
        }
      ],
      "stateMutability": "view",
      "type": "function"
    },
    {
      "inputs": [],
      "name": "owner",
      "outputs": [
        {
          "internalType": "address",
          "name": "",
          "type": "address"
        }
      ],
      "stateMutability": "view",
      "type": "function"
    },
    {
      "inputs": [
        {
          "internalType": "string",
          "name": "_loteId",
          "type": "string"
        },
        {
          "internalType": "string",
          "name": "_productorName",
          "type": "string"
        },
        {
          "internalType": "string",
          "name": "_ubicacion",
          "type": "string"
        },
        {
          "internalType": "string",
          "name": "_variedad",
          "type": "string"
        },
        {
          "internalType": "string",
          "name": "_calidad",
          "type": "string"
        },
        {
          "internalType": "uint256",
          "name": "_fechaCosecha",
          "type": "uint256"
        },
        {
          "internalType": "string",
          "name": "_metadata",
          "type": "string"
        }
      ],
      "name": "registrarLote",
      "outputs": [
        {
          "internalType": "bool",
          "name": "",
          "type": "bool"
        }
      ],
      "stateMutability": "nonpayable",
      "type": "function"
    },
    {
      "inputs": [],
      "name": "totalLotes",
      "outputs": [
        {
          "internalType": "uint256",
          "name": "",
          "type": "uint256"
        }
      ],
      "stateMutability": "view",
      "type": "function"
    },
    {
      "inputs": [],
      "name": "totalTransferencias",
      "outputs": [
        {
          "internalType": "uint256",
          "name": "",
          "type": "uint256"
        }
      ],
      "stateMutability": "view",
      "type": "function"
    },
    {
      "inputs": [
        {
          "internalType": "address",
          "name": "_nuevoOwner",
          "type": "address"
        }
      ],
      "name": "transferirOwnershipContrato",
      "outputs": [],
      "stateMutability": "nonpayable",
      "type": "function"
    },
    {
      "inputs": [
        {
          "internalType": "string",
          "name": "_loteId",
          "type": "string"
        },
        {
          "internalType": "address",
          "name": "_nuevoOwner",
          "type": "address"
        },
        {
          "internalType": "string",
          "name": "_motivo",
          "type": "string"
        },
        {
          "internalType": "string",
          "name": "_comentario",
          "type": "string"
        }
      ],
      "name": "transferirPropiedad",
      "outputs": [
        {
          "internalType": "bool",
          "name": "",
          "type": "bool"
        }
      ],
      "stateMutability": "nonpayable",
      "type": "function"
    },
    {
      "inputs": [
        {
          "internalType": "string",
          "name": "_loteId",
          "type": "string"
        }
      ],
      "name": "verificarLote",
      "outputs": [
        {
          "internalType": "bool",
          "name": "",
          "type": "bool"
        },
        {
          "internalType": "string",
          "name": "",
          "type": "string"
        }
      ],
      "stateMutability": "view",
      "type": "function"
    }
  ],
  "bytecode": "0x60808060405234610078573360018060a01b0319600054161760005560006001556000600255604081526004604082015263076312e360e41b60608201524260208201527f3b6c43f816c7f2729fe5330256755d7829518217eb7e48a596afaecd1fb8f90660803392a2604051611889908161007e8239f35b600080fdfe6080604052600436101561001257600080fd5b60003560e01c80631947f1e314610e7e5780631faf578514610e305780632cc73f5e14610e1257806331227e1f14610d2c57806332d463b114610c555780633855a37314610c375780633d2718b514610bcd5780634ed3ee0714610b7c57806363a599a414610b03578063654cee9f14610aa0578063731d18b614610a2f5780637775dca3146108ae57806384eb2d5c146108105780638da5cb5b146107e7578063948618701461035b578063a5ab059e14610288578063b118d04e1461025c5763e71a8124146100e257600080fd5b34610257576020366003190112610257576004356001600160401b038111610257576020610117610156923690600401611252565b6040519061014560ff82519385818186019661013481838a6112be565b810160068152030190205416611625565b6040519384928392519283916112be565b8101600381520301902060405161016c816111fa565b61017582611340565b815260018201546001600160a01b03908116602083019081529161025391610120906101a360028701611340565b95604084019687526101b760038201611340565b91606085019283526101cb60048301611340565b608086019081526101de60058401611340565b60a0870190815260068401549160c0880192835260078501549360e089019485528060ff600a8260088a015416986101008d01998a528c61022160098301611340565b9c8d9101520154161515998a610140820152519b51169b5196519151925193519451955116956040519b8c9b8c6113e6565b0390f35b600080fd5b346102575760003660031901126102575760606001546002546040519182526020820152426040820152f35b34610257576040366003190112610257576004356001600160401b038111610257576102b8903690600401611252565b6102d460206024359281604051938285809451938492016112be565b81016004815203019020908154811015610257576102f1916114b5565b5060018060a01b0361025381835416916001840154169261034d600282015491610329600461032260038401611340565b9201611340565b9260405196879687526020870152604086015260a0606086015260a08501906112e1565b9083820360808501526112e1565b346102575760e0366003190112610257576001600160401b036004358181116102575761038c903690600401611252565b602435828111610257576103a4903690600401611252565b91604435818111610257576103bd903690600401611252565b91606435828111610257576103d6903690600401611252565b91608435818111610257576103ef903690600401611252565b9060c43590811161025757610408903690600401611252565b8251156107ab5760ff60405160208186516104268183858b016112be565b8101600681520301902054166107725785511561072d578451156106f25760a435904282116106ad576040519161045c836111fa565b8483523360208401528760408401528660608401528560808401528360a084015260c08301524260e0830152336101008301526101208201526001610140820152610140600a60405160208187516104b78183858c016112be565b810160038152030190206104cc8451826114d1565b60208401516001820180546001600160a01b03199081166001600160a01b0393841617909155604086015161050490600285016114d1565b6105156060870151600385016114d1565b6105266080870151600485016114d1565b61053760a0870151600585016114d1565b60c0860151600684015560e0860151600784015560088301916101008701511690825416179055610570610120850151600983016114d1565b0191015115159060ff199160ff8383541691161790556001604051602081865161059d8183858b016112be565b810160068152030190209182541617905533600052600560205260406000208054600160401b811015610697576105d991600182018155611487565b610681577f51eb35c1a3c78d8b95841877dbe7fc378cd1cbfa261e0fe81290b92ea5caf4549361064d610629856106166106699761065b966114d1565b6106216001546115e0565b600155611605565b9661063f6040519960a08b5260a08b01906112e1565b9089820360208b01526112e1565b9087820360408901526112e1565b9085820360608701526112e1565b924260808201528033940390a3602060405160018152f35b634e487b7160e01b600052600060045260246000fd5b634e487b7160e01b600052604160045260246000fd5b60405162461bcd60e51b815260206004820152601960248201527f466563686120646520636f736563686120696e76616c696461000000000000006044820152606490fd5b60405162461bcd60e51b8152602060048201526013602482015272556269636163696f6e2072657175657269646160681b6044820152606490fd5b60405162461bcd60e51b815260206004820152601d60248201527f4e6f6d6272652064652070726f647563746f722072657175657269646f0000006044820152606490fd5b60405162461bcd60e51b81526020600482015260116024820152704c6f74652049442079612065786973746560781b6044820152606490fd5b60405162461bcd60e51b81526020600482015260146024820152734944206465206c6f74652072657175657269646f60601b6044820152606490fd5b34610257576000366003190112610257576000546040516001600160a01b039091168152602090f35b34610257576020366003190112610257576108296112a8565b600054906001600160a01b039061084333838516146117f5565b1690811561085b576001600160a01b03191617600055005b60405162461bcd60e51b815260206004820152602560248201527f4e7565766f206f776e6572206e6f207075656465207365722061646472657373604482015264207a65726f60d81b6064820152608490fd5b3461025757602080600319360112610257576004356001600160401b03811161025757816101176108e3923690600401611252565b81016004815203019020908154916108fa83611662565b926109086040519485611231565b8084528284018092600052836000206000915b8383106109c85750505050604051918083019381845251809452604083019360408160051b85010192916000955b8287106109565785850386f35b9091929382806109b8600193603f198a82030186528851858060a01b03808251168352848201511684830152604081015160408301526109a56060808301519060a080918601528401906112e1565b91608080920151918184039101526112e1565b9601920196019592919092610949565b6005866001926040999899516109dd816111df565b848060a01b0380875416825285870154168382015260028601546040820152610a0860038701611340565b6060820152610a1960048701611340565b608082015281520192019201919095949561091b565b34610257576020366003190112610257576004356001600160401b03811161025757610a62610a81913690600401611252565b610a7c60ff60405160208185516101348183858a016112be565b611679565b90610253604051928392151583526040602084015260408301906112e1565b34610257576020366003190112610257576004356001600160401b03811161025757610aec6020610ad7600a933690600401611252565b61011760018060a01b036000541633146117f5565b60039082019081520301902001805460ff19169055005b3461025757600036600319011261025757610b2960018060a01b036000541633146117f5565b60405160408152600e60408201526d0454d455247454e43595f53544f560941b60608201524260208201527f3b6c43f816c7f2729fe5330256755d7829518217eb7e48a596afaecd1fb8f90660803392a2005b34610257576020366003190112610257576004356001600160401b03811161025757610bb36020610ad7600a933690600401611252565b60039082019081520301902001805460ff19166001179055005b3461025757604036600319011261025757610be66112a8565b6001600160a01b0316600090815260056020526040902080546024359081101561025757610c1391611487565b61068157610c2361025391611340565b6040519182916020835260208301906112e1565b34610257576000366003190112610257576020600154604051908152f35b34610257576020366003190112610257576004356001600160401b038111610257576020610c8a610c9d923690600401611252565b81604051938285809451938492016112be565b81016003815203019020610cb081611340565b60018201546001600160a01b03908116926102539190610cd260028201611340565b91610cdf60038301611340565b90610cec60048401611340565b610cf860058501611340565b6006850154916007860154936008870154169460ff600a610d1b60098a01611340565b98015416976040519b8c9b8c6113e6565b3461025757602080600319360112610257576001600160a01b03610d4e6112a8565b1660005260058152604060002090815491610d6883611662565b92610d766040519485611231565b8084528284018092600052836000206000915b838310610df05750505050604051918083019381845251809452604083019360408160051b85010192916000955b828710610dc45785850386f35b909192938280610de0600193603f198a820301865288516112e1565b9601920196019592919092610db7565b6001868192610e01859a999a611340565b815201920192019190959495610d89565b34610257576000366003190112610257576020600254604051908152f35b34610257576020366003190112610257576004356001600160401b0381116102575760ff610e686020610c8a81943690600401611252565b8101600681520301902054166040519015158152f35b34610257576080366003190112610257576001600160401b0360043581811161025757610eaf903690600401611252565b6001600160a01b03916024358381169291908390036102575760443581811161025757610ee0903690600401611252565b9060643590811161025757610ef9903690600401611252565b9360405194835191610f1a60ff6020988981818a019761013481838b6112be565b80600860405189818951610f2f81838b6112be565b81016003815203019020015416330361119a5785156111605733861461111b5760ff600a60405189818951610f6581838b6112be565b81016003815203019020015416156110e05780600860405189818951610f8c81838b6112be565b8101600381520301902001541694600860405189818451610fae81838b6112be565b81016003815203019020016bffffffffffffffffffffffff60a01b908882825416179055604051610fde816111df565b8781528981019389855260408201954287526110148c60608501998b8b5260808601938452604051809381928a519283916112be565b810160048152030190208054600160401b8110156106975761103b916001820181556114b5565b939093610681577fd33ea0002dfedc25db0f9f698af224a8ec8617c502b4db917c208a652d573e6d986110cf986110ba986110a7978660049761109f965116828a5416178955600189019251169082541617905551600286015551600385016114d1565b5191016114d1565b6110b26002546115e0565b600255611605565b926040519182916040835260408301906112e1565b42888301520390a460405160018152f35b60405162461bcd60e51b81526004810188905260136024820152724c6f7465206e6f20657374612061637469766f60681b6044820152606490fd5b60405162461bcd60e51b815260048101889052601f60248201527f4e6f20707565646573207472616e7366657269722061207469206d69736d6f006044820152606490fd5b60405162461bcd60e51b8152600481018890526012602482015271446972656363696f6e20696e76616c69646160701b6044820152606490fd5b60405162461bcd60e51b815260048101889052601d60248201527f4e6f206572657320656c206475656e6f2064652065737465206c6f74650000006044820152606490fd5b60a081019081106001600160401b0382111761069757604052565b61016081019081106001600160401b0382111761069757604052565b604081019081106001600160401b0382111761069757604052565b90601f801991011681019081106001600160401b0382111761069757604052565b81601f82011215610257578035906001600160401b0382116106975760405192611286601f8401601f191660200185611231565b8284526020838301011161025757816000926020809301838601378301015290565b600435906001600160a01b038216820361025757565b60005b8381106112d15750506000910152565b81810151838201526020016112c1565b906020916112fa815180928185528580860191016112be565b601f01601f1916010190565b90600182811c92168015611336575b602083101461132057565b634e487b7160e01b600052602260045260246000fd5b91607f1691611315565b906040519182600082549261135484611306565b9081845260019485811690816000146113c35750600114611380575b505061137e92500383611231565b565b9093915060005260209081600020936000915b8183106113ab57505061137e93508201013880611370565b85548884018501529485019487945091830191611393565b91505061137e94506020925060ff191682840152151560051b8201013880611370565b99959061145f92956114438c9d9e9d6101409c9761143561147f9d98611417611451976101608087528601906112e1565b6001600160a01b039c8d1660208601528481036040860152906112e1565b9160608184039101526112e1565b8c810360808e0152906112e1565b908a820360a08c01526112e1565b9460c089015260e0880152166101008601528482036101208601526112e1565b931515910152565b805482101561149f5760005260206000200190600090565b634e487b7160e01b600052603260045260246000fd5b805482101561149f576000526005602060002091020190600090565b91909182516001600160401b038111610697576114ee8254611306565b601f8111611598575b50602080601f8311600114611534575081929394600092611529575b50508160011b916000199060031b1c1916179055565b015190503880611513565b90601f198316958460005282600020926000905b88821061158057505083600195969710611567575b505050811b019055565b015160001960f88460031b161c1916905538808061155d565b80600185968294968601518155019501930190611548565b600083815260208120601f840160051c810192602085106115d6575b601f0160051c01915b8281106115cb5750506114f7565b8181556001016115bd565b90925082906115b4565b60001981146115ef5760010190565b634e487b7160e01b600052601160045260246000fd5b61161d906020604051928284809451938492016112be565b810103902090565b1561162c57565b60405162461bcd60e51b815260206004820152600e60248201526d4c6f7465206e6f2065786973746560901b6044820152606490fd5b6001600160401b0381116106975760051b60200190565b906040918251818180935161169481602096878096016112be565b810160038152030190208351906116aa826111fa565b6116b381611340565b825260018060a01b039160ff600a84600185015416938684019485526116db60028201611340565b898501526116eb60038201611340565b60608501526116fc60048201611340565b608085015261170d60058201611340565b60a0850152600681015460c0850152600781015460e08501528560088201541661010085015261173f60098201611340565b610120850152015416159061014082159101526117c457511615611796577f4c6f7465207665726966696361646f20636f7272656374616d656e7465000000600193519161178c83611216565b601d835282015290565b7150726f647563746f7220696e76616c69646f60701b60009351916117ba83611216565b6012835282015290565b5050724c6f7465206e6f20657374612061637469766f60681b60009351916117eb83611216565b6013835282015290565b156117fc57565b60405162461bcd60e51b815260206004820152602960248201527f536f6c6f20656c206f776e657220707565646520656a656375746172206573746044820152683090333ab731b4b7b760b91b6064820152608490fdfea26469706673582212208c3576beff6bdc3f954f6f887bfa6f6dc2132703322316350658d0c9556c123b64736f6c63430008140033",
  "linkReferences": {},
  "deployedLinkReferences": {}
}