{
  "_format": "hh-sol-artifact-1",
  "contractName": "MangoChainRegistry",
  "sourceName": "contracts/MangoChainRegistry.sol",
  "abi": [
    {
      "inputs": [],
      "stateMutability": "nonpayable",
      "type": "constructor"
    },
    {
      "anonymous": false,
      "inputs": [
        {
          "indexed": true,
          "internalType": "address",
          "name": "admin",
          "type": "address"
        },
        {
          "indexed": false,
          "internalType": "string",
          "name": "version",
          "type": "string"
        },
        {
          "indexed": false,
          "internalType": "uint256",
          "name": "timestamp",
          "type": "uint256"
        }
      ],
      "name": "ContratoActualizado",
      "type": "event"
    },
    {
      "anonymous": false,
      "inputs": [
        {
          "indexed": true,
          "internalType": "string",
          "name": "loteId",
          "type": "string"
        },
        {
          "indexed": true,
          "internalType": "address",
          "name": "productor",
          "type": "address"
        },
        {
          "indexed": false,
          "internalType": "string",
          "name": "productorName",
          "type": "string"
        },
        {
          "indexed": false,
          "internalType": "string",
          "name": "ubicacion",
          "type": "string"
        },
        {
          "indexed": false,
          "internalType": "string",
          "name": "variedad",
          "type": "string"
        },
        {
          "indexed": false,
          "internalType": "string",
          "name": "calidad",
          "type": "string"
        },
        {
          "indexed": false,
          "internalType": "uint256",
          "name": "fechaRegistro",
          "type": "uint256"
        }
      ],
      "name": "LoteRegistrado",
      "type": "event"
    },
    {
      "anonymous": false,
      "inputs": [
        {
          "indexed": true,
          "internalType": "string",
          "name": "loteId",
          "type": "string"
        },
        {
          "indexed": false,
          "internalType": "address",
          "name": "verifier",
          "type": "address"
        },
        {
          "indexed": false,
          "internalType": "uint256",
          "name": "timestamp",
          "type": "uint256"
        },
        {
          "indexed": false,
          "internalType": "bool",
          "name": "resultado",
          "type": "bool"
        }
      ],
      "name": "LoteVerificado",
      "type": "event"
    },
    {
      "anonymous": false,
      "inputs": [
        {
          "indexed": true,
          "internalType": "string",
          "name": "loteId",
          "type": "string"
        },
        {
          "indexed": true,
          "internalType": "address",
          "name": "previousOwner",
          "type": "address"
        },
        {
          "indexed": true,
          "internalType": "address",
          "name": "newOwner",
          "type": "address"
        },
        {
          "indexed": false,
          "internalType": "string",
          "name": "motivo",
          "type": "string"
        },
        {
          "indexed": false,
          "internalType": "uint256",
          "name": "timestamp",
          "type": "uint256"
        }
      ],
      "name": "PropiedadTransferida",
      "type": "event"
    },
    {
      "inputs": [
        {
          "internalType": "string",
          "name": "_loteId",
          "type": "string"
        }
      ],
      "name": "activarLote",
      "outputs": [],
      "stateMutability": "nonpayable",
      "type": "function"
    },
    {
      "inputs": [
        {
          "internalType": "string",
          "name": "_loteId",
          "type": "string"
        }
      ],
      "name": "desactivarLote",
      "outputs": [],
      "stateMutability": "nonpayable",
      "type": "function"
    },
    {
      "inputs": [],
      "name": "emergencyStop",
      "outputs": [],
      "stateMutability": "nonpayable",
      "type": "function"
    },
    {
      "inputs": [
        {
          "internalType": "string",
          "name": "",
          "type": "string"
        },
        {
          "internalType": "uint256",
          "name": "",
          "type": "uint256"
        }
      ],
      "name": "historialLotes",
      "outputs": [
        {
          "internalType": "address",
          "name": "from",
          "type": "address"
        },
        {
          "internalType": "address",
          "name": "to",
          "type": "address"
        },
        {
          "internalType": "uint256",
          "name": "timestamp",
          "type": "uint256"
        },
        {
          "internalType": "string",
          "name": "motivo",
          "type": "string"
        },
        {
          "internalType": "string",
          "name": "comentario",
          "type": "string"
        }
      ],
      "stateMutability": "view",
      "type": "function"
    },
    {
      "inputs": [
        {
          "internalType": "string",
          "name": "",
          "type": "string"
        }
      ],
      "name": "loteIdExiste",
      "outputs": [
        {
          "internalType": "bool",
          "name": "",
          "type": "bool"
        }
      ],
      "stateMutability": "view",
      "type": "function"
    },
    {
      "inputs": [
        {
          "internalType": "string",
          "name": "",
          "type": "string"
        }
      ],
      "name": "lotes",
      "outputs": [
        {
          "internalType": "string",
          "name": "loteId",
          "type": "string"
        },
        {
          "internalType": "address",
          "name": "productor",
          "type": "address"
        },
        {
          "internalType": "string",
          "name": "productorName",
          "type": "string"
        },
        {
          "internalType": "string",
          "name": "ubicacion",
          "type": "string"
        },
        {
          "internalType": "string",
          "name": "variedad",
          "type": "string"
        },
        {
          "internalType": "string",
          "name": "calidad",
          "type": "string"
        },
        {
          "internalType": "uint256",
          "name": "fechaCosecha",
          "type": "uint256"
        },
        {
          "internalType": "uint256",
          "name": "fechaRegistro",
          "type": "uint256"
        },
        {
          "internalType": "address",
          "name": "owner",
          "type": "address"
        },
        {
          "internalType": "string",
          "name": "metadata",
          "type": "string"
        },
        {
          "internalType": "bool",
          "name": "activo",
          "type": "bool"
        }
      ],
      "stateMutability": "view",
      "type": "function"
    },
    {
      "inputs": [
        {
          "internalType": "address",
          "name": "",
          "type": "address"
        },
        {
          "internalType": "uint256",
          "name": "",
          "type": "uint256"
        }
      ],
      "name": "lotesPorProductor",
      "outputs": [
        {
          "internalType": "string",
          "name": "",
          "type": "string"
        }
      ],
      "stateMutability": "view",
      "type": "function"
    },
    {
      "inputs": [],
      "name": "obtenerEstadisticas",
      "outputs": [
        {
          "internalType": "uint256",
          "name": "",
          "type": "uint256"
        },
        {
          "internalType": "uint256",
          "name": "",
          "type": "uint256"
        },
        {
          "internalType": "uint256",
          "name": "",
          "type": "uint256"
        }
      ],
      "stateMutability": "view",
      "type": "function"
    },
    {
      "inputs": [
        {
          "internalType": "string",
          "name": "_loteId",
          "type": "string"
        }
      ],
      "name": "obtenerHistorial",
      "outputs": [
        {
          "components": [
            {
              "internalType": "address",
              "name": "from",
              "type": "address"
            },
            {
              "internalType": "address",
              "name": "to",
              "type": "address"
            },
            {
              "internalType": "uint256",
              "name": "timestamp",
              "type": "uint256"
            },
            {
              "internalType": "string",
              "name": "motivo",
              "type": "string"
            },
            {
              "internalType": "string",
              "name": "comentario",
              "type": "string"
            }
          ],
          "internalType": "struct MangoChainRegistry.Transferencia[]",
          "name": "",
          "type": "tuple[]"
        }
      ],
      "stateMutability": "view",
      "type": "function"
    },
    {
      "inputs": [
        {
          "internalType": "string",
          "name": "_loteId",
          "type": "string"
        }
      ],
      "name": "obtenerLote",
      "outputs": [
        {
          "internalType": "string",
          "name": "",
          "type": "string"
        },
        {
          "internalType": "address",
          "name": "",
          "type": "address"
        },
        {
          "internalType": "string",
          "name": "",
          "type": "string"
        },
        {
          "internalType": "string",
          "name": "",
          "type": "string"
        },
        {
          "internalType": "string",
          "name": "",
          "type": "string"
        },
        {
          "internalType": "string",
          "name": "",
          "type": "string"
        },
        {
          "internalType": "uint256",
          "name": "",
          "type": "uint256"
        },
        {
          "internalType": "uint256",
          "name": "",
          "type": "uint256"
        },
        {
          "internalType": "address",
          "name": "",
          "type": "address"
        },
        {
          "internalType": "string",
          "name": "",
          "type": "string"
        },
        {
          "internalType": "bool",
          "name": "",
          "type": "bool"
        }
      ],
      "stateMutability": "view",
      "type": "function"
    },
    {
      "inputs": [
        {
          "internalType": "address",
          "name": "_productor",
          "type": "address"
        }
      ],
      "name": "obtenerLotesPorProductor",
      "outputs": [
        {
          "internalType": "string[]",
          "name": "",
          "type": "string[]"
        }
      ],
      "stateMutability": "view",
      "type": "function"
    },
    {
      "inputs": [],
      "name": "owner",
      "outputs": [
        {
          "internalType": "address",
          "name": "",
          "type": "address"
        }
      ],
      "stateMutability": "view",
      "type": "function"
    },
    {
      "inputs": [
        {
          "internalType": "string",
          "name": "_loteId",
          "type": "string"
        },
        {
          "internalType": "string",
          "name": "_productorName",
          "type": "string"
        },
        {
          "internalType": "string",
          "name": "_ubicacion",
          "type": "string"
        },
        {
          "internalType": "string",
          "name": "_variedad",
          "type": "string"
        },
        {
          "internalType": "string",
          "name": "_calidad",
          "type": "string"
        },
        {
          "internalType": "uint256",
          "name": "_fechaCosecha",
          "type": "uint256"
        },
        {
          "internalType": "string",
          "name": "_metadata",
          "type": "string"
        }
      ],
      "name": "registrarLote",
      "outputs": [
        {
          "internalType": "bool",
          "name": "",
          "type": "bool"
        }
      ],
      "stateMutability": "nonpayable",
      "type": "function"
    },
    {
      "inputs": [],
      "name": "totalLotes",
      "outputs": [
        {
          "internalType": "uint256",
          "name": "",
          "type": "uint256"
        }
      ],
      "stateMutability": "view",
      "type": "function"
    },
    {
      "inputs": [],
      "name": "totalTransferencias",
      "outputs": [
        {
          "internalType": "uint256",
          "name": "",
          "type": "uint256"
        }
      ],
      "stateMutability": "view",
      "type": "function"
    },
    {
      "inputs": [
        {
          "internalType": "address",
          "name": "_nuevoOwner",
          "type": "address"
        }
      ],
      "name": "transferirOwnershipContrato",
      "outputs": [],
      "stateMutability": "nonpayable",
      "type": "function"
    },
    {
      "inputs": [
        {
          "internalType": "string",
          "name": "_loteId",
          "type": "string"
        },
        {
          "internalType": "address",
          "name": "_nuevoOwner",
          "type": "address"
        },
        {
          "internalType": "string",
          "name": "_motivo",
          "type": "string"
        },
        {
          "internalType": "string",
          "name": "_comentario",
          "type": "string"
        }
      ],
      "name": "transferirPropiedad",
      "outputs": [
        {
          "internalType": "bool",
          "name": "",
          "type": "bool"
        }
      ],
      "stateMutability": "nonpayable",
      "type": "function"
    },
    {
      "inputs": [
        {
          "internalType": "string",
          "name": "_loteId",
          "type": "string"
        }
      ],
      "name": "verificarLote",
      "outputs": [
        {
          "internalType": "bool",
          "name": "",
          "type": "bool"
        },
        {
          "internalType": "string",
          "name": "",
          "type": "string"
        }
      ],
      "stateMutability": "view",
      "type": "function"
    }
  ],
  "bytecode": "0x60806040523480156200001157600080fd5b50336000806101000a81548173ffffffffffffffffffffffffffffffffffffffff021916908373ffffffffffffffffffffffffffffffffffffffff160217905550600060018190555060006002819055503373ffffffffffffffffffffffffffffffffffffffff167f3b6c43f816c7f2729fe5330256755d7829518217eb7e48a596afaecd1fb8f90642604051620000aa919062000134565b60405180910390a262000166565b600082825260208201905092915050565b7f76312e3000000000000000000000000000000000000000000000000000000000600082015250565b600062000101600483620000b8565b91506200010e82620000c9565b602082019050919050565b6000819050919050565b6200012e8162000119565b82525050565b600060408201905081810360008301526200014f81620000f2565b905062000160602083018462000123565b92915050565b613cff80620001766000396000f3fe608060405234801561001057600080fd5b50600436106101165760003560e01c8063654cee9f116100a25780638da5cb5b116100715780638da5cb5b14610310578063948618701461032e578063a5ab059e1461035e578063b118d04e14610392578063e71a8124146103b257610116565b8063654cee9f14610277578063731d18b6146102935780637775dca3146102c457806384eb2d5c146102f457610116565b806332d463b1116100e957806332d463b1146101c95780633855a373146102035780633d2718b5146102215780634ed3ee071461025157806363a599a41461026d57610116565b80631947f1e31461011b5780631faf57851461014b5780632cc73f5e1461017b57806331227e1f14610199575b600080fd5b610135600480360381019061013091906129ea565b6103ec565b6040516101429190612ac0565b60405180910390f35b61016560048036038101906101609190612adb565b610905565b6040516101729190612ac0565b60405180910390f35b61018361093b565b6040516101909190612b3d565b60405180910390f35b6101b360048036038101906101ae9190612b58565b610941565b6040516101c09190612cc6565b60405180910390f35b6101e360048036038101906101de9190612adb565b610a59565b6040516101fa9b9a99989796959493929190612d41565b60405180910390f35b61020b610e46565b6040516102189190612b3d565b60405180910390f35b61023b60048036038101906102369190612e42565b610e4c565b6040516102489190612e82565b60405180910390f35b61026b60048036038101906102669190612adb565b610f05565b005b61027561103d565b005b610291600480360381019061028c9190612adb565b61111b565b005b6102ad60048036038101906102a89190612adb565b611253565b6040516102bb929190612ea4565b60405180910390f35b6102de60048036038101906102d99190612adb565b611842565b6040516102eb9190613031565b60405180910390f35b61030e60048036038101906103099190612b58565b611b06565b005b610318611c46565b6040516103259190613053565b60405180910390f35b6103486004803603810190610343919061306e565b611c6a565b6040516103559190612ac0565b60405180910390f35b610378600480360381019061037391906131b8565b61210d565b604051610389959493929190613214565b60405180910390f35b61039a6122c6565b6040516103a993929190613275565b60405180910390f35b6103cc60048036038101906103c79190612adb565b6122dd565b6040516103e39b9a99989796959493929190612d41565b60405180910390f35b6000846006816040516103ff91906132e8565b908152602001604051809103902060009054906101000a900460ff1661045a576040517f08c379a00000000000000000000000000000000000000000000000000000000081526004016104519061334b565b60405180910390fd5b853373ffffffffffffffffffffffffffffffffffffffff1660038260405161048291906132e8565b908152602001604051809103902060080160009054906101000a900473ffffffffffffffffffffffffffffffffffffffff1673ffffffffffffffffffffffffffffffffffffffff161461050a576040517f08c379a0000000000000000000000000000000000000000000000000000000008152600401610501906133b7565b60405180910390fd5b600073ffffffffffffffffffffffffffffffffffffffff168673ffffffffffffffffffffffffffffffffffffffff1603610579576040517f08c379a000000000000000000000000000000000000000000000000000000000815260040161057090613423565b60405180910390fd5b3373ffffffffffffffffffffffffffffffffffffffff168673ffffffffffffffffffffffffffffffffffffffff16036105e7576040517f08c379a00000000000000000000000000000000000000000000000000000000081526004016105de9061348f565b60405180910390fd5b6003876040516105f791906132e8565b9081526020016040518091039020600a0160009054906101000a900460ff16610655576040517f08c379a000000000000000000000000000000000000000000000000000000000815260040161064c906134fb565b60405180910390fd5b600060038860405161066791906132e8565b908152602001604051809103902060080160009054906101000a900473ffffffffffffffffffffffffffffffffffffffff169050866003896040516106ac91906132e8565b908152602001604051809103902060080160006101000a81548173ffffffffffffffffffffffffffffffffffffffff021916908373ffffffffffffffffffffffffffffffffffffffff16021790555060006040518060a001604052808373ffffffffffffffffffffffffffffffffffffffff1681526020018973ffffffffffffffffffffffffffffffffffffffff16815260200142815260200188815260200187815250905060048960405161076291906132e8565b908152602001604051809103902081908060018154018082558091505060019003906000526020600020906005020160009091909190915060008201518160000160006101000a81548173ffffffffffffffffffffffffffffffffffffffff021916908373ffffffffffffffffffffffffffffffffffffffff16021790555060208201518160010160006101000a81548173ffffffffffffffffffffffffffffffffffffffff021916908373ffffffffffffffffffffffffffffffffffffffff1602179055506040820151816002015560608201518160030190816108479190613727565b50608082015181600401908161085d9190613727565b5050506002600081548092919061087390613828565b91905055508773ffffffffffffffffffffffffffffffffffffffff168273ffffffffffffffffffffffffffffffffffffffff168a6040516108b491906132e8565b60405180910390207fd33ea0002dfedc25db0f9f698af224a8ec8617c502b4db917c208a652d573e6d8a426040516108ed929190613870565b60405180910390a46001945050505050949350505050565b6006818051602081018201805184825260208301602085012081835280955050505050506000915054906101000a900460ff1681565b60025481565b6060600560008373ffffffffffffffffffffffffffffffffffffffff1673ffffffffffffffffffffffffffffffffffffffff168152602001908152602001600020805480602002602001604051908101604052809291908181526020016000905b82821015610a4e5783829060005260206000200180546109c19061354a565b80601f01602080910402602001604051908101604052809291908181526020018280546109ed9061354a565b8015610a3a5780601f10610a0f57610100808354040283529160200191610a3a565b820191906000526020600020905b815481529060010190602001808311610a1d57829003601f168201915b5050505050815260200190600101906109a2565b505050509050919050565b600381805160208101820180518482526020830160208501208183528095505050505050600091509050806000018054610a929061354a565b80601f0160208091040260200160405190810160405280929190818152602001828054610abe9061354a565b8015610b0b5780601f10610ae057610100808354040283529160200191610b0b565b820191906000526020600020905b815481529060010190602001808311610aee57829003601f168201915b5050505050908060010160009054906101000a900473ffffffffffffffffffffffffffffffffffffffff1690806002018054610b469061354a565b80601f0160208091040260200160405190810160405280929190818152602001828054610b729061354a565b8015610bbf5780601f10610b9457610100808354040283529160200191610bbf565b820191906000526020600020905b815481529060010190602001808311610ba257829003601f168201915b505050505090806003018054610bd49061354a565b80601f0160208091040260200160405190810160405280929190818152602001828054610c009061354a565b8015610c4d5780601f10610c2257610100808354040283529160200191610c4d565b820191906000526020600020905b815481529060010190602001808311610c3057829003601f168201915b505050505090806004018054610c629061354a565b80601f0160208091040260200160405190810160405280929190818152602001828054610c8e9061354a565b8015610cdb5780601f10610cb057610100808354040283529160200191610cdb565b820191906000526020600020905b815481529060010190602001808311610cbe57829003601f168201915b505050505090806005018054610cf09061354a565b80601f0160208091040260200160405190810160405280929190818152602001828054610d1c9061354a565b8015610d695780601f10610d3e57610100808354040283529160200191610d69565b820191906000526020600020905b815481529060010190602001808311610d4c57829003601f168201915b5050505050908060060154908060070154908060080160009054906101000a900473ffffffffffffffffffffffffffffffffffffffff1690806009018054610db09061354a565b80601f0160208091040260200160405190810160405280929190818152602001828054610ddc9061354a565b8015610e295780601f10610dfe57610100808354040283529160200191610e29565b820191906000526020600020905b815481529060010190602001808311610e0c57829003601f168201915b50505050509080600a0160009054906101000a900460ff1690508b565b60015481565b60056020528160005260406000208181548110610e6857600080fd5b90600052602060002001600091509150508054610e849061354a565b80601f0160208091040260200160405190810160405280929190818152602001828054610eb09061354a565b8015610efd5780601f10610ed257610100808354040283529160200191610efd565b820191906000526020600020905b815481529060010190602001808311610ee057829003601f168201915b505050505081565b60008054906101000a900473ffffffffffffffffffffffffffffffffffffffff1673ffffffffffffffffffffffffffffffffffffffff163373ffffffffffffffffffffffffffffffffffffffff1614610f93576040517f08c379a0000000000000000000000000000000000000000000000000000000008152600401610f8a90613912565b60405180910390fd5b80600681604051610fa491906132e8565b908152602001604051809103902060009054906101000a900460ff16610fff576040517f08c379a0000000000000000000000000000000000000000000000000000000008152600401610ff69061334b565b60405180910390fd5b600160038360405161101191906132e8565b9081526020016040518091039020600a0160006101000a81548160ff0219169083151502179055505050565b60008054906101000a900473ffffffffffffffffffffffffffffffffffffffff1673ffffffffffffffffffffffffffffffffffffffff163373ffffffffffffffffffffffffffffffffffffffff16146110cb576040517f08c379a00000000000000000000000000000000000000000000000000000000081526004016110c290613912565b60405180910390fd5b3373ffffffffffffffffffffffffffffffffffffffff167f3b6c43f816c7f2729fe5330256755d7829518217eb7e48a596afaecd1fb8f90642604051611111919061397e565b60405180910390a2565b60008054906101000a900473ffffffffffffffffffffffffffffffffffffffff1673ffffffffffffffffffffffffffffffffffffffff163373ffffffffffffffffffffffffffffffffffffffff16146111a9576040517f08c379a00000000000000000000000000000000000000000000000000000000081526004016111a090613912565b60405180910390fd5b806006816040516111ba91906132e8565b908152602001604051809103902060009054906101000a900460ff16611215576040517f08c379a000000000000000000000000000000000000000000000000000000000815260040161120c9061334b565b60405180910390fd5b600060038360405161122791906132e8565b9081526020016040518091039020600a0160006101000a81548160ff0219169083151502179055505050565b600060608260068160405161126891906132e8565b908152602001604051809103902060009054906101000a900460ff166112c3576040517f08c379a00000000000000000000000000000000000000000000000000000000081526004016112ba9061334b565b60405180910390fd5b60006003856040516112d591906132e8565b9081526020016040518091039020604051806101600160405290816000820180546112ff9061354a565b80601f016020809104026020016040519081016040528092919081815260200182805461132b9061354a565b80156113785780601f1061134d57610100808354040283529160200191611378565b820191906000526020600020905b81548152906001019060200180831161135b57829003601f168201915b505050505081526020016001820160009054906101000a900473ffffffffffffffffffffffffffffffffffffffff1673ffffffffffffffffffffffffffffffffffffffff1673ffffffffffffffffffffffffffffffffffffffff1681526020016002820180546113e79061354a565b80601f01602080910402602001604051908101604052809291908181526020018280546114139061354a565b80156114605780601f1061143557610100808354040283529160200191611460565b820191906000526020600020905b81548152906001019060200180831161144357829003601f168201915b505050505081526020016003820180546114799061354a565b80601f01602080910402602001604051908101604052809291908181526020018280546114a59061354a565b80156114f25780601f106114c7576101008083540402835291602001916114f2565b820191906000526020600020905b8154815290600101906020018083116114d557829003601f168201915b5050505050815260200160048201805461150b9061354a565b80601f01602080910402602001604051908101604052809291908181526020018280546115379061354a565b80156115845780601f1061155957610100808354040283529160200191611584565b820191906000526020600020905b81548152906001019060200180831161156757829003601f168201915b5050505050815260200160058201805461159d9061354a565b80601f01602080910402602001604051908101604052809291908181526020018280546115c99061354a565b80156116165780601f106115eb57610100808354040283529160200191611616565b820191906000526020600020905b8154815290600101906020018083116115f957829003601f168201915b5050505050815260200160068201548152602001600782015481526020016008820160009054906101000a900473ffffffffffffffffffffffffffffffffffffffff1673ffffffffffffffffffffffffffffffffffffffff1673ffffffffffffffffffffffffffffffffffffffff1681526020016009820180546116999061354a565b80601f01602080910402602001604051908101604052809291908181526020018280546116c59061354a565b80156117125780601f106116e757610100808354040283529160200191611712565b820191906000526020600020905b8154815290600101906020018083116116f557829003601f168201915b50505050508152602001600a820160009054906101000a900460ff16151515158152505090508061014001516117845760006040518060400160405280601381526020017f4c6f7465206e6f20657374612061637469766f00000000000000000000000000815250935093505061183c565b600073ffffffffffffffffffffffffffffffffffffffff16816020015173ffffffffffffffffffffffffffffffffffffffff16036117fe5760006040518060400160405280601281526020017f50726f647563746f7220696e76616c69646f0000000000000000000000000000815250935093505061183c565b60016040518060400160405280601d81526020017f4c6f7465207665726966696361646f20636f7272656374616d656e746500000081525093509350505b50915091565b60608160068160405161185591906132e8565b908152602001604051809103902060009054906101000a900460ff166118b0576040517f08c379a00000000000000000000000000000000000000000000000000000000081526004016118a79061334b565b60405180910390fd5b6004836040516118c091906132e8565b9081526020016040518091039020805480602002602001604051908101604052809291908181526020016000905b82821015611afa57838290600052602060002090600502016040518060a00160405290816000820160009054906101000a900473ffffffffffffffffffffffffffffffffffffffff1673ffffffffffffffffffffffffffffffffffffffff1673ffffffffffffffffffffffffffffffffffffffff1681526020016001820160009054906101000a900473ffffffffffffffffffffffffffffffffffffffff1673ffffffffffffffffffffffffffffffffffffffff1673ffffffffffffffffffffffffffffffffffffffff168152602001600282015481526020016003820180546119d79061354a565b80601f0160208091040260200160405190810160405280929190818152602001828054611a039061354a565b8015611a505780601f10611a2557610100808354040283529160200191611a50565b820191906000526020600020905b815481529060010190602001808311611a3357829003601f168201915b50505050508152602001600482018054611a699061354a565b80601f0160208091040260200160405190810160405280929190818152602001828054611a959061354a565b8015611ae25780601f10611ab757610100808354040283529160200191611ae2565b820191906000526020600020905b815481529060010190602001808311611ac557829003601f168201915b505050505081525050815260200190600101906118ee565b50505050915050919050565b60008054906101000a900473ffffffffffffffffffffffffffffffffffffffff1673ffffffffffffffffffffffffffffffffffffffff163373ffffffffffffffffffffffffffffffffffffffff1614611b94576040517f08c379a0000000000000000000000000000000000000000000000000000000008152600401611b8b90613912565b60405180910390fd5b600073ffffffffffffffffffffffffffffffffffffffff168173ffffffffffffffffffffffffffffffffffffffff1603611c03576040517f08c379a0000000000000000000000000000000000000000000000000000000008152600401611bfa90613a1e565b60405180910390fd5b806000806101000a81548173ffffffffffffffffffffffffffffffffffffffff021916908373ffffffffffffffffffffffffffffffffffffffff16021790555050565b60008054906101000a900473ffffffffffffffffffffffffffffffffffffffff1681565b600080885111611caf576040517f08c379a0000000000000000000000000000000000000000000000000000000008152600401611ca690613a8a565b60405180910390fd5b600688604051611cbf91906132e8565b908152602001604051809103902060009054906101000a900460ff1615611d1b576040517f08c379a0000000000000000000000000000000000000000000000000000000008152600401611d1290613af6565b60405180910390fd5b6000875111611d5f576040517f08c379a0000000000000000000000000000000000000000000000000000000008152600401611d5690613b62565b60405180910390fd5b6000865111611da3576040517f08c379a0000000000000000000000000000000000000000000000000000000008152600401611d9a90613bce565b60405180910390fd5b42831115611de6576040517f08c379a0000000000000000000000000000000000000000000000000000000008152600401611ddd90613c3a565b60405180910390fd5b60006040518061016001604052808a81526020013373ffffffffffffffffffffffffffffffffffffffff1681526020018981526020018881526020018781526020018681526020018581526020014281526020013373ffffffffffffffffffffffffffffffffffffffff1681526020018481526020016001151581525090508060038a604051611e7691906132e8565b90815260200160405180910390206000820151816000019081611e999190613727565b5060208201518160010160006101000a81548173ffffffffffffffffffffffffffffffffffffffff021916908373ffffffffffffffffffffffffffffffffffffffff1602179055506040820151816002019081611ef69190613727565b506060820151816003019081611f0c9190613727565b506080820151816004019081611f229190613727565b5060a0820151816005019081611f389190613727565b5060c0820151816006015560e082015181600701556101008201518160080160006101000a81548173ffffffffffffffffffffffffffffffffffffffff021916908373ffffffffffffffffffffffffffffffffffffffff160217905550610120820151816009019081611fab9190613727565b5061014082015181600a0160006101000a81548160ff021916908315150217905550905050600160068a604051611fe291906132e8565b908152602001604051809103902060006101000a81548160ff021916908315150217905550600560003373ffffffffffffffffffffffffffffffffffffffff1673ffffffffffffffffffffffffffffffffffffffff168152602001908152602001600020899080600181540180825580915050600190039060005260206000200160009091909190915090816120789190613727565b506001600081548092919061208c90613828565b91905055503373ffffffffffffffffffffffffffffffffffffffff16896040516120b691906132e8565b60405180910390207f51eb35c1a3c78d8b95841877dbe7fc378cd1cbfa261e0fe81290b92ea5caf4548a8a8a8a426040516120f5959493929190613c5a565b60405180910390a36001915050979650505050505050565b600482805160208101820180518482526020830160208501208183528095505050505050818154811061213f57600080fd5b9060005260206000209060050201600091509150508060000160009054906101000a900473ffffffffffffffffffffffffffffffffffffffff16908060010160009054906101000a900473ffffffffffffffffffffffffffffffffffffffff16908060020154908060030180546121b59061354a565b80601f01602080910402602001604051908101604052809291908181526020018280546121e19061354a565b801561222e5780601f106122035761010080835404028352916020019161222e565b820191906000526020600020905b81548152906001019060200180831161221157829003601f168201915b5050505050908060040180546122439061354a565b80601f016020809104026020016040519081016040528092919081815260200182805461226f9061354a565b80156122bc5780601f10612291576101008083540402835291602001916122bc565b820191906000526020600020905b81548152906001019060200180831161229f57829003601f168201915b5050505050905085565b600080600060015460025442925092509250909192565b606060006060806060806000806000606060008b60068160405161230191906132e8565b908152602001604051809103902060009054906101000a900460ff1661235c576040517f08c379a00000000000000000000000000000000000000000000000000000000081526004016123539061334b565b60405180910390fd5b600060038e60405161236e91906132e8565b9081526020016040518091039020604051806101600160405290816000820180546123989061354a565b80601f01602080910402602001604051908101604052809291908181526020018280546123c49061354a565b80156124115780601f106123e657610100808354040283529160200191612411565b820191906000526020600020905b8154815290600101906020018083116123f457829003601f168201915b505050505081526020016001820160009054906101000a900473ffffffffffffffffffffffffffffffffffffffff1673ffffffffffffffffffffffffffffffffffffffff1673ffffffffffffffffffffffffffffffffffffffff1681526020016002820180546124809061354a565b80601f01602080910402602001604051908101604052809291908181526020018280546124ac9061354a565b80156124f95780601f106124ce576101008083540402835291602001916124f9565b820191906000526020600020905b8154815290600101906020018083116124dc57829003601f168201915b505050505081526020016003820180546125129061354a565b80601f016020809104026020016040519081016040528092919081815260200182805461253e9061354a565b801561258b5780601f106125605761010080835404028352916020019161258b565b820191906000526020600020905b81548152906001019060200180831161256e57829003601f168201915b505050505081526020016004820180546125a49061354a565b80601f01602080910402602001604051908101604052809291908181526020018280546125d09061354a565b801561261d5780601f106125f25761010080835404028352916020019161261d565b820191906000526020600020905b81548152906001019060200180831161260057829003601f168201915b505050505081526020016005820180546126369061354a565b80601f01602080910402602001604051908101604052809291908181526020018280546126629061354a565b80156126af5780601f10612684576101008083540402835291602001916126af565b820191906000526020600020905b81548152906001019060200180831161269257829003601f168201915b5050505050815260200160068201548152602001600782015481526020016008820160009054906101000a900473ffffffffffffffffffffffffffffffffffffffff1673ffffffffffffffffffffffffffffffffffffffff1673ffffffffffffffffffffffffffffffffffffffff1681526020016009820180546127329061354a565b80601f016020809104026020016040519081016040528092919081815260200182805461275e9061354a565b80156127ab5780601f10612780576101008083540402835291602001916127ab565b820191906000526020600020905b81548152906001019060200180831161278e57829003601f168201915b50505050508152602001600a820160009054906101000a900460ff1615151515815250509050806000015181602001518260400151836060015184608001518560a001518660c001518760e001518861010001518961012001518a61014001519c509c509c509c509c509c509c509c509c509c509c50505091939597999b90929496989a50565b6000604051905090565b600080fd5b600080fd5b600080fd5b600080fd5b6000601f19601f8301169050919050565b7f4e487b7100000000000000000000000000000000000000000000000000000000600052604160045260246000fd5b61289982612850565b810181811067ffffffffffffffff821117156128b8576128b7612861565b5b80604052505050565b60006128cb612832565b90506128d78282612890565b919050565b600067ffffffffffffffff8211156128f7576128f6612861565b5b61290082612850565b9050602081019050919050565b82818337600083830152505050565b600061292f61292a846128dc565b6128c1565b90508281526020810184848401111561294b5761294a61284b565b5b61295684828561290d565b509392505050565b600082601f83011261297357612972612846565b5b813561298384826020860161291c565b91505092915050565b600073ffffffffffffffffffffffffffffffffffffffff82169050919050565b60006129b78261298c565b9050919050565b6129c7816129ac565b81146129d257600080fd5b50565b6000813590506129e4816129be565b92915050565b60008060008060808587031215612a0457612a0361283c565b5b600085013567ffffffffffffffff811115612a2257612a21612841565b5b612a2e8782880161295e565b9450506020612a3f878288016129d5565b935050604085013567ffffffffffffffff811115612a6057612a5f612841565b5b612a6c8782880161295e565b925050606085013567ffffffffffffffff811115612a8d57612a8c612841565b5b612a998782880161295e565b91505092959194509250565b60008115159050919050565b612aba81612aa5565b82525050565b6000602082019050612ad56000830184612ab1565b92915050565b600060208284031215612af157612af061283c565b5b600082013567ffffffffffffffff811115612b0f57612b0e612841565b5b612b1b8482850161295e565b91505092915050565b6000819050919050565b612b3781612b24565b82525050565b6000602082019050612b526000830184612b2e565b92915050565b600060208284031215612b6e57612b6d61283c565b5b6000612b7c848285016129d5565b91505092915050565b600081519050919050565b600082825260208201905092915050565b6000819050602082019050919050565b600081519050919050565b600082825260208201905092915050565b60005b83811015612beb578082015181840152602081019050612bd0565b60008484015250505050565b6000612c0282612bb1565b612c0c8185612bbc565b9350612c1c818560208601612bcd565b612c2581612850565b840191505092915050565b6000612c3c8383612bf7565b905092915050565b6000602082019050919050565b6000612c5c82612b85565b612c668185612b90565b935083602082028501612c7885612ba1565b8060005b85811015612cb45784840389528151612c958582612c30565b9450612ca083612c44565b925060208a01995050600181019050612c7c565b50829750879550505050505092915050565b60006020820190508181036000830152612ce08184612c51565b905092915050565b600082825260208201905092915050565b6000612d0482612bb1565b612d0e8185612ce8565b9350612d1e818560208601612bcd565b612d2781612850565b840191505092915050565b612d3b816129ac565b82525050565b6000610160820190508181036000830152612d5c818e612cf9565b9050612d6b602083018d612d32565b8181036040830152612d7d818c612cf9565b90508181036060830152612d91818b612cf9565b90508181036080830152612da5818a612cf9565b905081810360a0830152612db98189612cf9565b9050612dc860c0830188612b2e565b612dd560e0830187612b2e565b612de3610100830186612d32565b818103610120830152612df68185612cf9565b9050612e06610140830184612ab1565b9c9b505050505050505050505050565b612e1f81612b24565b8114612e2a57600080fd5b50565b600081359050612e3c81612e16565b92915050565b60008060408385031215612e5957612e5861283c565b5b6000612e67858286016129d5565b9250506020612e7885828601612e2d565b9150509250929050565b60006020820190508181036000830152612e9c8184612cf9565b905092915050565b6000604082019050612eb96000830185612ab1565b8181036020830152612ecb8184612cf9565b90509392505050565b600081519050919050565b600082825260208201905092915050565b6000819050602082019050919050565b612f09816129ac565b82525050565b612f1881612b24565b82525050565b600060a083016000830151612f366000860182612f00565b506020830151612f496020860182612f00565b506040830151612f5c6040860182612f0f565b5060608301518482036060860152612f748282612bf7565b91505060808301518482036080860152612f8e8282612bf7565b9150508091505092915050565b6000612fa78383612f1e565b905092915050565b6000602082019050919050565b6000612fc782612ed4565b612fd18185612edf565b935083602082028501612fe385612ef0565b8060005b8581101561301f57848403895281516130008582612f9b565b945061300b83612faf565b925060208a01995050600181019050612fe7565b50829750879550505050505092915050565b6000602082019050818103600083015261304b8184612fbc565b905092915050565b60006020820190506130686000830184612d32565b92915050565b600080600080600080600060e0888a03121561308d5761308c61283c565b5b600088013567ffffffffffffffff8111156130ab576130aa612841565b5b6130b78a828b0161295e565b975050602088013567ffffffffffffffff8111156130d8576130d7612841565b5b6130e48a828b0161295e565b965050604088013567ffffffffffffffff81111561310557613104612841565b5b6131118a828b0161295e565b955050606088013567ffffffffffffffff81111561313257613131612841565b5b61313e8a828b0161295e565b945050608088013567ffffffffffffffff81111561315f5761315e612841565b5b61316b8a828b0161295e565b93505060a061317c8a828b01612e2d565b92505060c088013567ffffffffffffffff81111561319d5761319c612841565b5b6131a98a828b0161295e565b91505092959891949750929550565b600080604083850312156131cf576131ce61283c565b5b600083013567ffffffffffffffff8111156131ed576131ec612841565b5b6131f98582860161295e565b925050602061320a85828601612e2d565b9150509250929050565b600060a0820190506132296000830188612d32565b6132366020830187612d32565b6132436040830186612b2e565b81810360608301526132558185612cf9565b905081810360808301526132698184612cf9565b90509695505050505050565b600060608201905061328a6000830186612b2e565b6132976020830185612b2e565b6132a46040830184612b2e565b949350505050565b600081905092915050565b60006132c282612bb1565b6132cc81856132ac565b93506132dc818560208601612bcd565b80840191505092915050565b60006132f482846132b7565b915081905092915050565b7f4c6f7465206e6f20657869737465000000000000000000000000000000000000600082015250565b6000613335600e83612ce8565b9150613340826132ff565b602082019050919050565b6000602082019050818103600083015261336481613328565b9050919050565b7f4e6f206572657320656c206475656e6f2064652065737465206c6f7465000000600082015250565b60006133a1601d83612ce8565b91506133ac8261336b565b602082019050919050565b600060208201905081810360008301526133d081613394565b9050919050565b7f446972656363696f6e20696e76616c6964610000000000000000000000000000600082015250565b600061340d601283612ce8565b9150613418826133d7565b602082019050919050565b6000602082019050818103600083015261343c81613400565b9050919050565b7f4e6f20707565646573207472616e7366657269722061207469206d69736d6f00600082015250565b6000613479601f83612ce8565b915061348482613443565b602082019050919050565b600060208201905081810360008301526134a88161346c565b9050919050565b7f4c6f7465206e6f20657374612061637469766f00000000000000000000000000600082015250565b60006134e5601383612ce8565b91506134f0826134af565b602082019050919050565b60006020820190508181036000830152613514816134d8565b9050919050565b7f4e487b7100000000000000000000000000000000000000000000000000000000600052602260045260246000fd5b6000600282049050600182168061356257607f821691505b6020821081036135755761357461351b565b5b50919050565b60008190508160005260206000209050919050565b60006020601f8301049050919050565b600082821b905092915050565b6000600883026135dd7fffffffffffffffffffffffffffffffffffffffffffffffffffffffffffffffff826135a0565b6135e786836135a0565b95508019841693508086168417925050509392505050565b6000819050919050565b600061362461361f61361a84612b24565b6135ff565b612b24565b9050919050565b6000819050919050565b61363e83613609565b61365261364a8261362b565b8484546135ad565b825550505050565b600090565b61366761365a565b613672818484613635565b505050565b5b818110156136965761368b60008261365f565b600181019050613678565b5050565b601f8211156136db576136ac8161357b565b6136b584613590565b810160208510156136c4578190505b6136d86136d085613590565b830182613677565b50505b505050565b600082821c905092915050565b60006136fe600019846008026136e0565b1980831691505092915050565b600061371783836136ed565b9150826002028217905092915050565b61373082612bb1565b67ffffffffffffffff81111561374957613748612861565b5b613753825461354a565b61375e82828561369a565b600060209050601f831160018114613791576000841561377f578287015190505b613789858261370b565b8655506137f1565b601f19841661379f8661357b565b60005b828110156137c7578489015182556001820191506020850194506020810190506137a2565b868310156137e457848901516137e0601f8916826136ed565b8355505b6001600288020188555050505b505050505050565b7f4e487b7100000000000000000000000000000000000000000000000000000000600052601160045260246000fd5b600061383382612b24565b91507fffffffffffffffffffffffffffffffffffffffffffffffffffffffffffffffff8203613865576138646137f9565b5b600182019050919050565b6000604082019050818103600083015261388a8185612cf9565b90506138996020830184612b2e565b9392505050565b7f536f6c6f20656c206f776e657220707565646520656a6563757461722065737460008201527f612066756e63696f6e0000000000000000000000000000000000000000000000602082015250565b60006138fc602983612ce8565b9150613907826138a0565b604082019050919050565b6000602082019050818103600083015261392b816138ef565b9050919050565b7f454d455247454e43595f53544f50000000000000000000000000000000000000600082015250565b6000613968600e83612ce8565b915061397382613932565b602082019050919050565b600060408201905081810360008301526139978161395b565b90506139a66020830184612b2e565b92915050565b7f4e7565766f206f776e6572206e6f20707565646520736572206164647265737360008201527f207a65726f000000000000000000000000000000000000000000000000000000602082015250565b6000613a08602583612ce8565b9150613a13826139ac565b604082019050919050565b60006020820190508181036000830152613a37816139fb565b9050919050565b7f4944206465206c6f74652072657175657269646f000000000000000000000000600082015250565b6000613a74601483612ce8565b9150613a7f82613a3e565b602082019050919050565b60006020820190508181036000830152613aa381613a67565b9050919050565b7f4c6f746520494420796120657869737465000000000000000000000000000000600082015250565b6000613ae0601183612ce8565b9150613aeb82613aaa565b602082019050919050565b60006020820190508181036000830152613b0f81613ad3565b9050919050565b7f4e6f6d6272652064652070726f647563746f722072657175657269646f000000600082015250565b6000613b4c601d83612ce8565b9150613b5782613b16565b602082019050919050565b60006020820190508181036000830152613b7b81613b3f565b9050919050565b7f556269636163696f6e2072657175657269646100000000000000000000000000600082015250565b6000613bb8601383612ce8565b9150613bc382613b82565b602082019050919050565b60006020820190508181036000830152613be781613bab565b9050919050565b7f466563686120646520636f736563686120696e76616c69646100000000000000600082015250565b6000613c24601983612ce8565b9150613c2f82613bee565b602082019050919050565b60006020820190508181036000830152613c5381613c17565b9050919050565b600060a0820190508181036000830152613c748188612cf9565b90508181036020830152613c888187612cf9565b90508181036040830152613c9c8186612cf9565b90508181036060830152613cb08185612cf9565b9050613cbf6080830184612b2e565b969550505050505056fea2646970667358221220687f17ac4037b7e3980ace83664e19374a0463baa0a4fe09c01803f164ec2a6064736f6c63430008130033",
  "linkReferences": {},
  "deployedLinkReferences": {}
}